:020000040000FA
:1000000080311B28080008007E1480318B1D0928D0
:100010000A2819280B1C0D280E2819280D30FD0060
:10002000FC30890B1128FD0B11288331742380319A
:100030000B107E10090080311D28F93084008730B4
:1000400085003C3086000030870005308731E72787
:1000500080317330840082308500A030860000300B
:10006000870048308731E72780313C308400833077
:100070008500203086000130870038308731E7273F
:100080008031B601B701B801B901BA01BB017E10D8
:10009000200080314B288731A927803185316D259B
:1000A0008031E030860000308700A03084000130CD
:1000B000850008302000B50016001A00B50B5C283A
:1000C000D830860000308700A830840001308500D9
:1000D0000830B50016001A00B50B6A28D03086002B
:1000E00000308700B0308400013085000830B50052
:1000F00016001A00B50B7828C8308600003087003B
:10010000B8308400013085000830B50016001A00B0
:10011000B50B8628C030860000308700C0308400D0
:10012000013085000830B50016001A00B50B942880
:10013000B830860000308700C83084000130850068
:100140000830B50016001A00B50BA228A030AD008B
:100150000130AE00AF01AF0A8331A5238031A83052
:100160002000AD000130AE00AF018331A523803106
:10017000B0302000AD000130AE000230B5003508CF
:10018000AF008331A5238031B8302000AD000130AD
:10019000AE000330B5003508AF008331A5238031B0
:1001A000C0302000AD000130AE000430B50035088D
:1001B000AF008331A5238031C8302000AD0001306D
:1001C000AE000730B5003508AF008331A52380317C
:1001D0008631132680318B170130873129278031F2
:1001E000F02880311B286829AD0100308431A82413
:1001F00080315A302000AD008730AE008431802439
:1002000080312000AD01AD0A00308431A824803156
:1002100084302000AD008730AE00843180248031EE
:100220007F29AD0100308431A82480317630200050
:10023000AD008730AE008431802480312000AD01D4
:10024000AD0A00308431A8248031B3302000AD00E5
:100250008730AE008431802480317F29AD010030A9
:100260008431A824803168302000AD008730AE0092
:100270008431802480312000AD01AD0A003084310A
:10028000A824803184302000AD008730AE00843156
:10029000802480317F29AD0100308431A824803151
:1002A00076302000AD008730AE008431802480316C
:1002B0002000AD01AD0A00308431A8248031B33074
:1002C0002000AD008730AE008431802480317F294A
:1002D00020003A08B300B4013408003A0319712928
:1002E0007F293308003A0319F428013A0319112928
:1002F000033A03192E29013A03194B297F290800D3
:10030000E929F70100308531202581315A30F70085
:100310008730F800853147258131F701F70A003031
:100320008531202581318430F7008730F800853110
:1003300047258131002AF7010030853120258131A0
:100340007630F7008730F800853147258131F70195
:10035000F70A0030853120258131B330F70087302E
:10036000F800853147258131002AF70100308531B9
:10037000202581316830F7008730F8008531472526
:100380008131F701F70A0030853120258131843031
:10039000F7008730F800853147258131002AF701C1
:1003A00000308531202581317630F7008730F80024
:1003B000853147258131F701F70A00308531202545
:1003C0008131B330F7008730F8008531472581311E
:1003D000002A20003A08A000A1012108003A0319D0
:1003E000F229002A2008003A03198129013A031949
:1003F0009B29033A0319B529013A0319CF29002A89
:10040000080022008C018D018E010830210090002F
:10041000FF308C008D01FF308E00FC3023008E00F9
:100420008D018C010830240090008D013F308C003C
:100430008E012100951325008C018D018E01FF3066
:1004400026008C00FF308D00FF308E00FF3027002B
:100450008C00FF308D00FF308E00083090001310AC
:100460009310131193111312931212149214121564
:100470009215121692161114911011119115111254
:100480009112FA302000A6000F30A7008731F32721
:100490008231FB302000A6000F30A7008731ED2706
:1004A000823102302000A6000030A7008731D72714
:1004B000823103302000A6000030A7008731CE270C
:1004C0008231FF302000A6000730A7008731C52702
:1004D0008231FE302000A6000730A7008731BC27FC
:1004E00082318B15080000340A341D341D341D344C
:1004F0000E340434003400340A341D3419341934F1
:100500000A340434003400340A34153411341134FC
:100510000A340434003400341F341F341F341F34B1
:100520000E34043400340E34023407341F340734DC
:1005300002340E340034003400340A341F341F34C3
:100540000E3404340034003400340E341F340E34BE
:1005500000340034003400340A34113415341534B6
:1005600011340A3400340E3408341C341F341C3463
:1005700008340E34003421006E086F040319C12AB8
:10058000C22AC72A6F088A006E080A00823120003A
:100590003B080319CC2ACD2AEB2AFB2AB9010030EB
:1005A00087313A278231013087314A278231023040
:1005B0002000A2002208BA0086318D268231FB2A53
:1005C000B901B90A003087313A27823101308731C9
:1005D0004A278231D72A3A08A200A3012308003A09
:1005E0000319F32AFB2A2208003A0319CE2A013AFA
:1005F0000319E02AFB2A27001311080021006808CC
:1006000069040319042B052B0A2B69088A00680862
:100610000A00833120003B0803190F2B102B292BD4
:10062000392BB801013087313A27823100308731C8
:100630004A2782318431D0248231392BB801B80A5B
:10064000013087313A278231003087314A278231A1
:100650001A2B3A08A400A5012508003A0319312BEA
:10066000392B2408023A0319112B013A03191E2BC6
:10067000392B27009312080000341F341134113431
:100680001F340E340434003400341F341134113458
:1006900011340A340434003400341F34113411345A
:1006A0001F340E340434003400341F341134113438
:1006B00011340A340434003400340A341D341D3437
:1006C0001D340E340434003400340A341D3419341B
:1006D00019340A340434003400340A341534113423
:1006E00011340A34043400342700131C782B792B7E
:1006F0007C2B8431552483312700931C802B812B44
:10070000842B8331D32383312700131D882B892B1E
:100710008C2B8231BB2283312700931D902B912B90
:10072000942B84312A2483312700131E982B992B74
:100730009C2B8331FF2383312700931EA02BA12BF9
:10074000A42B8231FE228331080020002F08B00044
:100750000230B035FF3E031DA92B3035403E8531B8
:10076000902583312000B101B201200031082D070E
:10077000860032082E3D870001088531B32583317C
:1007800001302000B1070030B23D3208803AB0009D
:1007900080303002031DCE2B08303102031CD12BD8
:1007A000D22BB52B08002000410842040319D92B95
:1007B000DA2BDF2B42088A0041080A00833120002F
:1007C0003B080319E42BE52BEC2BFC2BBA01BA0AEE
:1007D00086318D268331FC2B3A08A200A301230821
:1007E000003A0319F42BFC2B2208003A0319E62BDC
:1007F000013A0319FC2BFC2B270093100800210061
:100800006A086B040319052C062C0B2C6B088A0054
:100810006A080A00843120003B080319102C112CAF
:100820001A2C272C0330A2002208BA0086318D260C
:100830008331272C3A08A200A3012308003A0319A8
:10084000222C272C2208023A0319122C272C2700CD
:100850001312080021006C086D040319302C312C90
:10086000362C6D088A006C080A00843120003B0891
:1008700003193B2C3C2C452C522C0230A2002208A0
:10088000BA0086318D268431522C3A08A200A30189
:100890002308003A03194D2C522C2208033A03195D
:1008A0003D2C522C270093110800200043084404DB
:1008B00003195B2C5C2C612C44088A0043080A0055
:1008C000843120003B080319662C672C6D2C7D2C8D
:1008D000BA0186318D2684317D2C3A08A200A3010D
:1008E0002308003A0319752C7D2C2208003A0319BD
:1008F0007D2C013A0319682C7D2C27001310080069
:100900002000B201972C2E08B0002D08AF0032084D
:100910002F07840030080318300A8500000885314D
:10092000B325843101302000AF002F08B2072E0814
:10093000B0002D08AF0032082F07840030080318DC
:10094000300A85001200031DA62CA72C832C08005A
:100950002000B00002302D020318AF2CB02CCF2C99
:1009600010303002031CB52CB62CB72CCF2C2D0325
:100970000319BB2CBC2CC22C80303004AE000030DC
:10098000AF00C72CC0303004AE000030AF002E08DE
:10099000853190258431D030890BCC2C00000800A3
:1009A0008631FE2684318431F8248431F701200019
:1009B00040088531202584319230F7008730F800D7
:1009C00085314725843102302000A3004530A20044
:1009D000A930890BE92CA20BE92CA30BE92C0032DE
:1009E0002000BA01BB01BB0A86318D268431080084
:1009F0008631E4268431F7010030853120258431A9
:100A0000200039088631AB26843120003803031DCD
:100A10000A2D0B2D152DF7010F308531202584313E
:100A200004308631AB2684311F2DF7010F3085311C
:100A300020258431200038088631AB268431080017
:100A4000FA00023077020318262D272D462D10308C
:100A50007A02031C2C2D2D2D2E2D462D77030319E4
:100A6000322D332D392D80307A04F8000030F90012
:100A70003E2DC0307A04F8000030F9007808863145
:100A800032268531D030890B432D00000800FC014F
:100A90005C2D7808FA007708F9007C087907840053
:100AA0007A0803187A0A850000088631AB2685315A
:100AB0000130F9007908FC077808FA007708F90096
:100AC0007C08790784007A0803187A0A85001200E6
:100AD000031D6B2D6C2D492D080020008D01210078
:100AE0008D0120008D1703302000AD006E30890B82
:100AF000772DAD0B772D323085319025853128301B
:100B00008531902585310C30853190258531013036
:100B10008531902585310630853190258531080055
:100B20002000AC00D030890B932D00002000A601DE
:100B30002C088531D325853120002C08AA000330EC
:100B4000AA35FF3E031DA02D2A35AB002B08AC00B3
:100B50002930890BA92D00322000A6012C088531EF
:100B6000D325853108002000AC00D030890BB62D8C
:100B700000002000A601A60A2C088531D325853166
:100B800020002C08AA000330AA35FF3E031DC42D07
:100B90002A35AB002B08AC00A601A60A2C0885312B
:100BA000D325853108002000A9002908A7000430BA
:100BB000A736890BD82D2708A8002808A9002908DE
:100BC0000F39A7002708A9000D08F0398D000D087E
:100BD00029048D00260C031C8D1203188D160D138D
:100BE0000D160D120800F3007308F1000430F13601
:100BF000890BF72D7108F2007208F30073080F39A2
:100C0000F1007108F30020000D08F0398D000D0887
:100C100073048D00700C031C8D1203188D160D13B8
:100C20000D160D12080020003B080319182E192E6E
:100C30002B2E8631512686312000AD0140088431AB
:100C4000A82486319E302000AD008730AE0084316C
:100C500080248631312E86316F2686318031F32013
:100C600086310800F600D030890B342E0000F001E8
:100C700076088531F32586317608F4000330F435A3
:100C8000FF3E031D3F2E7435F5007508F600293030
:100C9000890B482E0032F00176088531F325863124
:100CA00008002000AD0140088431A82486311D30A1
:100CB0002000AD008730AE008431802486312000D2
:100CC000AD01AD0A40088431A82486311D302000D2
:100CD000AD008730AE0084318024863108002000CA
:100CE000AD0100308431A824863118302000AD00D9
:100CF0008730AE008431802486312000AD01AD0AFA
:100D000000308431A824863118302000AD008730AF
:100D1000AE00843180248631080020003B0803198E
:100D2000922E932EA42E8631C8268631F7012000FC
:100D300040088531202586319E30F7008730F80045
:100D4000853147258631AA2E8631FE2686318131AE
:100D5000802186310800F600D030890BAD2E0000CE
:100D6000F001F00A76088531F32586317608F40023
:100D70000330F435FF3E031DB92E7435F5007508B8
:100D8000F600F001F00A76088531F3258631080077
:100D9000F701200040088531202586311D30F700FD
:100DA0008730F800853147258631F701F70A2000A2
:100DB00040088531202586311D30F7008730F80046
:100DC0008531472586310800F7010030853120251F
:100DD00086311830F7008730F80085314725863195
:100DE000F701F70A00308531202586311830F700E9
:100DF0008730F8008531472586310800F70100303B
:100E00008531202586311830F7008730F80085318C
:100E100047258631F701F70A0030853120258631D4
:100E20001830F7008730F8008531472586310800F3
:100E30002034203420342034203420342034203412
:100E40002034203420342034203420342034203402
:100E500000342000A6002603031D2F2F302F352F2E
:100E60002700921112129212392F2700121092109D
:100E700012110800F0007003031D3F2F402F452F73
:100E80002700921112129212492F2700121092106D
:100E900012110800F0007003031D4F2F502F552F23
:100EA0002700921512169216592F27001214921429
:100EB00012150800533465346C346534633474346B
:100EC000203473346834693470342334313400345A
:100ED000533465346C34653463347434203473347F
:100EE000683469347034233432340034203420348C
:100EF0005434693465342034463469346734683492
:100F000074346534723400343E34203454346934DB
:100F10006534203446346934673468347434653455
:100F20007234003453347434613472347434203481
:100F300046346934673468347434003420342034DF
:100F400020344D3465346E347534203420342034EC
:100F500000348231012287318731E02787318F3198
:100F6000FC27873108003E3420345834203477344D
:100F700069346E3467340034200027082100E9000A
:100F8000200026082100E800080020002708210092
:100F9000EB00200026082100EA00080020002708B6
:100FA0002100ED00200026082100EC0008002000B0
:100FB00027082100EF00200026082100EE0008008D
:100FC0003A30210099009801220096010800FE00A5
:100FD00012001E00FE0BE82F003420002708C2007C
:100FE0002608C100080020002708C4002608C30006
:100FF00008000434043404340434033408000800C2
:0C1FF400080008001630210097000800CB
:020000040001F9
:04000E00E43FFF1FAD
:00000001FF
