:020000040000FA
:0400000080311B2808
:100008007E1480318B1D09280A2819280B1C0D28FD
:100018000E2819280D30FD00FC30890B1128FD0B26
:1000280011288131C02180310B107E1009008031E8
:100038001D28A430840084308500343086000030C8
:1000480087001230853184258031E930840084307E
:100058008500C03086000030870010308531842547
:100068008031D201D301D4017E10200080313C2898
:1000780085316A2580318331142380313C308600F4
:1000880000308700A0308400003085000830200050
:10009800B30016001A00B30B4D2834308600003028
:1000A8008700A8308400003085000830B3001600AF
:1000B8001A00B30B5B28C830860000308700B030C8
:1000C8008400003085000830B30016001A00B30B16
:1000D8006928C030860000308700B83084000030BE
:1000E80085000830B30016001A00B30B7728AB015F
:1000F800AB0AA0308131F12180312000AB01A8305A
:100108008131F121803102302000B3003308AB0087
:10011800B0308131F121803103302000B300330841
:10012800AB00B8308131F12180318331BA2380317D
:100138008B1700308431D824803152302000B3002E
:100148002930890BA528B30BA5280032003084314B
:10015800C724803152302000B3002930890BB228DF
:10016800B30BB22800329D2880311B2822008C0155
:100178008D018E01083021009000FF308C008D0128
:10018800FF308E00FC3023008E008D018C0108307A
:10019800240090008D013F308C008E0121009513C2
:1001A80025008C018D018E01FF3026008C00FF3068
:1001B8008D00FF308E00FF3027008C00FF308D004F
:1001C800FF308E0008309000131093101311931114
:1001D80013129312121492141215921512169216E3
:1001E800111491101111911511129112B7302000AC
:1001F800A4000530A5008531A8258031B63020003F
:10020800A4000530A5008531A2258031B530200035
:10021800A4000530A50085319C258031B43020002C
:10022800A4000530A500853196258031B330200023
:10023800A4000530A500853190258031B23020001A
:10024800A4000530A50085318A2580318B1508006A
:100258006729AB01003082319F228131353020007F
:10026800AB008530AC008231772281312000AB01B0
:10027800AB0A003082319F22813151302000AB001F
:100288008530AC008231772281317829AB0100308A
:1002980082319F22813143302000AB008530AC0091
:1002A8008231772281312000AB01AB0A00308231E4
:1002B8009F22813174302000AB008530AC00823140
:1002C80077228131782920004508B100B20132082F
:1002D800003A0319702978293108003A03192D29A1
:1002E800013A03194A2978290800AE29F701003094
:1002F8008231C72281313530F7008530F8008231EC
:10030800EE228131F701F70A00308231C7228131AC
:100318005130F7008530F8008231EE228131BF2953
:10032800F70100308231C72281314330F700853030
:10033800F8008231EE228131F701F70A003082316C
:10034800C72281317430F7008530F8008231EE22FF
:100358008131BF2920004508A000A1012108003AE9
:100368000319B729BF292008003A03197A29013A45
:1003780003199429BF2908002700131CC429C5297B
:10038800C82982314C2281312700931CCC29CD29E0
:10039800D0298231202281312700131DD429D52963
:1003A800D8298531262581312700931DDC29DD29AF
:1003B800E0298531172581312700131EE429E52915
:1003C800E8298531082581312700931EEC29ED297C
:1003D800F0298431F924813108002000AD002B0870
:1003E800AC000230AC35FF3E031DF6292C35403EEB
:1003F8008331372381312000AE01AF0120002E0860
:100408002D07AC002C0886008701010883315A2388
:10041800813101302000AE070030AF3D2F08803A0F
:10042800AC0080302C02031D1B2A08302E02031C4E
:100438001E2A1F2A022A080020004E084F0403190A
:10044800262A272A2C2A4F088A004E080A008231B9
:10045800200054080319312A322A392A492AC501A9
:10046800C50A843134248231492A4508A200A301EF
:100478002308003A0319412A492A2208003A031995
:10048800332A013A0319492A492A270093100800F8
:100498002000500851040319522A532A582A510897
:1004A8008A0050080A0082312000540803195D2A86
:1004B8005E2A642A742AC501843134248231742A5C
:1004C8004508A200A3012308003A03196C2A742ADC
:1004D8002208003A0319742A013A03195F2A742A78
:1004E8002700131008002000B0018E2A2C08AE0047
:1004F8002B08AD0030082D0784002E0803182E0A9B
:100508008500000883315A23823101302000AD0074
:100518002D08B0072C08AE002B08AD0030082D07B9
:1005280084002E0803182E0A85001200031D9D2A38
:100538009E2A7A2A08002000AE0002302B020318F7
:10054800A62AA72AC62A10302E02031CAC2AAD2AD6
:10055800AE2AC62A2B030319B22AB32AB92A803035
:100568002E04AC000030AD00BE2AC0302E04AC0012
:100578000030AD002C08833137238231D030890B0D
:10058800C32A00000800FA00023077020318CD2AB7
:10059800CE2AED2A10307A02031CD32AD42AD52A6F
:1005A800ED2A77030319D92ADA2AE02A80307A0457
:1005B800F8000030F900E52AC0307A04F80000306D
:1005C800F90078088331D9238231D030890BEA2A9F
:1005D80000000800FC01032B7808FA007708F900EE
:1005E8007C08790784007A0803187A0A85000008CD
:1005F8008431512482310130F9007908FC077808E8
:10060800FA007708F9007C08790784007A0803184B
:100618007A0A85001200031D122B132BF02A0800FA
:1006280020008D0121008D0120008D17033020004E
:10063800AB006E30890B1E2BAB0B1E2B3230833177
:100648003723833128308331372383310C3083318A
:1006580037238331013083313723833106308331A7
:100668003723833108002000AA00D030890B3A2BA9
:1006780000002000A4012A0883317A238331200056
:100688002A08A8000330A835FF3E031D472B28354C
:10069800A9002908AA002930890B502B0032200014
:1006A800A4012A0883317A23833108002000AA0094
:1006B800D030890B5D2B00002000A401A40A2A0871
:1006C80083317A23833120002A08A8000330A83513
:1006D800FF3E031D6B2B2835A9002908AA00A40199
:1006E800A40A2A0883317A23833108002000A7004E
:1006F8002708A5000430A536890B7F2B2508A600FE
:100708002608A70027080F39A5002508A7000D0807
:10071800F0398D000D0827048D00240C031C8D1260
:1007280003188D160D130D160D120800F30073082B
:10073800F1000430F136890B9E2B7108F200720823
:10074800F30073080F39F1007108F30020000D0859
:10075800F0398D000D0873048D00700C031C8D1288
:1007680003188D160D130D160D12080020005408DD
:100778000319BF2BC02BD22B8331F82383312000E0
:10078800AB01003082319F2283315F302000AB0003
:100798008530AC00823177228331D82B84311624FE
:1007A800833181312C2183310800F600D030890B48
:1007B800DB2B0000F001760883319A238331760819
:1007C800F4000330F435FF3E031DE62B7435F500C5
:1007D8007508F6002930890BEF2B0032F0017608F6
:1007E80083319A23833108002000AB014408823109
:1007F8009F228331BC302000AB008430AC008231B2
:10080800772283312000AB01AB0A440882319F2252
:100818008331BC302000AB008430AC0082317722B9
:10082800833108002000AB01003082319F228431DF
:10083800B6302000AB008430AC008231772284319E
:100848002000AB01AB0A003082319F228431B630E0
:100858002000AB008430AC0082317722843108005C
:10086800200054080319392C3A2C4A2C84316E2460
:100878008431F70100308231C72284315F30F700BC
:100888008530F8008231EE228431502C84318A245C
:1008980084318131792184310800F600D030890B08
:1008A800532C0000F001F00A760883319A23843132
:1008B8007608F4000330F435FF3E031D5F2C7435D1
:1008C800F5007508F600F001F00A760883319A23DE
:1008D80084310800F701200044088231C72284319E
:1008E800BC30F7008430F8008231EE228431F70101
:1008F800F70A200044088231C7228431BC30F7004F
:100908008430F8008231EE2284310800F70100308B
:100918008231C7228431B630F7008430F800823142
:10092800EE228431F701F70A00308231C722843180
:10093800B630F7008430F8008231EE2284310800A6
:1009480000340A3411341534153411340A3400349F
:10095800183410341F341F341F3410341834003442
:10096800033401342034203420342034203420341B
:1009780020342034203420342034203420342034CF
:100988002034203400342000A4002403031DCD2C7F
:10099800CE2CD32C2700921512169216D72C27008E
:1009A80012149214121508002000A4002403031D39
:1009B800DE2CDF2CE42C2700921112129212E82C64
:1009C80027001210921012110800003400340A3463
:1009D8001F341F340E3404340034003400340E3411
:1009E8001F340E3400340034003420004608470415
:1009F8000319FF2C002D052D47088A0046080A0018
:100A0800853127009312080020004808490403197B
:100A18000E2D0F2D142D49088A0048080A0085312B
:100A280027001312080020004A084B0403191D2D43
:100A38001E2D232D4B088A004A080A0085312700FD
:100A48009311080020004C084D0403192C2D2D2D5E
:100A5800322D4D088A004C080A00853127001311F1
:100A68000800533465346C3465346334743420348A
:100A780073346834693470342334313400342034A6
:100A88002034543469346534203446346934673446
:100A9800683474346534723400343E342034543449
:100AA80069346534203446346934673468347434BE
:100AB8006534723400342034203420344D346534A5
:100AC8006E34753420342034203400348031BA2018
:100AD800853185317D2585318531AE258531080003
:100AE8003E34203458342034773469346E346734D3
:100AF80000343A302100990098012200960108003C
:100B0800FE0012001E00FE0B852D00342000250873
:100B1800C7002408C600080020002508C9002408CA
:100B2800C800080020002508CB002408CA000800D7
:100B380020002508CD002408CC0008002000250846
:100B4800CF002408CE00080020002508D100240882
:100B5800D00008001630210097000800080008009F
:080B6800080008000800080065
:020000040001F9
:04000E00E43FFF1FAD
:00000001FF
