:020000040000FA
:1000000080312928080008007E1480318B1E0928C1
:100010000A2812280B1D0D280E281228AF3193270D
:10002000803127288B1D1528162827280B1C1928F6
:100030001A2827280D302100B400FB30890B1E2818
:10004000B40B1E280032A331B82380310B107E1070
:10005000090080312B28AB308400AE308500CC30D5
:100060008600003087000A30AE3167268031B53017
:100070008400AE3085005C308600013087000B3094
:10008000AE31672680316D308400AE308500D230CD
:100090008600013087000830AE31672680313E305F
:1000A0008400A63085002030860002308700503062
:1000B000AE316726803112308400A5308500A03033
:1000C0008600023087004830AE316726803121003B
:1000D000D601D701D801D901DA014E3084000130B0
:1000E00085000E30AE3161268031C330840001308E
:1000F00085000F30AE3161268031503084000330EE
:1001000085002030AE31612680317E102000903194
:100110002528200029088039AE002E08B300293593
:10012000AE002E08B500A81F9628972898283514E9
:10013000350803199C289D28AC28350A031DA128E1
:10014000A228AA280030A9000030A8000030A7008B
:100150000030A600A817B4280030A9000030A8007D
:100160000030A7000030A6002D088039AE002E0810
:10017000B3062D35AE002E08B400AC1FC028C12830
:10018000C228341434080319C628C728D628340ACC
:10019000031DCB28CC28D4280030AD000030AC00A3
:1001A0000030AB000030AA00AC17DE280030AD00F4
:1001B0000030AC000030AB000030AA003408031956
:1001C000E228E328E8283508031DE728E828F12875
:1001D0000030A9000030A8000030A7000030A600C1
:1001E000DF2A2608AE002E08F0002C08A031E020FF
:1001F000803171082000BF007008BE003E08AE00CC
:10020000AF01B001B1013108B9003008B8002F08C2
:10021000B7002E08B6003F08AE00AF01B001B10133
:100220003108BD003008BC002F08BB002E08BA0002
:100230002708AE002E08F0002B08A031E020803106
:1002400071082000BF007008BE003E08AE00AF017C
:10025000B001B1012E08B6072F08B73D3008B83DF0
:100260003108B93D3F08AE00AF01B001B1012E0821
:10027000BA072F08BB3D3008BC3D3108BD3D2808FA
:10028000AE002E08F0002A08A031E020803171086D
:100290002000BF007008BE003E08AE00AF01B001F4
:1002A000B1012E08B6072F08B73D3008B83D310818
:1002B000B93D3F08AE00AF01B001B1012E08BA0749
:1002C0002F08BB3D3008BC3D3108BD3D0830B63578
:1002D000B70DB80DB90D890B67292708AE002E0898
:1002E000F0002A08A031E020803171082000BF0012
:1002F0007008BE003E08B6073F08B73D0030B83D65
:10030000B93D2608AE002E08F0002B08A031E020F1
:10031000803171082000BF007008BE003E08B6079B
:100320003F08B73D0030B83DB93D0830B635B70D90
:10033000B80DB90D890B96292608AE002E08F000DD
:100340002A08A031E020803171082000BF00700829
:10035000BE003E08B6073F08B73D0030B83DB93D86
:100360002708AE002E08F0002C08A031E0208031D4
:1003700071082000BF007008BE003E08BA073F08A1
:10038000BB3D0030BC3DBD3D2808AE002E08F0004E
:100390002B08A031E020803171082000BF007008D8
:1003A000BE003E08BA073F08BB3D0030BC3DBD3D26
:1003B0002808AE002E08F0002C08A031E020803183
:1003C00071082000BF007008BE003E08AE003F0864
:1003D000AF00B001B1010830AE35AF0DB00DB10DB9
:1003E000890BEC292E08BA072F08BB3D3008BC3D0D
:1003F0003108BD3D3608AE003708AF003808B00000
:100400003908B1001830B136B00CAF0CAE0C890B06
:10041000032A2E08BA072F08BB3D3008BC3D31081F
:10042000BD3D0830B635B70DB80DB90D890B122A90
:1004300035083407AE00AF01AF0D2E08823EBE0076
:10044000FF302F3DBF003B2A0130BA35BB0DBC0D3C
:10045000BD0D890B252AB91F2E2A2F2A302A3A14BE
:100460000130B635B70DB80DB90D890B312AFF3003
:10047000BE07FF30BF3DBC1F3E2A3F2A242AB401DD
:10048000B91F432A442A602AFF303605AE00FF30E8
:100490003705AF00FF303805B0007F303905B100B7
:1004A000310830042F042E040319572A582A5B2AD6
:1004B000B401B40A602A3A1C5E2A5F2A602A582ACC
:1004C00034080319642A652A8D2A0130BA070030DE
:1004D000BB3D0030BC3D0030BD3D3D1C702A712A43
:1004E0008D2A3A08AE003B08AF003C08B0003D083A
:1004F000B1000130B200B137B00CAF0CAE0CB20B92
:100500007B2A3108BD003008BC002F08BB002E0834
:10051000BA000130BE070030BF3D3F08803AAE0050
:1005200080302E02031D962AFF303E02031C992ABA
:100530009A2AA42A7F302000BD008030BC00003001
:10054000BB000030BA00D32A20003F08803AAE003A
:1005500080302E02031DAE2A01303E020318B12A5C
:10056000B22ABD2A00302000BD000030BC0000309F
:10057000BB000030BA00B301D32A20003E08AE0011
:100580002E08B500FF30BA05FF30BB057F30BC0533
:100590000030BD05351CCD2ACE2ACF2ABC173536F2
:1005A000AE002E08BD003308AE002E08BD043D0885
:1005B000A9003C08A8003B08A7003A08A6000800CC
:1005C000730880392000A0002008F8007335A000CF
:1005D0002008FA00F21FED2AEE2AEF2A7A147A0890
:1005E0000319F32AF42A042B7A0A031DF82AF92A9C
:1005F000012B0030F3000030F2000030F100003039
:10060000F000F217F3010C2B0030F3000030F20081
:100610000030F1000030F00077088039A000200899
:10062000F900790878060319162B172B182B781761
:100630007735A0002008F900F61F1F2B202B212B57
:10064000791479080319252B262B362B790A031DDB
:100650002A2B2B2B332B0030F7000030F600003014
:10066000F5000030F400F617F7013E2B0030F700DC
:100670000030F6000030F5000030F4007A0879020E
:100680000318432B442B882B781F472B482B4C2BCC
:100690008030A0002008F8067A08A0002008FB009F
:1006A0007908A0002008FA007B08A0002008F900C3
:1006B0007008A0002008FB007408A0002008F000CB
:1006C0007B08A0002008F4007108A0002008FB00AF
:1006D0007508A0002008F1007B08A0002008F500A4
:1006E0007208A0002008FB007608A0002008F20095
:1006F0007B08A0002008F6007308A0002008FB007B
:100700007708A0002008F3007B08A0002008F7006D
:10071000FB017908A000A1012108A3007A082002AA
:10072000A200031CA3032308803AA4008030240203
:10073000031D9C2B1A302202031C9F2BA02BDA2BAB
:100740007308720471047004031DA72BA92B0130D8
:10075000AA2B00302000A0002008FB000030F3008E
:100760000030F2000030F1000030F0007908A00005
:100770002008FA00E02B7B1CBE2BBF2BC62B7B3640
:1007800001382000A0002008FB00C82B0310FB0C40
:10079000701CCB2BCC2BCD2BFB1701302000A000E5
:1007A000F337F20CF10CF00CA00BD02B0130A000B1
:1007B0002008FA0779087A02031CDF2BE02BBB2BF9
:1007C000781BE32BE42B1E2C7A08031DE82BE92B66
:1007D000F22B0030F3000030F2000030F100003066
:1007E000F0001E2D7408F0077508F13D7608F23D03
:1007F0007708F33D731CFD2BFE2BAB2C7B1C012CCF
:10080000022C092C7B3601382000A0002008FB00B8
:100810000B2C0310FB0C701C0E2C0F2C102CFB1738
:1008200001302000A000F337F20CF10CF00CA00B0B
:10083000132C0130A0002008FA07AB2C7308803A73
:100840002000A0007708803A2002031D312C760892
:100850007202031D312C75087102031D312C7408BE
:1008600070020318342C352C6D2CFF30A000FF30A3
:10087000A100FF30A200FF30A30070087402A400A2
:100880007108753BA5007208763BA6007308773B9C
:10089000A7002408A0072508A13D2608A23D270897
:1008A000A33D2308F3002208F2002108F1002008EC
:1008B000F0008030A0002008F806FB09FB0A7B0846
:1008C000031D632C642C752C0130F0070030F13DC2
:1008D0000030F23D0030F33D752C7408F0027508CD
:1008E000F13B7608F23B7708F33B7308720471041E
:1008F0007004031D7C2C7D2CA72C7B08031D812CF0
:10090000822CA72C0030F3000030F2000030F10000
:100910000030F0001E2D0130F035F10DF20DF30D19
:10092000890B8C2CFB1F952C962C972C70147B1C00
:100930009A2C9B2C9E2C0314FB0DA02C0310FB0D5A
:100940007A080319A42CA52CA72C0130FA02F21F57
:10095000AA2CAB2C8B2CF901FB1FAF2CB02CBE2C7E
:100960007B087F390319B52CB62CB92CF901F90A8B
:10097000BE2C701CBC2CBD2CBE2CB62C79080319C7
:10098000C22CC32CF12C0130F0070030F13D0030B7
:10099000F23D0030F33D731CCE2CCF2CF12C7008AF
:1009A0002000A0007108A1007208A2007308A30033
:1009B0000130A400A337A20CA10CA00CA40BDA2CCC
:1009C0002308F3002208F2002108F1002008F000BB
:1009D0007A0A0319EC2CED2CF12C0130A000200830
:1009E000FA077A0A0319F52CF62CFB2C7A08031D5A
:1009F000FA2CFB2C092D0030F3000030F2000030FF
:100A0000F1000030F0007A08031D072D082D092D94
:100A1000F8017A1C0C2D0D2D0F2DF217142D7F309F
:100A20002000A0002008F2057A362000A00020084F
:100A3000F300F81F1C2D1D2D1E2DF317080021009B
:100A40005A080319242D252DEF2EA031C020853101
:100A5000CB2E2100BC0122006608A2310B22853179
:100A60009D302100BC00B030BD00A2313322853161
:100A70002100BC01BC0A22006608A2310B2285318C
:100A8000EF302100BC00B030BD00A23133228531EF
:100A9000F52E2100BC0122006608A2310B2285310F
:100AA000E7302100BC00B030BD00A23133228531D7
:100AB0002100BC01BC0A22006608A2310B2285314C
:100AC00070302300B300B030B4002100530823007D
:100AD000B600210052082300B500C330A3312E23F5
:100AE0008531C3302100BC000130BD00A23133226A
:100AF0008531F52E2100BC0122006608A2310B22AF
:100B0000853164302300B300B030B40021005308B5
:100B10002300B600210052082300B500C330A331E2
:100B20002E238531C3302100BC000130BD00A2312D
:100B3000332285312100BC01BC0A22006608A231A3
:100B40000B228531DF302300B300B030B400220027
:100B500065082300B600220064082300B500C330F6
:100B6000A3312E238531C3302100BC000130BD00EC
:100B7000A23133228531F52E2100BC012200660806
:100B8000A2310B228531D7302300B300B030B4003E
:100B9000220065082300B600220064082300B50087
:100BA000C330A3312E238531C3302100BC00013076
:100BB000BD00A231332285312100BC01BC0A2200D4
:100BC0006608A2310B22853188302300B300B03093
:100BD000B400220063082300B6002200620823004C
:100BE000B500C330A3312E238531C3302100BC00B2
:100BF0000130BD00A23133228531F52E2100BC0128
:100C000022006608A2310B228531B1302100BC00E0
:100C1000B030BD00A231332285312100BC01BC0AB5
:100C200022006608A2310B228531EF302100BC0082
:100C3000B030BD00A23133228531F52E2100BC0138
:100C400022006608A2310B228531E7302100BC006A
:100C5000B030BD00A231332285312100BC01BC0A75
:100C600022006608A2310B22853170302300B300C8
:100C7000B030B400220061082300B60022006008F2
:100C80002300B500C330A3312E238531712D2100FF
:100C9000BC0122006608A2310B228531643023009A
:100CA000B300B030B400220061082300B600220077
:100CB00060082300B500C330A3312E238531C33033
:100CC0002100BC000130BD00A2313322853121005A
:100CD000BC01BC0A22006608A2310B228531DF303C
:100CE0002300B300B030B40022005F082300B60038
:100CF00022005E082300B500C330A3312E238531C6
:100D0000C3302100BC000130BD00A2313322853147
:100D1000F52E2100BC0122006608A2310B2285318C
:100D2000D7302300B300B030B40022005F082300A6
:100D3000B60022005E082300B500C330A3312E2385
:100D40008531C3302100BC000130BD00A231332207
:100D500085312100BC01BC0A22006608A2310B22A9
:100D6000853188302300B300B030B40022005D0824
:100D70002300B60022005C082300B500C330A33175
:100D80002E238531C3302100BC000130BD00A231CB
:100D900033228531F52E210059082300C000C101FE
:100DA0004108003A0319D52EF52E4008003A0319E0
:100DB000292D013A0319492D033A03197A2D013AD5
:100DC0000319BC2D073A0319FE2D013A03191E2EF3
:100DD000033A0319472E013A0319892EF52EA03143
:100DE000242085319A31BA2285310800F201203061
:100DF000860000308700473FF000F01F002F012FD2
:100E0000222F2000A009A109A209A309A409A5096C
:100E1000A609A709A00A031D202FA10A031D202F40
:100E2000A20A031D202FA30A031D202FA40A031DBD
:100E3000202FA50A031D202FA60A031D202FA70A75
:100E4000F201F20A2830860000308700473FF000A8
:100E5000F01F2B2F2C2F4F2F2000A809A909AA091A
:100E6000AB09AC09AD09AE09AF09A80A031D4B2FA8
:100E7000A90A031D4B2FAA0A031D4B2FAB0A031D02
:100E80004B2FAC0A031D4B2FAD0A031D4B2FAE0A8F
:100E9000031D4B2FAF0A0130F0007008F2067330CB
:100EA0008600003087000830F00000301E00F00B94
:100EB000562F2000200821042204230424042504A2
:100EC000260427040319652F662FC22FF101F10AAA
:100ED000752FA035A10DA20DA30DA40DA50DA60D76
:100EE000A70D0130F0007008F107A71F782F792FA8
:100EF000692FF335F40DF50DF60DF70DF80DF90D1D
:100F0000FA0D27082F02031D9F2F26082E02031D0E
:100F10009F2F25082D02031D9F2F24082C02031D3F
:100F20009F2F23082B02031D9F2F22082A02031D37
:100F30009F2F21082902031D9F2F20082802031C30
:100F4000A22FA32FB42F2008A8022108A93B220812
:100F5000AA3B2308AB3B2408AC3B2508AD3B260845
:100F6000AE3B2708AF3B7314A736A60CA50CA40C08
:100F7000A30CA20CA10CA00C0130F102031DC12F87
:100F8000C22F792F72080319C62FC72FE52FF30937
:100F9000F409F509F609F709F809F909FA09F30A54
:100FA000031DE52FF40A031DE52FF50A031DE52FA8
:100FB000F60A031DE52FF70A031DE52FF80A031DA6
:100FC000E52FF90A031DE52FFA0A73082000A00097
:100FD0007408A1007508A2007608A3007708A40091
:100FE0007808A5007908A6007A08A7000800210063
:100FF00036082300DB00210035082300DA00080052
:10100000F0007003031D052806280B282700921105
:10101000121292120F2827001210921012110800BB
:101020002300AD0022004808860001308700403FC1
:101030002300A000413FA100200884002108850072
:101040001200253A031D25282628F02822004808EA
:101050008600013087000130810741310318810A81
:10106000D401D5012100D601D701FF302200D600DE
:10107000FF30D7004808860001308700403F23003A
:10108000A000413FA1002008840021088500120033
:10109000643A03194C284D2861282200480886002C
:1010A00001308700403F2300A000413FA1002008FD
:1010B0008400210885001200693A031D6028612818
:1010C000B1282200480886000130870001308107DE
:1010D00041310318810A4908860001308700010860
:1010E00084000130850002308107003F2300A0000A
:1010F000013FA1002008A5002108A600890D893B19
:101100008909A700A800A900AA00AB00AC00250827
:101110002200AA00230026082200AB002300270893
:101120002200AC00230028082200AD00230029087B
:101130002200AE0023002A082200AF0023002B0863
:101140002200B00023002C082200B10023002D084B
:1011500089311D21883122002B08C9002A08C800C6
:101160001C2922004808860001308700403F2300E8
:10117000A000413FA1002008840021088500120042
:10118000253A031DC428C528E32822004808860004
:10119000013087000130810741310318810A253071
:1011A0002100B5000030B60023002D08A000200863
:1011B0002100B700A631E526883101302200C800A1
:1011C0000030C9001C292200480886000130870031
:1011D0000130810741310318810AC801C9011C2966
:1011E00022004808860001308700403F2300A0000D
:1011F000413FA10020088400210885000008A200CA
:10120000A30122082100B500230023082100B60015
:1012100023002D08A40024082100B700A631E526EC
:10122000883122004808860001308700013081079C
:1012300041310318810ADD2808002200B5002A0880
:10124000BE002B08BF002C08C0002D08C1002E08CE
:10125000C2002F08C3003008C4003108C5003E306A
:10126000860001308700473FB200B21B38293A2977
:1012700001303B2900302200B300B4013308BC0028
:101280003408BD003C083D04031947294829662954
:10129000BE09BF09C009C109C209C309C409C509FA
:1012A000BE0A031D6629BF0A031D6629C00A031D65
:1012B0006629C10A031D6629C20A031D6629C30ADD
:1012C000031D6629C40A031D6629C50A2200D71B0F
:1012D0006A296B297029FD302100D605FF30D7051A
:1012E00022005708803AB20080303202031D7A296A
:1012F0000130560203187D297E29842901302200FD
:10130000B8000030B900892922005708B9005608F2
:10131000B8005508BB005408BA003C083D04031D42
:101320009229932998292100561D972998299D29AA
:10133000FF302200BA07FF30BB3D1F302200C6003D
:101340000030C7002600EF01402AFF302200C60708
:10135000FF30C73D0A302100B500B601B701B80122
:10136000B901BA01BB01BC0122003E082100BD0049
:1013700022003F082100BE00220040082100BF00DB
:10138000220041082100C000220042082100C100C3
:10139000220043082100C200220044082100C300AB
:1013A000220045082100C4009F3113278931210004
:1013B0003608C9003508C800AF31E427893121005B
:1013C0004808303E2200B2004608503E86000330F6
:1013D000870032088100FF30B807FF30B93DFF3089
:1013E000BA07FF30BB3D0A302100B500B601B70196
:1013F000B801B901BA01BB01BC0122003E082100BD
:10140000BD0022003F082100BE002200400821004C
:10141000BF00220041082100C00022004208210034
:10142000C100220043082100C2002200440821001C
:10143000C300220045082100C4009231BB2289313B
:10144000210035082200BE00210036082200BF001E
:10145000210037082200C000210038082200C10006
:10146000210039082200C20021003A082200C300EE
:1014700021003B082200C40021003C082200C500D6
:1014800022004708803AB20080303202031D4A2A07
:1014900001304602031C4D2A4E2A7B2A22003E08B8
:1014A0003F04400441044204430444044504031D32
:1014B0005A2A5B2AA5293908803AB20080303202C4
:1014C000031D642A013038020318672A682AA529F7
:1014D00022003B08803AB20080303202031D722A9B
:1014E00001303A02031C752A762A7B2A2100D6187D
:1014F0007A2A7B2AA52922003C083D04031D812A63
:10150000822A872A2100561D862A872AA42AFF308C
:101510002200C607FF30C73D3C083D04031D912A49
:10152000922A972A2B30B6000030B7009B2A2D3024
:10153000B6000030B7003608B2004608503E8600BC
:10154000033087003208810022004608503EB20076
:1015500032082100C50022003B082100C7002200FC
:101560003A082100C60022003508A73198278931A2
:10157000210046082200AB00210045082200AA00F5
:10158000080020004B088039CC004C08D5004B35B2
:10159000CC004C08DC00CA1FCE2ACF2AD02A5C140B
:1015A0005C080319D42AD52AE52A5C0A031DD92A26
:1015B000DA2AE22A0030CB000030CA000030C9002D
:1015C0000030C800CA17CB01ED2A0030CB00003034
:1015D000CA000030C9000030C80047088039CC007C
:1015E0004C08D5064735CC004C08DD00C61FF92A4B
:1015F000FA2AFB2A5D145D080319FF2A002B102B21
:101600005D0A031D042B052B0D2B0030C700003095
:10161000C6000030C5000030C400C617C701182B33
:101620000030C7000030C6000030C5000030C400E4
:101630004708460445044404031D1F2B202B392B67
:101640000030CB000030CA000030C9000030C800B4
:101650008030CA047F30CB045508CC004C08CB0442
:101660004B08C7004A08C6004908C5004808C4001E
:10167000742C5C08031D3D2B3E2B472B0030C7000C
:101680000030C6000030C5000030C400742C5C0877
:10169000CC00CD014D08CF005D084C02CE00031CEC
:1016A000CF034E087F3ED60000304F3DD7004B0899
:1016B000D4004A08D3004908D2004808D1000030BD
:1016C000CB000030CA000030C9000030C800003034
:1016D000DB000030DA000030D9000030D800DD0136
:1016E000AF2B5D080319752B762B902B0130D1356C
:1016F000D20DD30DD40D890B772B0130C835C90D10
:10170000CA0DCB0D890B7E2BDB1F872B882B892BDA
:1017100048140130D835D90DDA0DDB0D890B8A2B31
:1017200047085402031D9E2B46085302031D9E2B9F
:1017300045085202031D9E2B44085102031CA12B95
:10174000A22BAB2B5B174408D1024508D23B4608BD
:10175000D33B4708D43B0130CC004C08DD071A309E
:101760005D02031CB42BB52B712B54085304520497
:1017700051040319BC2BBD2BD62B5814D62B01308A
:10178000C835C90DCA0DCB0D890BC02BDB1FC92B6A
:10179000CA2BCB2B48140130D835D90DDA0DDB0D0F
:1017A000890BCC2BFF30D607FF30D73DCA1FD92B72
:1017B000DA2BBF2BDD01DB1FDE2BDF2BFB2BFF30FA
:1017C0005805CC00FF305905CD00FF305A05CE003A
:1017D0007F305B05CF004F084E044D044C040319C5
:1017E000F22BF32BF62BDD01DD0AFB2B481CF92B2A
:1017F000FA2BFB2BF32B5D080319FF2B002C282C55
:101800000130C8070030C93D0030CA3D0030CB3D33
:101810004B1C0B2C0C2C282C4808CC004908CD0064
:101820004A08CE004B08CF000130D000CF37CE0C95
:10183000CD0CCC0CD00B162C4F08CB004E08CA0098
:101840004D08C9004C08C8000130D6070030D73D0C
:101850005708803ACC0080304C02031D312CFF30F9
:101860005602031C342C352C422CFF302000D600AD
:101870000030D7000030CB000030CA000030C90073
:101880000030C80020005708803ACC0080304C025D
:10189000031D4C2C0130560203184F2C502C5C2C8D
:1018A0002000D601D7010030CB000030CA00003044
:1018B000C9000030C800D50120005608CC004C08F3
:1018C000DC005C1C642C652C672CCA176B2C7F30E9
:1018D000CC004C08CA055C36CC004C08CB0055083F
:1018E000CC004C08CB04302B080021005A08031907
:1018F0007A2C7B2C252EAF31C8278C31022EF70194
:1019000022006608A13195218C319D30F700B0305E
:10191000F800A13149218C31F701F70A220066084D
:10192000A13195218C31EF30F700B030F800A131B2
:1019300049218C312B2EF70122006608A131952117
:101940008C31E730F700B030F800A13149218C31FB
:10195000F701F70A22006608A13195218C31703019
:101960002000EA00B030EB00210053082000ED0019
:10197000210052082000EC00C330A231D7228C3164
:10198000C330F7000130F800A13149218C312B2EF2
:10199000F70122006608A13195218C3164302000C6
:1019A000EA00B030EB00210053082000ED002100D8
:1019B00052082000EC00C330A231D7228C31C33052
:1019C000F7000130F800A13149218C31F701F70A05
:1019D00022006608A13195218C31DF302000EA0019
:1019E000B030EB00220065082000ED002200640802
:1019F0002000EC00C330A231D7228C31C330F70075
:101A00000130F800A13149218C312B2EF701220041
:101A10006608A13195218C31D7302000EA00B03022
:101A2000EB00220065082000ED0022006408200081
:101A3000EC00C330A231D7228C31C330F700013023
:101A4000F800A13149218C31F701F70A220066081C
:101A5000A13195218C3188302000EA00B030EB00B4
:101A6000220063082000ED00220062082000EC0044
:101A7000C330A231D7228C31C330F7000130F800D7
:101A8000A13149218C312B2EF70122006608A131AA
:101A900095218C31B130F700B030F800A1314921E7
:101AA0008C31F701F70A22006608A13195218C31AB
:101AB000EF30F700B030F800A13149218C312B2EE6
:101AC000F70122006608A13195218C31E730F7003B
:101AD000B030F800A13149218C31F701F70A22001A
:101AE0006608A13195218C3170302000EA00B030B9
:101AF000EB00220061082000ED00220060082000B9
:101B0000EC00C330A231D7228C31C02CF701220067
:101B10006608A13195218C3164302000EA00B03094
:101B2000EB00220061082000ED0022006008200088
:101B3000EC00C330A231D7228C31C330F700013022
:101B4000F800A13149218C31F701F70A220066081B
:101B5000A13195218C31DF302000EA00B030EB005C
:101B600022005F082000ED0022005E082000EC004B
:101B7000C330A231D7228C31C330F7000130F800D6
:101B8000A13149218C312B2EF70122006608A131A9
:101B900095218C31D7302000EA00B030EB002200D4
:101BA0005F082000ED0022005E082000EC00C3303A
:101BB000A231D7228C31C330F7000130F800A131B7
:101BC00049218C31F701F70A22006608A1319521DD
:101BD0008C3188302000EA00B030EB0022005D0834
:101BE0002000ED0022005C082000EC00C330A23190
:101BF000D7228C31C330F7000130F800A1314921E0
:101C00008C312B2E21005908AA00AB012B08003A79
:101C100003190B2E2B2E2A08003A03197F2C013AA8
:101C200003199B2C033A0319C82C013A0319062DFA
:101C3000073A0319442D013A0319602D033A031999
:101C4000862D013A0319C42D2B2EAF312B278C3151
:101C5000993128218C310800FF2EF701F70A003056
:101C6000A13195218E310F30F700B030F800A1314D
:101C700049218E31E82FF701F70A0030A131952173
:101C80008E310F30F700B030F800A13149218E318C
:101C9000403086000230870020308400003085000C
:101CA0000830FD0016001A00FD0B522E2030F70000
:101CB0000030F8000330FD007D08F900A231AD22AC
:101CC0008E31F701F70A0030A13195218E310330B2
:101CD000A03107208E31E82FF701F70A0030A1313B
:101CE00095218E310F30F700B030F800A131492135
:101CF0008E31383086000230870028308400003072
:101D000085000830FD0016001A00FD0B832E2830D8
:101D1000F7000030F8000330FD007D08F900A23123
:101D2000AD228E31F701F70A0030A13195218E31B5
:101D30000330A03107208E31E82FF701F70A003079
:101D4000A13195218E310F30F700B030F800A1316C
:101D500049218E31303086000230870030308400D7
:101D6000003085000830FD0016001A00FD0BB42E6F
:101D70003030F7000030F8000330FD007D08F90036
:101D8000A231AD228E31F701F70A0030A131952141
:101D90008E310330A03107208E31E82FF701F70A8A
:101DA0000030A13195218E310F30F700B030F800AE
:101DB000A13149218E312830860002308700383029
:101DC0008400003085000830FD0016001A00FD0B6D
:101DD000E52E3830F7000030F8000330FD007D08B4
:101DE000F900A231AD228E31F701F70A0030A1319E
:101DF00095218E310330A03107208E31E82F21004C
:101E00005108003A0319052FE82F5008003A03192A
:101E10002D2E013A03193B2E033A03196C2E013A79
:101E200003199D2E073A0319CE2EE82FF701F70A62
:101E30000F30A13195218E310F30F700B030F8000E
:101E4000A13149218E31FF2FF701F70A0F30A1315F
:101E500095218E310F30F700B030F800A1314921C3
:101E60008E31203086000230870040308400003000
:101E700085000830FD0016001A00FD0B3B2F403096
:101E8000F7000030F8000530FD007D08F900A231B0
:101E9000AD228E31F701F70A0F30A13195218E3135
:101EA0000530A03107208E31FF2FF701F70A0F30E0
:101EB000A13195218E310F30F700B030F800A131FB
:101EC00049218E31E030860002308700483084009E
:101ED000003085000830FD0016001A00FD0B6C2F45
:101EE0004830F7000030F8000530FD007D08F900AB
:101EF000A231AD228E31F701F70A0F30A1319521C1
:101F00008E310530A03107208E31FF2FF701F70AFF
:101F10000F30A13195218E310F30F700B030F8002D
:101F2000A13149218E31D8308600023087005030EF
:101F30008400003085000830FD0016001A00FD0BFB
:101F40009D2F5030F7000030F8000530FD007D086F
:101F5000F900A231AD228E31F701F70A0F30A1311D
:101F600095218E310530A03107208E31FF2FF701EA
:101F7000F70A0F30A13195218E310F30F700B030C4
:101F8000F800A13149218E31D0308600023087001F
:101F900058308400003085000830FD0016001A001B
:101FA000FD0BCE2F5830F7000030F8000530FD0053
:101FB0007D08F900A231AD228E31F701F70A0F300A
:101FC000A13195218E310530A03107208E31FF2FB0
:101FD00021005508003A0319EE2FFF2F5408003A4C
:101FE0000319162F013A0319242F033A0319552F09
:101FF000013A0319862F073A0319B72FFF2F08005C
:102000002100B8003808B6000430B636890B052820
:102010003608B7003708B80038080F39B600360858
:10202000B80020000D08F0398D000D08210038049B
:1020300020008D002100350C2000031C8D12031898
:102040008D160D130D160D120800AE31CC269031F1
:10205000A13126219031D230860001308700203016
:1020600084000330850008302300C20016001A00E7
:10207000C20B362868308600023087002830840082
:10208000033085000830C20016001A00C20B442835
:1020900060308600023087003030840003308500D5
:1020A0000830C20016001A00C20B522858308600B1
:1020B0000230870038308400033085000830C200C9
:1020C00016001A00C20B60285030860002308700CC
:1020D00040308400033085000830C20016001A002A
:1020E000C20B6E28483086000230870048308400DA
:1020F000033085000830C20016001A00C20B7C288D
:1021000020302100BC000330BD00BE01BE0AA33157
:102110005A23903128302100BC000330BD00BE019D
:10212000A3315A23903130302100BC000330BD0070
:1021300002302300C20042082100BE00A3315A230E
:10214000903138302100BC000330BD000330230043
:10215000C20042082100BE00A3315A239031403012
:102160002100BC000330BD0004302300C20042083F
:102170002100BE00A3315A23903148302100BC0019
:102180000330BD0007302300C20042082100BE001A
:10219000A3315A239031A3318823903185311F25F3
:1021A00090318B170130AE31E9269031D62880313D
:1021B0002928220069086A040319DF28E028E52895
:1021C0006A088A0069080A00903121005A08031938
:1021D000EA28EB28B4297D29AF31C82790312000A7
:1021E000E20100309C31912490312100B10031088E
:1021F0002000EF006F08031DFE28FF280A29AE31DA
:10220000FA26903100309B31472390318C31752470
:102210009031C429210054085504031D10291129A7
:1022200018290030AC00AD009931AA219031C429A1
:1022300000309B3147239031062952085304031D77
:10224000222923294F29AF31C82790312000E201EC
:1022500001309C31912490312100B10031082000DF
:10226000EF006F08031D352936293E29AE31FA26C5
:10227000903100309B3147239031062921005408CA
:102280005504031D44294529462911290430D2004B
:102290000030D30000309B31472390310629A13113
:1022A0006F2190310629220064086504031D592915
:1022B0005A294F290030A4314F2490310330220095
:1022C000E4000030E50000309B31472390310629BF
:1022D000220062086304031D6E296F294F29003014
:1022E00098310520903103302200E2000030E300F5
:1022F00000309B314723903106295908B100B201C3
:102300003208003A03198529C4293108003A031913
:10231000EC28013A03191D29033A03195329013AFC
:1023200003196829C4292200DB0102302100B10011
:102330003108D90000308831002090310130AE31B1
:10234000D926903106292200DB01DB0A0230210068
:10235000B1003108D90000308831002090310130BF
:10236000AE31D926903106295908B100B2013208A0
:10237000003A0319BC29C4293108003A03199329EA
:10238000013A0319A329C4292700131108002000CA
:102390005108860052088700403FD500413FD600D3
:1023A00055088400560885001200253A031DD929D6
:1023B000DA29952A510886005208870001308107E2
:1023C00041310318810A2200D401D5012100D60130
:1023D000D701FF302200D600FF30D700200051087F
:1023E000860052088700403FD500413FD60055087F
:1023F0008400560885001200643A0319002A012A55
:10240000132A5108860052088700403FD500413FFB
:10241000D60055088400560885001200693A031D4D
:10242000122A132A5D2A51088600520887000130BB
:10243000810741310318810A530886005408870038
:102440000108D5000230810741310108D600003073
:102450000318810A81075508860056088700403F07
:10246000D700413FD8005708D9005808DA00890D35
:10247000893B8909DB00DC00DD00DE00DF00E000D5
:102480005008B1004F08B0005908B2005A08B30014
:102490005B08B4005C08B5005D08B6005E08B700D4
:1024A0005F08B8006008B90096318C269131200091
:1024B0003108D0003008CF00BA2A510886005208EF
:1024C0008700403FD500413FD6005508840056089C
:1024D00085001200253A031D6E2A6F2A892A5108A9
:1024E0008600520887000130810741310318810AB4
:1024F0002530F0000030F1005008F3004F08F200E2
:10250000A7313D27913101302000CF000030D000AD
:10251000BA2A5108860052088700013081074131EC
:102520000318810ACF01D001BA2A51088600520847
:102530008700403FD500413FD6005508840056082B
:1025400085000008D700D8015708F0005808F100AE
:102550005008F3004F08F200A7313D2791312000C9
:102560005108860052088700013081074131031865
:10257000810A832A08002200A101B53086000030BC
:102580008700473F2100C500C51FC72AC82AEA2A7D
:102590002100B509B609B709B809B909BA09BB09D3
:1025A000BC09B50A031DE72AB60A031DE72AB70AC4
:1025B000031DE72AB80A031DE72AB90A031DE72A03
:1025C000BA0A031DE72ABB0A031DE72ABC0A220038
:1025D000A101A10ABD30860000308700473F2100DD
:1025E000C500C51FF42AF52A1A2B2100BD09BE0912
:1025F000BF09C009C109C209C309C409BD0A031D35
:10260000142BBE0A031D142BBF0A031D142BC00A72
:10261000031D142BC10A031D142BC20A031D142B06
:10262000C30A031D142BC40A01302100C50045084C
:102630002200A106223086000130870008302100E8
:10264000C50000301E00C50B222B350836043704A8
:10265000380439043A043B043C040319302B312B71
:10266000952B2200A001A00A422BB535B60DB70D5F
:10267000B80DB90DBA0DBB0DBC0D0130C500450834
:102680002200A0072100BC1F462B472B352B220020
:10269000A235A30DA40DA50DA60DA70DA80DA90D7E
:1026A00021003C084402031D6F2B3B084302031D1D
:1026B0006F2B3A084202031D6F2B39084102031D9C
:1026C0006F2B38084002031D6F2B37083F02031D94
:1026D0006F2B36083E02031D6F2B35083D02031C8D
:1026E000722B732B852B3508BD023608BE3B37088D
:1026F000BF3B3808C03B3908C13B3A08C23B3B08E6
:10270000C33B3C08C43B220022142100BC36BB0C56
:10271000BA0CB90CB80CB70CB60CB50C01302200D1
:10272000A002031D942B952B472B2200210803198F
:102730009A2B9B2BB92BA209A309A409A509A609C9
:10274000A709A809A909A20A031DB92BA30A031DF9
:10275000B92BA40A031DB92BA50A031DB92BA60A80
:10276000031DB92BA70A031DB92BA80A031DB92BFA
:10277000A90A220022082100B50022002308210016
:10278000B600220024082100B700220025082100FD
:10279000B800220026082100B900220027082100E5
:1027A000BA00220028082100BB00220029082100CD
:1027B000BC0008000C302100A4000030A50001304E
:1027C000AB000030AC000030B0000030AF00003093
:1027D000AE000030AD00220051082100AA00220006
:1027E00050082100A90022004F082100A800220063
:1027F0004E082100A700C52C2A08F3002908F20082
:102800002808F1002708F0003008F7002F08F6002C
:102810002E08F5002D08F4008231E0229331730870
:102820002100B0007208AF007108AE007008AD0062
:102830002B08023EAB0000302C3DAC0022005108BA
:102840002000AD00220050082000AC0022004F08FC
:102850002000AB0022004E082000AA0022005108F0
:102860002000A900220050082000A80022004F08E4
:102870002000A70022004E082000A60080318920F9
:10288000933120002908C3002808C2002708C1008E
:102890002608C000AE31C026933120004308CB008B
:1028A0004208CA004108C9004008C80021002C089D
:1028B000F3002B08F2002B08FF3EF000FF302C3D08
:1028C000F100A0316120933170082000DE00710812
:1028D000DF00E001E1016108F9006008F8005F082D
:1028E000F7005E08F60000309B31E423933179084D
:1028F0002000C7007808C6007708C5007608C40025
:102900008A31C1229331200047082100A300200012
:1029100046082100A200200045082100A100200057
:1029200044082100A00023082000A900210022085B
:102930002000A800210021082000A7002100200875
:102940002000A60021002A082000AD00210029084F
:102950002000AC00210028082000AB00210027083F
:102960002000AA008031892093312000290821000D
:10297000AA00200028082100A90020002708210023
:10298000A800200026082100A70025082C02031D0E
:10299000CB2C24082B02031CCE2CCF2CFC2B300874
:1029A0002000A90021002F082000A80021002E08E7
:1029B0002000A70021002D082000A60021003008DB
:1029C0002000AD0021002F082000AC0021002E08BF
:1029D0002000AB0021002D082000AA0080318920B2
:1029E0009331200029082100B00020002808210090
:1029F000AF00200027082100AE002000260821009B
:102A0000AD003E30F3001930F2009930F1009A30F9
:102A1000F0003008F7002F08F6002E08F5002D080A
:102A2000F4009A31302293310318172D182D1C2DE4
:102A30002100A601A60A1E2D2100A60126080800D5
:102A4000C22DF701F70A0130A131952195310F30E0
:102A5000F700B030F800A13149219531772EF70108
:102A6000F70A0130A131952195310F30F700B030D0
:102A7000F800A13149219531C83086000230870025
:102A800020308400003085000830FD0016001A0058
:102A9000FD0B462D2030F7000030F8000630FD0019
:102AA0007D08F900A231AD229531F701F70A013016
:102AB000A131952195310630A03107209531772E2F
:102AC000F701F70A0130A131952195310F30F70058
:102AD000B030F800A13149219531C0308600023074
:102AE000870028308400003085000830FD00160083
:102AF0001A00FD0B772D2830F7000030F800063063
:102B0000FD007D08F900A231AD229531F701F70AE9
:102B10000130A131952195310630A0310720953142
:102B2000772EF701F70A0130A131952195310F3049
:102B3000F700B030F800A13149219531B830860056
:102B40000230870030308400003085000830FD00FE
:102B500016001A00FD0BA82D3030F7000030F800E9
:102B60000630FD007D08F900A231AD229531F70154
:102B7000F70A0130A131952195310630A0310720A7
:102B80009531772E21004F08003A0319C82D772E72
:102B90004E08003A0319212D013A03192F2D033A4B
:102BA0000319602D013A0319912D772EF701F70AC9
:102BB0000E30A131952195310F30F700B030F8007B
:102BC000A131492195318B2EF701F70A0E30A13141
:102BD000952195310F30F700B030F800A13149212F
:102BE0009531B030860002308700383084000030E4
:102BF00085000830FD0016001A00FD0BFB2D383053
:102C0000F7000030F8000730FD007D08F900A23120
:102C1000AD229531F701F70A0E30A131952195319A
:102C20000730A031072095318B2EF701F70A0E30BF
:102C3000A131952195310F30F700B030F800A13166
:102C400049219531A8308600023087004030840049
:102C5000003085000830FD0016001A00FD0B2C2EF8
:102C60004030F7000030F8000730FD007D08F90023
:102C7000A231AD229531F701F70A0E30A13195212D
:102C800095310730A031072095318B2EF701F70AD7
:102C90000E30A131952195310F30F700B030F8009A
:102CA000A13149219531A03086000230870048309B
:102CB0008400003085000830FD0016001A00FD0B6E
:102CC0005D2E4830F7000030F8000730FD007D0829
:102CD000F900A231AD229531F701F70A0E30A1318A
:102CE000952195310730A031072095318B2E210099
:102CF0004D08003A03197D2E8B2E4C08003A03191B
:102D0000D62D013A0319E42D033A0319152E013A81
:102D10000319462E8B2E080020003208C500330808
:102D2000C6003408C7003508C8003608C90037088F
:102D3000CA003808CB003908CC0045308600003086
:102D40008700473FBA00BA1BA62EA82E0130A92E35
:102D500000302000BB00BC013B08C3003C08C4009D
:102D6000430844040319B52EB62ED42EC509C6094E
:102D7000C709C809C909CA09CB09CC09C50A031D75
:102D8000D42EC60A031DD42EC70A031DD42EC80A8A
:102D9000031DD42EC90A031DD42ECA0A031DD42E26
:102DA000CB0A031DD42ECC0A2200D71BD82ED92E35
:102DB000DE2EFD302100D605FF30D7052200570852
:102DC000803A2000BA0080303A02031DEA2E01301A
:102DD000220056020318ED2EEE2EF42E01302000B4
:102DE000BF000030C000FC2E220057082000C000A9
:102DF000220056082000BF00220055082000C20013
:102E0000220054082000C10043084404031D092F78
:102E10000A2F0F2F2100561D0E2F0F2F142FFF30BA
:102E20002000C107FF30C23D1F302000CD00003020
:102E3000CE002600EF01852FFF302000CD07FF30A8
:102E4000CE3D0A30A000A101A201A301A401A50169
:102E5000A601A7014508A8004608A9004708AA003E
:102E60004808AB004908AC004A08AD004B08AE006A
:102E70004C08AF009E312926963120002108F4002D
:102E80002008F300AF31452796317308303E20000B
:102E9000BA004D08503E8600033087003A08810092
:102EA000FF30BF07FF30C03DFF30C107FF30C23DDC
:102EB0000A30A000A101A201A301A401A501A6015D
:102EC000A7014508A8004608A9004708AA00480825
:102ED000AB004908AC004A08AD004B08AE004C08F6
:102EE000AF008631F626963120002008C500210863
:102EF000C6002208C7002308C8002408C900250806
:102F0000CA002608CB002708CC0020004E08803AD3
:102F1000BA0080303A02031D8F2F01304D02031C8E
:102F2000922F932FC02F20004508460447044804E1
:102F300049044A044B044C04031D9F2FA02F1C2F4F
:102F40004008803ABA0080303A02031DA92F0130B0
:102F50003F020318AC2FAD2F1C2F20004208803AEF
:102F6000BA0080303A02031DB72F01304102031C22
:102F7000BA2FBB2FC02F2100D618BF2FC02F1C2F58
:102F8000200043084404031DC62FC72FCC2F210067
:102F9000561DCB2FCC2FE92FFF302000CD07FF305F
:102FA000CE3D43084404031DD62FD72FDC2F2B30F2
:102FB000BD000030BE00E02F2D30BD000030BE004F
:102FC0003D08BA004D08503E8600033087003A089D
:102FD000810020003108A5003008A4004D08503EB3
:102FE000BA003A08A6004208A8004108A700A63186
:102FF0008E26963120002508B1002408B000080074
:10300000080016302100970008002000D100510868
:10301000031D0B280C28242821004F08803A20008B
:10302000D00080305002031D1828043021004E02C9
:1030300003181B281C283B2821004E08013ECE0007
:1030400000304F3DCF003B2821004D08803A200042
:10305000D00080305002031D3028043021004C0283
:103060000318332834283B2821004C08013ECC00AB
:1030700000304D3DCD0095312025983108002200CB
:103080008C018D018E01083021009000FF308C00F2
:103090008D01FF308E00FC3023008E008D018C01ED
:1030A0000830240090008D013F308C008E012100FB
:1030B000951325008C018D018E01FF3026008C00B8
:1030C000FF308D00FF308E00FF3027008C00FF3076
:1030D0008D00FF308E0008309000131093101311F4
:1030E00093111312931212149214121592151216B0
:1030F00092161114911011119115111291125B3049
:103100002100B5002E30B600AE31752698315D3005
:103110002100B5002E30B600AE317E2698315E30EB
:103120002100B5002E30B600AE31872698315F30D1
:103130002100B5002E30B600AE31902698316030B7
:103140002100B5002E30B600AE31992698310030FE
:103150002100B5001830B600AE31A22698318B158B
:103160000800200020082104031DB728B828F028F3
:103170000130A2000030A300E128F701200022085E
:10318000A131952198310230A031072098311530B6
:10319000FD004930890BCA28FD0BCA2800320130D6
:1031A0002000A2070030A33DF7012208FF3EA13115
:1031B000952198310F30F700B030F800A131492146
:1031C000983120002308803AFD0080307D02031DE5
:1031D000EB280F302202031CEE28EF28BD282729F8
:1031E0000E30A4000030A5001929F70120002408A2
:1031F000A131952198310230A03107209831153046
:10320000FD004930890B0229FD0B02290032FF30F5
:103210002000A407FF30A53DF7012408013EA1319D
:10322000952198310F30F700B030F800A1314921D5
:10323000983120002508803AFD0080307D02031D72
:10324000232901302402031826292729F5280800FC
:103250009129F7010030A131952199311130F70002
:10326000B030F800A13149219931F701F70A003057
:10327000A131952199314930F700B030F800A131E2
:1032800049219931A929F7010030A13195219931BE
:103290003B30F700B030F800A13149219931F701F6
:1032A000F70A0030A13195219931C530F700B030CF
:1032B000F800A13149219931A929F7010030A13144
:1032C000952199311F30F700B030F800A131492124
:1032D0009931F701F70A0030A13195219931493030
:1032E000F700B030F800A13149219931A929F7013F
:1032F0000030A131952199313B30F700B030F80012
:10330000A13149219931F701F70A0030A131952106
:103310009931C530F700B030F800A1314921993119
:10332000A929210059082000A000A1012108003A84
:1033300003199B29A9292008003A03192929013AD0
:1033400003194329033A03195D29013A031977291F
:10335000A929080021002C082D04031DB029B1293A
:10336000CE29AF312B279931F7010030A1319521BA
:103370009931BB30F700B030F800A13149219931C3
:10338000F701F70A0030A131952199319330F70008
:10339000B030F800A13149219931EA29AF312B270A
:1033A0009931F7010030A13195219931BB30F700F7
:1033B000B030F800A13149219931F701F70A003006
:1033C000A13195219931A730F700B030F800A13133
:1033D0004921993102302100AF004530AE00A930BB
:1033E000890BF029AE0BF029AF0BF0290032210038
:1033F000DA01D9010430D0000030D1000430D4000B
:103400000030D5000330CE000030CF000330CC00B8
:103410000030CD000130D2000030D3000130220056
:10342000E4000030E5000130E2000030E30001304C
:10343000E0000030E1000130DE000030DF0001304C
:10344000DC000030DD00AF3179279931A331022350
:1034500099312100DA01DA0A8C317524993108009A
:1034600000307005F80000307105F90080307205F9
:10347000FA007F307305FB007B087A047904780436
:10348000031D432A442A4C2A0030F3000030F20086
:103490000030F1000030F00000307405F80000301A
:1034A0007505F90080307605FA007F307705FB005E
:1034B0007B087A0479047804031D5F2A602A682A4D
:1034C0000030F7000030F6000030F5000030F40066
:1034D000F31F6B2A6C2A842A0030F8000030F900B0
:1034E0000030FA008030FB007008F8027108F93BE8
:1034F0007208FA3B7308FB3B7B08F3007A08F20082
:103500007908F1007808F000F71F872A882AA02A96
:103510000030F8000030F9000030FA008030FB0085
:103520007408F8027508F93B7608FA3B7708FB3B0C
:103530007B08F7007A08F6007908F5007808F400AF
:103540008030F3068030F70677087302031DB22A35
:1035500076087202031DB22A75087102031DB22A91
:10356000740870020318B52AB62AB82A0310B92ABB
:10357000031408002F2BBC010030A2310B229A311A
:1035800011302100BC00B030BD00A23133229A318D
:103590002100BC01BC0A0030A2310B229A31493013
:1035A0002100BC00B030BD00A23133229A31462B3D
:1035B000BC010030A2310B229A313B302100BC000B
:1035C000B030BD00A23133229A312100BC01BC0AC7
:1035D0000030A2310B229A31C5302100BC00B0303E
:1035E000BD00A23133229A31462BBC010030A231FA
:1035F0000B229A311F302100BC00B030BD00A23137
:1036000033229A312100BC01BC0A0030A2310B22C6
:103610009A3149302100BC00B030BD00A2313322C4
:103620009A31462BBC010030A2310B229A313B303B
:103630002100BC00B030BD00A23133229A312100FC
:10364000BC01BC0A0030A2310B229A31C5302100E6
:10365000BC00B030BD00A23133229A31462B21008C
:103660005908C200C3014308003A0319382B462BFE
:103670004208003A0319BB2A013A0319D82A033A2F
:103680000319F52A013A0319122B462B0800F20000
:103690007208031D4C2B4D2B9A2B21005308803AA6
:1036A000F10080307102031D572B01305202031CC0
:1036B0005A2B5B2B622B21005208FF3ED200FF30B9
:1036C000533DD30022006508803AF100803071023A
:1036D000031D6C2B01306402031C6F2B702B772BA6
:1036E00022006408FF3EE400FF30653DE500220053
:1036F0006308803AF10080307102031D812B013094
:103700006202031C842B852B8C2B22006208FF3E57
:10371000E200FF30633DE3000030883100209B3140
:103720000130AE31D9269B310430F10071082100FF
:10373000D900E32B22006108803AF1008030710249
:10374000031DA42B01306002031CA72BA82BAF2B59
:1037500022006008FF3EE000FF30613DE1002200F2
:103760005F08803AF10080307102031DB92B0130EF
:103770005E02031CBC2BBD2BC42B22005E08FF3E47
:10378000DE00FF305F3DDF0022005D08803AF1007F
:1037900080307102031DCE2B01305C02031CD12B43
:1037A000D22BD92B22005C08FF3EDC00FF305D3DB0
:1037B000DD000130883100209B310030AE31D92648
:1037C0009B312100D90108002000A0002008031926
:1037D000EA2BEB2BFF2BF91FEE2BEF2BFF2B7609A0
:1037E000A2007709A3007809A4007909A500A20A1C
:1037F0000319A30A0319A40A0319A50A072C7908B7
:10380000A5007808A4007708A3007608A20079082C
:10381000780477047604031D0E2C0F2C182C00302E
:10382000F9000030F8000030F7000030F600902C6E
:103830009630FA007A08A100282C0130FA007A08A4
:10384000A1070130A536A40CA30CA20C890B222CD5
:10385000FE302505031D2D2C2E2C1D2C422C013055
:10386000FA007A08A1070130A2070030A33D00301A
:10387000A43D0030A53D0130A536A40CA30CA20C3C
:10388000890B3C2CFF302505031D472C482C2F2C81
:10389000522C0130A1020130A235A30DA40DA50DBB
:1038A000890B4C2CA41B552C562C5C2C023021026D
:1038B00003185B2C5C2C492C21185F2C602C682C85
:1038C000FF30A205FF30A3057F30A405FF30A5051A
:1038D0000310A10C2108FA00FB01FC01FD011830C6
:1038E000FA35FB0DFC0DFD0D890B702C7A08A20436
:1038F0007B08A3047C08A4047D08A5042008031900
:10390000822C832C882CF91F862C872C882CA517B9
:103910002508F9002408F8002308F7002208F6001B
:1039200008002000E3006208031D972C982CF12C5E
:103930000030A000A1009831B1209C319331DA23EE
:103940009C31003A0319A52CA62CEF2C200063080B
:103950000319AB2CAC2CD32C21004C084D04031DB7
:10396000B22CB32CBA2C5408FE3ED400FF30553D87
:10397000D500C02C4C08FE3ECC00FF304D3DCD00A4
:10398000CD1FC32CC42CCC2CCC01CD015408FF3E40
:10399000D400FF30553DD500D51FCF2CD02CE72CBF
:1039A000D401D501E72C21004C084D04031DD92C6E
:1039B000DA2CE12C5408FF3ED400FF30553DD500F1
:1039C000E72C4C08FF3ECC00FF304D3DCD008E3142
:1039D0002C269C31953120259C310130422D003020
:1039E000422D0130A0000030A1009831B1209C315F
:1039F0009331DA239C31003A0319FF2C002DEF2C70
:103A0000200063080319052D062D2D2D21004E08D9
:103A10004F04031D0C2D0D2D142D5008FE3ED0001B
:103A2000FF30513DD1001A2D4E08FE3ECE00FF3032
:103A30004F3DCF00CF1F1D2D1E2D262DCE01CF01B6
:103A40005008FF3ED000FF30513DD100D11F292D3D
:103A50002A2DE72CD001D101E72C21004E084F047C
:103A6000031D332D342D3B2D5008FF3ED000FF3079
:103A7000513DD100E72C4E08FF3ECE00FF304F3DB8
:103A8000CF00E72C080023005C085D040319492DD2
:103A90004A2D4F2D5D088A005C080A009D312100E7
:103AA0005A080319542D552D162EE82DAF31C8276D
:103AB0009D312000E201E20A00309C3191249D31C9
:103AC0002100B1003108B3003308031D682D692DB2
:103AD000742DAE31FA269D3101309B3147239D3143
:103AE0008C3175249D31262E50085104031D792DEB
:103AF0007A2D822D0130AC000030AD009931AA2121
:103B00009D31262E01309B3147239D31702D22009F
:103B100060086104031D8D2D8E2DBA2DAF31C8278D
:103B20009D312000E201E20A01309C3191249D3157
:103B30002100B1003108B3003308031DA02DA12DD1
:103B4000A92DAE31FA269D3101309B3147239D319D
:103B5000702D50085104031DAE2DAF2DB02D7A2DC0
:103B600004302200E0000030E10001309B314723A7
:103B70009D31702DA1316F219D31702D22005E0885
:103B80005F04031DC42DC52DBA2D0130A4314F246F
:103B90009D3103302200DE000030DF0001309B3118
:103BA00047239D31702D22005C085D04031DD92D33
:103BB000DA2DBA2D0130983105209D3103302200D5
:103BC000DC000030DD0001309B3147239D31702D3A
:103BD0005908B100B2013208003A0319F02D262E1F
:103BE0003108043A0319562D013A0319872D033A77
:103BF0000319BE2D013A0319D32D262ED801013009
:103C0000883100209D310030AE31D9269D31A1315F
:103C1000BC219D31262ED801D80A013088310020E0
:103C20009D310030AE31D9269D31072E5908B100A3
:103C3000B2013208003A03191E2E262E3108023A2C
:103C40000319FE2D013A03190B2E262E270093127D
:103C50000800F2012830860000308700473FF0005E
:103C6000F01F332E342E552E2000A809A909AA09C9
:103C7000AB09AC09AD09AE09AF09A80A031D532E63
:103C8000A90A031D532EAA0A031D532EAB0A031DB6
:103C9000532EAC0A031D532EAD0A031D532EAE0A3C
:103CA000031D532EAF0AF201F20A203086000030C5
:103CB0008700473FF000F01F5E2E5F2E7E2E200013
:103CC000A009A109A209A309A409A509A609A70990
:103CD000A00A031D7E2EA10A031D7E2EA20A031D2B
:103CE0007E2EA30A031D7E2EA40A031D7E2EA50A86
:103CF000031D7E2EA60A031D7E2EA70A2000200883
:103D0000210422042304240425042604270403197F
:103D10008A2E8B2EDE2EF101F10A9A2EA035A10DEE
:103D2000A20DA30DA40DA50DA60DA70D0130F00049
:103D30007008F107A71F9D2E9E2E8E2E27082F029A
:103D4000031DBC2E26082E02031DBC2E25082D02A5
:103D5000031DBC2E24082C02031DBC2E23082B029D
:103D6000031DBC2E22082A02031DBC2E2108290295
:103D7000031DBC2E20082802031CBF2EC02ED02EEF
:103D80002008A8022108A93B2208AA3B2308AB3B34
:103D90002408AC3B2508AD3B2608AE3B2708AF3BCB
:103DA000A736A60CA50CA40CA30CA20CA10CA00C6D
:103DB0000130F102031DDD2EDE2E9E2E7208031946
:103DC000E22EE32E012FA809A909AA09AB09AC0923
:103DD000AD09AE09AF09A80A031D012FA90A031DE9
:103DE000012FAA0A031D012FAB0A031D012FAC0AE4
:103DF000031D012FAD0A031D012FAE0A031D012F64
:103E0000AF0A20002808A0002908A1002A08A20063
:103E10002B08A3002C08A4002D08A5002E08A6003E
:103E20002F08A70008002100C701BD308600003020
:103E30008700473FC500C51F1E2F1F2F412F2100A0
:103E4000BD09BE09BF09C009C109C209C309C40926
:103E5000BD0A031D3E2FBE0A031D3E2FBF0A031DD0
:103E60003E2FC00A031D3E2FC10A031D3E2FC20A6A
:103E7000031D3E2FC30A031D3E2FC40A2100C701A4
:103E8000C70AB530860000308700473F2100C500D3
:103E9000C51F4B2F4C2F6B2F2100B509B609B70951
:103EA000B809B909BA09BB09BC09B50A031D6B2FCA
:103EB000B60A031D6B2FB70A031D6B2FB80A031D2B
:103EC0006B2FB90A031D6B2FBA0A031D6B2FBB0A98
:103ED000031D6B2FBC0A2100350836043704380453
:103EE00039043A043B043C040319772F782FCB2F75
:103EF000C601C60A872FB535B60DB70DB80DB90D79
:103F0000BA0DBB0DBC0D0130C5004508C607BC1F6E
:103F10008A2F8B2F7B2F3C084402031DA92F3B08BF
:103F20004302031DA92F3A084202031DA92F390895
:103F30004102031DA92F38084002031DA92F37088D
:103F40003F02031DA92F36083E02031DA92F350885
:103F50003D02031CAC2FAD2FBD2F3508BD02360826
:103F6000BE3B3708BF3B3808C03B3908C13B3A0865
:103F7000C23B3B08C33B3C08C43BBC36BB0CBA0C41
:103F8000B90CB80CB70CB60CB50C0130C602031D49
:103F9000CA2FCB2F8B2F47080319CF2FD02FEE2FEF
:103FA000BD09BE09BF09C009C109C209C309C409C5
:103FB000BD0A031DEE2FBE0A031DEE2FBF0A031D0F
:103FC000EE2FC00A031DEE2FC10A031DEE2FC20AF9
:103FD000031DEE2FC30A031DEE2FC40A21003D0866
:103FE000B5003E08B6003F08B7004008B8004108D9
:103FF000B9004208BA004308BB004408BC000800EE
:104000003A30210099009801220096010800F6003C
:10401000D030890B09280000F001F00A7608A031A1
:104020008020A0317608F4000330F435FF3E031DF4
:1040300015287435F5007508F600F001F00A7608C9
:10404000A0318020A03108002100BC010030A23145
:104050000B22A03100302100BC00B030BD00A231E5
:104060003322A0312100BC01BC0A0030A2310B2256
:10407000A03100302100BC00B030BD00A23133229D
:10408000A0310800F600D030890B44280000F00170
:104090007608A0318020A0317608F4000330F43592
:1040A000FF3E031D4F287435F5007508F6002930D2
:1040B000890B58280032F0017608A0318020A03109
:1040C0000800F401F501701C662867286B28720847
:1040D000F4077308F53D0130F235F30D890B6C28B8
:1040E0000130F136F00C890B712870087104031D42
:1040F0007A287B2863287508F1007408F00008000E
:10410000F3007308F1000430F136890B842871083C
:10411000F2007208F30073080F39F1007108F30020
:1041200020000D08F0398D000D0873048D00700C0F
:10413000031C8D1203188D160D130D160D12080099
:104140002100BB00D030890BA32800002100B5015D
:10415000B50A3B0890310020A03121003B08B9008E
:104160000330B935FF3E031DB1283935BA003A088E
:10417000BB00B501B50A3B0890310020A031080012
:104180002100BC0122006608A2310B22A0310530BB
:104190002100BC00B030BD00A2313322A03121008B
:1041A000BC01BC0A22006608A2310B22A0310530F6
:1041B0002100BC00B030BD00A2313322A031080084
:1041C000F800F401F5017008F200F3017208F6003E
:1041D0007308F700781CED28EE28F2287608F4071B
:1041E0007708F53D0130F635F70D890BF3280310FC
:1041F000F80C7808031DFD28FE28EA287508F10050
:104200007408F00008002100BB00D030890B06299B
:1042100000002100B5013B0890310020A1312100B0
:104220003B08B9000330B935FF3E031D132939356A
:10423000BA003A08BB002930890B1C290032210042
:10424000B5013B0890310020A131080020008D010C
:1042500021008D0120008D1703302100BC006E303D
:10426000890B3029BC0B30293230A1310321A13117
:104270002830A1310321A1310C30A1310321A1311A
:104280000130A1310321A1310630A1310321A13137
:104290000800FC015E297808FA007708F9007C081C
:1042A000790784007A0803187A0A85000008A0318B
:1042B0000720A1310130F9007908FC077808FA00DD
:1042C0007708F9007C08790784007A0803187A0ACD
:1042D00085001200031D6D296E294B290800AF319E
:1042E000C827A131F70122006608A1319521A1312B
:1042F000CE30F700B030F800A1314921A131F701EB
:10430000F70A22006608A1319521A131FF30F7009C
:10431000B030F800A1314921A1315230FD002A30DE
:10432000890B9029FD0B90290800FA0002307702D2
:1043300003189B299C29BB2910307A02031CA12950
:10434000A229A329BB2977030319A729A829AE29E4
:1043500080307A04F8000030F900B329C0307A04C4
:10436000F8000030F9007808A0314220A131D030A7
:10437000890BB82900000800AF312B27A131A131EA
:10438000E321A1318E312C26A13195312025A13197
:10439000F70122006608A1319521A1317C30F70098
:1043A000B030F800A1314921A131A3302000EF0045
:1043B0005530890BD929EF0BD9292100D9018C312E
:1043C0007524A1310800AF317927A131F701003000
:1043D000A1319521A13122005B08A0310720A13134
:1043E00021005803031DF529F629002AF7010F3093
:1043F000A1319521A1310430A0310720A1310A2A31
:10440000F7010F30A1319521A13121005808A031C9
:104410000720A13108002100BF0002303C02031830
:10442000122A132A322A10303F02031C182A192A92
:104430001A2A322A3C0303191E2A1F2A252A8030F1
:104440003F04BD000030BE002A2AC0303F04BD003A
:104450000030BE003D08A1310321A231D030890BCC
:104460002F2A000008002100C1014A2A3D08BF0090
:104470003C08BE0041083E0784003F0803183F0A7D
:1044800085000008A031A020A23101302100BE002B
:104490003E08C1073D08BF003C08BE0041083E077A
:1044A00084003F0803183F0A85001200031D592AA3
:1044B0005A2A362A08002000A000A201A301732A6C
:1044C0002108FB00FC017B08F0007C08F1007A0861
:1044D000F3007908F200A7313D27A2310130200016
:1044E000A2070030A33D22082007FB007B088600BE
:1044F000033087000108FC007C08A1002108031D8F
:10450000822A832A602A08002100C200C301C40154
:104510009C2A4108BE00BF013E08B5003F08B60016
:104520003D08C0004008B700A631E526A2310130A1
:104530002100C3070030C43D43084207BE003E08C7
:104540008600033087000108BF003F08C100410812
:10455000031DAB2AAC2A892A08007908FA00023028
:10456000FA35FF3E031DB02A7A35403EA031422085
:10457000A231FB01FC017B08770786007C08783DAF
:1045800087000108A0310720A2310130FB0700306D
:10459000FC3D7C08803AFA0080307A02031DD22A62
:1045A00008307B02031CD52AD62ABB2A080021002A
:1045B000A4006C30A2000030A30024082000EE000C
:1045C0006E082100A500A601A701A801A901A53038
:1045D0002000E1000030E2006B08E4006A08E3001C
:1045E000A230E5000030E600A331E923A23121002A
:1045F000260824072000EE006E08860001308700A0
:1046000081010800AF31C827A331F70122006608F5
:10461000A1319521A3312D30F700B030F800A13140
:104620004921A331F701F70A22006608A13195213B
:10463000A3315730F700B030F800A1314921A33140
:1046400002302000A1004530A000A930890B262BA4
:10465000A00B262BA10B262B003208002300BA004A
:10466000B5302200CD004D082300B9003A082200E1
:10467000CD004D082300BB00BC01BD01BE01BF0140
:1046800034082200CB00230033082200CA00B930CE
:10469000CD004D08CC00BB30A4311C24A331230035
:1046A0003C083A072200CD004D0886000130870003
:1046B0008101080021003E08BF000230BF35FF3EE7
:1046C000031D5E2B3F35403EA1310321A331210064
:1046D000C001C101210040083C07860041083D3D62
:1046E00087000108A031A020A33101302100C007BC
:1046F0000030C13D4108803ABF0080303F02031DB9
:10470000832B08304002031C862B872B6A2B080062
:10471000A031C020A3312100BC0122006608A231D3
:104720000B22A3312D302100BC00B030BD00A231DE
:104730003322A3312100BC01BC0A22006608A23149
:104740000B22A33157302100BC00B030BD00A23194
:104750003322A33102302100C3004530C200A9300A
:10476000890BB02BC20BB02BC30BB02B003208004F
:104770002700131CBC2BBD2BC02BA4318924A331D3
:104780002700931CC42BC52BC82BA431CC24A331E8
:104790002700131DCC2BCD2BD02B9031D920A3314A
:1047A0002700931DD42BD52BD82BA531A425A331BD
:1047B0002700131EDC2BDD2BE02BA531F125A331C7
:1047C0002700931EE42BE52BE82B9D314325A331D5
:1047D000080020006408E9006308E8002200D20114
:1047E000D301092C6208D0006108CF006830D100E5
:1047F0000030D2006608D4006508D3009131C7218B
:10480000A33120004F082200D207200050082200C8
:10481000D33D200068088400690885001200031D4C
:10482000122C132CF22B220053082000E20022004D
:1048300052082000E10008002300B00022004B08CD
:104840002300B20022004A082300B1002200D20156
:10485000D3013F2CB130AE002E082200C8004C0816
:104860002300AF002F082200C90023003008883140
:104870001020A43122004808D2074908D33D230064
:1048800031088400320885001200031D482C492C91
:104890002A2C22005308CB005208CA00080020002E
:1048A000E1006108031D552C562C6E2C2100510887
:1048B000803A2000E00080306002031D622C04304A
:1048C000210050020318652C662C852C210050080D
:1048D000013ED0000030513DD100852C210055080B
:1048E000803A2000E00080306002031D7A2C043002
:1048F0002100540203187D2C7E2C852C21005408A5
:10490000013ED4000030553DD5008E312C26A43117
:10491000080022006D086E0403198F2C902C952C32
:104920006E088A006D080A00A43121005A08031994
:104930009A2C9B2CBC2CA92CD9018C317524A43128
:10494000C92CD901D90A9D2C0230AC002C08D90001
:104950009D2C5908AC00AD012D08003A0319B12C6B
:10496000C92C2C08013A03199C2C033A0319A12CD9
:10497000013A0319A42CC92C5908AC00AD012D082B
:10498000003A0319C42CC92C2C08013A03199C2C99
:10499000C92C27001310080022006B086C040319AF
:1049A000D22CD32CD82C6C088A006B080A00A431B6
:1049B00021005A080319DD2CDE2C022DEF2CD90121
:1049C000D90A8C317524A4310F2D0230AC002C088B
:1049D000D900E12C0330AC002C08D900E12C590897
:1049E000AC00AD012D08003A0319F72C0F2D2C084F
:1049F000003A0319DF2C013A0319E52C033A031995
:104A0000EA2C0F2D5908AC00AD012D08003A03190E
:104A10000A2D0F2D2C08003A0319DF2C0F2D27002B
:104A20009310080000341F341F341F341F340E3419
:104A30000434003400341F34113411341F340E3464
:104A40000434003400341F341134113411340A3466
:104A50000434003400341F341F341F341F340E3428
:104A60000434003400341F34113411341F340E3434
:104A70000434003400341F341134113411340A3436
:104A800004340034003400340A341F341F340E342C
:104A90000434003400340A341D341D341D340E3403
:104AA0000434003400340A341D34193419340A34FF
:104AB000043400343D30F300CC30F200CC30F1004F
:104AC000CD30F00022005108F7005008F6004F08E2
:104AD000F5004E08F4008231E022A531730822006F
:104AE000D1007208D0007108CF007008CE005108C4
:104AF000F3005008F2004F08F1004E08F00040307B
:104B0000F700A030F6000030F5000030F4009A31D4
:104B10003022A531031C8D2D8E2D972D00302200C3
:104B2000D1000030D0000030CF000030CE00230094
:104B30005A085B0403199D2D9E2DA32D5B088A0046
:104B40005A080A00A5310800220067086804031902
:104B5000AA2DAB2DB02D68088A0067080A00A53180
:104B600021005A080319B52DB62DE12DC92D0430A9
:104B7000AC002C08D9008C317524A531EE2D053000
:104B8000AC002C08D900BB2D0630AC002C08D90095
:104B9000BB2D5908AC00AD012D08003A0319D12DE9
:104BA000EE2D2C08053A0319B72D033A0319BF2D32
:104BB000013A0319C42DEE2D0230AC002C08D900A7
:104BC000BB2D5908AC00AD012D08003A0319E92DA1
:104BD000EE2D2C08033A0319DC2DEE2D270093113E
:104BE000080023005E085F040319F72DF82DFD2D42
:104BF0005F088A005E080A00A53121005A080319DF
:104C0000022E032E2E2E162E0530AC002C08D900B5
:104C10008C317524A5313B2E0630AC002C08D90010
:104C2000082E0730AC002C08D900082E5908AC001B
:104C3000AD012D08003A03191E2E3B2E2C08043A14
:104C40000319042E013A03190C2E033A0319112EED
:104C50003B2E0330AC002C08D900082E5908AC00BC
:104C6000AD012D08003A0319362E3B2E2C08023ACE
:104C70000319292E3B2E27001312080000340A3492
:104C80001534113411340A3404340034003400343F
:104C90000A341F341F340E340434003400340A3410
:104CA0001D341D341D340E340434003400340A34F1
:104CB0001D34193419340A340434003400340A34ED
:104CC0001534113411340A340434003400341F34E0
:104CD0001F341F341F340E34043400340E340234B5
:104CE00007341F34073402340E34003400340034E7
:104CF0000A341F341F340E340434003400340034BA
:104D00000E341F340E3400340034003400340A34BE
:104D100011341534153411340A3400342100561C72
:104D2000922E932E9C2E20002508FA002408F900CC
:104D30002608A2315B22A6312000A81BA02EA12E9E
:104D4000A62E2808AC002708AB00A82EAB01AC01AA
:104D5000A901AA01BC2E2030F0000030F100200093
:104D60002508F3002408F200A7313D27A6310130C1
:104D70002000A9070030AA3D2A08803AFD002C082F
:104D8000803A7D02031DC62E2B082902031CC92E62
:104D9000CA2EAB2E21005618CE2ECF2ED82E200094
:104DA0002508FA002408F9002608A2315B22A63162
:104DB00020002608AF315F27A63120002B0870079E
:104DC000A4002C08713DA500080021003708031934
:104DD000EA2EEB2EF02E3708031DEF2EF02EF52EC7
:104DE000350880310320A6313C2F3708033E86006A
:104DF00001308700160001040319FF2E002F1F2F1A
:104E00003708033E860001308700403FB800413F2D
:104E1000B900370A860001308700403FBA00413FA1
:104E2000BB003B08803ABC003908803A3C02031DB5
:104E30001B2F38083A0203181E2F1F2F3C2F21006A
:104E40003508B8003708860001308700370A84002B
:104E50000130850000080107B900390886000130DB
:104E6000870038088100370A86000130870001304A
:104E7000810741310318810A08007208730403197D
:104E8000422F432F492F72087304031D482F492FC7
:104E90004E2F7008AE315C26A731972F720886001E
:104EA000730887004331160001040319582F592F46
:104EB000792F72088600730887004331403FF40061
:104EC000413FF50072088600730887004131403F7A
:104ED000F600413FF7007708803AF8007508803AFD
:104EE0007802031D752F740876020318782F792F26
:104EF000972F7008F4007208860073088700720804
:104F0000840073088500013100080107F500750869
:104F100086000130870074088100720886007308DB
:104F2000870041310130810741310318810A0800AF
:104F30002200A4002100561C9E2F9F2FA92F220083
:104F400024082100C8004808BD004508A231842279
:104F5000A7312100C71BAD2FAE2FB62F4708220067
:104F6000A300210046082200A200B92F2200A201BE
:104F7000A301A001A101CF2F20302100B5000030F6
:104F8000B600220024082100C8004808B700A63156
:104F9000E526A73101302200A0070030A13D2108FD
:104FA000803A2100C80022002308803A21004802EC
:104FB000031DDD2F220022082002031CE02FE12F19
:104FC000BC2F21005618E52FE62FF02F22002408D1
:104FD0002100C8004808BD004508A2318422A7313D
:104FE00021004508AF31AD27A7312200220821005A
:104FF0003507C500220023082100363DC600080001
:105CB60008000800080008000800080064008001C9
:105CC6000131890B622E0034FE0012001E00FE0B0D
:105CD600682E00340E3408341C341F341C34083447
:105CE6000E340034210036082200EE00210035086B
:105CF6002200ED000800210036082200EC002100F9
:105D060035082200EB000800210036082200EA00D0
:105D1600210035082200E90008002100360822008B
:105D2600E800210035082200E700080021003608B7
:105D36002300DF00210035082300DE0008002100D3
:105D460036082300DD00210035082300DC000800AA
:105D56000334003403340034043400340134003492
:105D66000434003401340034013400340134003486
:105D76000134003401340034033420004308420463
:105D8600410440040319C82EC92ECB2E8030C30609
:105D9600080098313F20AE31A0310020AE31983155
:105DA6000120AE31AF311227AE310800F00070038A
:105DB600031DDE2EDF2EE42E2700921512169216F4
:105DC600E82E270012149214121508002100B500BF
:105DD6003503031DEF2EF02EF52E27009211121219
:105DE6009212F92E27001210921012110800AF31EC
:105DF600C827AE31F70122006608A1319521AE31E0
:105E0600F730F700B030F800A1314921AE315230F9
:105E1600FD002A30890B0D2FFD0B0D2F08002100E8
:105E26001508C03917389500FE3020009500FE3061
:105E36002100B70037082200EF000B118B16023045
:105E46002100B5000030B6008731F727AF310800D2
:105E5600F7010030A1319521AF310030F700B030A5
:105E6600F800A1314921AF31F701F70A0030A1311D
:105E76009521AF310030F700B030F800A13149214B
:105E8600AF3108007408803AF50080307502031DB2
:105E96004E2F013073020318512F522F5E2F7309B4
:105EA600F5007409F600F50A0319F60A7508F300F9
:105EB6007608F4005E2F0800F4007408F2007208F9
:105EC600F300692F0130F2007208F40774088600A7
:105ED600033087000108031D712F722F652F730889
:105EE6007402F000F101F01BF1030800F701003025
:105EF600A1319521AF310030F700B030F800A13163
:105F06004921AF31F701F70A0030A1319521AF31B0
:105F16000030F700B030F800A1314921AF31080058
:105F26000B1122006F082000950001302200D807CF
:105F36000030D93D00305902193003195802031CAC
:105F4600A52FA62FAC2FA5315A25AF312200D80197
:105F5600D90108002100B9003908B7003708B80090
:105F6600B82F0130B7003708B90739088600033063
:105F760087000108031DC02FC12FB42F380839022E
:105F8600B500B601B51BB6030800F7012200660886
:105F9600A1319521AF310530F700B030F800A131BD
:105FA6004921AF31F701F70A22006608A131952190
:105FB600AF310530F700B030F800A1314921AF31DB
:105FC600080021004908803ACA0080304A02031DB1
:105FD600EE2F013048020318F12FF22FFF2F210078
:105FE6004809CA004909CB00CA0A0319CB0A4A085C
:105FF600C8004B08C900FF2F080020342034203485
:1060060020342034203420342034203420342034EA
:106016002034203420342034203400345334653482
:106026006C346534633474342034733468346934BE
:106036007034233431340034533465346C3465346D
:1060460063347434203473346834693470342334DC
:10605600323400343E343E343E343E3446346F34BB
:106066007234633465343C343C343C343C34003460
:106076002034203454346934653420344634693449
:106086006734683474346534723400343E342034F2
:10609600543469346534203446346934673468349A
:1060A60074346534723400342A342A3446346934FC
:1060B6006734683474346534723473342A342A3459
:1060C60000342034533470346534633469346134B5
:1060D6006C3420342534643400343E345334703404
:1060E60065346334693461346C3420342534643463
:1060F6000034533474346134723474342034463486
:10610600693467346834743400343E345334683444
:10611600693465346C346434203425346434003492
:10612600573469346E346E34653472343A342034FC
:1061360031340034203450346C346134793465346D
:106146007234203431340034573469346E346E344A
:10615600653472343A3420343234003420345034C6
:106166006C3461347934653472342034323400341A
:10617600473461346D34653420344F3476346534B5
:10618600723400343E342034583420347734693441
:106196006E346734003463346F346F346C34643473
:1061A6006F3477346E3400342034463469347834AE
:1061B60020342534643400343E344634693478342B
:1061C6002034253464340034203441347434743437
:1061D600613463346B3400343E3441347434743483
:1061E600613463346B3400342034203420344D342D
:1061F600693473347334003473346B3469346C34F7
:046206006C340034C0
:020000040001F9
:04000E00E43FFF1FAD
:00000001FF
