:020000040000FA
:1000000080312928080008007E1480318B1E0928C1
:100010000A2812280B1D0D280E281228AF31582748
:10002000803127288B1D1528162827280B1C1928F6
:100030001A2827280D302100B800FB30890B1E2814
:10004000B80B1E280032A331582380310B107E10CC
:10005000090080312B2878308400AE308500C8300C
:100060008600003087000A308731FA2780318230DD
:100070008400AE3085005C308600013087000B3094
:100080008731FA27803131308400AE308500D83096
:1000900086000130870008308731FA278031DC3054
:1000A0008400A53085002030860002308700503063
:1000B0008731FA278031B0308400A4308500A03029
:1000C00086000230870048308731FA2780312100CE
:1000D000D201D301D401D501D6014E3084000130C4
:1000E00085000E30AE312B268031C93084000130BE
:1000F00085000F30AE312B26803150308400033024
:1001000085002030AE312B2680317E1020009C31BE
:100110008E2C200029088039AE002E08B300293526
:10012000AE002E08B500A81F9628972898283514E9
:10013000350803199C289D28AC28350A031DA128E1
:10014000A228AA280030A9000030A8000030A7008B
:100150000030A600A817B4280030A9000030A8007D
:100160000030A7000030A6002D088039AE002E0810
:10017000B3062D35AE002E08B400AC1FC028C12830
:10018000C228341434080319C628C728D628340ACC
:10019000031DCB28CC28D4280030AD000030AC00A3
:1001A0000030AB000030AA00AC17DE280030AD00F4
:1001B0000030AC000030AB000030AA003408031956
:1001C000E228E328E8283508031DE728E828F12875
:1001D0000030A9000030A8000030A7000030A600C1
:1001E000DF2A2608AE002E08F0002C08A031B62029
:1001F000803171082000BF007008BE003E08AE00CC
:10020000AF01B001B1013108B9003008B8002F08C2
:10021000B7002E08B6003F08AE00AF01B001B10133
:100220003108BD003008BC002F08BB002E08BA0002
:100230002708AE002E08F0002B08A031B620803130
:1002400071082000BF007008BE003E08AE00AF017C
:10025000B001B1012E08B6072F08B73D3008B83DF0
:100260003108B93D3F08AE00AF01B001B1012E0821
:10027000BA072F08BB3D3008BC3D3108BD3D2808FA
:10028000AE002E08F0002A08A031B6208031710897
:100290002000BF007008BE003E08AE00AF01B001F4
:1002A000B1012E08B6072F08B73D3008B83D310818
:1002B000B93D3F08AE00AF01B001B1012E08BA0749
:1002C0002F08BB3D3008BC3D3108BD3D0830B63578
:1002D000B70DB80DB90D890B67292708AE002E0898
:1002E000F0002A08A031B620803171082000BF003C
:1002F0007008BE003E08B6073F08B73D0030B83D65
:10030000B93D2608AE002E08F0002B08A031B6201B
:10031000803171082000BF007008BE003E08B6079B
:100320003F08B73D0030B83DB93D0830B635B70D90
:10033000B80DB90D890B96292608AE002E08F000DD
:100340002A08A031B620803171082000BF00700853
:10035000BE003E08B6073F08B73D0030B83DB93D86
:100360002708AE002E08F0002C08A031B6208031FE
:1003700071082000BF007008BE003E08BA073F08A1
:10038000BB3D0030BC3DBD3D2808AE002E08F0004E
:100390002B08A031B620803171082000BF00700802
:1003A000BE003E08BA073F08BB3D0030BC3DBD3D26
:1003B0002808AE002E08F0002C08A031B6208031AD
:1003C00071082000BF007008BE003E08AE003F0864
:1003D000AF00B001B1010830AE35AF0DB00DB10DB9
:1003E000890BEC292E08BA072F08BB3D3008BC3D0D
:1003F0003108BD3D3608AE003708AF003808B00000
:100400003908B1001830B136B00CAF0CAE0C890B06
:10041000032A2E08BA072F08BB3D3008BC3D31081F
:10042000BD3D0830B635B70DB80DB90D890B122A90
:1004300035083407AE00AF01AF0D2E08823EBE0076
:10044000FF302F3DBF003B2A0130BA35BB0DBC0D3C
:10045000BD0D890B252AB91F2E2A2F2A302A3A14BE
:100460000130B635B70DB80DB90D890B312AFF3003
:10047000BE07FF30BF3DBC1F3E2A3F2A242AB401DD
:10048000B91F432A442A602AFF303605AE00FF30E8
:100490003705AF00FF303805B0007F303905B100B7
:1004A000310830042F042E040319572A582A5B2AD6
:1004B000B401B40A602A3A1C5E2A5F2A602A582ACC
:1004C00034080319642A652A8D2A0130BA070030DE
:1004D000BB3D0030BC3D0030BD3D3D1C702A712A43
:1004E0008D2A3A08AE003B08AF003C08B0003D083A
:1004F000B1000130B200B137B00CAF0CAE0CB20B92
:100500007B2A3108BD003008BC002F08BB002E0834
:10051000BA000130BE070030BF3D3F08803AAE0050
:1005200080302E02031D962AFF303E02031C992ABA
:100530009A2AA42A7F302000BD008030BC00003001
:10054000BB000030BA00D32A20003F08803AAE003A
:1005500080302E02031DAE2A01303E020318B12A5C
:10056000B22ABD2A00302000BD000030BC0000309F
:10057000BB000030BA00B301D32A20003E08AE0011
:100580002E08B500FF30BA05FF30BB057F30BC0533
:100590000030BD05351CCD2ACE2ACF2ABC173536F2
:1005A000AE002E08BD003308AE002E08BD043D0885
:1005B000A9003C08A8003B08A7003A08A6000800CC
:1005C000730880392000A0002008F8007335A000CF
:1005D0002008FA00F21FED2AEE2AEF2A7A147A0890
:1005E0000319F32AF42A042B7A0A031DF82AF92A9C
:1005F000012B0030F3000030F2000030F100003039
:10060000F000F217F3010C2B0030F3000030F20081
:100610000030F1000030F00077088039A000200899
:10062000F900790878060319162B172B182B781761
:100630007735A0002008F900F61F1F2B202B212B57
:10064000791479080319252B262B362B790A031DDB
:100650002A2B2B2B332B0030F7000030F600003014
:10066000F5000030F400F617F7013E2B0030F700DC
:100670000030F6000030F5000030F4007A0879020E
:100680000318432B442B882B781F472B482B4C2BCC
:100690008030A0002008F8067A08A0002008FB009F
:1006A0007908A0002008FA007B08A0002008F900C3
:1006B0007008A0002008FB007408A0002008F000CB
:1006C0007B08A0002008F4007108A0002008FB00AF
:1006D0007508A0002008F1007B08A0002008F500A4
:1006E0007208A0002008FB007608A0002008F20095
:1006F0007B08A0002008F6007308A0002008FB007B
:100700007708A0002008F3007B08A0002008F7006D
:10071000FB017908A000A1012108A3007A082002AA
:10072000A200031CA3032308803AA4008030240203
:10073000031D9C2B1A302202031C9F2BA02BDA2BAB
:100740007308720471047004031DA72BA92B0130D8
:10075000AA2B00302000A0002008FB000030F3008E
:100760000030F2000030F1000030F0007908A00005
:100770002008FA00E02B7B1CBE2BBF2BC62B7B3640
:1007800001382000A0002008FB00C82B0310FB0C40
:10079000701CCB2BCC2BCD2BFB1701302000A000E5
:1007A000F337F20CF10CF00CA00BD02B0130A000B1
:1007B0002008FA0779087A02031CDF2BE02BBB2BF9
:1007C000781BE32BE42B1E2C7A08031DE82BE92B66
:1007D000F22B0030F3000030F2000030F100003066
:1007E000F0001E2D7408F0077508F13D7608F23D03
:1007F0007708F33D731CFD2BFE2BAB2C7B1C012CCF
:10080000022C092C7B3601382000A0002008FB00B8
:100810000B2C0310FB0C701C0E2C0F2C102CFB1738
:1008200001302000A000F337F20CF10CF00CA00B0B
:10083000132C0130A0002008FA07AB2C7308803A73
:100840002000A0007708803A2002031D312C760892
:100850007202031D312C75087102031D312C7408BE
:1008600070020318342C352C6D2CFF30A000FF30A3
:10087000A100FF30A200FF30A30070087402A400A2
:100880007108753BA5007208763BA6007308773B9C
:10089000A7002408A0072508A13D2608A23D270897
:1008A000A33D2308F3002208F2002108F1002008EC
:1008B000F0008030A0002008F806FB09FB0A7B0846
:1008C000031D632C642C752C0130F0070030F13DC2
:1008D0000030F23D0030F33D752C7408F0027508CD
:1008E000F13B7608F23B7708F33B7308720471041E
:1008F0007004031D7C2C7D2CA72C7B08031D812CF0
:10090000822CA72C0030F3000030F2000030F10000
:100910000030F0001E2D0130F035F10DF20DF30D19
:10092000890B8C2CFB1F952C962C972C70147B1C00
:100930009A2C9B2C9E2C0314FB0DA02C0310FB0D5A
:100940007A080319A42CA52CA72C0130FA02F21F57
:10095000AA2CAB2C8B2CF901FB1FAF2CB02CBE2C7E
:100960007B087F390319B52CB62CB92CF901F90A8B
:10097000BE2C701CBC2CBD2CBE2CB62C79080319C7
:10098000C22CC32CF12C0130F0070030F13D0030B7
:10099000F23D0030F33D731CCE2CCF2CF12C7008AF
:1009A0002000A0007108A1007208A2007308A30033
:1009B0000130A400A337A20CA10CA00CA40BDA2CCC
:1009C0002308F3002208F2002108F1002008F000BB
:1009D0007A0A0319EC2CED2CF12C0130A000200830
:1009E000FA077A0A0319F52CF62CFB2C7A08031D5A
:1009F000FA2CFB2C092D0030F3000030F2000030FF
:100A0000F1000030F0007A08031D072D082D092D94
:100A1000F8017A1C0C2D0D2D0F2DF217142D7F309F
:100A20002000A0002008F2057A362000A00020084F
:100A3000F300F81F1C2D1D2D1E2DF317080021009B
:100A400056080319242D252DEF2EA031962085312F
:100A5000CB2E2100C00122006608A231032285317D
:100A600082302100C000B030C100A2312B2285317C
:100A70002100C001C00A22006608A231032285318C
:100A8000DD302100C000B030C100A2312B22853101
:100A9000F52E2100C00122006608A2310322853113
:100AA000D5302100C000B030C100A2312B228531E9
:100AB0002100C001C00A22006608A231032285314C
:100AC00055302300B800B030B90021004F08230092
:100AD000BB0021004E082300BA00C930A1311F21FC
:100AE0008531C9302100C0000130C100A2312B2264
:100AF0008531F52E2100C00122006608A2310322B3
:100B0000853149302300B800B030B90021004F08CA
:100B10002300BB0021004E082300BA00C930A131D8
:100B20001F218531C9302100C0000130C100A23130
:100B30002B2285312100C001C00A22006608A231A3
:100B400003228531CD302300B800B030B900220037
:100B500065082300BB00220064082300BA00C930E6
:100B6000A1311F218531C9302100C0000130C100F1
:100B7000A2312B228531F52E2100C001220066080A
:100B8000A23103228531C5302300B800B030B9004E
:100B9000220065082300BB00220064082300BA007D
:100BA000C930A1311F218531C9302100C000013079
:100BB000C100A2312B2285312100C001C00A2200D0
:100BC0006608A231032285316D302300B800B030B1
:100BD000B900220063082300BB0022006208230042
:100BE000BA00C930A1311F218531C9302100C000B0
:100BF0000130C100A2312B228531F52E2100C00128
:100C000022006608A2310322853196302100C000FF
:100C1000B030C100A2312B2285312100C001C00AB1
:100C200022006608A23103228531DD302100C00098
:100C3000B030C100A2312B228531F52E2100C00138
:100C400022006608A23103228531D5302100C00080
:100C5000B030C100A2312B2285312100C001C00A71
:100C600022006608A2310322853155302300B800E6
:100C7000B030B900220061082300BB0022006008E8
:100C80002300BA00C930A1311F218531712D210007
:100C9000C00122006608A2310322853149302300B9
:100CA000B800B030B900220061082300BB00220068
:100CB00060082300BA00C930A1311F218531C93035
:100CC0002100C0000130C100A2312B22853121005A
:100CD000C001C00A22006608A23103228531CD304E
:100CE0002300B800B030B90022005F082300BB0029
:100CF00022005E082300BA00C930A1311F218531CE
:100D0000C9302100C0000130C100A2312B22853141
:100D1000F52E2100C00122006608A2310322853190
:100D2000C5302300B800B030B90022005F082300AE
:100D3000BB0022005E082300BA00C930A1311F2188
:100D40008531C9302100C0000130C100A2312B2201
:100D500085312100C001C00A22006608A2310322A9
:100D600085316D302300B800B030B90022005D0835
:100D70002300BB0022005C082300BA00C930A13167
:100D80001F218531C9302100C0000130C100A231CE
:100D90002B228531F52E210055082300C600C701FE
:100DA0004708003A0319D52EF52E4608003A0319D4
:100DB000292D013A0319492D033A03197A2D013AD5
:100DC0000319BC2D073A0319FE2D013A03191E2EF3
:100DD000033A0319472E013A0319892EF52EAF3134
:100DE000E22785319A31B722853108002300AF0010
:100DF0002008860001308700403FA200413FA30049
:100E000022088400230885001200253A031D092FBB
:100E10000A2FCF2F2008860001308700013081077C
:100E200041310318810A2200D401D5012100D201E9
:100E3000D301FF302200D600FF30D7002300200866
:100E4000860001308700403FA200413FA3002208F6
:100E50008400230885001200643A0319302F312FD3
:100E6000432F2008860001308700403FA200413F09
:100E7000A30022088400230885001200693A031D9C
:100E8000422F432F942F2008860001308700013025
:100E9000810741310318810A21088600013087004B
:100EA000010884000130850002308107003FA20064
:100EB000013FA3002208A7002308A800890D893B51
:100EC0008909A900AA00AB00AC00AD00AE0027085C
:100ED0002200B000230028082200B10023002908C6
:100EE0002200B20023002A082200B30023002B08AE
:100EF0002200B40023002C082200B50023002D0896
:100F00002200B60023002E082200B70023002F087D
:100F100089314B218631220031082300A1002200B3
:100F200030082300A000F92F200886000130870038
:100F3000403FA200413FA30022088400230885000F
:100F40001200253A031DA52FA62FC32F20088600C7
:100F5000013087000130810741310318810A2530B3
:100F60002100B9000030BA0023002F08A200220897
:100F70002100BB00A6318326863101302300A0006A
:100F80000030A100F92F20088600013087000130D1
:100F9000810741310318810AA001A101F92F20081E
:100FA000860001308700403FA200413FA300220895
:100FB0008400230885000008A400A501240821005E
:100FC000B900230025082100BA0023002F08A6003D
:100FD00026082100BB00A631832686312300200885
:100FE0008600013087000130810741310318810AF2
:100FF000BD2F0800FE0012001E00FE0BFB2F003468
:1010000008002200A100A201A3011A282008210043
:10101000C200C3014208B9004308BA004108C40035
:101020004408BB00A6318326883101302200A20784
:101030000030A33D220821072100C200420886009B
:10104000033087000108C30043082200A0002008E5
:10105000031D2B282C28062808002100BB01203066
:10106000860001308700473FB900B91F382839286A
:101070005B282200A009A109A209A309A409A509C6
:10108000A609A709A00A031D5828A10A031D58286C
:10109000A20A031D5828A30A031D5828A40A031DE9
:1010A0005828A50A031D5828A60A031D5828A70A70
:1010B0002100BB01BB0A2830860001308700473F72
:1010C0002100B900B91F652866288A282200A809CE
:1010D000A909AA09AB09AC09AD09AE09AF09A80A6B
:1010E000031D8528A90A031D8528AA0A031D852832
:1010F000AB0A031D8528AC0A031D8528AD0A031D14
:101100008528AE0A031D8528AF0A01302100B900E9
:101110003908BB06BC30860000308700083021004B
:10112000B90000301E00B90B9228220020082104CB
:101130002204230424042504260427040319A128D7
:10114000A22806292100BA01BA0AB328A035A10DA8
:10115000A20DA30DA40DA50DA60DA70D0130210014
:10116000B9003908BA072200A71FB728B828A6284F
:101170002100BC35BD0DBE0DBF0DC00DC10DC20D92
:10118000C30D220027082F02031DE02826082E0287
:10119000031DE02825082D02031DE02824082C0249
:1011A000031DE02823082B02031DE02822082A0241
:1011B000031DE02821082902031DE0282008280239
:1011C000031CE328E428F6282008A8022108A93BEC
:1011D0002208AA3B2308AB3B2408AC3B2508AD3BC7
:1011E0002608AE3B2708AF3B21003C142200A7365F
:1011F000A60CA50CA40CA30CA20CA10CA00C0130F5
:101200002100BA02031D05290629B82821003B0840
:1012100003190B290C292A29BC09BD09BE09BF09DC
:10122000C009C109C209C309BC0A031D2A29BD0A94
:10123000031D2A29BE0A031D2A29BF0A031D2A29C4
:10124000C00A031D2A29C10A031D2A29C20A031D37
:101250002A29C30A21003C082200A00021003D08E1
:101260002200A10021003E082200A20021003F0828
:101270002200A300210040082200A4002100410810
:101280002200A500210042082200A60021004308F8
:101290002200A70008002200BB003008C40031086B
:1012A000C5003208C6003308C7003408C800350836
:1012B000C9003608CA003708CB0044308600013028
:1012C0008700473FB800B81B6629682901306929A3
:1012D00000302200B900BA013908C2003A08C30040
:1012E000420843040319752976299429C409C509BC
:1012F000C609C709C809C909CA09CB09C40A031D17
:101300009429C50A031D9429C60A031D9429C70AF6
:10131000031D9429C80A031D9429C90A031D942991
:10132000CA0A031D9429CB0A2200D71B98299929A0
:101330009E29FD302100D205FF30D3052200570839
:10134000803AB80080303802031DA82901305602C7
:101350000318AB29AC29B22901302200BE000030AD
:10136000BF00B72922005708BF005608BE00550825
:10137000C1005408C00042084304031DC029C1290C
:10138000C6292100521DC529C629CB29FF302200BC
:10139000C007FF30C13D1F302200CC000030CD001F
:1013A0002600EF01402AFF302200CC07FF30CD3D60
:1013B0000A30A000A101A201A301A401A501A60178
:1013C000A7014408A8004508A9004608AA00470844
:1013D000AB004808AC004908AD004A08AE004B0815
:1013E000AF009131C7218931220021082100BD00C1
:1013F000220020082100BC00AF31A927893121003B
:101400003C08303E2200B8004C08503E86000330B5
:10141000870038088100FF30BE07FF30BF3DFF3036
:10142000C007FF30C13D0A30A000A101A201A30105
:10143000A401A501A601A7014408A8004508A90028
:101440004608AA004708AB004808AC004908AD00B0
:101450004A08AE004B08AF0088312D2089312200A8
:101460002008C4002108C5002208C6002308C700C0
:101470002408C8002508C9002608CA002708CB0090
:1014800022004D08803AB80080303802031D4A2AF5
:1014900001304C02031C4D2A4E2A7B2A22004408AC
:1014A000450446044704480449044A044B04031D08
:1014B0005A2A5B2AD3293F08803AB8008030380284
:1014C000031D642A01303E020318672A682AD329C3
:1014D00022004108803AB80080303802031D722A89
:1014E00001304002031C752A762A7B2A2100D2187B
:1014F0007A2A7B2AD329220042084304031D812A29
:10150000822A872A2100521D862A872AA42AFF3090
:101510002200CC07FF30CD3D42084304031D912A31
:10152000922A972A2B30BC000030BD009B2A2D3018
:10153000BC000030BD003C08B8004C08503E86009E
:10154000033087003808810022004C08503EB80064
:1015500038082100C500220041082100C7002200F0
:1015600040082100C60022003B08A73136278931F8
:10157000210046082200B100210045082200B000E9
:10158000080020004B088039CC004C08D5004B35B2
:10159000CC004C08DC00CA1FCE2ACF2AD02A5C140B
:1015A0005C080319D42AD52AE52A5C0A031DD92A26
:1015B000DA2AE22A0030CB000030CA000030C9002D
:1015C0000030C800CA17CB01ED2A0030CB00003034
:1015D000CA000030C9000030C80047088039CC007C
:1015E0004C08D5064735CC004C08DD00C61FF92A4B
:1015F000FA2AFB2A5D145D080319FF2A002B102B21
:101600005D0A031D042B052B0D2B0030C700003095
:10161000C6000030C5000030C400C617C701182B33
:101620000030C7000030C6000030C5000030C400E4
:101630004708460445044404031D1F2B202B392B67
:101640000030CB000030CA000030C9000030C800B4
:101650008030CA047F30CB045508CC004C08CB0442
:101660004B08C7004A08C6004908C5004808C4001E
:10167000742C5C08031D3D2B3E2B472B0030C7000C
:101680000030C6000030C5000030C400742C5C0877
:10169000CC00CD014D08CF005D084C02CE00031CEC
:1016A000CF034E087F3ED60000304F3DD7004B0899
:1016B000D4004A08D3004908D2004808D1000030BD
:1016C000CB000030CA000030C9000030C800003034
:1016D000DB000030DA000030D9000030D800DD0136
:1016E000AF2B5D080319752B762B902B0130D1356C
:1016F000D20DD30DD40D890B772B0130C835C90D10
:10170000CA0DCB0D890B7E2BDB1F872B882B892BDA
:1017100048140130D835D90DDA0DDB0D890B8A2B31
:1017200047085402031D9E2B46085302031D9E2B9F
:1017300045085202031D9E2B44085102031CA12B95
:10174000A22BAB2B5B174408D1024508D23B4608BD
:10175000D33B4708D43B0130CC004C08DD071A309E
:101760005D02031CB42BB52B712B54085304520497
:1017700051040319BC2BBD2BD62B5814D62B01308A
:10178000C835C90DCA0DCB0D890BC02BDB1FC92B6A
:10179000CA2BCB2B48140130D835D90DDA0DDB0D0F
:1017A000890BCC2BFF30D607FF30D73DCA1FD92B72
:1017B000DA2BBF2BDD01DB1FDE2BDF2BFB2BFF30FA
:1017C0005805CC00FF305905CD00FF305A05CE003A
:1017D0007F305B05CF004F084E044D044C040319C5
:1017E000F22BF32BF62BDD01DD0AFB2B481CF92B2A
:1017F000FA2BFB2BF32B5D080319FF2B002C282C55
:101800000130C8070030C93D0030CA3D0030CB3D33
:101810004B1C0B2C0C2C282C4808CC004908CD0064
:101820004A08CE004B08CF000130D000CF37CE0C95
:10183000CD0CCC0CD00B162C4F08CB004E08CA0098
:101840004D08C9004C08C8000130D6070030D73D0C
:101850005708803ACC0080304C02031D312CFF30F9
:101860005602031C342C352C422CFF302000D600AD
:101870000030D7000030CB000030CA000030C90073
:101880000030C80020005708803ACC0080304C025D
:10189000031D4C2C0130560203184F2C502C5C2C8D
:1018A0002000D601D7010030CB000030CA00003044
:1018B000C9000030C800D50120005608CC004C08F3
:1018C000DC005C1C642C652C672CCA176B2C7F30E9
:1018D000CC004C08CA055C36CC004C08CB0055083F
:1018E000CC004C08CB04302B08002100560803190B
:1018F0007A2C7B2C252EAF318D278C31022EF701CF
:1019000022006608A131B4218C318230F700B0305A
:10191000F800A13168218C31F701F70A220066082E
:10192000A131B4218C31DD30F700B030F800A131A5
:1019300068218C312B2EF70122006608A131B421D9
:101940008C31D530F700B030F800A13168218C31EE
:10195000F701F70A22006608A131B4218C31553015
:101960002000EA00B030EB0021004F082000ED001D
:1019700021004E082000EC00C930A231CF228C316A
:10198000C930F7000130F800A13168218C312B2ECD
:10199000F70122006608A131B4218C3149302000C2
:1019A000EA00B030EB0021004F082000ED002100DC
:1019B0004E082000EC00C930A231CF228C31C93052
:1019C000F7000130F800A13168218C31F701F70AE6
:1019D00022006608A131B4218C31CD302000EA000C
:1019E000B030EB00220065082000ED002200640802
:1019F0002000EC00C930A231CF228C31C930F70071
:101A00000130F800A13168218C312B2EF701220022
:101A10006608A131B4218C31C5302000EA00B03015
:101A2000EB00220065082000ED0022006408200081
:101A3000EC00C930A231CF228C31C930F70001301F
:101A4000F800A13168218C31F701F70A22006608FD
:101A5000A131B4218C316D302000EA00B030EB00B0
:101A6000220063082000ED00220062082000EC0044
:101A7000C930A231CF228C31C930F7000130F800D3
:101A8000A13168218C312B2EF70122006608A1318B
:101A9000B4218C319630F700B030F800A1316821C4
:101AA0008C31F701F70A22006608A131B4218C318C
:101AB000DD30F700B030F800A13168218C312B2ED9
:101AC000F70122006608A131B4218C31D530F7002E
:101AD000B030F800A13168218C31F701F70A2200FB
:101AE0006608A131B4218C3155302000EA00B030B5
:101AF000EB00220061082000ED00220060082000B9
:101B0000EC00C930A231CF228C31C02CF701220069
:101B10006608A131B4218C3149302000EA00B03090
:101B2000EB00220061082000ED0022006008200088
:101B3000EC00C930A231CF228C31C930F70001301E
:101B4000F800A13168218C31F701F70A22006608FC
:101B5000A131B4218C31CD302000EA00B030EB004F
:101B600022005F082000ED0022005E082000EC004B
:101B7000C930A231CF228C31C930F7000130F800D2
:101B8000A13168218C312B2EF70122006608A1318A
:101B9000B4218C31C5302000EA00B030EB002200C7
:101BA0005F082000ED0022005E082000EC00C93034
:101BB000A231CF228C31C930F7000130F800A131B9
:101BC00068218C31F701F70A22006608A131B4219F
:101BD0008C316D302000EA00B030EB0022005D084F
:101BE0002000ED0022005C082000EC00C930A2318A
:101BF000CF228C31C930F7000130F800A1316821C3
:101C00008C312B2E21005508AA00AB012B08003A7D
:101C100003190B2E2B2E2A08003A03197F2C013AA8
:101C200003199B2C033A0319C82C013A0319062DFA
:101C3000073A0319442D013A0319602D033A031999
:101C4000862D013A0319C42D2B2EAE31F0268C318E
:101C50009831A4208C310800FF2EF701F70A0030DC
:101C6000A131B4218E310F30F700B030F800A1312E
:101C700068218E31E82FF701F70A0030A131B42135
:101C80008E310F30F700B030F800A13168218E316D
:101C9000403086000230870020308400003085000C
:101CA0000830FD0016001A00FD0B522E2030F70000
:101CB0000030F8000330FD007D08F900A231A522B4
:101CC0008E31F701F70A0030A131B4218E31033093
:101CD000AF31C5278E31E82FF701F70A0030A13167
:101CE000B4218E310F30F700B030F800A1316821F7
:101CF0008E31383086000230870028308400003072
:101D000085000830FD0016001A00FD0B832E2830D8
:101D1000F7000030F8000330FD007D08F900A23123
:101D2000A5228E31F701F70A0030A131B4218E319E
:101D30000330AF31C5278E31E82FF701F70A0030A5
:101D4000A131B4218E310F30F700B030F800A1314D
:101D500068218E31303086000230870030308400B8
:101D6000003085000830FD0016001A00FD0BB42E6F
:101D70003030F7000030F8000330FD007D08F90036
:101D8000A231A5228E31F701F70A0030A131B4212A
:101D90008E310330AF31C5278E31E82FF701F70AB6
:101DA0000030A131B4218E310F30F700B030F8008F
:101DB000A13168218E31283086000230870038300A
:101DC0008400003085000830FD0016001A00FD0B6D
:101DD000E52E3830F7000030F8000330FD007D08B4
:101DE000F900A231A5228E31F701F70A0030A131A6
:101DF000B4218E310330AF31C5278E31E82F210059
:101E00004D08003A0319052FE82F4C08003A031932
:101E10002D2E013A03193B2E033A03196C2E013A79
:101E200003199D2E073A0319CE2EE82FF701F70A62
:101E30000F30A131B4218E310F30F700B030F800EF
:101E4000A13168218E31FF2FF701F70A0F30A13140
:101E5000B4218E310F30F700B030F800A131682185
:101E60008E31203086000230870040308400003000
:101E700085000830FD0016001A00FD0B3B2F403096
:101E8000F7000030F8000530FD007D08F900A231B0
:101E9000A5228E31F701F70A0F30A131B4218E311E
:101EA0000530AF31C5278E31FF2FF701F70A0F300C
:101EB000A131B4218E310F30F700B030F800A131DC
:101EC00068218E31E030860002308700483084007F
:101ED000003085000830FD0016001A00FD0B6C2F45
:101EE0004830F7000030F8000530FD007D08F900AB
:101EF000A231A5228E31F701F70A0F30A131B421AA
:101F00008E310530AF31C5278E31FF2FF701F70A2B
:101F10000F30A131B4218E310F30F700B030F8000E
:101F2000A13168218E31D8308600023087005030D0
:101F30008400003085000830FD0016001A00FD0BFB
:101F40009D2F5030F7000030F8000530FD007D086F
:101F5000F900A231A5228E31F701F70A0F30A13125
:101F6000B4218E310530AF31C5278E31FF2FF701F7
:101F7000F70A0F30A131B4218E310F30F700B030A5
:101F8000F800A13168218E31D03086000230870000
:101F900058308400003085000830FD0016001A001B
:101FA000FD0BCE2F5830F7000030F8000530FD0053
:101FB0007D08F900A231A5228E31F701F70A0F3012
:101FC000A131B4218E310530AF31C5278E31FF2FBD
:101FD00021005108003A0319EE2FFF2F5008003A54
:101FE0000319162F013A0319242F033A0319552F09
:101FF000013A0319862F073A0319B72FFF2F08005C
:102000003A30210099009801220096010800200032
:10201000E9006508031D0D280E2874280030A00073
:10202000A10098312D20903122005B082000E600AD
:10203000E7016608DE006708DF006908E800680855
:10204000E0009331BC239031003A03192828292855
:1020500072282000690803192E282F2856282100ED
:1020600048084904031D352836283D285008FE3EFF
:10207000D000FF30513DD10043284808FE3EC80043
:10208000FF30493DC900C91F462847284F28C801CD
:10209000C9015008FF3ED000FF30513DD100D11F93
:1020A000522853286A28D001D1016A282100480803
:1020B0004904031D5C285D2864285008FF3ED000B9
:1020C000FF30513DD1006A284808FF3EC800FF306C
:1020D000493DC9008E312C26903195312025903113
:1020E0000130D2280030D2280130A0000030A100F9
:1020F00098312D209031210054082000E600E7019E
:102100006608DE006708DF006908E8006808E0008C
:102110009331BC239031003A03198F2890287228FC
:1021200020006908031995289628BD2821004A082F
:102130004B04031D9C289D28A4284C08FE3ECC007F
:10214000FF304D3DCD00AA284A08FE3ECA00FF30B0
:102150004B3DCB00CB1FAD28AE28B628CA01CB0122
:102160004C08FF3ECC00FF304D3DCD00CD1FB928BF
:10217000BA286A28CC01CD016A2821004A084B04FC
:10218000031DC328C428CB284C08FF3ECC00FF30D9
:102190004D3DCD006A284A08FF3ECA00FF304B3D46
:1021A000CB006A28080020005108860052088700EA
:1021B000403FD500413FD6005508840056088500B1
:1021C0001200253A031DE528E628A12951088600BA
:1021D000520887000130810741310318810A22002B
:1021E000D401D5012100D201D301FF302200D60055
:1021F000FF30D70020005108860052088700403F7A
:10220000D500413FD60055088400560885001200CD
:10221000643A03190C290D291F2951088600520818
:102220008700403FD500413FD6005508840056083E
:1022300085001200693A031D1E291F2969295108CA
:102240008600520887000130810741310318810A56
:1022500053088600540887000108D5000230810722
:1022600041310108D60000300318810A8107550862
:10227000860056088700403FD700413FD8005708E6
:10228000D9005808DA00890D893B8909DB00DC0098
:10229000DD00DE00DF00E0005008B1004F08B000B4
:1022A0005908B2005A08B3005B08B4005C08B500D6
:1022B0005D08B6005E08B7005F08B8006008B900A6
:1022C00096318C26903120003108D0003008CF00A4
:1022D000C6295108860052088700403FD500413F7B
:1022E000D60055088400560885001200253A031DC3
:1022F0007A297B29952951088600520887000130E8
:10230000810741310318810A2530F0000030F100C7
:102310005008F3004F08F200A631DB26903101305F
:102320002000CF000030D000C62951088600520896
:1023300087000130810741310318810ACF01D001A4
:10234000C6295108860052088700403FD500413F0A
:10235000D60055088400560885000008D700D8012B
:102360005708F0005808F1005008F3004F08F20039
:10237000A631DB26903120005108860052088700E4
:102380000130810741310318810A8F29080021009B
:10239000BB012830860001308700473FB900B91FD4
:1023A000D229D329F5292200A809A909AA09AB092C
:1023B000AC09AD09AE09AF09A80A031DF229A90AA3
:1023C000031DF229AA0A031DF229AB0A031DF229F3
:1023D000AC0A031DF229AD0A031DF229AE0A031D42
:1023E000F229AF0A2100BB01BB0A20308600013070
:1023F0008700473F2100B900B91FFF29002A1F2A83
:102400002200A009A109A209A309A409A509A609F6
:10241000A709A00A031D1F2AA10A031D1F2AA20A39
:10242000031D1F2AA30A031D1F2AA40A031D1F2A16
:10243000A50A031D1F2AA60A031D1F2AA70A220098
:10244000200821042204230424042504260427044C
:1024500003192B2A2C2A842A2100BA01BA0A3D2A00
:10246000A035A10DA20DA30DA40DA50DA60DA70DC0
:1024700001302100B9003908BA072200A71F412AFC
:10248000422A302A220027082F02031D612A26082B
:102490002E02031D612A25082D02031D612A24082E
:1024A0002C02031D612A23082B02031D612A220826
:1024B0002A02031D612A21082902031D612A20081E
:1024C0002802031C642A652A752A2008A80221080C
:1024D000A93B2208AA3B2308AB3B2408AC3B2508B8
:1024E000AD3B2608AE3B2708AF3BA736A60CA50C94
:1024F000A40CA30CA20CA10CA00C01302100BA0268
:10250000031D832A842A422A21003B080319892AB1
:102510008A2AA92A2200A809A909AA09AB09AC0993
:10252000AD09AE09AF09A80A031DA92AA90A031D0E
:10253000A92AAA0A031DA92AAB0A031DA92AAC0AC3
:10254000031DA92AAD0A031DA92AAE0A031DA92A43
:10255000AF0A22002808A0002908A1002A08A2002A
:102560002B08A3002C08A4002D08A5002E08A60007
:102570002F08A7000800F2012030860000308700F5
:10258000473FF000F01FC52AC62AE72A2000A0090D
:10259000A109A209A309A409A509A609A709A00AD6
:1025A000031DE52AA10A031DE52AA20A031DE52A47
:1025B000A30A031DE52AA40A031DE52AA50A031D93
:1025C000E52AA60A031DE52AA70AF201F20A283025
:1025D000860000308700473FF000F01FF02AF12A04
:1025E000142B2000A809A909AA09AB09AC09AD0957
:1025F000AE09AF09A80A031D102BA90A031D102B51
:10260000AA0A031D102BAB0A031D102BAC0A031DD5
:10261000102BAD0A031D102BAE0A031D102BAF0AA1
:102620000130F0007008F206733086000030870039
:102630000830F00000301E00F00B1B2B200020089B
:102640002104220423042404250426042704031956
:102650002A2B2B2B872BF101F10A3A2BA035A10D48
:10266000A20DA30DA40DA50DA60DA70D0130F00020
:102670007008F107A71F3D2B3E2B2E2BF335F40DD1
:10268000F50DF60DF70DF80DF90DFA0D27082F02CF
:10269000031D642B26082E02031D642B25082D0222
:1026A000031D642B24082C02031D642B23082B021A
:1026B000031D642B22082A02031D642B2108290212
:1026C000031D642B20082802031C672B682B792B21
:1026D0002008A8022108A93B2208AA3B2308AB3BFB
:1026E0002408AC3B2508AD3B2608AE3B2708AF3B92
:1026F0007314A736A60CA50CA40CA30CA20CA10C59
:10270000A00C0130F102031D862B872B3E2B720893
:1027100003198B2B8C2BAA2BF309F409F509F60965
:10272000F709F809F909FA09F30A031DAA2BF40AB3
:10273000031DAA2BF50A031DAA2BF60A031DAA2BBB
:10274000F70A031DAA2BF80A031DAA2BF90A031D79
:10275000AA2BFA0A73082000A0007408A1007508CB
:10276000A2007608A3007708A4007808A5007908DD
:10277000A6007A08A70008000C302100A400003051
:10278000A5000130AF000030B0000030B4000030D0
:10279000B3000030B2000030B10022005108210027
:1027A000AE00220050082100AD0022004F08210099
:1027B000AC0022004E082100AB003E30A9001930C9
:1027C000A8009930A7009A30A600200060080319DD
:1027D000EA2BEB2BC42C5E085F04031DF02BF12BBE
:1027E000C42C00302100A9000030A8000030A70050
:1027F0000030A600C42C2E08F3002D08F2002C088F
:10280000F1002B08F0003408F7003308F600320816
:10281000F5003108F4008231E02293317308210081
:10282000B4007208B3007108B2007008B1002F083C
:10283000023EAF000030303DB000220051082000C1
:10284000AD00220050082000AC0022004F082000FC
:10285000AB0022004E082000AA00220051082000F0
:10286000A900220050082000A80022004F082000E4
:10287000A70022004E082000A60080318920933155
:1028800020002908C3002808C2002708C100260824
:10289000C000AE318D26933120004308CB004208A2
:1028A000CA004108C9004008C80021003008F300F0
:1028B0002F08F2002F08FF3EF000FF30303DF100FE
:1028C000A0313720933170082000E1007108E20048
:1028D000E301E4016408F9006308F8006208F70006
:1028E0006108F60000309B31E12393317908200024
:1028F000C7007808C6007708C5007608C4008A318A
:10290000C1229331200047082100A300200046087F
:102910002100A200200045082100A1002000440859
:102920002100A00023082000A90021002208200087
:10293000A800210021082000A70021002008200075
:10294000A60021002E082000AD0021002D08200047
:10295000AC0021002C082000AB0021002B08200037
:10296000AA00803189209331200029082100AE007F
:10297000200028082100AD00200027082100AC001D
:10298000200026082100AB00210025083002031D8D
:10299000CB2C24082F02031CCE2CCF2CFB2B34086D
:1029A0002000A900210033082000A80021003208DF
:1029B0002000A700210031082000A60021003408D3
:1029C0002000AD00210033082000AC0021003208B7
:1029D0002000AB00210031082000AA0080318920AE
:1029E0009331200029082100B4002000280821008C
:1029F000B300200027082100B20020002608210093
:102A0000B1002908F3002808F2002708F100260881
:102A1000F0003408F7003308F6003208F5003108FA
:102A2000F4009A312D2293310318172D182D1C2DE7
:102A30002100AA01AA0A1E2D2100AA012A080800C5
:102A4000C22DF701F70A0130A131B42195310F30C1
:102A5000F700B030F800A13168219531772EF701E9
:102A6000F70A0130A131B42195310F30F700B030B1
:102A7000F800A13168219531C83086000230870006
:102A800020308400003085000830FD0016001A0058
:102A9000FD0B462D2030F7000030F8000630FD0019
:102AA0007D08F900A231A5229531F701F70A01301E
:102AB000A131B42195310630AF31C5279531772E3C
:102AC000F701F70A0130A131B42195310F30F70039
:102AD000B030F800A13168219531C0308600023055
:102AE000870028308400003085000830FD00160083
:102AF0001A00FD0B772D2830F7000030F800063063
:102B0000FD007D08F900A231A5229531F701F70AF1
:102B10000130A131B42195310630AF31C52795314F
:102B2000772EF701F70A0130A131B42195310F302A
:102B3000F700B030F800A13168219531B830860037
:102B40000230870030308400003085000830FD00FE
:102B500016001A00FD0BA82D3030F7000030F800E9
:102B60000630FD007D08F900A231A5229531F7015C
:102B7000F70A0130A131B42195310630AF31C527B4
:102B80009531772E21004B08003A0319C82D772E76
:102B90004A08003A0319212D013A03192F2D033A4F
:102BA0000319602D013A0319912D772EF701F70AC9
:102BB0000E30A131B42195310F30F700B030F8005C
:102BC000A131682195318B2EF701F70A0E30A13122
:102BD000B42195310F30F700B030F800A1316821F1
:102BE0009531B030860002308700383084000030E4
:102BF00085000830FD0016001A00FD0BFB2D383053
:102C0000F7000030F8000730FD007D08F900A23120
:102C1000A5229531F701F70A0E30A131B421953183
:102C20000730AF31C52795318B2EF701F70A0E30EB
:102C3000A131B42195310F30F700B030F800A13147
:102C400068219531A830860002308700403084002A
:102C5000003085000830FD0016001A00FD0B2C2EF8
:102C60004030F7000030F8000730FD007D08F90023
:102C7000A231A5229531F701F70A0E30A131B42116
:102C800095310730AF31C52795318B2EF701F70A03
:102C90000E30A131B42195310F30F700B030F8007B
:102CA000A13168219531A03086000230870048307C
:102CB0008400003085000830FD0016001A00FD0B6E
:102CC0005D2E4830F7000030F8000730FD007D0829
:102CD000F900A231A5229531F701F70A0E30A13192
:102CE000B42195310730AF31C52795318B2E2100A6
:102CF0004908003A03197D2E8B2E4808003A031923
:102D0000D62D013A0319E42D033A0319152E013A81
:102D10000319462E8B2E080020003208C500330808
:102D2000C6003408C7003508C8003608C90037088F
:102D3000CA003808CB003908CC0045308600003086
:102D40008700473FBA00BA1BA62EA82E0130A92E35
:102D500000302000BB00BC013B08C3003C08C4009D
:102D6000430844040319B52EB62ED42EC509C6094E
:102D7000C709C809C909CA09CB09CC09C50A031D75
:102D8000D42EC60A031DD42EC70A031DD42EC80A8A
:102D9000031DD42EC90A031DD42ECA0A031DD42E26
:102DA000CB0A031DD42ECC0A2200D71BD82ED92E35
:102DB000DE2EFD302100D205FF30D305220057085A
:102DC000803A2000BA0080303A02031DEA2E01301A
:102DD000220056020318ED2EEE2EF42E01302000B4
:102DE000BF000030C000FC2E220057082000C000A9
:102DF000220056082000BF00220055082000C20013
:102E0000220054082000C10043084404031D092F78
:102E10000A2F0F2F2100521D0E2F0F2F142FFF30BE
:102E20002000C107FF30C23D1F302000CD00003020
:102E3000CE002600EF01852FFF302000CD07FF30A8
:102E4000CE3D0A30A000A101A201A301A401A50169
:102E5000A601A7014508A8004608A9004708AA003E
:102E60004808AB004908AC004A08AD004B08AE006A
:102E70004C08AF009E312826963120002108F4002E
:102E80002008F300AF310A2796317308303E200046
:102E9000BA004D08503E8600033087003A08810092
:102EA000FF30BF07FF30C03DFF30C107FF30C23DDC
:102EB0000A30A000A101A201A301A401A501A6015D
:102EC000A7014508A8004608A9004708AA00480825
:102ED000AB004908AC004A08AD004B08AE004C08F6
:102EE000AF009231BB22963120002008C500210896
:102EF000C6002208C7002308C8002408C900250806
:102F0000CA002608CB002708CC0020004E08803AD3
:102F1000BA0080303A02031D8F2F01304D02031C8E
:102F2000922F932FC02F20004508460447044804E1
:102F300049044A044B044C04031D9F2FA02F1C2F4F
:102F40004008803ABA0080303A02031DA92F0130B0
:102F50003F020318AC2FAD2F1C2F20004208803AEF
:102F6000BA0080303A02031DB72F01304102031C22
:102F7000BA2FBB2FC02F2100D218BF2FC02F1C2F5C
:102F8000200043084404031DC62FC72FCC2F210067
:102F9000521DCB2FCC2FE92FFF302000CD07FF3063
:102FA000CE3D43084404031DD62FD72FDC2F2B30F2
:102FB000BD000030BE00E02F2D30BD000030BE004F
:102FC0003D08BA004D08503E8600033087003A089D
:102FD000810020003108A5003008A4004D08503EB3
:102FE000BA003A08A6004208A8004108A700A63186
:102FF0002C26963120002508B1002408B0000800D6
:103000000800AF318D279831F70122006608A13101
:10301000B4219831ED30F700B030F800A1316821CB
:103020009831F701F70A22006608A131B4219831DE
:10303000BC30F700B030F800A1316821983102307F
:103040002000A1004530A000A930890B2528A00B45
:103050002528A10B25280032080020002008210483
:10306000031D332834286C280130A2000030A3004F
:103070005D28F70120002208A131B42198310230E7
:10308000AF31C52798311530FD004930890B4628EE
:10309000FD0B4628003201302000A2070030A33D7E
:1030A000F7012208FF3EA131B42198310F30F7001B
:1030B000B030F800A1316821983120002308803A0F
:1030C000FD0080307D02031D67280F302202031CA3
:1030D0006A286B283928A3280E30A4000030A500E8
:1030E0009528F70120002408A131B421983102303D
:1030F000AF31C52798311530FD004930890B7E2846
:10310000FD0B7E280032FF302000A407FF30A53DD4
:10311000F7012408013EA131B42198310F30F700A6
:10312000B030F800A1316821983120002508803A9C
:10313000FD0080307D02031D9F280130240203180A
:10314000A228A328712808000D29F7010030A13119
:10315000B42198311130F700B030F800A131682166
:103160009831F701F70A0030A131B42198313B3092
:10317000F700B030F800A131682198312529F70116
:103180000030A131B42198312D30F700B030F80073
:10319000A13168219831F701F70A0030A131B4213B
:1031A0009831AA30F700B030F800A1316821983189
:1031B0002529F7010030A131B42198311F30F700E3
:1031C000B030F800A13168219831F701F70A0030DA
:1031D000A131B42198313B30F700B030F800A13173
:1031E000682198312529F7010030A131B4219831A7
:1031F0002D30F700B030F800A13168219831F70187
:10320000F70A0030A131B4219831AA30F700B0306C
:10321000F800A131682198312529210055082000A6
:10322000A000A1012108003A031917292529200827
:10323000003A0319A528013A0319BF28033A0319D4
:10324000D928013A0319F3282529080021002C0860
:103250002D04031D2C292D294A29AE31F026993140
:10326000F7010030A131B4219931A030F700B0301E
:10327000F800A13168219931F701F70A0030A13136
:10328000B42199317830F700B030F800A1316821CD
:1032900099316629AE31F0269931F7010030A1311C
:1032A000B4219931A030F700B030F800A131682185
:1032B0009931F701F70A0030A131B42199318C30EE
:1032C000F700B030F800A1316821993102302100B7
:1032D000AF004530AE00A930890B6C29AE0B6C29CC
:1032E000AF0B6C2900322100D601D5010430CC008F
:1032F0000030CD000430D0000030D1000330CA00CF
:103300000030CB000330C8000030C9000130CE00CF
:103310000030CF0001302200E4000030E500013031
:10332000E2000030E3000130E0000030E100013055
:10333000DE000030DF000130DC000030DD00AF31A6
:103340003E2799319831012099318C31752499317A
:1033500008002000D1000130D2000030D300510815
:10336000031DB329B429EF2922005B03031DB929EA
:10337000BA29BF2902302000D2000030D30021003A
:103380004B08803A2000D00080305002031DCB292A
:10339000043021004A020318CE29CF29D929200060
:1033A000520821004A07CA002000530821004B3D63
:1033B000CB0021004B08803A2000D0008030500222
:1033C000031DE529053021004A02031CE829E929EB
:1033D000292A04302100CA000030CB00292A21000C
:1033E0005403031DF429F529FA2902302000D200E4
:1033F0000030D30021004908803A2000D0008030FE
:103400005002031D062A0430210048020318092A2D
:103410000A2A142A2000520821004807C800200068
:1034200053082100493DC90021004908803A200085
:10343000D00080305002031D202A053021004802B0
:10344000031C232A242A292A04302100C800003022
:10345000C900953120259931080000307005F80029
:1034600000307105F90080307205FA007F30730575
:10347000FB007B087A0479047804031D402A412A62
:10348000492A0030F3000030F2000030F100003033
:10349000F00000307405F80000307505F900803048
:1034A0007605FA007F307705FB007B087A04790403
:1034B0007804031D5C2A5D2A652A0030F70000307D
:1034C000F6000030F5000030F400F31F682A692A86
:1034D000812A0030F8000030F9000030FA00803016
:1034E000FB007008F8027108F93B7208FA3B730898
:1034F000FB3B7B08F3007A08F2007908F1007808BA
:10350000F000F71F842A852A9D2A0030F800003039
:10351000F9000030FA008030FB007408F8027508EA
:10352000F93B7608FA3B7708FB3B7B08F7007A0803
:10353000F6007908F5007808F4008030F306803052
:10354000F70677087302031DAF2A76087202031D7F
:10355000AF2A75087102031DAF2A740870020318A0
:10356000B22AB32AB52A0310B62A031408002C2B5A
:10357000C0010030A23103229A3111302100C00075
:10358000B030C100A2312B229A312100C001C00A03
:103590000030A23103229A313B302100C000B0300C
:1035A000C100A2312B229A31432BC0010030A2313D
:1035B00003229A312D302100C000B030C100A23169
:1035C0002B229A312100C001C00A0030A23103220F
:1035D0009A31AA302100C000B030C100A2312B22A4
:1035E0009A31432BC0010030A23103229A311F309F
:1035F0002100C000B030C100A2312B229A3121003D
:10360000C001C00A0030A23103229A313B302100B0
:10361000C000B030C100A2312B229A31432BC0012F
:103620000030A23103229A312D302100C000B03089
:10363000C100A2312B229A312100C001C00A003002
:10364000A23103229A31AA302100C000B030C1005B
:10365000A2312B229A31432B21005508C600C70105
:103660004708003A0319352B432B4608003A031943
:10367000B82A013A0319D52A033A0319F22A013A62
:1036800003190F2B432B0800F2007208031D492B6E
:103690004A2B972B21004F08803AF10080307102AD
:1036A000031D542B01304E02031C572B582B5F2B4C
:1036B00021004E08FF3ECE00FF304F3DCF002200DC
:1036C0006508803AF10080307102031D692B0130DA
:1036D0006402031C6C2B6D2B742B22006408FF3ECC
:1036E000E400FF30653DE50022006308803AF10008
:1036F00080307102031D7E2B01306202031C812B7E
:10370000822B892B22006208FF3EE200FF30633DDE
:10371000E3000030AE31B6269B310130AE31A62633
:103720009B310430F10071082100D500E02B22000C
:103730006108803AF10080307102031DA12B013035
:103740006002031CA42BA52BAC2B22006008FF3EBB
:10375000E000FF30613DE10022005F08803AF100A7
:1037600080307102031DB62B01305E02031CB92BA1
:10377000BA2BC12B22005E08FF3EDE00FF305F3D0A
:10378000DF0022005D08803AF10080307102031DE5
:10379000CB2B01305C02031CCE2BCF2BD62B22006F
:1037A0005C08FF3EDC00FF305D3DDD000130AE31E6
:1037B000B6269B310030AE31A6269B312100D501C3
:1037C00008002000A00020080319E72BE82BFC2BA1
:1037D000F91FEB2BEC2BFC2B7609A2007709A30039
:1037E0007809A4007909A500A20A0319A30A0319FC
:1037F000A40A0319A50A042C7908A5007808A400D6
:103800007708A3007608A200790878047704760484
:10381000031D0B2C0C2C152C0030F9000030F80087
:103820000030F7000030F6008D2C9630FA007A0850
:10383000A100252C0130FA007A08A1070130A53635
:10384000A40CA30CA20C890B1F2CFE302505031D14
:103850002A2C2B2C1A2C3F2C0130FA007A08A107B5
:103860000130A2070030A33D0030A43D0030A53D4B
:103870000130A536A40CA30CA20C890B392CFF3007
:103880002505031D442C452C2C2C4F2C0130A10266
:103890000130A235A30DA40DA50D890B492CA41B45
:1038A000522C532C592C023021020318582C592C1D
:1038B000462C21185C2C5D2C652CFF30A205FF30B6
:1038C000A3057F30A405FF30A5050310A10C210836
:1038D000FA00FB01FC01FD011830FA35FB0DFC0D6F
:1038E000FD0D890B6D2C7A08A2047B08A3047C08CB
:1038F000A4047D08A504200803197F2C802C852CA6
:10390000F91F832C842C852CA5172508F900240881
:10391000F8002308F7002208F6000800AE319926C7
:103920009C31A031FC209C31D830860001308700CA
:10393000203084000330850008302300C8001600C2
:103940001A00C80B9F2C6830860002308700283090
:103950008400033085000830C80016001A00C80B28
:10396000AD2C603086000230870030308400033098
:1039700085000830C80016001A00C80BBB2C583050
:10398000860002308700383084000330850008301C
:10399000C80016001A00C80BC92C5030860002302F
:1039A000870040308400033085000830C8001600CE
:1039B0001A00C80BD72C48308600023087004830E8
:1039C0008400033085000830C80016001A00C80BB8
:1039D000E52C20302100C0000330C100C201C20A22
:1039E000A231FA229C3128302100C0000330C100EE
:1039F000C201A231FA229C3130302100C0000330D4
:103A0000C10002302300C80048082100C200A231D2
:103A1000FA229C3138302100C0000330C10003304D
:103A20002300C80048082100C200A231FA229C31BC
:103A300040302100C0000330C10004302300C80022
:103A400048082100C200A231FA229C3148302100EE
:103A5000C0000330C10007302300C800480821001F
:103A6000C200A231FA229C31A33128239C31853136
:103A70001F259C318B170130AE31C6269C313F2D5E
:103A8000803129282300620863040319482D492D39
:103A90004E2D63088A0062080A009D3121005608F5
:103AA0000319532D542D152EE72DAF318D279D3140
:103AB0002000E501E50A0030903107209D3121000A
:103AC000B5003508B7003708031D672D682D732D25
:103AD000A03100209D3101309B3144239D318C3138
:103AE00075249D31252E4C084D04031D782D792D0C
:103AF000812D0130AC000030AD00993126219D317F
:103B0000252E01309B3144239D316F2D220060080A
:103B10006104031D8C2D8D2DB92DAF318D279D3165
:103B20002000E501E50A0130903107209D31210098
:103B3000B5003508B7003708031D9F2DA02DA82D0F
:103B4000A03100209D3101309B3144239D316F2DE8
:103B50004C084D04031DAD2DAE2DAF2D792D043035
:103B60002200E0000030E10001309B3144239D3110
:103B70006F2DA1318E219D316F2D22005E085F04D3
:103B8000031DC32DC42DB92D0130A331ED239D316B
:103B900003302200DE000030DF0001309B3144237F
:103BA0009D316F2D22005C085D04031DD82DD92D99
:103BB000B92D01309931A9219D3103302200DC005B
:103BC0000030DD0001309B3144239D316F2D5508BD
:103BD000B500B6013608003A0319EF2D252E350839
:103BE000043A0319552D013A0319862D033A031996
:103BF000BD2D013A0319D22D252ED4010130AE314D
:103C0000B6269D310030AE31A6269D31A2317C22F0
:103C10009D31252ED401D40A0130AE31B6269D3116
:103C20000030AE31A6269D31062E5508B500B601EE
:103C30003608003A03191D2E252E3508023A0319BD
:103C4000FD2D013A03190A2E252E27009312080094
:103C5000F2012830860000308700473FF000F01F57
:103C6000322E332E542E2000A809A909AA09AB0927
:103C7000AC09AD09AE09AF09A80A031D522EA90A65
:103C8000031D522EAA0A031D522EAB0A031D522EEB
:103C9000AC0A031D522EAD0A031D522EAE0A031D9F
:103CA000522EAF0AF201F20A20308600003087005F
:103CB000473FF000F01F5D2E5E2E7D2E2000A009F4
:103CC000A109A209A309A409A509A609A709A00A8F
:103CD000031D7D2EA10A031D7D2EA20A031D7D2E2C
:103CE000A30A031D7D2EA40A031D7D2EA50A031D14
:103CF0007D2EA60A031D7D2EA70A20002008210480
:103D00002204230424042504260427040319892EED
:103D10008A2EDD2EF101F10A992EA035A10DA20DFA
:103D2000A30DA40DA50DA60DA70D0130F000700880
:103D3000F107A71F9C2E9D2E8D2E27082F02031DF5
:103D4000BB2E26082E02031DBB2E25082D02031DA7
:103D5000BB2E24082C02031DBB2E23082B02031D9F
:103D6000BB2E22082A02031DBB2E21082902031D97
:103D7000BB2E20082802031CBE2EBF2ECF2E2008EB
:103D8000A8022108A93B2208AA3B2308AB3B240830
:103D9000AC3B2508AD3B2608AE3B2708AF3BA7361A
:103DA000A60CA50CA40CA30CA20CA10CA00C013019
:103DB000F102031DDC2EDD2E9D2E72080319E12E6B
:103DC000E22E002FA809A909AA09AB09AC09AD097F
:103DD000AE09AF09A80A031D002FA90A031D002F71
:103DE000AA0A031D002FAB0A031D002FAC0A031DF6
:103DF000002FAD0A031D002FAE0A031D002FAF0ACE
:103E000020002808A0002908A1002A08A2002B08E9
:103E1000A3002C08A4002D08A5002E08A6002F083A
:103E2000A7000800220069086A040319182F192F37
:103E30001E2F6A088A0069080A009F31210056086F
:103E40000319232F242FED2FB62FAF318D279F314C
:103E50002000E5010030903107209F312100B5009E
:103E600035082000EF006F08031D372F382F432F30
:103E7000A03100209F3100309B3144239F318C3191
:103E800075249F31FD2F210050085104031D492F37
:103E90004A2F512F0030AC00AD00993126219F31BF
:103EA000FD2F00309B3144239F313F2F4E084F049C
:103EB000031D5B2F5C2F882FAF318D279F31200092
:103EC000E5010130903107209F312100B500350810
:103ED0002000EF006F08031D6E2F6F2F772FA0318A
:103EE00000209F3100309B3144239F313F2F210020
:103EF00050085104031D7D2F7E2F7F2F4A2F043041
:103F0000CE000030CF0000309B3144239F313F2F43
:103F1000A1318E219F313F2F220064086504031DCB
:103F2000922F932F882F0030A331ED239F31033040
:103F30002200E4000030E50000309B3144239F3133
:103F40003F2F220062086304031DA72FA82F882F8C
:103F500000309931A9219F3103302200E200003066
:103F6000E30000309B3144239F313F2F5508B500BB
:103F7000B6013608003A0319BE2FFD2F3508003A66
:103F80000319252F013A0319562F033A03198C2FD1
:103F9000013A0319A12FFD2F2200DB01023021007D
:103FA000B5003508D5000030AE31B6269F3101305E
:103FB000AE31A6269F313F2F2200DB01DB0A023003
:103FC0002100B5003508D5000030AE31B6269F314E
:103FD0000130AE31A6269F313F2F5508B500B601FE
:103FE0003608003A0319F52FFD2F3508003A03195A
:103FF000CC2F013A0319DC2FFD2F270013110800E5
:10400000AF318D27A031F70122006608A131B4211C
:10401000A031E530F700B030F800A1316821A031BF
:104020005230FD002A30890B1328FD0B132808009D
:10403000F600D030890B1A280000F0017608A03174
:104040005620A0317608F4000330F435FF3E031DFE
:1040500025287435F5007508F6002930890B2E28BF
:104060000032F0017608A0315620A0310800F4019A
:10407000F501701C3C283D2841287208F40773089C
:10408000F53D0130F235F30D890B42280130F13650
:10409000F00C890B472870087104031D5028512823
:1040A00039287508F1007408F0000800F30073085F
:1040B000F1000430F136890B5A287108F2007208B9
:1040C000F30073080F39F1007108F30020000D08A8
:1040D000F0398D000D0873048D00700C031C8D12D7
:1040E00003188D160D130D160D1208002100BF00C8
:1040F000D030890B792800002100B901B90A3F08A6
:10410000A1314321A03121003F08BD000330BD355E
:10411000FF3E031D87283D35BE003E08BF00B901A4
:10412000B90A3F08A1314321A03108002100C00194
:1041300022006608A2310322A03105302100C00010
:10414000B030C100A2312B22A0312100C001C00A31
:1041500022006608A2310322A03105302100C000F0
:10416000B030C100A2312B22A0310800F800F401C8
:10417000F5017008F200F3017208F6007308F70009
:10418000781CC328C428C8287608F4077708F53DAA
:104190000130F635F70D890BC9280310F80C7808A3
:1041A000031DD328D428C0287508F1007408F00036
:1041B00008002100BF00D030890BDC28000021005E
:1041C000B9013F08A1314321A03121003F08BD00C2
:1041D0000330BD35FF3E031DE9283D35BE003E08D6
:1041E000BF002930890BF22800322100B9013F08B5
:1041F000A1314321A031080020008D0121008D0153
:1042000020008D1703302100C0006E30890B062975
:10421000C00B06293230A031D920A0312830A0317E
:10422000D920A0310C30A031D920A0310130A031EB
:10423000D920A0310630A031D920A03108002300B8
:10424000C000BA30BC003C08BF004008BC003C08BD
:10425000C100C201C301C401C5013908B100380859
:10426000B000BF30BC003C08B200C130A33189238C
:10427000A131230042084007BC003C088600013001
:104280008700810108002100BC003C08BA0004300E
:10429000BA36890B48293A08BB003B08BC003C08E9
:1042A0000F39BA003A08BC0020000D08F0398D0023
:1042B0000D0821003C0420008D002100390C200055
:1042C000031C8D1203188D160D130D160D12080008
:1042D000FC017D297808FA007708F9007C08790745
:1042E00084007A0803187A0A85000008AF31C527D0
:1042F000A1310130F9007908FC077808FA00770845
:10430000F9007C08790784007A0803187A0A850086
:104310001200031D8C298D296A290800AF318D27D1
:10432000A131F70122006608A131B421A131B330D7
:10433000F700B030F800A1316821A131F701F70A88
:1043400022006608A131B421A131F330F700B0306A
:10435000F800A1316821A1315230FD002A30890BCB
:10436000AF29FD0BAF290800FA00023077020318CD
:10437000BA29BB29DA2910307A02031CC029C129C5
:10438000C229DA2977030319C629C729CD29803024
:104390007A04F8000030F900D229C0307A04F8001D
:1043A0000030F9007808A0311820A131D030890BF5
:1043B000D72900000800AF313E27A131F7010030B6
:1043C000A131B421A13122005B08AF31C527A13151
:1043D00021005403031DED29EE29F829F7010F30C0
:1043E000A131B421A1310430AF31C527A131022A56
:1043F000F7010F30A131B421A13121005408AF31B0
:10440000C527A13108002100C30002304002031873
:104410000A2A0B2A2A2A10304302031C102A112AC6
:10442000122A2A2A40030319162A172A1D2A803025
:104430004304C1000030C200222AC0304304C1003E
:104440000030C2004108A031D920A231D030890B00
:10445000272A000008002100C501422A4108C300A4
:104460004008C20045084207840043080318430A75
:1044700085000008A0317620A23101302100C20061
:104480004208C5074108C3004008C200450842076A
:10449000840043080318430A85001200031D512AB3
:1044A000522A2E2A08002000A000A201A3016B2A94
:1044B0002108FB00FC017B08F0007C08F1007A0871
:1044C000F3007908F200A631DB26A231013020008A
:1044D000A2070030A33D22082007FB007B088600CE
:1044E000033087000108FC007C08A1002108031D9F
:1044F0007A2A7B2A582A0800AE31F026A231A1314F
:10450000DB21A2318E312C26A23195312025A2311A
:10451000F70122006608A131B421A2316130F70011
:10452000B030F800A1316821A231A3302000EF00A3
:104530005530890B992AEF0B992A2100D501D60114
:10454000D60A8C317524A23108007908FA000230AD
:10455000FA35FF3E031DA82A7A35403EA0311820C7
:10456000A231FB01FC017B08770786007C08783DBF
:1045700087000108AF31C527A2310130FB070030A9
:10458000FC3D7C08803AFA0080307A02031DCA2A7A
:1045900008307B02031CCD2ACE2AB32A0800210052
:1045A000A4006C30A2000030A30024082000EE001C
:1045B0006E082100A500A601A701A801A901A53048
:1045C0002000E1000030E2006B08E4006A08E3002C
:1045D000A230E5000030E600A331BA23A231210069
:1045E000260824072000EE006E08860001308700B0
:1045F0008101080021004208C3000230C335FF3E9C
:10460000031DFE2A4335403EA031D920A2312100AE
:10461000C401C50121004408400786004508413D0A
:1046200087000108A0317620A23101302100C407A3
:104630000030C53D4508803AC30080304302031D69
:10464000232B08304402031C262B272B0A2B08009F
:10465000A0319620A3312100C00122006608A231BA
:104660000322A331ED302100C000B030C100A231DF
:104670002B22A3312100C001C00A22006608A2310A
:104680000322A331BC302100C000B030C100A231F0
:104690002B22A33102302100C7004530C600A930CB
:1046A000890B502BC60B502BC70B502B0032080028
:1046B0002700131C5C2B5D2B602BA4312724A33116
:1046C0002700931C642B652B682BA4316A24A3312B
:1046D0002700131D6C2B6D2B702B9F311227A331DC
:1046E0002700931D742B752B782BA5314225A33100
:1046F0002700131E7C2B7D2B802BA5318F25A3310A
:104700002700931E842B852B882B9D314225A331B6
:1047100008002300B5003108B7003008B6002200B9
:10472000D201D301A72BB630B3003308A000320862
:10473000B4003408A10035088631F626A3312300E1
:1047400020082200D207230021082200D33D2300A5
:1047500036088400370885001200031DB02BB12BEA
:10476000932B220053082300B1002200520823009B
:10477000B000080020006408E9006308E800220097
:10478000D201D301DA2B6208D0006108CF00683073
:10479000D1000030D2006608D4006508D300903103
:1047A000D320A33120004F082200D2072000500858
:1047B0002200D33D200068088400690885001200AB
:1047C000031DE32BE42BC32B220053082000E2003F
:1047D000220052082000E10008002000E1006108EA
:1047E000031DF32BF42B0C2C21004D08803A2000E4
:1047F000E00080306002031D002C043021004C02D8
:104800000318032C042C232C21004C08013ECC005F
:1048100000304D3DCD00232C21005108803A20006E
:10482000E00080306002031D182C0430210050028B
:1048300003181B2C1C2C232C21005008013ED000F7
:104840000030513DD1008E312C26A33108002200CA
:104850006D086E0403192D2C2E2C332C6E088A0043
:104860006D080A00A431210056080319382C392C90
:104870005A2C472CD5018C317524A431672CD501D5
:10488000D50A3B2C0230AC002C08D5003B2C550837
:10489000AC00AD012D08003A03194F2C672C2C08F1
:1048A000013A03193A2C033A03193F2C013A031930
:1048B000422C672C5508AC00AD012D08003A0319B5
:1048C000622C672C2C08013A03193A2C672C27001C
:1048D0001310080022006B086C040319702C712C53
:1048E000762C6C088A006B080A00A4312100560857
:1048F00003197B2C7C2CA02C8D2CD501D50A8C3156
:104900007524A431AD2C0230AC002C08D5007F2CCE
:104910000330AC002C08D5007F2C5508AC00AD014D
:104920002D08003A0319952CAD2C2C08003A0319D8
:104930007D2C013A0319832C033A0319882CAD2CE2
:104940005508AC00AD012D08003A0319A82CAD2C78
:104950002C08003A03197D2CAD2C27009310080079
:1049600000341F341F341F341F340E340434003419
:1049700000341F34113411341F340E340434003425
:1049800000341F341134113411340A340434003427
:1049900000341F341F341F341F340E3404340034E9
:1049A00000341F34113411341F340E3404340034F5
:1049B00000341F341134113411340A3404340034F7
:1049C000003400340A341F341F340E3404340034ED
:1049D00000340A341D341D341D340E3404340034C4
:1049E00000340A341D34193419340A3404340034C0
:1049F0003D30F300CC30F200CC30F100CD30F0008F
:104A000022005108F7005008F6004F08F5004E0844
:104A1000F4008231E022A43173082200D100720830
:104A2000D0007108CF007008CE005108F300500884
:104A3000F2004F08F1004E08F0004030F700A030BF
:104A4000F6000030F5000030F4009A312D22A43138
:104A5000031C2B2D2C2D352D00302200D1000030D1
:104A6000D0000030CF000030CE0023006008610489
:104A700003193B2D3C2D412D61088A0060080A0076
:104A8000A53108002200670868040319482D492D44
:104A90004E2D68088A0067080A00A53121005608D3
:104AA0000319532D542D7F2D672D0430AC002C0895
:104AB000D5008C317524A5318C2D0530AC002C0827
:104AC000D500592D0630AC002C08D500592D5508BD
:104AD000AC00AD012D08003A03196F2D8C2D2C0868
:104AE000053A0319552D033A03195D2D013A0319AF
:104AF000622D8C2D0230AC002C08D500592D5508A4
:104B0000AC00AD012D08003A0319872D8C2D2C081F
:104B1000033A03197A2D8C2D2700931108002300E6
:104B2000640865040319952D962D9B2D65088A0050
:104B300064080A00A531210056080319A02DA12DF3
:104B4000CC2DB42D0530AC002C08D5008C3175244B
:104B5000A531D92D0630AC002C08D500A62D073084
:104B6000AC002C08D500A62D5508AC00AD012D08D1
:104B7000003A0319BC2DD92D2C08043A0319A22D93
:104B8000013A0319AA2D033A0319AF2DD92D033089
:104B9000AC002C08D500A62D5508AC00AD012D08A1
:104BA000003A0319D42DD92D2C08023A0319C72D28
:104BB000D92D27001312080000340A34153411349B
:104BC00011340A3404340034003400340A341F34FD
:104BD0001F340E340434003400340A341D341D34C0
:104BE0001D340E340434003400340A341D341934B6
:104BF00019340A340434003400340A3415341134BE
:104C000011340A340434003400341F341F341F3488
:104C10001F340E34043400340E34023407341F348D
:104C2000073402340E340034003400340A341F34A4
:104C30001F340E3404340034003400340E341F3476
:104C40000E3400340034003400340A341134153486
:104C5000153411340A3400342100521C302E312E08
:104C60003A2E20002508FA002408F9002608A2316F
:104C70005322A6312000A81B3E2E3F2E442E28088A
:104C8000AC002708AB00462EAB01AC01A901AA017C
:104C90005A2E2030F0000030F10020002508F300EB
:104CA0002408F200A631DB26A63101302000A90736
:104CB0000030AA3D2A08803AFD002C08803A7D0287
:104CC000031D642E2B082902031C672E682E492E13
:104CD000210052186C2E6D2E762E20002508FA0029
:104CE0002408F9002608A2315322A6312000260804
:104CF000AF312427A63120002B087007A4002C0810
:104D0000713DA500080021003B080319882E892E5B
:104D10008E2E3B08031D8D2E8E2E932E390880314A
:104D20000320A631DA2E3B08033E860001308700BF
:104D30001600010403199D2E9E2EBD2E3B08033E36
:104D4000860001308700403FBC00413FBD003B0A68
:104D5000860001308700403FBE00413FBF003F0852
:104D6000803AC0003D08803A4002031DB92E3C083D
:104D70003E020318BC2EBD2EDA2E21003908BC00DD
:104D80003B088600013087003B0A84000130850023
:104D900000080107BD003D088600013087003C087F
:104DA00081003B0A860001308700013081074131D4
:104DB0000318810A0800720873040319E02EE12E1B
:104DC000E72E72087304031DE62EE72EEC2E700802
:104DD000AE312326A631352F72088600730887006E
:104DE0004331160001040319F62EF72E172F72080F
:104DF0008600730887004331403FF400413FF500CF
:104E000072088600730887004131403FF600413F39
:104E1000F7007708803AF8007508803A7802031D99
:104E2000132F740876020318162F172F352F7008CA
:104E3000F400720886007308870072088400730803
:104E40008500013100080107F50075088600013072
:104E5000870074088100720886007308870041315A
:104E60000130810741310318810A08002200A9009E
:104E70002100521C3C2F3D2F472F22002908A4005F
:104E800024082100C100450888310120A7312100F4
:104E9000C71B4B2F4C2F542F47082200A80021007E
:104EA00046082200A700572F2200A701A801A5014C
:104EB000A6016D2F20302100B9000030BA00220079
:104EC0002908A40024082100BB00A6318326A731AD
:104ED00001302200A5070030A63D2608803AA40034
:104EE0002808803A2402031D772F27082502031C77
:104EF0007A2F7B2F5A2F210052187F2F802F8A2F35
:104F000022002908A40024082100C1004508883196
:104F10000120A73121004508AF317227A7312200B7
:104F2000270821003907C5002200280821003A3D42
:104F3000C600080022008C018D018E01083021007E
:104F40009000FF308C008D01FF308E00FC3023007C
:104F50008E008D018C010830240090008D013F30BF
:104F60008C008E012100951325008C018D018E018E
:104F7000FF3026008C00FF308D00FF308E00FF30A8
:104F800027008C00FF308D00FF308E00083090002D
:104F90001214921412159215121692162230210034
:104FA000B9002E30BA00AE313926A73124302100A5
:104FB000B9002E30BA00AE314226A731253021008B
:104FC000B9002E30BA00AE314B26A7312630210071
:104FD000B9002E30BA00AE315426A731003021007E
:104FE000B9001830BA00AE315D26A731003021007B
:104FF000B9000830BA00AE316626A7318B1508001B
:105C4400080008000800080008001630210097002A
:105C54000800640080010131890B2C2E00340E34BD
:105C640008341C341F341C3408340E34003421002E
:105C74003A082200EE00210039082200ED00080055
:105C840021003A082200EC00210039082200EB0030
:105C9400080021003A082200EA0021003908220005
:105CA400E900080021003A082200E8002100390830
:105CB4002200E700080021003A082300E500210043
:105CC40039082300E400080021003A082300E30017
:105CD400210039082300E200080021003A082300CB
:105CE400E100210039082300E000080003340034F7
:105CF40003340034043400340134003404340034F4
:105D040001340034013400340134003401340034EB
:105D140001340034033420004308420441044004A5
:105D24000319952E962E982E8030C3060800A731AD
:105D34009A27AE3190310020AE31AE312726AE31F4
:105D4400AE31D726AE310800F0007003031DAB2E30
:105D5400AC2EB12E2700921512169216B52E2700DE
:105D64001214921412150800F0007003031DBB2EC8
:105D7400BC2EC12E2700921112129212C52E27009A
:105D840012109210121108002100B9003903031DEA
:105D9400CC2ECD2ED22E2700921112129212D62E74
:105DA4002700121092101211080021001508C039A2
:105DB40017389500FE3020009500FE302100BB000E
:105DC4003B082200EF000B118B1602302100B900B2
:105DD4000030BA00AE316F26AE310800F701003052
:105DE400A131B421AE310030F700B030F800A13158
:105DF4006821AE31F701F70A0030A131B421AE3188
:105E04000030F700B030F800A1316821AE3108004D
:105E14007408803AF50080307502031D132F013099
:105E240073020318162F172F232F7309F500740913
:105E3400F600F50A0319F60A7508F3007608F4006B
:105E4400232F0800F4007408F2007208F3002E2FC8
:105E54000130F2007208F4077408860003308700EA
:105E64000108031D362F372F2A2F73087402F00000
:105E7400F101F01BF1030800F7010030A131B42156
:105E8400AF310030F700B030F800A1316821AF31F4
:105E9400F701F70A0030A131B421AF310030F70027
:105EA400B030F800A1316821AF3108000B11220095
:105EB4006F082000950001302200D8070030D93D3A
:105EC40000305902193003195802031C6A2F6B2F32
:105ED400712FA431F824AF312200D801D901080070
:105EE4002100BD003D08BB003B08BC007D2F0130F4
:105EF400BB003B08BD073D0886000330870001084E
:105F0400031D852F862F792F3C083D02B900BA0165
:105F1400B91BBA030800F70122006608A131B421B5
:105F2400AF310530F700B030F800A1316821AF314E
:105F3400F701F70A22006608A131B421AF31053018
:105F4400F700B030F800A1316821AF31080021001A
:105F54003D08803ABE0080303E02031DB32F01305D
:105F64003C020318B62FB72FC42F21003C09BE00F2
:105F74003D09BF00BE0A0319BF0A3E08BC003F0822
:105F8400BD00C42F0800F600D030890BC72F0000D5
:105F9400F001F00A7608A0315620AF317608F400FB
:105FA4000330F435FF3E031DD32F7435F500750817
:105FB400F600F001F00A7608A0315620AF3108004F
:105FC4002100C0010030A2310322AF310030210092
:105FD400C000B030C100A2312B22AF312100C0017A
:105FE400C00A0030A2310322AF3100302100C000CA
:105FF400B030C100A2312B22AF310800203420344C
:1060040020342034203420342034203420342034EC
:1060140020342034203420342034203400345334C9
:1060240065346C34653463347434203473346834C4
:1060340069347034233431340034533465346C346B
:10604400653463347434203473346834693470349C
:1060540023343234003420342034543469346534E5
:1060640020344634693467346834743465347234A3
:1060740000343E3420345434693465342034463496
:1060840069346734683474346534723400342034C9
:106094005334703465346334693461346C3420347B
:1060A4002534643400343E345334703465346334FA
:1060B400693461346C34203425346434003453340A
:1060C400743461347234743420344634693467343B
:1060D4006834743400343E34533468346934653479
:1060E4006C346434203425346434003457346934D3
:1060F4006E346E34653472343A34203431340034BE
:10610400203450346C34613479346534723420343E
:1061140031340034573469346E346E346534723437
:106124003A34203432340034203450346C34613402
:106134007934653472342034323400344734613471
:106144006D34653420344F3476346534723400341D
:106154003E34203458342034773469346E34673410
:10616400003463346F346F346C3464346F34773494
:106174006E340034463469346734683474346534B6
:10618400723473340034203446346934783420341F
:106194002534643400343E3446346934783420344D
:1061A4002534643400342034413474347434613418
:1061B40063346B3400343E344134743474346134A5
:1061C40063346B3400342034203420344D34693447
:1061D40073347334003446346F3472346334653446
:0E61E400003473346B3469346C346C34003422
:020000040001F9
:04000E00E43FFF1FAD
:00000001FF
