:020000040000FA
:0400000080311B2808
:100008007E1480318B1D09280A2819280B1C0D28FD
:100018000E2819280D30FD00FC30890B1128FD0B26
:1000280011288231A82280310B107E1009008031FE
:100038001D28DB3084008630850042308600003081
:1000480087000B3087310B278031253084008630BC
:100058008500C030860000308700183087310B27B4
:100068008031CD01CE01CF01D001D101D2017E1066
:1000780020008131BF29B428AD0100308331DD2350
:10008800803197302000AD008630AE008331B52333
:1000980080312000AD01AD0A00308331DD2380318D
:1000A800C1302000AD008630AE008331B5238031E9
:1000B800CB28AD0100308331DD238031B3302000FF
:1000C800AD008630AE008331B52380312000AD010C
:1000D800AD0A00308331DD238031FB302000AD00D4
:1000E8008630AE008331B5238031CB28AD01003096
:1000F8008331DD238031A5302000AD008630AE008D
:100108008331B52380312000AD01AD0A0030833141
:10011800DD238031C1302000AD008630AE00833150
:10012800B5238031CB28AD0100308331DD23803108
:10013800B3302000AD008630AE008331B523803166
:100148002000AD01AD0A00308331DD238031FB3062
:100158002000AD008630AE008331B5238031CB2836
:1001680020005108B300B4013408003A0319BD282F
:10017800CB283308003A03194028013A03195D28AF
:10018800033A03197A28013A03199728CB2808005B
:100198003529F701003084312D2480319730F7005C
:1001A8008630F800843154248031F701F70A003092
:1001B80084312D248031C130F7008630F800843135
:1001C800542480314C29F701003084312D248031AA
:1001D800B330F7008630F800843154248031F701B9
:1001E800F70A003084312D248031FB30F700863047
:1001F800F8008431542480314C29F70100308431CF
:100208002D248031A530F7008630F800843154243D
:100218008031F701F70A003084312D248031C13054
:10022800F7008630F8008431542480314C29F701D6
:10023800003084312D248031B330F7008630F80047
:10024800843154248031F701F70A003084312D2499
:100258008031FB30F7008630F80084315424803137
:100268004C2920005108A000A1012108003A0319D7
:100278003E294C292008003A0319CD28013A0319D0
:10028800E728033A03190129013A03191B294C29C4
:10029800080022008C018D018E0108302100900099
:1002A800FF308C008D01FF308E00FC3023008E0063
:1002B8008D018C010830240090008D013F308C00A6
:1002C8008E012100951325008C018D018E01FF30D0
:1002D80026008C00FF308D00FF308E00FF30270095
:1002E8008C00FF308D00FF308E0008309000131016
:1002F80093101311931113129312121492141215CE
:1003080092151216921611149110111191151112BD
:1003180091123E302000A6000730A70087312F2712
:1003280081313D302000A6000730A70087312927FA
:1003380081313C302000A6000730A70087312327F1
:1003480081313B302000A6000730A70087311D27E8
:1003580081313A302000A6000730A70087311727DF
:10036800813139302000A6000730A70087311127D6
:1003780081318B1508008631F126813184317A2448
:1003880081314230860000308700A0308400003080
:10039800850008302000B50016001A00B50BD029DA
:1003A800D030860000308700A830840000308500F7
:1003B8000830B50016001A00B50BDE29C8308600D3
:1003C80000308700B0308400003085000830B50068
:1003D80016001A00B50BEC29C030860000308700E3
:1003E800B8308400003085000830B50016001A00C7
:1003F800B50BFA29AD01AD0AA0308231D92281317D
:100408002000AD01A8308231D9228131023020008C
:10041800B5003508AD00B0308231D92281310330C2
:100428002000B5003508AD00B8308231D9228131BD
:100438008531202581318B1701308631662681313F
:10044800242A80311B2820003C083D0403192D2A4A
:100458002E2A332A3D088A003C080A0082312000EF
:1004680052080319382A392A572A672AD001003036
:1004780086317726823101308631872682310230F3
:100488002000A2002208D10085319A258231672AEE
:10049800D001D00A0030863177268231013086318A
:1004A80087268231432A5108A200A3012308003A73
:1004B80003195F2A672A2208003A03193A2A013ADF
:1004C80003194C2A672A2700131108002000360850
:1004D80037040319702A712A762A37088A003608E1
:1004E8000A0082312000520803197B2A7C2A952AA7
:1004F800A52ACF0101308631772682310030863136
:1005080087268231843105248231A52ACF01CF0A7A
:100518000130863177268231003086318726823154
:10052800862A5108A400A5012508003A03199D2A26
:10053800A52A2408023A03197D2A013A03198A2AAE
:10054800A52A2700931208002700131CAC2AAD2AFD
:10055800B02A83318A2382312700931CB42AB52A12
:10056800B82A8331082382312700131DBC2ABD2AEB
:10057800C02A8231272282312700931DC42AC52A26
:10058800C82A83315F2382312700131ECC2ACD2A43
:10059800D02A8331342382312700931ED42AD52AC6
:1005A800D82A82316A22823108002000AF002D0843
:1005B800AE000230AE35FF3E031DDE2A2E35403E2A
:1005C80084319D2482312000B001B101200030081F
:1005D8002F07AE002E088600870101088431C02449
:1005E800823101302000B0070030B13D3108803A37
:1005F800AE0080302E02031D032B08303002031C8E
:10060800062B072BEA2A080020003E083F0403199E
:100618000E2B0F2B142B3F088A003E080A0083314B
:10062800200052080319192B1A2B212B312BD10129
:10063800D10A85319A258331312B5108A200A301B3
:100648002308003A0319292B312B2208003A0319F1
:100658001B2B013A0319312B312B2700931008006B
:1006680020003808390403193A2B3B2B402B390852
:100678008A0038080A008331200052080319452BE4
:10068800462B4F2B5C2B0330A2002208D10085316A
:100698009A2583315C2B5108A200A3012308003A54
:1006A8000319572B5C2B2208023A0319472B5C2BA2
:1006B80027001312080020003A083B040319652B91
:1006C800662B6B2B3B088A003A080A00833120000E
:1006D80052080319702B712B7A2B872B0230A2003A
:1006E8002208D10085319A258331872B5108A20031
:1006F800A3012308003A0319822B872B2208033A07
:100708000319722B872B270093110800200040083B
:1007180041040319902B912B962B41088A0040081D
:100728000A0083312000520803199B2B9C2BA22B13
:10073800B22BD10185319A258331B22B5108A20001
:10074800A3012308003A0319AA2BB22B2208003A66
:100758000319B22B013A03199D2BB22B2700131052
:1007680008002000B201CC2B2E08B0002D08AF00E5
:1007780032082F07840030080318300A8500000863
:100788008431C024833101302000AF002F08B20724
:100798002E08B0002D08AF0032082F07840030085B
:1007A8000318300A85001200031DDB2BDC2BB82B45
:1007B80008002000B00002302D020318E42BE52BBE
:1007C800042C10303002031CEA2BEB2BEC2B042CEE
:1007D8002D030319F02BF12BF72B80303004AE00DA
:1007E8000030AF00FC2BC0303004AE000030AF004A
:1007F8002E0884319D248331D030890B012C0000D0
:10080800080086310B26843186313D268431F70174
:1008180020004C0884312D248431CF30F7008630F5
:10082800F80084315424843102302000A30045307C
:10083800A200A930890B1E2CA20B1E2CA30B1E2C68
:1008480000322000D101D201D20A85319A258431A3
:100858000800FA00023077020318332C342C532C8A
:1008680010307A02031C392C3A2C3B2C532C77037A
:1008780003193F2C402C462C80307A04F8000030B5
:10088800F9004B2CC0307A04F8000030F9007808E1
:1008980085313F258431D030890B502C0000080069
:1008A800FC01692C7808FA007708F9007C087907B8
:1008B80084007A0803187A0A850000088531B8256B
:1008C80084310130F9007908FC077808FA007708C4
:1008D800F9007C08790784007A0803187A0A8500E9
:1008E8001200031D782C792C562C080020008D014D
:1008F80021008D0120008D1703302000AD006E30DF
:10090800890B842CAD0B842C323084319D248431A6
:10091800283084319D2484310C3084319D248431E5
:10092800013084319D248431063084319D24843102
:1009380008002000AC00D030890BA02C000020005B
:10094800A6012C088431E024843120002C08AA0058
:100958000330AA35FF3E031DAD2C2A35AB002B080A
:10096800AC002930890BB62C00322000A6012C08D7
:100978008431E024843108002000AC00D030890B99
:10098800C32C00002000A601A60A2C088431E0240C
:10099800843120002C08AA000330AA35FF3E031D2D
:1009A800D12C2A35AB002B08AC00A601A60A2C08CE
:1009B8008431E024843108002000A9002908A70018
:1009C8000430A736890BE52C2708A8002808A900B9
:1009D80029080F39A7002708A9000D08F0398D004C
:1009E8000D0829048D00260C031C8D1203188D1682
:1009F8000D130D160D120800F3007308F1000430F2
:100A0800F136890B042D7108F2007208F30073089F
:100A18000F39F1007108F30020000D08F0398D003E
:100A28000D0873048D00700C031C8D1203188D16AD
:100A38000D130D160D120800200052080319252D5C
:100A4800262D382D85315E2585312000AD014C08D5
:100A58008331DD238531E6302000AD008630AE00DD
:100A68008331B52385313E2D85317C258531803113
:100A78003F2085310800F600D030890B412D000059
:100A8800F00176088531002585317608F4000330B9
:100A9800F435FF3E031D4C2D7435F5007508F6003E
:100AA8002930890B552D0032F00176088531002553
:100AB800853108002000AD014C088331DD238531E4
:100AC8005A302000AD008630AE008331B523853121
:100AD8002000AD01AD0A4C088331DD2385315A3041
:100AE8002000AD008630AE008331B5238531080083
:100AF8002000AD0100308331DD23853155302000E1
:100B0800AD008630AE008331B52385312000AD01BC
:100B1800AD0A00308331DD23853155302000AD002A
:100B28008630AE008331B523853108002000520895
:100B380003199F2DA02DB12D8531D5258531F701BC
:100B480020004C0884312D248531E630F7008630AA
:100B5800F800843154248531B72D86310B26853130
:100B68008031CC2085310800F600D030890BBA2DB1
:100B78000000F001F00A76088531002585317608F5
:100B8800F4000330F435FF3E031DC62D7435F5001F
:100B98007508F600F001F00A7608853100258531E0
:100BA8000800F70120004C0884312D2485315A3083
:100BB800F7008630F800843154248531F701F70AAC
:100BC80020004C0884312D2485315A30F7008630B6
:100BD800F8008431542485310800F701003084314D
:100BE8002D2485315530F7008630F800843154249F
:100BF8008531F701F70A003084312D2485315530CD
:100C0800F7008630F8008431542485310800F70154
:100C1800003084312D2486315530F7008630F800B5
:100C2800843154248631F701F70A003084312D24A9
:100C380086315530F7008630F800843154248631E7
:100C48000800003400340A341F341F340E340434CE
:100C58000034003400340E341F340E3400340034B1
:100C6800003400340A3411341534153411340A347C
:100C780000348531F1258631F701003084312D2487
:100C88008631200050088531B8258631F7010F30AC
:100C980084312D24863120004F088531B8258631CE
:100CA80008002034203420342034203420342034E8
:100CB800203420342034203420342034203420348C
:100CC800203400342000A6002603031D6C2E6D2E50
:100CD800722E2700921112129212762E27001210ED
:100CE800921012110800F0007003031D7C2E7D2E57
:100CF800822E2700921112129212862E27001210AD
:100D0800921012110800F0007003031D8C2E8D2E16
:100D1800922E2700921512169216962E270012145C
:100D2800921412150800533465346C3465346334F6
:100D3800743420347334683469347034233431346F
:100D48000034533465346C3465346334743420347B
:100D580073346834693470342334323400342034C2
:100D68002034543469346534203446346934673463
:100D7800683474346534723400343E342034543466
:100D880069346534203446346934673468347434DB
:100D980065347234003453347434613472347434C6
:100DA8002034463469346734683474340034183471
:100DB80010341F341F341F341034183400340434F2
:100DC800043403342034203420344D3465346E34F4
:100DD8007534203420342034003481314D2186315B
:100DE80087310427863187313527863108003E341C
:100DF800203458342034773469346E3467340034FE
:100E08003A30210099009801220096010800FE005E
:100E180012001E00FE0B0C2F003420002708B7001C
:100E28002608B600080020002708B9002608B800E0
:100E3800080020002708BB002608BA000800200088
:100E48002708BD002608BC00080020002708BF00AE
:100E58002608BE00080020002708C1002608C00098
:100E68000800163021009700080008000800080054
:060E78000800080008005C
:020000040001F9
:04000E00E43FFF1FAD
:00000001FF
