:020000040000FA
:0400000080311B2808
:100008007E1480318B1D09280A2819280B1C0D28FD
:100018000E2819280D30FD00FC30890B1128FD0B26
:1000280011288231A02280310B107E100900803106
:100038001D28E63084008630850042308600003076
:10004800870009308631FF2680311D3084008630D4
:100058008500C03086000030870018308631FF26C2
:100068008031CB01CC01CD01CE017E102000813141
:10007800BD29B228AD0100308331D52380318D30C0
:100088002000AD008630AE008331AD2380312000E2
:10009800AD01AD0A00308331D5238031B73020005F
:1000A800AD008630AE008331AD238031C928AD0163
:1000B80000308331D5238031A9302000AD0086304F
:1000C800AE008331AD2380312000AD01AD0A003090
:1000D8008331D5238031EF302000AD008630AE006B
:1000E8008331AD238031C928AD0100308331D52358
:1000F80080319B302000AD008630AE008331AD23C7
:1001080080312000AD01AD0A00308331D523803124
:10011800B7302000AD008630AE008331AD2380318A
:10012800C928AD0100308331D5238031A9302000A2
:10013800AD008630AE008331AD2380312000AD01A3
:10014800AD0A00308331D5238031EF302000AD0077
:100158008630AE008331AD238031C92820004D0898
:10016800B300B4013408003A0319BB28C92833087E
:10017800003A03193E28013A03195B28033A031988
:100188007828013A03199528C92808003329F70166
:1001980000308431252480318D30F7008630F80016
:1001A80084314C248031F701F70A0030843125244A
:1001B8008031B730F7008630F80084314C24803124
:1001C8004A29F7010030843125248031A930F7000D
:1001D8008630F80084314C248031F701F70A00306A
:1001E800843125248031EF30F7008630F8008431DF
:1001F8004C2480314A29F70100308431252480318C
:100208009B30F7008630F80084314C248031F701A8
:10021800F70A0030843125248031B730F700863062
:10022800F80084314C2480314A29F70100308431A8
:1002380025248031A930F7008630F80084314C2419
:100248008031F701F70A0030843125248031EF30FE
:10025800F7008630F80084314C2480314A29200088
:100268004D08A000A1012108003A03193C294A2998
:100278002008003A0319CB28013A0319E528033A64
:100288000319FF28013A031919294A2908002200ED
:100298008C018D018E01083021009000FF308C0008
:1002A8008D01FF308E00FC3023008E008D018C0103
:1002B8000830240090008D013F308C008E01210011
:1002C800951325008C018D018E01FF3026008C00CE
:1002D800FF308D00FF308E00FF3027008C00FF308C
:1002E8008D00FF308E00083090001310931013110A
:1002F80093111312931212149214121592151216C6
:100308009216111491101111911511129112323087
:100318002000A6000730A70087312327813131301C
:100328002000A6000730A70087311D278131303013
:100338002000A6000730A7008731172781312F300A
:100348002000A6000730A7008731112781312E3001
:100358002000A6000730A70087310B2781312D30F8
:100368002000A6000730A7008731052781318B15AB
:1003780008008631DC268131843172248131423093
:10038800860000308700A0308400003085000830E7
:100398002000B50016001A00B50BCE29D030860013
:1003A80000308700A8308400003085000830B50090
:1003B80016001A00B50BDC29C8308600003087000B
:1003C800B0308400003085000830B50016001A00EF
:1003D800B50BEA29C030860000308700B8308400A9
:1003E800003085000830B50016001A00B50BF82952
:1003F800AD01AD0AA0308231D12281312000AD019A
:10040800A8308231D122813102302000B500350870
:10041800AD00B0308231D122813103302000B500E7
:100428003508AD00B8308231D122813185311825A7
:1004380081318B17013086315C268131222A803147
:100448001B2820003C083D0403192B2A2C2A312A9A
:100458003D088A003C080A00823120004E08031932
:10046800362A372A522A622A003086316D2682318E
:10047800013086317D26823102302000A200220818
:10048800CD00853192258231622A003086316D2671
:100498008231013086317D268231402A4D08A20002
:1004A800A3012308003A03195A2A622A2208003AAB
:1004B8000319382A013A0319492A622A2700131115
:1004C800080020003608370403196B2A6C2A712AA1
:1004D80037088A0036080A00823120004E080319BE
:1004E800762A772A8D2A9D2A013086316D26823117
:1004F800003086317D2682318331FD2382319D2A69
:10050800013086316D268231003086317D26823178
:10051800802A4D08A400A5012508003A0319952A48
:100528009D2A2408023A0319782A013A0319842AD1
:100538009D2A2700931208002700131CA42AA52A25
:10054800A82A8331822382312700931CAC2AAD2A42
:10055800B02A8331002382312700131DB42AB52A1B
:10056800B82A8231252282312700931DBC2ABD2A50
:10057800C02A8331572382312700131EC42AC52A73
:10058800C82A83312C2382312700931ECC2ACD2AF6
:10059800D02A82316522823108002000AF002D0860
:1005A800AE000230AE35FF3E031DD62A2E35403E42
:1005B8008431952482312000B001B1012000300837
:1005C8002F07AE002E088600870101088431B82461
:1005D800823101302000B0070030B13D3108803A47
:1005E800AE0080302E02031DFB2A08303002031CA7
:1005F800FE2AFF2AE22A080020003E083F040319C9
:10060800062B072B0C2B3F088A003E080A00833173
:1006180020004E080319112B122B192B292BCD0161
:10062800CD0A853192258331292B4D08A200A301DB
:100638002308003A0319212B292B2208003A031911
:10064800132B013A0319292B292B27009310080093
:100658002000380839040319322B332B382B39087A
:100668008A0038080A00833120004E0803193D2B00
:100678003E2B472B542B0330A2002208CD00853196
:1006880092258331542B4D08A200A3012308003A78
:1006980003194F2B542B2208023A03193F2B542BD2
:1006A80027001312080020003A083B0403195D2BA9
:1006B8005E2B632B3B088A003A080A00833120002E
:1006C8004E080319682B692B722B7F2B0230A2006E
:1006D8002208CD008531922583317F2B4D08A20059
:1006E800A3012308003A03197A2B7F2B2208033A27
:1006F80003196A2B7F2B270093110800200040085C
:1007080041040319882B892B8E2B41088A00400845
:100718000A00833120004E080319932B942B9A2B3F
:10072800AA2BCD01853192258331AA2B4D08A20031
:10073800A3012308003A0319A22BAA2B2208003A86
:100748000319AA2B013A0319952BAA2B270013107A
:1007580008002000B201C42B2E08B0002D08AF00FD
:1007680032082F07840030080318300A8500000873
:100778008431B824833101302000AF002F08B2073C
:100788002E08B0002D08AF0032082F07840030086B
:100798000318300A85001200031DD32BD42BB02B6D
:1007A80008002000B00002302D020318DC2BDD2BDE
:1007B800FC2B10303002031CE22BE32BE42BFC2B28
:1007C8002D030319E82BE92BEF2B80303004AE0002
:1007D8000030AF00F42BC0303004AE000030AF0062
:1007E8002E08843195248331D030890BF92B0000F1
:1007F8000800863103268331863135268331F70197
:1008080020004A08843125248331C530F70086301A
:10081800F80084314C24833102302000A300453095
:10082800A200A930890B162CA20B162CA30B162C90
:1008380000322000CD01CE01CE0A853192258331C8
:100848000800FA000230770203182B2C2C2C4B2CB2
:1008580010307A02031C312C322C332C4B2C7703AA
:100868000319372C382C3E2C80307A04F8000030DD
:10087800F900432CC0307A04F8000030F9007808F9
:10088800853137258431D030890B482C0000080089
:10089800FC01612C7808FA007708F9007C087907D0
:1008A80084007A0803187A0A850000088531B02583
:1008B80084310130F9007908FC077808FA007708D4
:1008C800F9007C08790784007A0803187A0A8500F9
:1008D8001200031D702C712C4E2C080020008D0175
:1008E80021008D0120008D1703302000AD006E30EF
:1008F800890B7C2CAD0B7C2C3230843195248431CF
:1009080028308431952484310C3084319524843105
:100918000130843195248431063084319524843122
:1009280008002000AC00D030890B982C0000200073
:10093800A6012C088431D824843120002C08AA0070
:100948000330AA35FF3E031DA52C2A35AB002B0822
:10095800AC002930890BAE2C00322000A6012C08EF
:100968008431D824843108002000AC00D030890BB1
:10097800BB2C00002000A601A60A2C088431D8242C
:10098800843120002C08AA000330AA35FF3E031D3D
:10099800C92C2A35AB002B08AC00A601A60A2C08E6
:1009A8008431D824843108002000A9002908A70030
:1009B8000430A736890BDD2C2708A8002808A900D1
:1009C80029080F39A7002708A9000D08F0398D005C
:1009D8000D0829048D00260C031C8D1203188D1692
:1009E8000D130D160D120800F3007308F100043002
:1009F800F136890BFC2C7108F2007208F3007308B9
:100A08000F39F1007108F30020000D08F0398D004E
:100A18000D0873048D00700C031C8D1203188D16BD
:100A28000D130D160D12080020004E0803191D2D78
:100A38001E2D302D8531562585312000AD014A08FF
:100A48008331D5238531D1302000AD008630AE000A
:100A58008331AD238531362D85317425853180313B
:100A68003D2085310800F600D030890B392D000073
:100A7800F00176088431F82485317608F4000330D3
:100A8800F435FF3E031D442D7435F5007508F60056
:100A98002930890B4D2D0032F00176088431F82475
:100AA800853108002000AD014A088331D5238531FE
:100AB80050302000AD008630AE008331AD23853143
:100AC8002000AD01AD0A4A088331D5238531503065
:100AD8002000AD008630AE008331AD23853108009B
:100AE8002000AD0100308331D52385314B30200003
:100AF800AD008630AE008331AD2385312000AD01D5
:100B0800AD0A00308331D52385314B302000AD004C
:100B18008630AE008331AD238531080020004E08B1
:100B28000319972D982DA92D8531CD258531F701EC
:100B380020004A08843125248531D130F7008630D9
:100B4800F80084314C248531AF2D86310326853158
:100B58008031CA2085310800F600D030890BB22DCB
:100B68000000F001F00A76088431F824853176080F
:100B7800F4000330F435FF3E031DBE2D7435F50037
:100B88007508F600F001F00A76088431F8248531FA
:100B98000800F70120004A088431252485315030A7
:100BA800F7008630F80084314C248531F701F70AC4
:100BB80020004A088431252485315030F7008630DA
:100BC800F80084314C2485310800F7010030843165
:100BD800252485314B30F7008630F80084314C24C9
:100BE8008531F701F70A00308431252485314B30EF
:100BF800F7008630F80084314C2485310800F7016D
:100C080000308431252486314B30F7008630F800D7
:100C180084314C248631F701F70A003084312524C9
:100C280086314B30F7008630F80084314C24863109
:100C38000800003400340A341F341F340E340434DE
:100C48000034003400340E341F340E3400340034C1
:100C5800003400340A3411341534153411340A348C
:100C680000348531E9258631F701003084312524A7
:100C7800863101308531B0258631F7010F30843156
:100C88002524863100308531B0258631080020348E
:100C980020342034203420342034203420342034AC
:100CA80020342034203420342034203420340034BC
:100CB8002000A6002603031D622E632E682E27003F
:100CC8009211121292126C2E270012109210121109
:100CD8000800F0007003031D722E732E782E270073
:100CE8009211121292127C2E2700121092101211D9
:100CF8000800F0007003031D822E832E882E270023
:100D08009215121692168C2E270012149214121590
:100D18000800533465346C346534633474342034D7
:100D280073346834693470342334313400345334C0
:100D380065346C3465346334743420347334683403
:100D48006934703423343234003420342034543439
:100D5800693465342034463469346734683474340B
:100D68006534723400343E34203454346934653484
:100D780020344634693467346834743465347234E2
:100D88000034533474346134723474342034463447
:100D9800693467346834743400342034203420349F
:100DA8004D3465346E3475342034203420340034A6
:100DB80081314B2186318631F826863187312927C2
:100DC80086310800183410341F341F341F3410348F
:100DD8001834003403343E34203458342034773403
:100DE80069346E34673400343A3021009900980130
:100DF800220096010800FE0012001E00FE0B002FC4
:100E0800003420002708B7002608B6000800200094
:100E18002708B9002608B800080020002708BB00EA
:100E28002608BA00080020002708BD002608BC00D4
:100E3800080020002708BF002608BE000800200080
:100E48002708C1002608C0000800163021009700B6
:0E0E5800080008000800080008000800080054
:020000040001F9
:04000E00E43FFF1FAD
:00000001FF
