:020000040000FA
:0400000080311B2808
:100008007E1480318B1D09280A2819280B1C0D28FD
:100018000E2819280D30FD00FC30890B1128FD0B26
:1000280011288231BF2280310B107E1009008031E7
:100038001D286530840087308500483086000030F0
:1000480087000330873137278031CC3084008330F4
:100058008500A03086000030870028308731372798
:100068008031C201C301C401C501C601C7017E10A8
:10007800200081314D29B428AD01003084311C2481
:100088008031CE302000AD008630AE008331F423BD
:1000980080312000AD01AD0A003084311C2480314C
:1000A800F8302000AD008630AE008331F423803173
:1000B800CB28AD01003084311C248031EA30200087
:1000C800AD008630AE008331F42380312000AD01CD
:1000D800AD0A003084311C24803127302000AD0067
:1000E8008730AE008331F4238031CB28AD01003056
:1000F80084311C248031DC302000AD008630AE0015
:100108008331F42380312000AD01AD0A0030843101
:100118001C248031F8302000AD008630AE008331D9
:10012800F4238031CB28AD01003084311C24803188
:10013800EA302000AD008630AE008331F4238031F0
:100148002000AD01AD0A003084311C2480312730F5
:100158002000AD008730AE008331F4238031CB28F6
:1001680020004608B300B4013408003A0319BD283A
:10017800CB283308003A03194028013A03195D28AF
:10018800033A03197A28013A03199728CB2808005B
:100198003529F7010030843194248031CE30F700BE
:1001A8008630F8008431BB248031F701F70A00302B
:1001B800843194248031F830F7008630F800843197
:1001C800BB2480314C29F7010030843194248031DC
:1001D800EA30F7008630F8008431BB248031F7011B
:1001E800F70A00308431942480312730F7008730B3
:1001F800F8008431BB2480314C29F7010030843168
:1002080094248031DC30F7008630F8008431BB2438
:100218008031F701F70A0030843194248031F830B6
:10022800F7008630F8008431BB2480314C29F7016F
:100238000030843194248031EA30F7008630F800A9
:100248008431BB248031F701F70A003084319424CB
:1002580080312730F7008730F8008431BB248031A3
:100268004C2920004608A000A1012108003A0319E2
:100278003E294C292008003A0319CD28013A0319D0
:10028800E728033A03190129013A03191B294C29C4
:10029800080087311D2781318431E1248131C03044
:1002A800860000308700C8308400003085000830A0
:1002B8002000B50016001A00B50B5E29B83086007C
:1002C80000308700D0308400003085000830B50049
:1002D80016001A00B50B6C29B03086000030870074
:1002E800D8308400003085000830B50016001A00A8
:1002F800B50B7A29A830860000308700E0308400EA
:10030800003085000830B50016001A00B50B8829A2
:10031800A030860000308700E83084000030850077
:100328000830B50016001A00B50B9629AD01AD0AC4
:10033800C8308231F02281312000AD01D0308231C5
:10034800F022813102302000B5003508AD00D830E8
:100358008231F022813103302000B5003508AD002C
:10036800E0308231F022813104302000B5003508B8
:10037800AD00E8308231F022813185318725813125
:100388008B17013086319D268131C92980311B2880
:1003980022008C018D018E01083021009000FF3071
:1003A8008C008D01FF308E00FC3023008E008D0103
:1003B8008C010830240090008D013F308C008E01A4
:1003C8002100951325008C018D018E01FF30260038
:1003D8008C00FF308D00FF308E00FF3027008C002E
:1003E800FF308D00FF308E000830900013109310FE
:1003F80013119311131293121214921412159215C9
:1004080012169216111491101111911511129112C0
:100418006D302000A6000730A70087315B278131A7
:100428006C302000A6000730A7008731552781319E
:100438006B302000A6000730A70087314F27813195
:100448006A302000A6000730A7008731492781318C
:1004580069302000A6000730A70087314327813183
:1004680068302000A6000730A70087313D2781317A
:100478008B15080020003C083D040319442A452A2E
:100488004A2A3D088A003C080A00823120004708B1
:1004980003194F2A502A6E2A7E2AC5010030863158
:1004A800AE26823101308631BE26823102302000EC
:1004B800A2002208C6008631012682317E2AC501A3
:1004C800C50A00308631AE26823101308631BE261B
:1004D80082315A2A4608A200A3012308003A0319C8
:1004E800762A7E2A2208003A0319512A013A03196A
:1004F800632A7E2A270013110800200036083704D3
:100508000319872A882A8D2A37088A0036080A009C
:100518008231200047080319922A932AAC2ABC2A60
:10052800C40101308631AE26823100308631BE26C4
:100538008231843144248231BC2AC401C40A013086
:100548008631AE26823100308631BE2682319D2A20
:100558004608A400A5012508003A0319B42ABC2AB4
:100568002408023A0319942A013A0319A12ABC2A39
:100578002700931208002700131CC32AC42AC72A7D
:100588008331A12382312700931CCB2ACC2ACF2A7E
:1005980083311F2382312700131DD32AD42AD72A57
:1005A80082313E2282312700931DDB2ADC2ADF2A92
:1005B8008331762382312700131EE32AE42AE72AAF
:1005C80083314B2382312700931EEB2AEC2AEF2A32
:1005D80082318122823108002000AF002D08AE0050
:1005E8000230AE35FF3E031DF52A2E35403E8531DB
:1005F800042582312000B001B101200030082F0706
:10060800AE002E0886008701010885312725823132
:1006180001302000B0070030B13D3108803AAE000B
:1006280080302E02031D1A2B08303002031C1D2BAC
:100638001E2B012B080020003E083F040319252B20
:10064800262B2B2B3F088A003E080A008331200006
:1006580047080319302B312B382B482BC601C60A03
:10066800863101268331482B4608A200A3012308BE
:10067800003A0319402B482B2208003A0319322B61
:10068800013A0319482B482B270093100800200033
:10069800380839040319512B522B572B39088A0073
:1006A80038080A0083312000470803195C2B5D2BAA
:1006B800662B732B0330A2002208C6008631012660
:1006C8008331732B4608A200A3012308003A0319BB
:1006D8006E2B732B2208023A03195E2B732B27000B
:1006E8001312080020003A083B0403197C2B7D2BC9
:1006F800822B3B088A003A080A0083312000470809
:100708000319872B882B912B9E2B0230A2002208DD
:10071800C6008631012683319E2B4608A200A3011C
:100728002308003A0319992B9E2B2208033A031930
:10073800892B9E2B270093110800200040084104B4
:100748000319A72BA82BAD2B41088A0040080A00E3
:100758008331200047080319B22BB32BB92BC92BBF
:10076800C601863101268331C92B4608A200A301A0
:100778002308003A0319C12BC92B2208003A031990
:10078800C92B013A0319B42BC92B270013100800F1
:100798000E34023407341F34073402340E34003464
:1007A800003400340A341F341F340E340434003447
:1007B800003400340E341F340E3400340034003456
:1007C80000340A3411341534153411340A34003421
:1007D8000E3408341C341F341C3408340E340034EE
:1007E8002000B2010B2C2E08B0002D08AF003208F3
:1007F8002F07840030080318300A85000008853167
:100808002725833101302000AF002F08B2072E08BA
:10081800B0002D08AF0032082F07840030080318F5
:10082800300A85001200031D1A2C1B2CF72B080018
:100838002000B00002302D020318232C242C432C56
:1008480010303002031C292C2A2C2B2C432C2D036E
:1008580003192F2C302C362C80303004AE00003099
:10086800AF003B2CC0303004AE000030AF002E0883
:10087800853104258431D030890B402C00000800D4
:1008880086317226843184316C248431F70120004A
:100898004A088431942484310630F7008730F80000
:1008A8008431BB24843102302000A3004530A200EB
:1008B800A930890B5D2CA20B5D2CA30B5D2C00329B
:1008C8002000C601C701C70A863101268431080005
:1008D800863158268431F7010030843194248431DC
:1008E8002000450886311F26843120004403031D5B
:1008F8007E2C7F2C892CF7010F308431942484318D
:10090800043086311F268431932CF7010F3084314F
:10091800942484312000440886311F26843108003D
:10092800FA000230770203189A2C9B2CBA2C10304C
:100938007A02031CA02CA12CA22CBA2C7703031931
:10094800A62CA72CAD2C80307A04F8000030F900D2
:10095800B22CC0307A04F8000030F90078088531EC
:10096800A6258431D030890BB72C00000800FC0183
:10097800D02C7808FA007708F9007C0879078400F9
:100988007A0803187A0A8500000886311F26843100
:100998000130F9007908FC077808FA007708F900AF
:1009A8007C08790784007A0803187A0A85001200FF
:1009B800031DDF2CE02CBD2C080020008D01210038
:1009C8008D0120008D1703302000AD006E30890B9B
:1009D800EB2CAD0BEB2C32308531042584312830DB
:1009E8008531042584310C3085310425843101306A
:1009F8008531042584310630853104258431080089
:100A08002000AC00D030890B072D00002000A60183
:100A18002C0885314725853120002C08AA00033091
:100A2800AA35FF3E031D142D2A35AB002B08AC0058
:100A38002930890B1D2D00322000A6012C08853194
:100A48004725853108002000AC00D030890B2A2DBD
:100A580000002000A601A60A2C088531472585310B
:100A680020002C08AA000330AA35FF3E031D382DAC
:100A78002A35AB002B08AC00A601A60A2C08853144
:100A88004725853108002000A9002908A70004305F
:100A9800A736890B4C2D2708A8002808A900290883
:100AA8000F39A7002708A9000D08F0398D000D0897
:100AB80029048D00260C031C8D1203188D160D13A6
:100AC8000D160D120800F3007308F1000430F1361A
:100AD800890B6B2D7108F2007208F30073080F3947
:100AE800F1007108F30020000D08F0398D000D08A1
:100AF80073048D00700C031C8D1203188D160D13D2
:100B08000D160D1208002000470803198C2D8D2D95
:100B18009F2D8531C52585312000AD014A088431D6
:100B28001C24853112302000AD008730AE0083319F
:100B3800F4238531A52D8531E325853180313F208A
:100B480085310800F600D030890BA82D0000F0018F
:100B580076088531672585317608F4000330F43549
:100B6800FF3E031DB32D7435F5007508F6002930D6
:100B7800890BBC2D0032F001760885316725853157
:100B880008002000AD014A0884311C2485319130C9
:100B98002000AD008630AE008331F423853120007B
:100BA800AD01AD0A4A0884311C24853191302000FA
:100BB800AD008630AE008331F42385310800200073
:100BC800AD01003084311C2485318C302000AD000B
:100BD8008630AE008331F42385312000AD01AD0AA3
:100BE800003084311C2485318C302000AD008630E3
:100BF800AE008331F423853108002000470803192B
:100C0800062E072E182E86313C268631F701200045
:100C18004A088431942486311230F7008730F8006E
:100C28008431BB2486311E2E86317226863180316E
:100C3800CC2086310800F600D030890B212E000028
:100C4800F001F00A76088531672586317608F400C8
:100C58000330F435FF3E031D2D2E7435F50075085D
:100C6800F600F001F00A760885316725863108001C
:100C7800F70120004A088431942486319130F70026
:100C88008630F8008431BB248631F701F70A20004A
:100C98004A088431942486319130F7008630F80070
:100CA8008431BB2486310800F70100308431942454
:100CB80086318C30F7008630F8008431BB248631C9
:100CC800F701F70A00308431942486318C30F7001C
:100CD8008630F8008431BB2486310800F7010030E3
:100CE8008431942486318C30F7008630F8008431C2
:100CF800BB248631F701F70A003084319424863109
:100D08008C30F7008630F8008431BB248631080027
:100D1800203420342034203420342034203420342B
:100D2800203420342034203420342034203420341B
:100D380000342000A6002603031DA32EA42EA92EEE
:100D48002700921112129212AD2E27001210921043
:100D580012110800F0007003031DB32EB42EB92E33
:100D68002700921112129212BD2E27001210921013
:100D780012110800F0007003031DC32EC42EC92EE3
:100D88002700921512169216CD2E270012149214CF
:100D980012150800533465346C3465346334743484
:100DA8002034733468346934703423343134003473
:100DB800533465346C346534633474342034733498
:100DC80068346934703423343234003420342034A5
:100DD80054346934653420344634693467346834AB
:100DE80074346534723400343E34203454346934F5
:100DF800653420344634693467346834743465346F
:100E0800723400345334743461347234743420349A
:100E180046346934673468347434003420342034F8
:100E280020344D3465346E34753420342034203405
:100E380000348131CC2187318731302787318731A0
:100E48006127873108003E34203458342034773401
:100E580069346E34673400343A30210099009801BF
:100E6800220096010800FE0012001E00FE0B382F1B
:100E7800003420002708B7002608B6000800200024
:100E88002708B9002608B800080020002708BB007A
:100E98002608BA00080020002708BD002608BC0064
:100EA800080020002708BF002608BE000800200010
:100EB8002708C1002608C000080016302100970046
:100EC800080004340434033408000800080008004B
:040ED8000800080006
:020000040001F9
:04000E00E43FFF1FAD
:00000001FF
