:020000040000FA
:0400000080311D2806
:100008007E1480318B1D09280A281B280B1C0D28FB
:100018000E281B280D302000A600FB30890B122863
:10002800A60B122800328131882180310B107E10F6
:10003800090080311F283930840084308500613000
:1000480086000030870008308431482480318530AC
:10005800840083308500A030860000308700183087
:100068008431482480317E102000813124292000E9
:1000780020082104031D412842287A280130A200C3
:100088000030A3006B28F7012000220882313822B3
:10009800803102308331682380312130FD00763091
:1000A800890B5428FD0B5428003201302000A20788
:1000B8000030A33DF7012208FF3E8231382280310B
:1000C800F130F7008330F80082315F228031200060
:1000D8002308803AFD0080307D02031D75280F300B
:1000E8002202031C782879284728B1280E30A4005A
:1000F8000030A500A328F701200024088231382207
:10010800803102308331682380312130FD00763020
:10011800890B8C28FD0B8C280032FF302000A407A7
:10012800FF30A53DF7012408013E82313822803195
:10013800F130F7008330F80082315F2280312000EF
:100148002508803AFD0080307D02031DAD2801306E
:1001580024020318B028B1287F28080022008C0147
:100168008D018E01083021009000FF308C008D0138
:10017800FF308E00FC3023008E008D018C0108308A
:10018800240090008D013F308C008E0121009513D2
:1001980025008C018D018E01FF3026008C00FF3078
:1001A8008D00FF308E00FF3027008C00FF308D005F
:1001B800FF308E0008309000131093101311931124
:1001C80013129312121492141215921512169216F3
:1001D8001114911011119115111291127B302000F8
:1001E800A7000430A80084316C2480317A302000C4
:1001F800A7000430A80084316624803179302000BB
:10020800A7000430A80084316024803178302000B1
:10021800A7000430A80084315A24803177302000A8
:10022800A7000430A800843154248031763020009F
:10023800A7000430A80084314E2480318B150800B3
:1002480084312F24813182318522813161308600C9
:1002580000308700353084000030850008302000E9
:10026800B40016001A00B40B3529B03086000030EF
:1002780087003D308400003085000830B400160047
:100288001A00B40B4329A830860000308700453097
:100298008400003085000830B40016001A00B40B42
:1002A8005129A0308600003087004D30840000308E
:1002B80085000830B40016001A00B40B5F29AE019F
:1002C800AE0A35308131B92181312000AE013D308F
:1002D8008131B921813102302000B4003408AE00E8
:1002E80045308131B921813103302000B400340810
:1002F800AE004D308131B921813183319D23813167
:100308008B17852980311D282700131C8C298D29DE
:1003180090298331CC2381312700931C9429952976
:1003280098298431202481312700131D9C299D2977
:10033800A0298431112481312700931DA429A529DE
:10034800A8298331B52381312700131EAC29AD2993
:10035800B0298431022481312700931EB429B5299C
:10036800B8298331F323813108002000B0002E081A
:10037800AF000230AF35FF3E031DBE292F35403E8A
:100388008231A82281312000B101B2012000310858
:100398003007AF002F088600870101088231CB2281
:1003A800813101302000B1070030B23D3208803A77
:1003B800AF0080302F02031DE32908303102031CEF
:1003C800E629E729CA2908002000B301FF292F08D8
:1003D800B1002E08B0003308300784003108031834
:1003E800310A850000088231CB228131013020009A
:1003F800B0003008B3072F08B1002E08B00033084A
:100408003007840031080318310A85001200031DE3
:100418000E2A0F2AEB2908002000B10002302E0214
:100428000318172A182A372A10303102031C1D2AEC
:100438001E2A1F2A372A2E030319232A242A2A2A86
:1004480080303104AF000030B0002F2AC0303104B2
:10045800AF000030B0002F088231A8228231D0309E
:10046800890B342A00000800FA00023077020318CA
:100478003E2A3F2A5E2A10307A02031C442A452A63
:10048800462A5E2A770303194A2A4B2A512A8030C2
:100498007A04F8000030F900562AC0307A04F800CF
:1004A8000030F900780883312B238231D030890B52
:1004B8005B2A00000800FC01742A7808FA00770813
:1004C800F9007C08790784007A0803187A0A8500FD
:1004D80000088331682382310130F9007908FC076C
:1004E8007808FA007708F9007C08790784007A0808
:1004F80003187A0A85001200031D832A842A612AB8
:10050800080020008D0121008D0120008D17033087
:100518002000AE006E30890B8F2AAE0B8F2A323046
:100528008231A822823128308231A82282310C30CF
:100538008231A822823101308231A82282310630EC
:100548008231A822823108002000AD00D030890B0A
:10055800AB2A00002000A7012D088231EB2282314E
:1005680020002D08AB000330AB35FF3E031DB82A31
:100578002B35AC002C08AD002930890BC12A00327C
:100588002000A7012D088231EB22823108002000CB
:10059800AD00D030890BCE2A00002000A701A70AA1
:1005A8002D088231EB22823120002D08AB00033068
:1005B800AB35FF3E031DDC2A2B35AC002C08AD0003
:1005C800A701A70A2D088231EB22823108002000FA
:1005D800AA002A08A8000430A836890BF02A28089F
:1005E800A9002908AA002A080F39A8002808AA0083
:1005F8000D08F0398D000D082A048D00270C031C06
:100608008D1203188D160D130D160D120800F30028
:100618007308F1000430F136890B0F2B7108F200D2
:100628007208F30073080F39F1007108F300200015
:100638000D08F0398D000D0873048D00700C031C33
:100648008D1203188D160D130D160D120800F600E5
:10065800D030890B2D2B0000F001760883310B2355
:1006680083317608F4000330F435FF3E031D382B40
:100678007435F5007508F6002930890B412B0032D6
:10068800F001760883310B23833108002000AE0186
:100698000030823110228331E2302000AE008330F6
:1006A800AF008131E82183312000AE01AE0A00306D
:1006B800823110228331E2302000AE008330AF0057
:1006C8008131E82183310800F600D030890B6A2B8C
:1006D8000000F001F00A760883310B238331760895
:1006E800F4000330F435FF3E031D762B7435F50016
:1006F8007508F600F001F00A760883310B23833180
:100708000800003400340A341F341F340E34043413
:100718000034003400340E341F340E3400340034F6
:10072800003400340A3411341534153411340A34C1
:10073800003483314A2383312000AE0100308231F6
:100748001022833101308231CB2283312000AE0167
:100758000F3082311022833100308231CB22833135
:100768000800200059085A040319BB2BBC2BC12BC5
:100778005A088A0059080A00833101302000A00075
:100788000030A10080313B208331270093110800FD
:1007980020005F0860040319D22BD32BD82B6008E4
:1007A8008A005F080A00833100302000A000A10001
:1007B80080313B2083312700131008002034203477
:1007C8002034203420342034203420342034203481
:1007D80020342034203420342034203400342000C5
:1007E800550856040319F92BFA2BFF2B56088A00D3
:1007F80055080A0083312700931208002000570883
:1008080058040319082C092C0E2C58088A0057087C
:100818000A00843127001312080020005B085C04DA
:100828000319172C182C1D2C5C088A005B080A0079
:10083800843127001311080020005D085E040319A5
:10084800262C272C2C2C5E088A005D080A0084318F
:100858002700931008008031B2208431843141246C
:1008680084318431722484310800183410341F34E0
:100878001F341F341034183400343A3021009900E2
:100888009801220096010800FE0012001E00FE0BCF
:10089800492C003420002808D6002708D500080075
:1008A80020002808D8002708D700080020002808BA
:1008B800DA002708D900080020002808DC002708EB
:1008C800DB00080020002808DE002708DD000800FB
:1008D80020002808E0002708DF0008001630210063
:1008E8009700080008000800080008000800080031
:020000040001F9
:04000E00E43FFF1FAD
:00000001FF
