:020000040000FA
:0400000080311B2808
:100008007E1480318B1D09280A2819280B1C0D28FD
:100018000E2819280D30FD00FC30890B1128FD0B26
:1000280011288231202280310B107E100900803186
:100038001D280B308400863085003630860000305D
:10004800870011308631A62680312D308400863015
:100058008500C03086000030870010308631A62623
:100068008031D301D401D5017E1020008131BC2913
:10007800B128AD0100308331AD2380313D302000FF
:10008800AD008630AE008331852380312000AD017C
:10009800AD0A00308331AD23803167302000AD00D8
:1000A8008630AE00833185238031C828AD01003009
:1000B8008331AD23803159302000AD008630AE0049
:1000C8008331852380312000AD01AD0A00308331B2
:1000D800AD23803196302000AD008630AE008331EC
:1000E80085238031C828AD0100308331AD238031AC
:1000F8004B302000AD008630AE008331852380313F
:100108002000AD01AD0A00308331AD238031673066
:100118002000AD008630AE00833185238031C828A9
:10012800AD0100308331AD23803159302000AD005E
:100138008630AE008331852380312000AD01AD0AC1
:1001480000308331AD23803196302000AD008630F9
:10015800AE00833185238031C82820005408B300BD
:10016800B4013408003A0319BA28C8283308003AF9
:1001780003193D28013A03195A28033A0319772825
:10018800013A03199428C82808003229F7010030D9
:100198008331FD2380313D30F7008630F80084310B
:1001A80024248031F701F70A00308331FD238031A0
:1001B8006730F7008630F8008431242480314929DB
:1001C800F70100308331FD2380315930F700863044
:1001D800F800843124248031F701F70A0030833194
:1001E800FD2380319630F7008630F80084312424CE
:1001F80080314929F70100308331FD2380314B30AC
:10020800F7008630F800843124248031F701F70A9A
:1002180000308331FD2380316730F7008630F800E5
:100228008431242480314929F70100308331FD23AA
:1002380080315930F7008630F80084312424803129
:10024800F701F70A00308331FD2380319630F7003B
:100258008630F8008431242480314929200054084C
:10026800A000A1012108003A03193B2949292008C7
:10027800003A0319CA28013A0319E428033A031972
:10028800FE28013A031918294929080022008C017F
:100298008D018E01083021009000FF308C008D0107
:1002A800FF308E00FC3023008E008D018C01083059
:1002B800240090008D013F308C008E0121009513A1
:1002C80025008C018D018E01FF3026008C00FF3047
:1002D8008D00FF308E00FF3027008C00FF308D002E
:1002E800FF308E00083090001310931013119311F3
:1002F80013129312121492141215921512169216C2
:10030800111491101111911511129112D930200068
:10031800A6000630A7008631CA268131D8302000D1
:10032800A6000630A7008631C4268131D7302000C8
:10033800A6000630A7008631BE268131D6302000BF
:10034800A6000630A7008631B8268131D5302000B6
:10035800A6000630A7008631B2268131D4302000AD
:10036800A6000630A7008631AC2681318B1508001F
:1003780086318C26813184314A2481313E30860091
:1003880000308700A030840000308500083020004D
:10039800B50016001A00B50BCD293630860000309E
:1003A8008700A8308400003085000830B5001600AA
:1003B8001A00B50BDB29C830860000308700B03042
:1003C8008400003085000830B50016001A00B50B0F
:1003D800E929C030860000308700B830840000303A
:1003E80085000830B50016001A00B50BF729AD01D5
:1003F800AD0AA0308231512281312000AD01A830F0
:1004080082315122813102302000B5003508AD001B
:10041800B03082315122813103302000B5003508D7
:10042800AD00B8308231512281318431F0248131DC
:100438008B171D2A80311B282700131C242A252AE4
:10044800282A8331302382312700931C2C2A2D2A15
:10045800302A8231AE2282312700131D342A352AF0
:10046800382A8231802282312700931D3C2A3D2A76
:10047800402A8331052382312700131E442A452A46
:10048800482A8231DA2282312700931E4C2A4D2ACB
:10049800502A83315B23823108002000AF002D08E9
:1004A800AE000230AE35FF3E031D562A2E35403EC3
:1004B80084316D2482312000B001B1012000300860
:1004C8002F07AE002E08860087010108843190248A
:1004D800823101302000B0070030B13D3108803A48
:1004E800AE0080302E02031D7B2A08303002031C28
:1004F8007E2A7F2A622A080020004D084E0403192C
:10050800862A872A8C2A4E088A004D080A008231DA
:10051800200055080319912A922A9B2AAB2A0230F7
:10052800A2002208D40085316A258231AB2A5408FA
:10053800A200A3012308003A0319A32AAB2A220820
:10054800003A0319932A013A0319932AAB2A270080
:100558001311080020004F0850040319B42AB52AC3
:10056800BA2A50088A004F080A008231200055082C
:100578000319BF2AC02AC72AD72AD401D40A853129
:100588006A258231D72A5408A200A3012308003A19
:100598000319CF2AD72A2208003A0319C12A013A97
:1005A8000319D72AD72A27009310080020004908E2
:1005B8004A040319E02AE12AE62A4A088A00490877
:1005C8000A008231200055080319EB2AEC2AF52A83
:1005D800022B0330A2002208D40085316A2582311B
:1005E800022B5408A200A3012308003A0319FD2A8C
:1005F800022B2208023A0319ED2A022B27001312B4
:10060800080020004B084C0403190B2B0C2B112B52
:100618004C088A004B080A0083312000550803194A
:10062800162B172B202B2D2B0230A2002208D400CA
:1006380085316A2583312D2B5408A200A301230894
:10064800003A0319282B2D2B2208033A0319182BDB
:100658002D2B27009311080020005108520403197C
:10066800362B372B3C2B52088A0051080A0083315D
:10067800200055080319412B422B482B582BD40135
:1006880085316A258331582B5408A200A301230819
:10069800003A0319502B582B2208003A0319582BFB
:1006A800013A0319432B582B270013100800200088
:1006B800470848040319612B622B672B48088A00F6
:1006C80047080A0083312000550803196C2B6D2B4D
:1006D800722B822B8331D5238331822B5408A400BB
:1006E800A5012508003A03197A2B822B2408023A1F
:1006F80003196E2B013A03196E2B822B27009312D4
:1007080008002000B2019C2B2E08B0002D08AF0075
:1007180032082F07840030080318300A85000008C3
:1007280084319024833101302000AF002F08B207B4
:100738002E08B0002D08AF0032082F0784003008BB
:100748000318300A85001200031DAB2BAC2B882B35
:1007580008002000B00002302D020318B42BB52B7E
:10076800D42B10303002031CBA2BBB2BBC2BD42B40
:100778002D030319C02BC12BC72B80303004AE00CA
:100788000030AF00CC2BC0303004AE000030AF00DA
:100798002E0884316D248331D030890BD12B000091
:1007A80008008531DB2583318531F5258331F70153
:1007B800200046088331FD2383317530F7008630E9
:1007C800F80084312424833102302000A30045300E
:1007D800A200A930890BEE2BA20BEE2BA30BEE2B5C
:1007E80000322000D401D501D50A85316A2583312C
:1007F8000800FA00023077020318032C042C232C7B
:1008080010307A02031C092C0A2C0B2C232C77039A
:1008180003190F2C102C162C80307A04F8000030A5
:10082800F9001B2CC0307A04F8000030F900780871
:1008380085310F258331D030890B202C000008002A
:10084800FC01392C7808FA007708F9007C08790748
:1008580084007A0803187A0A8500000885318825FB
:1008680084310130F9007908FC077808FA00770824
:10087800F9007C08790784007A0803187A0A850049
:100888001200031D482C492C262C080020008D013D
:1008980021008D0120008D1703302000AD006E303F
:1008A800890B542CAD0B542C323084316D24843197
:1008B800283084316D2484310C3084316D248431A6
:1008C800013084316D248431063084316D248431C3
:1008D80008002000AC00D030890B702C00002000EC
:1008E800A6012C088431B024843120002C08AA00E9
:1008F8000330AA35FF3E031D7D2C2A35AB002B089B
:10090800AC002930890B862C00322000A6012C0867
:100918008431B024843108002000AC00D030890B29
:10092800932C00002000A601A60A2C088431B024CC
:10093800843120002C08AA000330AA35FF3E031D8D
:10094800A12C2A35AB002B08AC00A601A60A2C085E
:100958008431B024843108002000A9002908A700A8
:100968000430A736890BB52C2708A8002808A90049
:1009780029080F39A7002708A9000D08F0398D00AC
:100988000D0829048D00260C031C8D1203188D16E2
:100998000D130D160D120800F3007308F100043052
:1009A800F136890BD42C7108F2007208F300730831
:1009B8000F39F1007108F30020000D08F0398D009F
:1009C8000D0873048D00700C031C8D1203188D160E
:1009D8000D130D160D120800200055080319F52CEB
:1009E800F62C082D85312E2584312000AD014608CE
:1009F8008331AD23843181302000AD008630AE00D4
:100A08008331852384310E2D85314C258431803105
:100A18003C2084310800F600D030890B112D0000ED
:100A2800F00176088431D02485317608F40003304B
:100A3800F435FF3E031D1C2D7435F5007508F600CE
:100A48002930890B252D0032F00176088431D02415
:100A5800853108002000AD0146088331AD2385317A
:100A680021302000AD008630AE00833185238531EA
:100A78002000AD01AD0A46088331AD238531213010
:100A88002000AD008630AE00833185238531080013
:100A98002000AD0100308331AD2385311C302000AA
:100AA800AD008630AE008331852385312000AD014D
:100AB800AD0A00308331AD2385311C302000AD00F4
:100AC8008630AE0083318523853108002000550823
:100AD80003196F2D702D812D8531A5258531F701DD
:100AE800200046088331FD2385318130F7008630A8
:100AF800F800843124248531872D8531DB25853123
:100B08008031C92085310800F600D030890B8A2D44
:100B18000000F001F00A76088431D0248531760887
:100B2800F4000330F435FF3E031D962D7435F500AF
:100B38007508F600F001F00A76088431D024853172
:100B48000800F701200046088331FD238531213054
:100B5800F7008630F800843124248531F701F70A3C
:100B6800200046088331FD2385312130F700863087
:100B7800F8008431242485310800F70100308331DE
:100B8800FD2385311C30F7008630F8008431242499
:100B98008531F701F70A00308331FD2385311C3098
:100BA800F7008630F8008431242485310800F701E5
:100BB80000308331FD2385311C30F7008630F80082
:100BC800843124248531F701F70A00308331FD236D
:100BD80085311C30F7008630F800843124248531B3
:100BE80008008531C1258531F70100308331FD23A7
:100BF80085310130853188258531F7010F30833102
:100C0800FD23853100308531882585310800003481
:100C18000A3411341534153411340A3400341834B4
:100C280010341F341F341F34103418340034033484
:100C3800203420342034203420342034203420340C
:100C480020342034203420342034203420342034FC
:100C58000034003400340A341F341F340E34043492
:100C68000034003400340E341F340E3400340034A1
:100C78000034533465346C3465346334743420344C
:100C88007334683469347034233431340034533461
:100C980065346C34653463347434203473346834A4
:100CA80069347034233432340034203420345434DA
:100CB80069346534203446346934673468347434AC
:100CC8006534723400343E34203454346934653425
:100CD8002034463469346734683474346534723483
:100CE80000345334743461347234743420344634E8
:100CF8006934673468347434003420342034203440
:100D08004D3465346E347534203420342034003446
:100D180081314A21863186319F2686318631D02617
:100D2800863108003E34203458342034773469340E
:100D38006E34673400343A3021009900980122005B
:100D480096010800FE0012001E00FE0BA72E0034BC
:100D580020002708C8002608C70008002000270828
:100D6800CA002608C900080020002708CC00260869
:100D7800CB00080020002708CE002608CD00080078
:100D880020002708D0002608CF00080020002708E8
:100D9800D2002608D100080016302100970008006C
:0C0DA8000800080008000800080008000F
:020000040001F9
:04000E00E43FFF1FAD
:00000001FF
