:020000040000FA
:1000000080312728080008007E1480318B1E0928C3
:100010000A2812280B1D0D280E2812288E311A26A8
:10002000803125288B1D1528162825280B1C1928FA
:100030001A2825280D30FD00FC30890B1D28FD0BEA
:100040001D2886315A2680310B107E100900803120
:1000500029288731FE278031C1001E308400863078
:100060008500A0308600003087003C308D3144256B
:100070008031553084008530850020308600013085
:10008000870048308D3144258031B801B901BA016B
:10009000BB01BC01BD01BE01BF01C0012100EB01DC
:1000A000EC01ED017E1020008231952A7308803921
:1000B0002000A0002008F8007335A0002008FA00F6
:1000C000F21F6328642865287A147A0803196928BE
:1000D0006A287A287A0A031D6E286F28772800304C
:1000E000F3000030F2000030F1000030F000F217B1
:1000F000F30182280030F3000030F2000030F100FC
:100100000030F00077088039A0002008F900790855
:10011000780603198C288D288E2878177735A0004B
:100120002008F900F61F9528962897287914790851
:1001300003199B289C28AC28790A031DA028A12814
:10014000A9280030F7000030F6000030F50000303C
:10015000F400F617F701B4280030F7000030F6007D
:100160000030F5000030F4007A0879020318B9284D
:10017000BA28FE28781FBD28BE28C2288030A000DB
:100180002008F8067A08A0002008FB007908A000E3
:100190002008FA007B08A0002008F9007008A000E1
:1001A0002008FB007408A0002008F0007B08A000D5
:1001B0002008F4007108A0002008FB007508A000CA
:1001C0002008F1007B08A0002008F5007208A000BC
:1001D0002008FB007608A0002008F2007B08A000A1
:1001E0002008F6007308A0002008FB007708A00094
:1001F0002008F3007B08A0002008F700FB01790825
:10020000A000A1012108A3007A082002A200031C7B
:10021000A3032308803AA40080302402031D12297E
:100220001A302202031C152916295029730872045A
:1002300071047004031D1D291F290130202900307D
:100240002000A0002008FB000030F3000030F20086
:100250000030F1000030F0007908A0002008FA001A
:1002600056297B1C342935293C297B36013820004E
:10027000A0002008FB003E290310FB0C701C412944
:1002800042294329FB1701302000A000F337F20C6C
:10029000F10CF00CA00B46290130A0002008FA0751
:1002A00079087A02031C552956293129781B5929C6
:1002B0005A2994297A08031D5E295F29682900308C
:1002C000F3000030F2000030F1000030F000942A1A
:1002D0007408F0077508F13D7608F23D7708F33DA4
:1002E000731C73297429212A7B1C772978297F297B
:1002F0007B3601382000A0002008FB008129031074
:10030000FB0C701C842985298629FB1701302000ED
:10031000A000F337F20CF10CF00CA00B892901308E
:10032000A0002008FA07212A7308803A2000A000C4
:100330007708803A2002031DA72976087202031D60
:10034000A72975087102031DA729740870020318F4
:10035000AA29AB29E329FF30A000FF30A100FF301C
:10036000A200FF30A30070087402A4007108753B5E
:10037000A5007208763BA6007308773BA700240807
:10038000A0072508A13D2608A23D2708A33D230874
:10039000F3002208F2002108F1002008F00080306C
:1003A000A0002008F806FB09FB0A7B08031DD929D9
:1003B000DA29EB290130F0070030F13D0030F23D41
:1003C0000030F33DEB297408F0027508F13B760824
:1003D000F23B7708F33B7308720471047004031D49
:1003E000F229F3291D2A7B08031DF729F8291D2A64
:1003F0000030F3000030F2000030F1000030F00077
:10040000942A0130F035F10DF20DF30D890B022A1B
:10041000FB1F0B2A0C2A0D2A70147B1C102A112A90
:10042000142A0314FB0D162A0310FB0D7A08031976
:100430001A2A1B2A1D2A0130FA02F21F202A212A19
:10044000012AF901FB1F252A262A342A7B087F3935
:1004500003192B2A2C2A2F2AF901F90A342A701C95
:10046000322A332A342A2C2A79080319382A392ABD
:10047000672A0130F0070030F13D0030F23D0030D6
:10048000F33D731C442A452A672A70082000A00007
:100490007108A1007208A2007308A3000130A40033
:1004A000A337A20CA10CA00CA40B502A2308F30024
:1004B0002208F2002108F1002008F0007A0A03194E
:1004C000622A632A672A0130A0002008FA077A0A04
:1004D00003196B2A6C2A712A7A08031D702A712A63
:1004E0007F2A0030F3000030F2000030F1000030CD
:1004F000F0007A08031D7D2A7E2A7F2AF8017A1CE3
:10050000822A832A852AF2178A2A7F302000A000B7
:100510002008F2057A362000A0002008F300F81F1A
:10052000922A932A942AF31708008D31902582315C
:100530008F3168278231D030860000308700A030AC
:1005400084000130850008302000B70016001A0032
:10055000B70BA62AC830860000308700A830840078
:10056000013085000830B70016001A00B70BB42A16
:10057000C030860000308700B03084000130850034
:100580000830B70016001A00B70BC22AB830860030
:1005900000308700B8308400013085000830B70093
:1005A00016001A00B70BD02AB03086000030870042
:1005B000C0308400013085000830B70016001A00F2
:1005C000B70BDE2AA830860000308700C8308400D0
:1005D000013085000830B70016001A00B70BEC2A6E
:1005E000A030AF000130B000B101B10A86318B26D6
:1005F0008231A8302000AF000130B000B101863157
:100600008B268231B0302000AF000130B0000230C4
:10061000B7003708B10086318B268231B830200010
:10062000AF000130B0000330B7003708B1008631A9
:100630008B268231C0302000AF000130B000043082
:10064000B7003708B10086318B268231C8302000D0
:10065000AF000130B0000730B7003708B100863175
:100660008B2682318E31E62682318B1701308D3117
:10067000BD2582313A2B80312728B22BAF010030C3
:1006800087318E27833111302000AF009030B000C9
:100690008731662783312000AF01AF0A00308731F0
:1006A0008E2783313B302000AF009030B00087317F
:1006B00066278331C92BAF01003087318E27833104
:1006C0002D302000AF009030B00087316627833195
:1006D0002000AF01AF0A003087318E2783316030B0
:1006E0002000AF009030B000873166278331C92BDE
:1006F000AF01003087318E2783311F302000AF00DB
:100700009030B0008731662783312000AF01AF0AF7
:10071000003087318E2783313B302000AF0090308E
:10072000B000873166278331C92BAF010030873194
:100730008E2783312D302000AF009030B0008731FC
:10074000662783312000AF01AF0A003087318E2742
:10075000833160302000AF009030B00087316627D1
:100760008331C92B20003F08B500B6013608003A96
:100770000319BB2BC92B3508003A03193E2B013A4C
:1007800003195B2B033A0319782B013A0319952BB4
:10079000C92B0800332CF70100308F31B12783318A
:1007A0001130F7009030F8008F318B278331F7013B
:1007B000F70A00308F31B12783313B30F70090309A
:1007C000F8008F318B2783314A2CF70100308F31AD
:1007D000B12783312D30F7009030F8008F318B270F
:1007E0008331F701F70A00308F31B1278331603050
:1007F000F7009030F8008F318B2783314A2CF701B6
:1008000000308F31B12783311F30F7009030F8006E
:100810008F318B278331F701F70A00308F31B127F1
:1008200083313B30F7009030F8008F318B278331D4
:100830004A2CF70100308F31B12783312D30F7007A
:100840009030F8008F318B278331F701F70A0030A1
:100850008F31B12783316030F7009030F8008F314D
:100860008B2783314A2C20003F08A000A1012108DA
:10087000003A03193C2C4A2C2008003A0319CB2BD0
:10088000013A0319E52B033A0319FF2B013A031927
:10089000192C4A2C080022008C018D018E01083091
:1008A00021009000FF308C008D01FF308E00FC3065
:1008B00023008E008D018C010830240090008D01F2
:1008C0003F308C008E012100951325008C018D0195
:1008D0008E01FF3026008C00FF308D00FF308E002F
:1008E000FF3027008C00FF308D00FF308E00083075
:1008F00090001310931013119311131293121214EA
:1009000092141215921512169216111491101111BB
:100910009115111291123C302000A8000D30A90051
:100920008D31512584313D302000A8000D30A900C3
:100930008D315A2584313E302000A8000D30A900A9
:100940008D31632584313F302000A8000D30A9008F
:100950008D316C25843102302000A8000030A900C0
:100960008D317525843103302000A8000030A900A6
:100970008D317E2584318B15080000307005F8001C
:1009800000307105F90080307205FA007F30730580
:10099000FB007B087A0479047804031DD02CD12C49
:1009A000D92C0030F3000030F2000030F1000030AC
:1009B000F00000307405F80000307505F900803053
:1009C0007605FA007F307705FB007B087A0479040E
:1009D0007804031DEC2CED2CF52C0030F7000030D2
:1009E000F6000030F5000030F40077087306031DB0
:1009F000032D76087206031D032D75087106031D6D
:100A0000032D740870060319062D072D092D0310F8
:100A10000A2D031408003D30F300CC30F200CC3036
:100A2000F100CD30F00020003B08F7003A08F60056
:100A30003908F5003808F4008031562085317308F4
:100A40002000BB007208BA007108B9007008B80035
:100A50003B08F3003A08F2003908F1003808F000CA
:100A60004030F700A030F6000030F5000030F40010
:100A70008431BD248531031C3E2D3F2D482D00308F
:100A80002000BB000030BA000030B9000030B800D0
:100A900021005C085D0403194E2D4F2D542D5D0877
:100AA0008A005C080A008531080000341F341134C4
:100AB00011341F340E340434003400341F34113424
:100AC000113411340A340434003400341F34113426
:100AD00011341F340E340434003400341F34113404
:100AE000113411340A340434003400340A341D340F
:100AF0001D341D340E340434003400340A341D34E3
:100B0000193419340A340434003400340A341534E6
:100B1000113411340A340434003400340A341D34DE
:100B20001D341D340E340434003400340A341D34B2
:100B3000193419340A34043400342100640865047B
:100B40000319A32DA42DA92D65088A0064080A00A5
:100B50008531200040080319AE2DAF2DCD2DDD2DA0
:100B6000BE0100308D31AD25853101308D319D259F
:100B7000853102302000A2002208BF008E316D2690
:100B80008531DD2DBE01BE0A00308D31AD258531A8
:100B900001308D319D258531B92D3F08A200A3017B
:100BA0002308003A0319D52DDD2D2208003A031938
:100BB000B02D013A0319C22DDD2D270013110800B5
:100BC00021005E085F040319E62DE72DEC2D5F0878
:100BD0008A005E080A008531200040080319F12DC3
:100BE000F22D0B2E1B2EBD0101308D31AD2585312F
:100BF00000308D319D2585318731B62785311B2EFB
:100C0000BD01BD0A01308D31AD25853100308D31FA
:100C10009D258531FC2D3F08A400A5012508003A3B
:100C20000319132E1B2E2408023A0319F32D013A3F
:100C30000319002E1B2E27009312080000340A34DB
:100C40001534113411340A340434003400341F34A0
:100C50001F341F341F340E34043400340E34023475
:100C600007341F34073402340E34003400340034A7
:100C70000A341F341F340E3404340034003400347A
:100C80000E341F340E3400340034003400340A347F
:100C900011341534153411340A3400340E34083448
:100CA0001C341F341C3408340E340034043404342F
:100CB000043404342700131C5E2E5F2E622E87310D
:100CC0003B2786312700931C662E672E6A2E8631BD
:100CD000B92686312700131D6E2E6F2E722E853198
:100CE0009D2586312700931D762E772E7A2E87310B
:100CF000102786312700131E7E2E7F2E822E8631EE
:100D0000E52686312700931E862E872E8A2E853172
:100D1000E0258631080020003108B2000230B235EB
:100D2000FF3E031D8F2E3235403E8F3145278631E1
:100D30002000B301B401200033082F0786003408D7
:100D4000303D870001088731DE27863101302000E1
:100D5000B3070030B43D3408803AB200803032022C
:100D6000031DB42E08303302031CB72EB82E9B2E61
:100D700008002100660867040319BF2EC02EC52E87
:100D800067088A0066080A008631200040080319B7
:100D9000CA2ECB2ED22EE22EBF01BF0A8E316D2677
:100DA0008631E22E3F08A200A3012308003A03196E
:100DB000DA2EE22E2208003A0319CC2E013A03194A
:100DC000E22EE22E27009310080021006008610443
:100DD0000319EB2EEC2EF12E61088A0060080A0040
:100DE0008631200040080319F62EF72E002F0D2F14
:100DF0000330A2002208BF008E316D2686310D2FF0
:100E00003F08A200A3012308003A0319082F0D2F61
:100E10002208023A0319F82E0D2F2700131208009A
:100E20002100620863040319162F172F1C2F630873
:100E30008A0062080A008731200040080319212F28
:100E4000222F2B2F382F0230A2002208BF008E3114
:100E50006D268731382F3F08A200A3012308003AEE
:100E60000319332F382F2208033A0319232F382F61
:100E70002700931108002100680869040319412F15
:100E8000422F472F69088A0068080A00873120002E
:100E9000400803194C2F4D2F532F632FBF018E3164
:100EA0006D268731632F3F08A200A3012308003A73
:100EB00003195B2F632F2208003A0319632F013AAD
:100EC00003194E2F632F2700131008002000B401D0
:100ED0007D2F3008B2002F08B1003408310784009C
:100EE00032080318320A850000088731DE2787316F
:100EF00001302000B1003108B4073008B2002F08DB
:100F0000B10034083107840032080318320A850022
:100F10001200031D8C2F8D2F692F08002000B200B6
:100F200002302F020318952F962FB52F1030320262
:100F3000031C9B2F9C2F9D2FB52F2F030319A12F2F
:100F4000A22FA82F80303204B0000030B100AD2FA6
:100F5000C0303204B0000030B10030088F31452776
:100F60008731D030890BB22F000008008D31E62583
:100F700087318F31D8278731F701200041088F3121
:100F8000B12787314930F7009030F8008F318B2737
:100F9000873102302000A3004530A200A930890B20
:100FA000CF2FA20BCF2FA30BCF2F00322000BF01DA
:100FB000C001C00A8E316D26873108002000AE00C6
:100FC000D030890BE12F00002000A801A80A2E08CC
:100FD0008F312527873120002E08AC000330AC3537
:100FE000FF3E031DEF2F2C35AD002D08AE00A801EC
:100FF000A80A2E088F3125278731080003340800FE
:101A78000800080008000800163021009700080038
:101A8800FE0012001E00FE0B452D00343A302100E6
:101A980099009801220096010800200029082100D9
:101AA800E900200028082100E80008002000290893
:101AB8002100E700200028082100E6000800200097
:101AC80029082100E500200028082100E40008007A
:101AD800200029082100E300200028082100E20056
:101AE8000800200029082100E10020002808210022
:101AF800E0000800200029082100DF002000280855
:101B08002100DE000800200029082100DD00200057
:101B180028082100DC00080084314B248D318D31E8
:101B28004A258D318D3140258D318D31CE258D3130
:101B38000800F0007003031DA22DA32DA82D270077
:101B4800921512169216AC2D270012149214121523
:101B58000800F0007003031DB22DB32DB82D270027
:101B6800921112129212BC2D27001210921012110B
:101B780008002000A8002803031DC32DC42DC92D6B
:101B88002700921112129212CD2D270012109210D6
:101B98001211080021001508C03917389500FE30C9
:101BA80020009500FE30AA002A082100EA000B1147
:101BB8008B16FF302000A8000730A9008D3187253B
:101BC8008D310800F70100308F31B1278D31003099
:101BD800F7009030F8008F318B278D31F701F70A25
:101BE80000308F31B1278D310030F7009030F80088
:101BF8008F318B278D310800F70100308F31B127E5
:101C08008E310030F7009030F8008F318B278E31FD
:101C1800F701F70A00308F31B1278E310030F70015
:101C28009030F8008F318B278E3108000B1121007E
:101C38006A082000950001302100EB070030EC3DD8
:101C480000306C02193003196B02031C2C2E2D2E48
:101C5800332E85310B258E312100EB01EC01080074
:101C6800F701200041088F31B1278E310530F70088
:101C78009030F8008F318B278E31F701F70A20005A
:101C880041088F31B1278E310530F7009030F800C8
:101C98008F318B278E310800F600D030890B522EF9
:101CA8000000F001F00A76088F3105278E3176089A
:101CB800F4000330F435FF3E031D5E2E7435F50045
:101CC8007508F600F001F00A76088F3105278E3185
:101CD8000800200040080319722E732E842E8E31BE
:101CE80034268E31F701200041088F31B1278E311B
:101CF8005530F7009030F8008F318B278E318A2EBF
:101D08008D31E6258E318331CA238E3108002000BB
:101D1800AF01003087318E278E3100302000AF00B0
:101D28009030B000873166278E312000AF01AF0AAE
:101D3800003087318E278E3100302000AF00903080
:101D4800B000873166278E3108002000AF014108B6
:101D580087318E278E3105302000AF009030B000DB
:101D6800873166278E312000AF01AF0A41088731DD
:101D78008E278E3105302000AF009030B0008731BB
:101D880066278E310800F600D030890BC92E000076
:101D9800F00176088F3105278E317608F40003307C
:101DA800F435FF3E031DD42E7435F5007508F60092
:101DB8002930890BDD2E0032F00176088F31052796
:101DC8008E310800200040080319EB2EEC2EFE2E61
:101DD8008E31A9268E312000AF01410887318E2728
:101DE8008E3155302000AF009030B0008731662723
:101DF8008E31042F8E318B268E3183313D238E31E7
:101E08000800F3007308F1000430F136890B092F3C
:101E18007108F2007208F30073080F39F1007108B5
:101E2800F30020000D08F0398D000D0873048D00B3
:101E3800700C031C8D1203188D160D130D160D1240
:101E480008002000AB002B08A9000430A936890B34
:101E58002A2F2908AA002A08AB002B080F39A90045
:101E68002908AB000D08F0398D000D082B048D00F2
:101E7800280C031C8D1203188D160D130D160D1248
:101E880008002000AE00D030890B482F0000200049
:101E9800A8012E088F3125278F3120002E08AC008D
:101EA8000330AC35FF3E031D552F2C35AD002D08F2
:101EB800AE002930890B5E2F00322000A8012E08C1
:101EC8008F3125278F31080020008D0121008D01D9
:101ED80020008D1703302000AF006E30890B722F61
:101EE800AF0B722F32308F3145278F3128308F3129
:101EF80045278F310C308F3145278F3101308F3195
:101F080045278F3106308F3145278F310800FC0176
:101F1800A02F7808FA007708F9007C087907840070
:101F28007A0803187A0A850000088E3150268F3106
:101F38000130F9007908FC077808FA007708F900F9
:101F48007C08790784007A0803187A0A8500120049
:101F5800031DAF2FB02F8D2F0800FA000230770233
:101F68000318B72FB82FD72F10307A02031CBD2FB4
:101F7800BE2FBF2FD72F77030319C32FC42FCA2F04
:101F880080307A04F8000030F900CF2FC0307A048E
:101F9800F8000030F90078088E31C7268F31D0302C
:101FA800890BD42F000008008E3100268F31F701ED
:101FB80000308F31B1278F3120003E088E315026F6
:101FC8008F3120003D03031DEA2FEB2FF52FF7017A
:101FD8000F308F31B1278F3104308E3150268F3139
:101FE800FF2FF7010F308F31B1278F3120003D08C7
:101FF8008E3150268F31080020342034203420348C
:102008002034203420342034203420342034203428
:1020180020342034203420340034533465346C3474
:1020280065346334743420347334683469347034F8
:10203800233431340034533465346C3465346334B8
:10204800743420347334683469347034233432344B
:102058000034203420345434693465342034463410
:1020680069346734683474346534723400343E3407
:102078002034543469346534203446346934673440
:1020880068347434653472340034533474346134CD
:1020980072347434203446346934673468347434A0
:1020A80000342034203420344D3465346E34753493
:1020B80020342034203400343E3420345834203442
:0A20C800773469346E346734003455
:020000040001F9
:04000E00E43FFF1FAD
:00000001FF
