:020000040000FA
:1000000080312928080008007E1480318B1E0928C1
:100010000A2812280B1D0D280E281228AF31AF27F1
:10002000803127288B1D1528162827280B1C1928F6
:100030001A2827280D302100B400FB30890B1E2818
:10004000B40B1E280032A331CC2380310B107E105C
:10005000090080312B28C7308400AE308500CC30B9
:100060008600003087000A30AE3185268031D130DD
:100070008400AE3085005C308600013087000B3094
:10008000AE318526803192308400AE308500D2308A
:100090008600013087000830AE31852680313E3041
:1000A0008400A63085002030860002308700503062
:1000B000AE31852680315F308400A5308500A030C8
:1000C0008600023087004830AE318526803121001D
:1000D000D601D701D801D901DA014E3084000130B0
:1000E00085000E30AE317F268031C3308400013070
:1000F00085000F30AE317F268031503084000330D0
:1001000085002030AE317F2680317E102000903176
:100110002628200029088039AE002E08B300293592
:10012000AE002E08B500A81F9628972898283514E9
:10013000350803199C289D28AC28350A031DA128E1
:10014000A228AA280030A9000030A8000030A7008B
:100150000030A600A817B4280030A9000030A8007D
:100160000030A7000030A6002D088039AE002E0810
:10017000B3062D35AE002E08B400AC1FC028C12830
:10018000C228341434080319C628C728D628340ACC
:10019000031DCB28CC28D4280030AD000030AC00A3
:1001A0000030AB000030AA00AC17DE280030AD00F4
:1001B0000030AC000030AB000030AA003408031956
:1001C000E228E328E8283508031DE728E828F12875
:1001D0000030A9000030A8000030A7000030A600C1
:1001E000DF2A2608AE002E08F0002C08A031FE20E1
:1001F000803171082000BF007008BE003E08AE00CC
:10020000AF01B001B1013108B9003008B8002F08C2
:10021000B7002E08B6003F08AE00AF01B001B10133
:100220003108BD003008BC002F08BB002E08BA0002
:100230002708AE002E08F0002B08A031FE208031E8
:1002400071082000BF007008BE003E08AE00AF017C
:10025000B001B1012E08B6072F08B73D3008B83DF0
:100260003108B93D3F08AE00AF01B001B1012E0821
:10027000BA072F08BB3D3008BC3D3108BD3D2808FA
:10028000AE002E08F0002A08A031FE20803171084F
:100290002000BF007008BE003E08AE00AF01B001F4
:1002A000B1012E08B6072F08B73D3008B83D310818
:1002B000B93D3F08AE00AF01B001B1012E08BA0749
:1002C0002F08BB3D3008BC3D3108BD3D0830B63578
:1002D000B70DB80DB90D890B67292708AE002E0898
:1002E000F0002A08A031FE20803171082000BF00F4
:1002F0007008BE003E08B6073F08B73D0030B83D65
:10030000B93D2608AE002E08F0002B08A031FE20D3
:10031000803171082000BF007008BE003E08B6079B
:100320003F08B73D0030B83DB93D0830B635B70D90
:10033000B80DB90D890B96292608AE002E08F000DD
:100340002A08A031FE20803171082000BF0070080B
:10035000BE003E08B6073F08B73D0030B83DB93D86
:100360002708AE002E08F0002C08A031FE208031B6
:1003700071082000BF007008BE003E08BA073F08A1
:10038000BB3D0030BC3DBD3D2808AE002E08F0004E
:100390002B08A031FE20803171082000BF007008BA
:1003A000BE003E08BA073F08BB3D0030BC3DBD3D26
:1003B0002808AE002E08F0002C08A031FE20803165
:1003C00071082000BF007008BE003E08AE003F0864
:1003D000AF00B001B1010830AE35AF0DB00DB10DB9
:1003E000890BEC292E08BA072F08BB3D3008BC3D0D
:1003F0003108BD3D3608AE003708AF003808B00000
:100400003908B1001830B136B00CAF0CAE0C890B06
:10041000032A2E08BA072F08BB3D3008BC3D31081F
:10042000BD3D0830B635B70DB80DB90D890B122A90
:1004300035083407AE00AF01AF0D2E08823EBE0076
:10044000FF302F3DBF003B2A0130BA35BB0DBC0D3C
:10045000BD0D890B252AB91F2E2A2F2A302A3A14BE
:100460000130B635B70DB80DB90D890B312AFF3003
:10047000BE07FF30BF3DBC1F3E2A3F2A242AB401DD
:10048000B91F432A442A602AFF303605AE00FF30E8
:100490003705AF00FF303805B0007F303905B100B7
:1004A000310830042F042E040319572A582A5B2AD6
:1004B000B401B40A602A3A1C5E2A5F2A602A582ACC
:1004C00034080319642A652A8D2A0130BA070030DE
:1004D000BB3D0030BC3D0030BD3D3D1C702A712A43
:1004E0008D2A3A08AE003B08AF003C08B0003D083A
:1004F000B1000130B200B137B00CAF0CAE0CB20B92
:100500007B2A3108BD003008BC002F08BB002E0834
:10051000BA000130BE070030BF3D3F08803AAE0050
:1005200080302E02031D962AFF303E02031C992ABA
:100530009A2AA42A7F302000BD008030BC00003001
:10054000BB000030BA00D32A20003F08803AAE003A
:1005500080302E02031DAE2A01303E020318B12A5C
:10056000B22ABD2A00302000BD000030BC0000309F
:10057000BB000030BA00B301D32A20003E08AE0011
:100580002E08B500FF30BA05FF30BB057F30BC0533
:100590000030BD05351CCD2ACE2ACF2ABC173536F2
:1005A000AE002E08BD003308AE002E08BD043D0885
:1005B000A9003C08A8003B08A7003A08A6000800CC
:1005C000730880392000A0002008F8007335A000CF
:1005D0002008FA00F21FED2AEE2AEF2A7A147A0890
:1005E0000319F32AF42A042B7A0A031DF82AF92A9C
:1005F000012B0030F3000030F2000030F100003039
:10060000F000F217F3010C2B0030F3000030F20081
:100610000030F1000030F00077088039A000200899
:10062000F900790878060319162B172B182B781761
:100630007735A0002008F900F61F1F2B202B212B57
:10064000791479080319252B262B362B790A031DDB
:100650002A2B2B2B332B0030F7000030F600003014
:10066000F5000030F400F617F7013E2B0030F700DC
:100670000030F6000030F5000030F4007A0879020E
:100680000318432B442B882B781F472B482B4C2BCC
:100690008030A0002008F8067A08A0002008FB009F
:1006A0007908A0002008FA007B08A0002008F900C3
:1006B0007008A0002008FB007408A0002008F000CB
:1006C0007B08A0002008F4007108A0002008FB00AF
:1006D0007508A0002008F1007B08A0002008F500A4
:1006E0007208A0002008FB007608A0002008F20095
:1006F0007B08A0002008F6007308A0002008FB007B
:100700007708A0002008F3007B08A0002008F7006D
:10071000FB017908A000A1012108A3007A082002AA
:10072000A200031CA3032308803AA4008030240203
:10073000031D9C2B1A302202031C9F2BA02BDA2BAB
:100740007308720471047004031DA72BA92B0130D8
:10075000AA2B00302000A0002008FB000030F3008E
:100760000030F2000030F1000030F0007908A00005
:100770002008FA00E02B7B1CBE2BBF2BC62B7B3640
:1007800001382000A0002008FB00C82B0310FB0C40
:10079000701CCB2BCC2BCD2BFB1701302000A000E5
:1007A000F337F20CF10CF00CA00BD02B0130A000B1
:1007B0002008FA0779087A02031CDF2BE02BBB2BF9
:1007C000781BE32BE42B1E2C7A08031DE82BE92B66
:1007D000F22B0030F3000030F2000030F100003066
:1007E000F0001E2D7408F0077508F13D7608F23D03
:1007F0007708F33D731CFD2BFE2BAB2C7B1C012CCF
:10080000022C092C7B3601382000A0002008FB00B8
:100810000B2C0310FB0C701C0E2C0F2C102CFB1738
:1008200001302000A000F337F20CF10CF00CA00B0B
:10083000132C0130A0002008FA07AB2C7308803A73
:100840002000A0007708803A2002031D312C760892
:100850007202031D312C75087102031D312C7408BE
:1008600070020318342C352C6D2CFF30A000FF30A3
:10087000A100FF30A200FF30A30070087402A400A2
:100880007108753BA5007208763BA6007308773B9C
:10089000A7002408A0072508A13D2608A23D270897
:1008A000A33D2308F3002208F2002108F1002008EC
:1008B000F0008030A0002008F806FB09FB0A7B0846
:1008C000031D632C642C752C0130F0070030F13DC2
:1008D0000030F23D0030F33D752C7408F0027508CD
:1008E000F13B7608F23B7708F33B7308720471041E
:1008F0007004031D7C2C7D2CA72C7B08031D812CF0
:10090000822CA72C0030F3000030F2000030F10000
:100910000030F0001E2D0130F035F10DF20DF30D19
:10092000890B8C2CFB1F952C962C972C70147B1C00
:100930009A2C9B2C9E2C0314FB0DA02C0310FB0D5A
:100940007A080319A42CA52CA72C0130FA02F21F57
:10095000AA2CAB2C8B2CF901FB1FAF2CB02CBE2C7E
:100960007B087F390319B52CB62CB92CF901F90A8B
:10097000BE2C701CBC2CBD2CBE2CB62C79080319C7
:10098000C22CC32CF12C0130F0070030F13D0030B7
:10099000F23D0030F33D731CCE2CCF2CF12C7008AF
:1009A0002000A0007108A1007208A2007308A30033
:1009B0000130A400A337A20CA10CA00CA40BDA2CCC
:1009C0002308F3002208F2002108F1002008F000BB
:1009D0007A0A0319EC2CED2CF12C0130A000200830
:1009E000FA077A0A0319F52CF62CFB2C7A08031D5A
:1009F000FA2CFB2C092D0030F3000030F2000030FF
:100A0000F1000030F0007A08031D072D082D092D94
:100A1000F8017A1C0C2D0D2D0F2DF217142D7F309F
:100A20002000A0002008F2057A362000A00020084F
:100A3000F300F81F1C2D1D2D1E2DF317080021009B
:100A40005A080319242D252DEF2EA031DE208531E3
:100A5000CB2E2100BC0122006608A231272285315D
:100A600082302100BC00B030BD00A2314F22853160
:100A70002100BC01BC0A22006608A2312722853170
:100A8000DD302100BC00B030BD00A2314F228531E5
:100A9000F52E2100BC0122006608A23127228531F3
:100AA000D5302100BC00B030BD00A2314F228531CD
:100AB0002100BC01BC0A22006608A2312722853130
:100AC00055302300B400B030B50021005308230096
:100AD000B700210052082300B600C330A3314723DA
:100AE0008531C3302100BC000130BD00A2314F224E
:100AF0008531F52E2100BC0122006608A231272293
:100B0000853149302300B400B030B50021005308CE
:100B10002300B700210052082300B600C330A331E0
:100B200047238531C3302100BC000130BD00A23114
:100B30004F2285312100BC01BC0A22006608A23187
:100B400027228531CD302300B400B030B50022001B
:100B500065082300B700220064082300B600C330F4
:100B6000A33147238531C3302100BC000130BD00D3
:100B7000A2314F228531F52E2100BC0122006608EA
:100B8000A23127228531C5302300B400B030B50032
:100B9000220065082300B700220064082300B60085
:100BA000C330A33147238531C3302100BC0001305D
:100BB000BD00A2314F2285312100BC01BC0A2200B8
:100BC0006608A231272285316D302300B400B03091
:100BD000B500220063082300B7002200620823004A
:100BE000B600C330A33147238531C3302100BC0098
:100BF0000130BD00A2314F228531F52E2100BC010C
:100C000022006608A2312722853196302100BC00DF
:100C1000B030BD00A2314F2285312100BC01BC0A99
:100C200022006608A23127228531DD302100BC0078
:100C3000B030BD00A2314F228531F52E2100BC011C
:100C400022006608A23127228531D5302100BC0060
:100C5000B030BD00A2314F2285312100BC01BC0A59
:100C600022006608A2312722853155302300B400C6
:100C7000B030B500220061082300B70022006008F0
:100C80002300B600C330A33147238531712D2100E5
:100C9000BC0122006608A231272285314930230099
:100CA000B400B030B500220061082300B700220074
:100CB00060082300B600C330A33147238531C33019
:100CC0002100BC000130BD00A2314F22853121003E
:100CD000BC01BC0A22006608A23127228531CD3032
:100CE0002300B400B030B50022005F082300B70035
:100CF00022005E082300B600C330A33147238531AC
:100D0000C3302100BC000130BD00A2314F2285312B
:100D1000F52E2100BC0122006608A2312722853170
:100D2000C5302300B400B030B50022005F082300B6
:100D3000B70022005E082300B600C330A33147236A
:100D40008531C3302100BC000130BD00A2314F22EB
:100D500085312100BC01BC0A22006608A23127228D
:100D600085316D302300B400B030B50022005D083D
:100D70002300B70022005C082300B600C330A33173
:100D800047238531C3302100BC000130BD00A231B2
:100D90004F228531F52E210059082300C100C201E0
:100DA0004208003A0319D52EF52E4108003A0319DE
:100DB000292D013A0319492D033A03197A2D013AD5
:100DC0000319BC2D073A0319FE2D013A03191E2EF3
:100DD000033A0319472E013A0319892EF52EA03143
:100DE000422085319A31BD2285310800F201203040
:100DF000860000308700473FF000F01F002F012FD2
:100E0000222F2000A009A109A209A309A409A5096C
:100E1000A609A709A00A031D202FA10A031D202F40
:100E2000A20A031D202FA30A031D202FA40A031DBD
:100E3000202FA50A031D202FA60A031D202FA70A75
:100E4000F201F20A2830860000308700473FF000A8
:100E5000F01F2B2F2C2F4F2F2000A809A909AA091A
:100E6000AB09AC09AD09AE09AF09A80A031D4B2FA8
:100E7000A90A031D4B2FAA0A031D4B2FAB0A031D02
:100E80004B2FAC0A031D4B2FAD0A031D4B2FAE0A8F
:100E9000031D4B2FAF0A0130F0007008F2067330CB
:100EA0008600003087000830F00000301E00F00B94
:100EB000562F2000200821042204230424042504A2
:100EC000260427040319652F662FC22FF101F10AAA
:100ED000752FA035A10DA20DA30DA40DA50DA60D76
:100EE000A70D0130F0007008F107A71F782F792FA8
:100EF000692FF335F40DF50DF60DF70DF80DF90D1D
:100F0000FA0D27082F02031D9F2F26082E02031D0E
:100F10009F2F25082D02031D9F2F24082C02031D3F
:100F20009F2F23082B02031D9F2F22082A02031D37
:100F30009F2F21082902031D9F2F20082802031C30
:100F4000A22FA32FB42F2008A8022108A93B220812
:100F5000AA3B2308AB3B2408AC3B2508AD3B260845
:100F6000AE3B2708AF3B7314A736A60CA50CA40C08
:100F7000A30CA20CA10CA00C0130F102031DC12F87
:100F8000C22F792F72080319C62FC72FE52FF30937
:100F9000F409F509F609F709F809F909FA09F30A54
:100FA000031DE52FF40A031DE52FF50A031DE52FA8
:100FB000F60A031DE52FF70A031DE52FF80A031DA6
:100FC000E52FF90A031DE52FFA0A73082000A00097
:100FD0007408A1007508A2007608A3007708A40091
:100FE0007808A5007908A6007A08A7000800210063
:100FF00036082300DB00210035082300DA00080052
:10100000F0007003031D052806280B282700921105
:10101000121292120F2827001210921012110800BB
:101020002300AD0022004808860001308700403FC1
:101030002300A000413FA100200884002108850072
:101040001200253A031D25282628F02822004808EA
:101050008600013087000130810741310318810A81
:10106000D401D5012100D601D701FF302200D600DE
:10107000FF30D7004808860001308700403F23003A
:10108000A000413FA1002008840021088500120033
:10109000643A03194C284D2861282200480886002C
:1010A00001308700403F2300A000413FA1002008FD
:1010B0008400210885001200693A031D6028612818
:1010C000B1282200480886000130870001308107DE
:1010D00041310318810A4908860001308700010860
:1010E00084000130850002308107003F2300A0000A
:1010F000013FA1002008A5002108A600890D893B19
:101100008909A700A800A900AA00AB00AC00250827
:101110002200AA00230026082200AB002300270893
:101120002200AC00230028082200AD00230029087B
:101130002200AE0023002A082200AF0023002B0863
:101140002200B00023002C082200B10023002D084B
:1011500089311D21883122002B08C9002A08C800C6
:101160001C2922004808860001308700403F2300E8
:10117000A000413FA1002008840021088500120042
:10118000253A031DC428C528E32822004808860004
:10119000013087000130810741310318810A253071
:1011A0002100B5000030B60023002D08A000200863
:1011B0002100B700A631E526883101302200C800A1
:1011C0000030C9001C292200480886000130870031
:1011D0000130810741310318810AC801C9011C2966
:1011E00022004808860001308700403F2300A0000D
:1011F000413FA10020088400210885000008A200CA
:10120000A30122082100B500230023082100B60015
:1012100023002D08A40024082100B700A631E526EC
:10122000883122004808860001308700013081079C
:1012300041310318810ADD2808002200B5002A0880
:10124000BE002B08BF002C08C0002D08C1002E08CE
:10125000C2002F08C3003008C4003108C5003E306A
:10126000860001308700473FB200B21B38293A2977
:1012700001303B2900302200B300B4013308BC0028
:101280003408BD003C083D04031947294829662954
:10129000BE09BF09C009C109C209C309C409C509FA
:1012A000BE0A031D6629BF0A031D6629C00A031D65
:1012B0006629C10A031D6629C20A031D6629C30ADD
:1012C000031D6629C40A031D6629C50A2200D71B0F
:1012D0006A296B297029FD302100D605FF30D7051A
:1012E00022005708803AB20080303202031D7A296A
:1012F0000130560203187D297E29842901302200FD
:10130000B8000030B900892922005708B9005608F2
:10131000B8005508BB005408BA003C083D04031D42
:101320009229932998292100561D972998299D29AA
:10133000FF302200BA07FF30BB3D1F302200C6003D
:101340000030C7002600EF01402AFF302200C60708
:10135000FF30C73D0A302100B500B601B701B80122
:10136000B901BA01BB01BC0122003E082100BD0049
:1013700022003F082100BE00220040082100BF00DB
:10138000220041082100C000220042082100C100C3
:10139000220043082100C200220044082100C300AB
:1013A000220045082100C4009031DA208931210053
:1013B0003608C9003508C800A0310920893121004C
:1013C0004808303E2200B2004608503E86000330F6
:1013D000870032088100FF30B807FF30B93DFF3089
:1013E000BA07FF30BB3D0A302100B500B601B70196
:1013F000B801B901BA01BB01BC0122003E082100BD
:10140000BD0022003F082100BE002200400821004C
:10141000BF00220041082100C00022004208210034
:10142000C100220043082100C2002200440821001C
:10143000C300220045082100C4009231BB2289313B
:10144000210035082200BE00210036082200BF001E
:10145000210037082200C000210038082200C10006
:10146000210039082200C20021003A082200C300EE
:1014700021003B082200C40021003C082200C500D6
:1014800022004708803AB20080303202031D4A2A07
:1014900001304602031C4D2A4E2A7B2A22003E08B8
:1014A0003F04400441044204430444044504031D32
:1014B0005A2A5B2AA5293908803AB20080303202C4
:1014C000031D642A013038020318672A682AA529F7
:1014D00022003B08803AB20080303202031D722A9B
:1014E00001303A02031C752A762A7B2A2100D6187D
:1014F0007A2A7B2AA52922003C083D04031D812A63
:10150000822A872A2100561D862A872AA42AFF308C
:101510002200C607FF30C73D3C083D04031D912A49
:10152000922A972A2B30B6000030B7009B2A2D3024
:10153000B6000030B7003608B2004608503E8600BC
:10154000033087003208810022004608503EB20076
:1015500032082100C50022003B082100C7002200FC
:101560003A082100C60022003508A73198278931A2
:10157000210046082200AB00210045082200AA00F5
:10158000080020004B088039CC004C08D5004B35B2
:10159000CC004C08DC00CA1FCE2ACF2AD02A5C140B
:1015A0005C080319D42AD52AE52A5C0A031DD92A26
:1015B000DA2AE22A0030CB000030CA000030C9002D
:1015C0000030C800CA17CB01ED2A0030CB00003034
:1015D000CA000030C9000030C80047088039CC007C
:1015E0004C08D5064735CC004C08DD00C61FF92A4B
:1015F000FA2AFB2A5D145D080319FF2A002B102B21
:101600005D0A031D042B052B0D2B0030C700003095
:10161000C6000030C5000030C400C617C701182B33
:101620000030C7000030C6000030C5000030C400E4
:101630004708460445044404031D1F2B202B392B67
:101640000030CB000030CA000030C9000030C800B4
:101650008030CA047F30CB045508CC004C08CB0442
:101660004B08C7004A08C6004908C5004808C4001E
:10167000742C5C08031D3D2B3E2B472B0030C7000C
:101680000030C6000030C5000030C400742C5C0877
:10169000CC00CD014D08CF005D084C02CE00031CEC
:1016A000CF034E087F3ED60000304F3DD7004B0899
:1016B000D4004A08D3004908D2004808D1000030BD
:1016C000CB000030CA000030C9000030C800003034
:1016D000DB000030DA000030D9000030D800DD0136
:1016E000AF2B5D080319752B762B902B0130D1356C
:1016F000D20DD30DD40D890B772B0130C835C90D10
:10170000CA0DCB0D890B7E2BDB1F872B882B892BDA
:1017100048140130D835D90DDA0DDB0D890B8A2B31
:1017200047085402031D9E2B46085302031D9E2B9F
:1017300045085202031D9E2B44085102031CA12B95
:10174000A22BAB2B5B174408D1024508D23B4608BD
:10175000D33B4708D43B0130CC004C08DD071A309E
:101760005D02031CB42BB52B712B54085304520497
:1017700051040319BC2BBD2BD62B5814D62B01308A
:10178000C835C90DCA0DCB0D890BC02BDB1FC92B6A
:10179000CA2BCB2B48140130D835D90DDA0DDB0D0F
:1017A000890BCC2BFF30D607FF30D73DCA1FD92B72
:1017B000DA2BBF2BDD01DB1FDE2BDF2BFB2BFF30FA
:1017C0005805CC00FF305905CD00FF305A05CE003A
:1017D0007F305B05CF004F084E044D044C040319C5
:1017E000F22BF32BF62BDD01DD0AFB2B481CF92B2A
:1017F000FA2BFB2BF32B5D080319FF2B002C282C55
:101800000130C8070030C93D0030CA3D0030CB3D33
:101810004B1C0B2C0C2C282C4808CC004908CD0064
:101820004A08CE004B08CF000130D000CF37CE0C95
:10183000CD0CCC0CD00B162C4F08CB004E08CA0098
:101840004D08C9004C08C8000130D6070030D73D0C
:101850005708803ACC0080304C02031D312CFF30F9
:101860005602031C342C352C422CFF302000D600AD
:101870000030D7000030CB000030CA000030C90073
:101880000030C80020005708803ACC0080304C025D
:10189000031D4C2C0130560203184F2C502C5C2C8D
:1018A0002000D601D7010030CB000030CA00003044
:1018B000C9000030C800D50120005608CC004C08F3
:1018C000DC005C1C642C652C672CCA176B2C7F30E9
:1018D000CC004C08CA055C36CC004C08CB0055083F
:1018E000CC004C08CB04302B080021005A08031907
:1018F0007A2C7B2C252EAF31E4278C31022EF70178
:1019000022006608A131D8218C318230F700B03036
:10191000F800A1318C218C31F701F70A220066080A
:10192000A131D8218C31DD30F700B030F800A13181
:101930008C218C312B2EF70122006608A131D82191
:101940008C31D530F700B030F800A1318C218C31CA
:10195000F701F70A22006608A131D8218C315530F1
:101960002000EA00B030EB00210053082000ED0019
:10197000210052082000EC00C330A3311C238C311D
:10198000C330F7000130F800A1318C218C312B2EAF
:10199000F70122006608A131D8218C31493020009E
:1019A000EA00B030EB00210053082000ED002100D8
:1019B00052082000EC00C330A3311C238C31C3300B
:1019C000F7000130F800A1318C218C31F701F70AC2
:1019D00022006608A131D8218C31CD302000EA00E8
:1019E000B030EB00220065082000ED002200640802
:1019F0002000EC00C330A3311C238C31C330F7002E
:101A00000130F800A1318C218C312B2EF7012200FE
:101A10006608A131D8218C31C5302000EA00B030F1
:101A2000EB00220065082000ED0022006408200081
:101A3000EC00C330A3311C238C31C330F7000130DC
:101A4000F800A1318C218C31F701F70A22006608D9
:101A5000A131D8218C316D302000EA00B030EB008C
:101A6000220063082000ED00220062082000EC0044
:101A7000C330A3311C238C31C330F7000130F80090
:101A8000A1318C218C312B2EF70122006608A13167
:101A9000D8218C319630F700B030F800A1318C217C
:101AA0008C31F701F70A22006608A131D8218C3168
:101AB000DD30F700B030F800A1318C218C312B2EB5
:101AC000F70122006608A131D8218C31D530F7000A
:101AD000B030F800A1318C218C31F701F70A2200D7
:101AE0006608A131D8218C3155302000EA00B03091
:101AF000EB00220061082000ED00220060082000B9
:101B0000EC00C330A3311C238C31C02CF701220020
:101B10006608A131D8218C3149302000EA00B0306C
:101B2000EB00220061082000ED0022006008200088
:101B3000EC00C330A3311C238C31C330F7000130DB
:101B4000F800A1318C218C31F701F70A22006608D8
:101B5000A131D8218C31CD302000EA00B030EB002B
:101B600022005F082000ED0022005E082000EC004B
:101B7000C330A3311C238C31C330F7000130F8008F
:101B8000A1318C218C312B2EF70122006608A13166
:101B9000D8218C31C5302000EA00B030EB002200A3
:101BA0005F082000ED0022005E082000EC00C3303A
:101BB000A3311C238C31C330F7000130F800A13170
:101BC0008C218C31F701F70A22006608A131D82157
:101BD0008C316D302000EA00B030EB0022005D084F
:101BE0002000ED0022005C082000EC00C330A3318F
:101BF0001C238C31C330F7000130F800A1318C2157
:101C00008C312B2E21005908AA00AB012B08003A79
:101C100003190B2E2B2E2A08003A03197F2C013AA8
:101C200003199B2C033A0319C82C013A0319062DFA
:101C3000073A0319442D013A0319602D033A031999
:101C4000862D013A0319C42D2B2EAF3147278C3135
:101C50009931B1218C310800FF2EF701F70A0030CD
:101C6000A131D8218E310F30F700B030F800A1310A
:101C70008C218E31E82FF701F70A0030A131D821ED
:101C80008E310F30F700B030F800A1318C218E3149
:101C9000403086000230870020308400003085000C
:101CA0000830FD0016001A00FD0B522E2030F70000
:101CB0000030F8000330FD007D08F900A231F22267
:101CC0008E31F701F70A0030A131D8218E3103306F
:101CD000A03125208E31E82FF701F70A0030A1311D
:101CE000D8218E310F30F700B030F800A1318C21AF
:101CF0008E31383086000230870028308400003072
:101D000085000830FD0016001A00FD0B832E2830D8
:101D1000F7000030F8000330FD007D08F900A23123
:101D2000F2228E31F701F70A0030A131D8218E312D
:101D30000330A03125208E31E82FF701F70A00305B
:101D4000A131D8218E310F30F700B030F800A13129
:101D50008C218E3130308600023087003030840094
:101D6000003085000830FD0016001A00FD0BB42E6F
:101D70003030F7000030F8000330FD007D08F90036
:101D8000A231F2228E31F701F70A0030A131D821B9
:101D90008E310330A03125208E31E82FF701F70A6C
:101DA0000030A131D8218E310F30F700B030F8006B
:101DB000A1318C218E3128308600023087003830E6
:101DC0008400003085000830FD0016001A00FD0B6D
:101DD000E52E3830F7000030F8000330FD007D08B4
:101DE000F900A231F2228E31F701F70A0030A13159
:101DF000D8218E310330A03125208E31E82F2100EB
:101E00005108003A0319052FE82F5008003A03192A
:101E10002D2E013A03193B2E033A03196C2E013A79
:101E200003199D2E073A0319CE2EE82FF701F70A62
:101E30000F30A131D8218E310F30F700B030F800CB
:101E4000A1318C218E31FF2FF701F70A0F30A1311C
:101E5000D8218E310F30F700B030F800A1318C213D
:101E60008E31203086000230870040308400003000
:101E700085000830FD0016001A00FD0B3B2F403096
:101E8000F7000030F8000530FD007D08F900A231B0
:101E9000F2228E31F701F70A0F30A131D8218E31AD
:101EA0000530A03125208E31FF2FF701F70A0F30C2
:101EB000A131D8218E310F30F700B030F800A131B8
:101EC0008C218E31E030860002308700483084005B
:101ED000003085000830FD0016001A00FD0B6C2F45
:101EE0004830F7000030F8000530FD007D08F900AB
:101EF000A231F2228E31F701F70A0F30A131D82139
:101F00008E310530A03125208E31FF2FF701F70AE1
:101F10000F30A131D8218E310F30F700B030F800EA
:101F2000A1318C218E31D8308600023087005030AC
:101F30008400003085000830FD0016001A00FD0BFB
:101F40009D2F5030F7000030F8000530FD007D086F
:101F5000F900A231F2228E31F701F70A0F30A131D8
:101F6000D8218E310530A03125208E31FF2FF70189
:101F7000F70A0F30A131D8218E310F30F700B03081
:101F8000F800A1318C218E31D030860002308700DC
:101F900058308400003085000830FD0016001A001B
:101FA000FD0BCE2F5830F7000030F8000330FD0055
:101FB0007D08F900A231F2228E31F701F70A0F30C5
:101FC000A131D8218E310330A03125208E31FF2F51
:101FD00021005508003A0319EE2FFF2F5408003A4C
:101FE0000319162F013A0319242F033A0319552F09
:101FF000013A0319862F073A0319B72FFF2F08005C
:10200000AF31E4279031F70122006608A131D821D1
:102010009031ED30F700B030F800A1318C219031D3
:10202000F701F70A22006608A131D8219031BC30AF
:10203000F700B030F800A1318C2190315230FD0012
:102040002A30890B2128FD0B21280800AE31E82613
:102050009031A13144219031D23086000130870087
:10206000203084000330850008302200CD001600A7
:102070001A00CD0B372868308600023087002830E0
:102080008400033085000830CD0016001A00CD0B07
:1020900045286030860002308700303084000330ED
:1020A00085000830CD0016001A00CD0B532858309B
:1020B0008600023087003830840003308500083005
:1020C000CD0016001A00CD0B61285030860002307A
:1020D000870040308400033085000830CD001600B2
:1020E0001A00CD0B6F284830860002308700483038
:1020F0008400033085000830CD0016001A00CD0B97
:102100007D2820302100BC000330BD00BE01BE0A86
:10211000A3319E23903128302100BC000330BD0044
:10212000BE01A3319E23903130302100BC0003302A
:10213000BD0002302200CD004D082100BE00A331B9
:102140009E23903138302100BC000330BD000330A5
:102150002200CD004D082100BE00A3319E23903106
:1021600040302100BC000330BD0004302200CD000F
:102170004D082100BE00A3319E239031483021003C
:10218000BC000330BD0007302200CD004D08210007
:10219000BE00A3319E239031A3317223903185314B
:1021A0001F2590318B170130AF3105279031D7288B
:1021B000803129282100C701BD308600003087000A
:1021C000473FC500C51FE528E62808292100BD09AD
:1021D000BE09BF09C009C109C209C309C409BD0AB2
:1021E000031D0529BE0A031D0529BF0A031D052974
:1021F000C00A031D0529C10A031D0529C20A031DC2
:102200000529C30A031D0529C40A2100C701C70AFD
:10221000B530860000308700473F2100C500C51F4C
:102220001229132932292100B509B609B709B809BD
:10223000B909BA09BB09BC09B50A031D3229B60A96
:10224000031D3229B70A031D3229B80A031D32299A
:10225000B90A031D3229BA0A031D3229BB0A031D1C
:102260003229BC0A21003508360437043804390401
:102270003A043B043C0403193E293F299229C60134
:10228000C60A4E29B535B60DB70DB80DB90DBA0D44
:10229000BB0DBC0D0130C5004508C607BC1F512948
:1022A000522942293C084402031D70293B0843027D
:1022B000031D70293A084202031D702939084102A2
:1022C000031D702938084002031D702937083F029A
:1022D000031D702936083E02031D702935083D0292
:1022E000031C7329742984293508BD023608BE3BB6
:1022F0003708BF3B3808C03B3908C13B3A08C23BEE
:102300003B08C33B3C08C43BBC36BB0CBA0CB90C05
:10231000B80CB70CB60CB50C0130C602031D9129E0
:10232000922952294708031996299729B529BD09E9
:10233000BE09BF09C009C109C209C309C409BD0A50
:10234000031DB529BE0A031DB529BF0A031DB52902
:10235000C00A031DB529C10A031DB529C20A031D00
:10236000B529C30A031DB529C40A21003D08B500DB
:102370003E08B6003F08B7004008B8004108B90061
:102380004208BA004308BB004408BC000800200013
:102390005108860052088700403FD500413FD600D3
:1023A00055088400560885001200253A031DD929D6
:1023B000DA29952A510886005208870001308107E2
:1023C00041310318810A2200D401D5012100D60130
:1023D000D701FF302200D600FF30D700200051087F
:1023E000860052088700403FD500413FD60055087F
:1023F0008400560885001200643A0319002A012A55
:10240000132A5108860052088700403FD500413FFB
:10241000D60055088400560885001200693A031D4D
:10242000122A132A5D2A51088600520887000130BB
:10243000810741310318810A530886005408870038
:102440000108D5000230810741310108D600003073
:102450000318810A81075508860056088700403F07
:10246000D700413FD8005708D9005808DA00890D35
:10247000893B8909DB00DC00DD00DE00DF00E000D5
:102480005008B1004F08B0005908B2005A08B30014
:102490005B08B4005C08B5005D08B6005E08B700D4
:1024A0005F08B8006008B90096318C269131200091
:1024B0003108D0003008CF00BA2A510886005208EF
:1024C0008700403FD500413FD6005508840056089C
:1024D00085001200253A031D6E2A6F2A892A5108A9
:1024E0008600520887000130810741310318810AB4
:1024F0002530F0000030F1005008F3004F08F200E2
:10250000A7313D27913101302000CF000030D000AD
:10251000BA2A5108860052088700013081074131EC
:102520000318810ACF01D001BA2A51088600520847
:102530008700403FD500413FD6005508840056082B
:1025400085000008D700D8015708F0005808F100AE
:102550005008F3004F08F200A7313D2791312000C9
:102560005108860052088700013081074131031865
:10257000810A832A08002200A101B53086000030BC
:102580008700473F2100C500C51FC72AC82AEA2A7D
:102590002100B509B609B709B809B909BA09BB09D3
:1025A000BC09B50A031DE72AB60A031DE72AB70AC4
:1025B000031DE72AB80A031DE72AB90A031DE72A03
:1025C000BA0A031DE72ABB0A031DE72ABC0A220038
:1025D000A101A10ABD30860000308700473F2100DD
:1025E000C500C51FF42AF52A1A2B2100BD09BE0912
:1025F000BF09C009C109C209C309C409BD0A031D35
:10260000142BBE0A031D142BBF0A031D142BC00A72
:10261000031D142BC10A031D142BC20A031D142B06
:10262000C30A031D142BC40A01302100C50045084C
:102630002200A106223086000130870008302100E8
:10264000C50000301E00C50B222B350836043704A8
:10265000380439043A043B043C040319302B312B71
:10266000952B2200A001A00A422BB535B60DB70D5F
:10267000B80DB90DBA0DBB0DBC0D0130C500450834
:102680002200A0072100BC1F462B472B352B220020
:10269000A235A30DA40DA50DA60DA70DA80DA90D7E
:1026A00021003C084402031D6F2B3B084302031D1D
:1026B0006F2B3A084202031D6F2B39084102031D9C
:1026C0006F2B38084002031D6F2B37083F02031D94
:1026D0006F2B36083E02031D6F2B35083D02031C8D
:1026E000722B732B852B3508BD023608BE3B37088D
:1026F000BF3B3808C03B3908C13B3A08C23B3B08E6
:10270000C33B3C08C43B220022142100BC36BB0C56
:10271000BA0CB90CB80CB70CB60CB50C01302200D1
:10272000A002031D942B952B472B2200210803198F
:102730009A2B9B2BB92BA209A309A409A509A609C9
:10274000A709A809A909A20A031DB92BA30A031DF9
:10275000B92BA40A031DB92BA50A031DB92BA60A80
:10276000031DB92BA70A031DB92BA80A031DB92BFA
:10277000A90A220022082100B50022002308210016
:10278000B600220024082100B700220025082100FD
:10279000B800220026082100B900220027082100E5
:1027A000BA00220028082100BB00220029082100CD
:1027B000BC0008000C302100A4000030A50001304E
:1027C000AB000030AC000030B0000030AF00003093
:1027D000AE000030AD00220051082100AA00220006
:1027E00050082100A90022004F082100A800220063
:1027F0004E082100A700C52C2A08F3002908F20082
:102800002808F1002708F0003008F7002F08F6002C
:102810002E08F5002D08F4008231E0229331730870
:102820002100B0007208AF007108AE007008AD0062
:102830002B08023EAB0000302C3DAC0022005108BA
:102840002000AD00220050082000AC0022004F08FC
:102850002000AB0022004E082000AA0022005108F0
:102860002000A900220050082000A80022004F08E4
:102870002000A70022004E082000A60080318920F9
:10288000933120002908C3002808C2002708C1008E
:102890002608C000AE31DC26933120004308CB006F
:1028A0004208CA004108C9004008C80021002C089D
:1028B000F3002B08F2002B08FF3EF000FF302C3D08
:1028C000F100A0317F20933170082000DE007108F4
:1028D000DF00E001E1016108F9006008F8005F082D
:1028E000F7005E08F60000309B31E723933179084A
:1028F0002000C7007808C6007708C5007608C40025
:102900008A31C1229331200047082100A300200012
:1029100046082100A200200045082100A100200057
:1029200044082100A00023082000A900210022085B
:102930002000A800210021082000A7002100200875
:102940002000A60021002A082000AD00210029084F
:102950002000AC00210028082000AB00210027083F
:102960002000AA008031892093312000290821000D
:10297000AA00200028082100A90020002708210023
:10298000A800200026082100A70025082C02031D0E
:10299000CB2C24082B02031CCE2CCF2CFC2B300874
:1029A0002000A90021002F082000A80021002E08E7
:1029B0002000A70021002D082000A60021003008DB
:1029C0002000AD0021002F082000AC0021002E08BF
:1029D0002000AB0021002D082000AA0080318920B2
:1029E0009331200029082100B00020002808210090
:1029F000AF00200027082100AE002000260821009B
:102A0000AD003E30F3001930F2009930F1009A30F9
:102A1000F0003008F7002F08F6002E08F5002D080A
:102A2000F4009A31332293310318172D182D1C2DE1
:102A30002100A601A60A1E2D2100A60126080800D5
:102A4000C22DF701F70A0130A131D82195310F309D
:102A5000F700B030F800A1318C219531772EF701C5
:102A6000F70A0130A131D82195310F30F700B0308D
:102A7000F800A1318C219531C830860002308700E2
:102A800020308400003085000830FD0016001A0058
:102A9000FD0B462D2030F7000030F8000630FD0019
:102AA0007D08F900A231F2229531F701F70A0130D1
:102AB000A131D82195310630A03125209531772ECE
:102AC000F701F70A0130A131D82195310F30F70015
:102AD000B030F800A1318C219531C0308600023031
:102AE000870028308400003085000830FD00160083
:102AF0001A00FD0B772D2830F7000030F800063063
:102B0000FD007D08F900A231F2229531F701F70AA4
:102B10000130A131D82195310630A03125209531E1
:102B2000772EF701F70A0130A131D82195310F3006
:102B3000F700B030F800A1318C219531B830860013
:102B40000230870030308400003085000830FD00FE
:102B500016001A00FD0BA82D3030F7000030F800E9
:102B60000630FD007D08F900A231F2229531F7010F
:102B7000F70A0130A131D82195310630A031252046
:102B80009531772E21004F08003A0319C82D772E72
:102B90004E08003A0319212D013A03192F2D033A4B
:102BA0000319602D013A0319912D772EF701F70AC9
:102BB0000E30A131D82195310F30F700B030F80038
:102BC000A1318C2195318B2EF701F70A0E30A131FE
:102BD000D82195310F30F700B030F800A1318C21A9
:102BE0009531B030860002308700383084000030E4
:102BF00085000830FD0016001A00FD0BFB2D383053
:102C0000F7000030F8000730FD007D08F900A23120
:102C1000F2229531F701F70A0E30A131D821953112
:102C20000730A031252095318B2EF701F70A0E30A1
:102C3000A131D82195310F30F700B030F800A13123
:102C40008C219531A8308600023087004030840006
:102C5000003085000830FD0016001A00FD0B2C2EF8
:102C60004030F7000030F8000730FD007D08F90023
:102C7000A231F2229531F701F70A0E30A131D821A5
:102C800095310730A031252095318B2EF701F70AB9
:102C90000E30A131D82195310F30F700B030F80057
:102CA000A1318C219531A030860002308700483058
:102CB0008400003085000830FD0016001A00FD0B6E
:102CC0005D2E4830F7000030F8000730FD007D0829
:102CD000F900A231F2229531F701F70A0E30A13145
:102CE000D82195310730A031252095318B2E210038
:102CF0004D08003A03197D2E8B2E4C08003A03191B
:102D0000D62D013A0319E42D033A0319152E013A81
:102D10000319462E8B2E080020003208C500330808
:102D2000C6003408C7003508C8003608C90037088F
:102D3000CA003808CB003908CC0045308600003086
:102D40008700473FBA00BA1BA62EA82E0130A92E35
:102D500000302000BB00BC013B08C3003C08C4009D
:102D6000430844040319B52EB62ED42EC509C6094E
:102D7000C709C809C909CA09CB09CC09C50A031D75
:102D8000D42EC60A031DD42EC70A031DD42EC80A8A
:102D9000031DD42EC90A031DD42ECA0A031DD42E26
:102DA000CB0A031DD42ECC0A2200D71BD82ED92E35
:102DB000DE2EFD302100D605FF30D7052200570852
:102DC000803A2000BA0080303A02031DEA2E01301A
:102DD000220056020318ED2EEE2EF42E01302000B4
:102DE000BF000030C000FC2E220057082000C000A9
:102DF000220056082000BF00220055082000C20013
:102E0000220054082000C10043084404031D092F78
:102E10000A2F0F2F2100561D0E2F0F2F142FFF30BA
:102E20002000C107FF30C23D1F302000CD00003020
:102E3000CE002600EF01852FFF302000CD07FF30A8
:102E4000CE3D0A30A000A101A201A301A401A50169
:102E5000A601A7014508A8004608A9004708AA003E
:102E60004808AB004908AC004A08AD004B08AE006A
:102E70004C08AF009E312C26963120002108F4002A
:102E80002008F300AF31612796317308303E2000EF
:102E9000BA004D08503E8600033087003A08810092
:102EA000FF30BF07FF30C03DFF30C107FF30C23DDC
:102EB0000A30A000A101A201A301A401A501A6015D
:102EC000A7014508A8004608A9004708AA00480825
:102ED000AB004908AC004A08AD004B08AE004C08F6
:102EE000AF008631F626963120002008C500210863
:102EF000C6002208C7002308C8002408C900250806
:102F0000CA002608CB002708CC0020004E08803AD3
:102F1000BA0080303A02031D8F2F01304D02031C8E
:102F2000922F932FC02F20004508460447044804E1
:102F300049044A044B044C04031D9F2FA02F1C2F4F
:102F40004008803ABA0080303A02031DA92F0130B0
:102F50003F020318AC2FAD2F1C2F20004208803AEF
:102F6000BA0080303A02031DB72F01304102031C22
:102F7000BA2FBB2FC02F2100D618BF2FC02F1C2F58
:102F8000200043084404031DC62FC72FCC2F210067
:102F9000561DCB2FCC2FE92FFF302000CD07FF305F
:102FA000CE3D43084404031DD62FD72FDC2F2B30F2
:102FB000BD000030BE00E02F2D30BD000030BE004F
:102FC0003D08BA004D08503E8600033087003A089D
:102FD000810020003108A5003008A4004D08503EB3
:102FE000BA003A08A6004208A8004108A700A63186
:102FF0008E26963120002508B1002408B000080074
:1030000023005E085F040319062807280C285F08C0
:103010008A005E080A00983121005A080319112815
:1030200012283D2825280530AC002C08D9008C3109
:10303000752498314A280630AC002C08D90017288E
:103040000730AC002C08D90017285908AC00AD0196
:103050002D08003A03192D284A282C08043A031990
:103060001328013A03191B28033A031920284A2878
:103070000330AC002C08D90017285908AC00AD016A
:103080002D08003A031945284A282C08023A03194A
:1030900038284A2827001312080022008C018D01CD
:1030A0008E01083021009000FF308C008D01FF3030
:1030B0008E00FC3023008E008D018C01083024002E
:1030C00090008D013F308C008E012100951325006A
:1030D0008C018D018E01FF3026008C00FF308D00A9
:1030E000FF308E00FF3027008C00FF308D00FF3056
:1030F0008E000830900013109310131193111312C7
:10310000931212149214121592151216921611148B
:103110009110111191151112911274302100B50006
:103120002E30B600AE319A26983176302100B500A7
:103130002E30B600AE31A326983177302100B5008D
:103140002E30B600AE31AC26983178302100B50073
:103150002E30B600AE31B526983179302100B50059
:103160002E30B600AE31BE2698317A302100B5003F
:103170002E30B600A031002098318B1508002000B9
:1031800020082104031DC528C628FE280130A200FE
:103190000030A300EF28F70120002208A131D82138
:1031A00098310230A031252098312130FD00763051
:1031B000890BD828FD0BD828003201302000A20747
:1031C0000030A33DF7012208FF3EA131D8219831FC
:1031D0000F30F700B030F800A1318C219831200079
:1031E0002308803AFD0080307D02031DF9280F304E
:1031F0002202031CFC28FD28CB2835290E30A40010
:103200000030A5002729F70120002408A131D8218A
:1032100098310230A031252098312130FD007630E0
:10322000890B1029FD0B10290032FF302000A40764
:10323000FF30A53DF7012408013EA131D821983186
:103240000F30F700B030F800A1318C219831200008
:103250002508803AFD0080307D02031D31290130B0
:1032600024020318342935290329080021002C08D9
:103270002D04031D3C293D295A29AF314727993197
:10328000F7010030A131D8219931A030F700B030DA
:10329000F800A1318C219931F701F70A0030A131F2
:1032A000D82199317830F700B030F800A1318C2165
:1032B00099317629AF3147279931F7010030A13193
:1032C000D8219931A030F700B030F800A1318C211D
:1032D0009931F701F70A0030A131D82199318C30AA
:1032E000F700B030F800A1318C219931A3302000D3
:1032F000EF005530890B7A29EF0B7A292100DA018A
:10330000D9010430D0000030D1000430D4000030A6
:10331000D5000330CE000030CF000330CC000030A9
:10332000CD000130D2000030D30001302200E40093
:103330000030E5000130E2000030E3000130E00041
:103340000030E1000130DE000030DF000130DC0041
:103350000030DD009031002099318C317524993195
:1033600008001A2AF7010030A131D8219931113013
:10337000F700B030F800A1318C219931F701F70A3C
:103380000030A131D82199313B30F700B030F8003E
:10339000A1318C219931322AF7010030A131D82195
:1033A00099312D30F700B030F800A1318C219931DE
:1033B000F701F70A0030A131D8219931AA30F7007E
:1033C000B030F800A1318C219931322AF701003058
:1033D000A131D82199311F30F700B030F800A13168
:1033E0008C219931F701F70A0030A131D8219931A8
:1033F0003B30F700B030F800A1318C219931322AEE
:10340000F7010030A131D82199312D30F700B030CB
:10341000F800A1318C219931F701F70A0030A13170
:10342000D8219931AA30F700B030F800A1318C21B1
:103430009931322A210059082000A000A101210859
:10344000003A0319242A322A2008003A0319B22923
:10345000013A0319CC29033A0319E629013A031961
:10346000002A322A080000307005F800003071058B
:10347000F90080307205FA007F307305FB007B088D
:103480007A0479047804031D462A472A4F2A00301B
:10349000F3000030F2000030F1000030F0000030A6
:1034A0007405F80000307505F90080307605FA00E3
:1034B0007F307705FB007B087A0479047804031DCC
:1034C000622A632A6B2A0030F7000030F6000030D1
:1034D000F5000030F400F31F6E2A6F2A872A0030AF
:1034E000F8000030F9000030FA008030FB0070086E
:1034F000F8027108F93B7208FA3B7308FB3B7B0842
:10350000F3007A08F2007908F1007808F000F71F5C
:103510008A2A8B2AA32A0030F8000030F9000030F4
:10352000FA008030FB007408F8027508F93B760851
:10353000FA3B7708FB3B7B08F7007A08F60079082E
:10354000F5007808F4008030F3068030F70677083D
:103550007302031DB52A76087202031DB52A750889
:103560007102031DB52A740870020318B82AB92A1B
:10357000BB2A0310BC2A03140800322BBC01003004
:10358000A23127229A3111302100BC00B030BD0099
:10359000A2314F229A312100BC01BC0A0030A23175
:1035A00027229A313B302100BC00B030BD00A2314F
:1035B0004F229A31492BBC010030A23127229A3187
:1035C0002D302100BC00B030BD00A2314F229A3115
:1035D0002100BC01BC0A0030A23127229A31AA3056
:1035E0002100BC00B030BD00A2314F229A31492BDE
:1035F000BC010030A23127229A311F302100BC00CB
:10360000B030BD00A2314F229A312100BC01BC0A6A
:103610000030A23127229A313B302100BC00B0306B
:10362000BD00A2314F229A31492BBC010030A2319A
:1036300027229A312D302100BC00B030BD00A231CC
:103640004F229A312100BC01BC0A0030A23127224E
:103650009A31AA302100BC00B030BD00A2314F2207
:103660009A31492B21005908C200C3014308003A8E
:1036700003193B2B492B4208003A0319BE2A013A91
:103680000319DB2A033A0319F82A013A0319152B07
:10369000492B0800F2007208031D4F2B502B9D2B65
:1036A00021005308803AF10080307102031D5A2B2B
:1036B00001305202031C5D2B5E2B652B210052084A
:1036C000FF3ED200FF30533DD30022006508803A10
:1036D000F10080307102031D6F2B01306402031C66
:1036E000722B732B7A2B22006408FF3EE400FF301C
:1036F000653DE50022006308803AF10080307102E8
:10370000031D842B01306202031C872B882B8F2B17
:1037100022006208FF3EE200FF30633DE30000301C
:10372000883100209B310130AE31F5269B310430C9
:10373000F10071082100D900E62B22006108803ACF
:10374000F10080307102031DA72B01306002031CC1
:10375000AA2BAB2BB22B22006008FF3EE000FF300B
:10376000613DE10022005F08803AF1008030710283
:10377000031DBC2B01305E02031CBF2BC02BC72BCB
:1037800022005E08FF3EDE00FF305F3DDF002200CA
:103790005D08803AF10080307102031DD12B0130A9
:1037A0005C02031CD42BD52BDC2B22005C08FF3ED3
:1037B000DC00FF305D3DDD000130883100209B31B1
:1037C0000030AE31F5269B312100D90108002000E0
:1037D000A00020080319ED2BEE2B022CF91FF12B72
:1037E000F22B022C7609A2007709A3007809A40025
:1037F0007909A500A20A0319A30A0319A40A031947
:10380000A50A0A2C7908A5007808A4007708A30067
:103810007608A2007908780477047604031D112C39
:10382000122C1B2C0030F9000030F8000030F7009B
:103830000030F600932C9630FA007A08A1002B2C69
:103840000130FA007A08A1070130A536A40CA30CB8
:10385000A20C890B252CFE302505031D302C312CA4
:10386000202C452C0130FA007A08A1070130A2076C
:103870000030A33D0030A43D0030A53D0130A53609
:10388000A40CA30CA20C890B3F2CFF302505031DB3
:103890004A2C4B2C322C552C0130A1020130A23580
:1038A000A30DA40DA50D890B4F2CA41B582C592C2E
:1038B0005F2C0230210203185E2C5F2C4C2C211847
:1038C000622C632C6B2CFF30A205FF30A3057F30E8
:1038D000A405FF30A5050310A10C2108FA00FB0187
:1038E000FC01FD011830FA35FB0DFC0DFD0D890BB7
:1038F000732C7A08A2047B08A3047C08A4047D0826
:10390000A50420080319852C862C8B2CF91F892CE3
:103910008A2C8B2CA5172508F9002408F800230809
:10392000F7002208F60008002000E3006208031DEB
:103930009A2C9B2CF42C0030A000A1009831BF20C1
:103940009C319331DA239C31003A0319A82CA92C1D
:10395000F22C200063080319AE2CAF2CD62C2100CA
:103960004C084D04031DB52CB62CBD2C5408FE3E4E
:10397000D400FF30553DD500C32C4C08FE3ECC0092
:10398000FF304D3DCD00CD1FC62CC72CCF2CCC0118
:10399000CD015408FF3ED400FF30553DD500D51F62
:1039A000D22CD32CEA2CD401D501EA2C21004C08CE
:1039B0004D04031DDC2CDD2CE42C5408FF3ED40008
:1039C000FF30553DD500EA2C4C08FF3ECC00FF30BF
:1039D0004D3DCD008E312C269C31953120259C31DA
:1039E0000130452D0030452D0130A0000030A100F0
:1039F0009831BF209C319331DA239C31003A03196E
:103A0000022D032DF22C200063080319082D092D27
:103A1000302D21004E084F04031D0F2D102D172DA2
:103A20005008FE3ED000FF30513DD1001D2D4E0804
:103A3000FE3ECE00FF304F3DCF00CF1F202D212D69
:103A4000292DCE01CF015008FF3ED000FF30513D5F
:103A5000D100D11F2C2D2D2DEA2CD001D101EA2C23
:103A600021004E084F04031D362D372D3E2D5008E2
:103A7000FF3ED000FF30513DD100EA2C4E08FF3E02
:103A8000CE00FF304F3DCF00EA2C080023005C0839
:103A90005D0403194C2D4D2D522D5D088A005C08E4
:103AA0000A009D3121005A080319572D582D192E4F
:103AB000EB2DAF31E4279D312000E201E20A003016
:103AC0009C3194249D312100B1003108B3003308AA
:103AD000031D6B2D6C2D772DAF3116279D310130D5
:103AE0009B314A239D318C3175249D31292E5008FC
:103AF0005104031D7C2D7D2D852D0130AC0000303F
:103B0000AD00993136219D31292E01309B314A2358
:103B10009D31732D220060086104031D902D912DAD
:103B2000BD2DAF31E4279D312000E201E20A0130D2
:103B30009C3194249D312100B1003108B300330839
:103B4000031DA32DA42DAC2DAF3116279D310130BF
:103B50009B314A239D31732D50085104031DB12D13
:103B6000B22DB32D7D2D04302200E0000030E100A5
:103B700001309B314A239D31732DA131B2219D31FA
:103B8000732D22005E085F04031DC72DC82DBD2DB7
:103B90000130A43162249D3103302200DE00003068
:103BA000DF0001309B314A239D31732D22005C08D8
:103BB0005D04031DDC2DDD2DBD2D0130A4319C24C1
:103BC0009D3103302200DC000030DD0001309B31EC
:103BD0004A239D31732D5908B100B2013208003AD1
:103BE0000319F32D292E3108043A0319592D013AEE
:103BF00003198A2D033A0319C12D013A0319D62D51
:103C0000292ED8010130883100209D310030AE319D
:103C1000F5269D31A231A0229D31292ED801D80A46
:103C20000130883100209D310030AE31F5269D31C4
:103C30000A2E5908B100B2013208003A0319212EA8
:103C4000292E3108023A0319012E013A03190E2ECA
:103C5000292E270093120800F20128308600003038
:103C60008700473FF000F01F362E372E582E2000D9
:103C7000A809A909AA09AB09AC09AD09AE09AF09A0
:103C8000A80A031D562EA90A031D562EAA0A031DB3
:103C9000562EAB0A031D562EAC0A031D562EAD0A36
:103CA000031D562EAE0A031D562EAF0AF201F20A6C
:103CB0002030860000308700473FF000F01F612E63
:103CC000622E812E2000A009A109A209A309A4093E
:103CD000A509A609A709A00A031D812EA10A031D93
:103CE000812EA20A031D812EA30A031D812EA40A80
:103CF000031D812EA50A031D812EA60A031D812EF8
:103D0000A70A2000200821042204230424042504F7
:103D10002604270403198D2E8E2EE12EF101F10ABF
:103D20009D2EA035A10DA20DA30DA40DA50DA60DD0
:103D3000A70D0130F0007008F107A71FA02EA12EDB
:103D4000912E27082F02031DBF2E26082E02031DC9
:103D5000BF2E25082D02031DBF2E24082C02031D93
:103D6000BF2E23082B02031DBF2E22082A02031D8B
:103D7000BF2E21082902031DBF2E20082802031C84
:103D8000C22EC32ED32E2008A8022108A93B220848
:103D9000AA3B2308AB3B2408AC3B2508AD3B2608D7
:103DA000AE3B2708AF3BA736A60CA50CA40CA30C72
:103DB000A20CA10CA00C0130F102031DE02EE12E9B
:103DC000A12E72080319E52EE62E042FA809A909D1
:103DD000AA09AB09AC09AD09AE09AF09A80A031DD0
:103DE000042FA90A031D042FAA0A031D042FAB0ADE
:103DF000031D042FAC0A031D042FAD0A031D042F5D
:103E0000AE0A031D042FAF0A20002808A0002908CD
:103E1000A1002A08A2002B08A3002C08A4002D084A
:103E2000A5002E08A6002F08A70008002200690898
:103E30006A0403191C2F1D2F222F6A088A006908A3
:103E40000A009F3121005A080319272F282FED2F30
:103E5000B62FAF31E4279F312000E20100309C31C2
:103E600094249F312100B1003108B3003308031DB1
:103E70003A2F3B2F462FAF3116279F3100309B3111
:103E80004A239F318C3175249F31FD2F54085504EE
:103E9000031D4B2F4C2F532F0030AC00AD00993138
:103EA00036219F31FD2F00309B314A239F31422F15
:103EB00052085304031D5D2F5E2F882FAF31E42776
:103EC0009F312000E20101309C3194249F31210078
:103ED000B1003108B3003308031D6F2F702F782F06
:103EE000AF3116279F3100309B314A239F31422F3B
:103EF00054085504031D7D2F7E2F7F2F4C2F043037
:103F0000D2000030D30000309B314A239F31422F32
:103F1000A131B2219F31422F220064086504031DA4
:103F2000922F932F882F0030A43162249F310330C9
:103F30002200E4000030E50000309B314A239F312D
:103F4000422F220062086304031DA72FA82F882F89
:103F50000030A4319C249F3103302200E200003065
:103F6000E30000309B314A239F31422F5908B100B2
:103F7000B2013208003A0319BE2FFD2F3108003A72
:103F80000319292F013A0319582F033A03198C2FCB
:103F9000013A0319A12FFD2F2200DB01023021007D
:103FA000B1003108D9000030883100209F31013044
:103FB000AE31F5269F31422F2200DB01DB0A0230B1
:103FC0002100B1003108D9000030883100209F3134
:103FD0000130AE31F5269F31422F5908B100B201B0
:103FE0003208003A0319F52FFD2F3108003A031962
:103FF000CC2F013A0319DC2FFD2F270013110800E5
:10400000210036082300DD00210035082300DC00F4
:10401000080021004908803ACA0080304A02031D86
:1040200013280130480203181628172824282100D5
:104030004809CA004909CB00CA0A0319CB0A4A0831
:10404000C8004B08C90024280800F600D030890BAE
:1040500027280000F001F00A7608A0319E20A03148
:104060007608F4000330F435FF3E031D3328743521
:10407000F5007508F600F001F00A7608A0319E20E0
:10408000A03108002100BC010030A2312722A0315C
:1040900000302100BC00B030BD00A2314F22A03161
:1040A0002100BC01BC0A0030A2312722A03100301F
:1040B0002100BC00B030BD00A2314F22A031080069
:1040C000F600D030890B62280000F0017608A0319C
:1040D0009E20A0317608F4000330F435FF3E031D26
:1040E0006D287435F5007508F6002930890B76289F
:1040F0000032F0017608A0319E20A0310800F401C2
:10410000F501701C8428852889287208F407730833
:10411000F53D0130F235F30D890B8A280130F13677
:10412000F00C890B8F2870087104031D98289928BA
:1041300081287508F1007408F0000800F300730886
:10414000F1000430F136890BA2287108F2007208E0
:10415000F30073080F39F1007108F30020000D0817
:10416000F0398D000D0873048D00700C031C8D1246
:1041700003188D160D130D160D1208002100BB003B
:10418000D030890BC12800002100B501B50A3B08D9
:10419000A1316721A03121003B08B9000330B935B6
:1041A000FF3E031DCF283935BA003A08BB00B501E0
:1041B000B50A3B08A1316721A03108002100BC01EC
:1041C00022006608A2312722A03105302100BC0060
:1041D000B030BD00A2314F22A0312100BC01BC0A89
:1041E00022006608A2312722A03105302100BC0040
:1041F000B030BD00A2314F22A0310800F800F40118
:10420000F5017008F200F3017208F6007308F70078
:10421000781C0B290C2910297608F4077708F53D3E
:104220000130F635F70D890B11290310F80C7808C9
:10423000031D1B291C2908297508F1007408F000CA
:1042400008002100BB00D030890B24290000210088
:10425000B5013B08A1316721A13121003B08B9001C
:104260000330B935FF3E031D31293935BA003A080C
:10427000BB002930890B3A2900322100B5013B08E7
:10428000A1316721A131080020008D0121008D019D
:1042900020008D1703302100BC006E30890B4E29A1
:1042A000BC0B4E293230A1312121A1312830A1315E
:1042B0002121A1310C30A1312121A1310130A131C5
:1042C0002121A1310630A1312121A1310800210095
:1042D000B8003808B6000430B636890B6C293608A9
:1042E000B7003708B80038080F39B6003608B800EC
:1042F00020000D08F0398D000D0821003804200041
:104300008D002100350C2000031C8D1203188D1622
:104310000D130D160D120800FC01A1297808FA00F2
:104320007708F9007C08790784007A0803187A0A6C
:1043300085000008A0312520A1310130F90079085D
:10434000FC077808FA007708F9007C0879078400F0
:104350007A0803187A0A85001200031DB029B129D2
:104360008E290800AF31E427A131F7012200660849
:10437000A131D821A131B330F700B030F800A1311C
:104380008C21A131F701F70A22006608A131D8215A
:10439000A131F330F700B030F800A1318C21A13108
:1043A0005230FD002A30890BD329FD0BD329080098
:1043B000FA00023077020318DE29DF29FE291030C7
:1043C0007A02031CE429E529E629FE29770303196B
:1043D000EA29EB29F12980307A04F8000030F9004D
:1043E000F629C0307A04F8000030F9007808A031CE
:1043F0006020A131D030890BFB2900000800AF31CB
:104400009527A131F7010030A131D821A131220037
:104410005B08A0312520A13121005803031D112A7A
:10442000122A1C2AF7010F30A131D821A131043002
:10443000A0312520A131262AF7010F30A131D82142
:10444000A13121005808A0312520A1310800210008
:10445000BF0002303C0203182E2A2F2A4E2A1030A9
:104460003F02031C342A352A362A4E2A3C030319FC
:104470003A2A3B2A412A80303F04BD000030BE006A
:10448000462AC0303F04BD000030BE003D08A131C7
:104490002121A231D030890B4B2A000008002100D5
:1044A000C101662A3D08BF003C08BE0041083E0726
:1044B00084003F0803183F0A85000008A031BE2091
:1044C000A23101302100BE003E08C1073D08BF00F7
:1044D0003C08BE0041083E0784003F0803183F0A1D
:1044E00085001200031D752A762A522A0800200032
:1044F000A000A201A3018F2A2108FB00FC017B0878
:10450000F0007C08F1007A08F3007908F200A73186
:104510003D27A23101302000A2070030A33D220830
:104520002007FB007B088600033087000108FC00A1
:104530007C08A1002108031D9E2A9F2A7C2A0800CE
:10454000AF314727A231A131FF21A2318E312C2674
:10455000A23195312025A231F70122006608A13150
:10456000D821A2316130F700B030F800A1318C21A0
:10457000A231A3302000EF005530890BBD2AEF0B8C
:10458000BD2A2100D901DA01DA0A8C317524A23161
:1045900008002100C200C301C401E12A4108BE0095
:1045A000BF013E08B5003F08B6003D08C000400806
:1045B000B700A631E526A23101302100C307003043
:1045C000C43D43084207BE003E0886000330870012
:1045D0000108BF003F08C1004108031DF02AF12A6D
:1045E000CE2A08007908FA000230FA35FF3E031D92
:1045F000F52A7A35403EA0316020A231FB01FC0152
:104600007B08770786007C08783D87000108A03189
:104610002520A2310130FB070030FC3D7C08803AA8
:10462000FA0080307A02031D172B08307B02031C2E
:104630001A2B1B2B002B08002100A4006C30A200B9
:104640000030A30024082000EE006E082100A50021
:10465000A601A701A801A901A5302000E1000030B2
:10466000E2006B08E4006A08E300A230E5000030D5
:10467000E600A4312F24A3312100260824072000BE
:10468000EE006E08860001308700810108002300DB
:10469000BB00B6302200CC004C082300BA003B0817
:1046A0002200CC004C082300BC00BD01BE01BF01AC
:1046B000C0013508AF003408AE00BA302200CC008B
:1046C0004C082300B000BC30A331FD23A3312300EC
:1046D0003D083B072200CC004C08860001308700D3
:1046E00081010800A031DE20A3312100BC0122009D
:1046F0006608A2312722A331ED302100BC00B03082
:10470000BD00A2314F22A3312100BC01BC0A22000E
:104710006608A2312722A331BC302100BC00B03092
:10472000BD00A2314F22A33152302100C2002930F6
:10473000890B982BC20B982B0032080021003E08F1
:10474000BF000230BF35FF3E031DA22B3F35403E68
:10475000A1312121A3312100C001C1012100400864
:104760003C07860041083D3D87000108A031BE207E
:10477000A33101302100C0070030C13D4108803A1B
:10478000BF0080303F02031DC72B08304002031CCE
:10479000CA2BCB2BAE2B08002700131CD02BD12B00
:1047A000D42BA431D624A3312700931CD82BD92B8A
:1047B000DC2BA5311925A3312700131DE02BE12B9C
:1047C000E42B9F311627A3312700931DE82BE92BFB
:1047D000EC2BA531F125A3312700131EF02BF12B73
:1047E000F42B98310020A3312700931EF82BF92BCE
:1047F000FC2B9D314625A33108002300B1002F0872
:10480000B3002E08B2002200D201D3011C2CB2301A
:104810002200CA004A08C800230030082200CB004A
:104820004B08C9002300310888311020A331220031
:104830004808D2074908D33D2300320884003308D2
:1048400085001200031D252C262C072C220053085E
:104850002300AF00220052082300AE000800200011
:104860006408E9006308E8002200D201D3014F2C5C
:104870006208D0006108CF006830D1000030D2005B
:104880006608D4006508D3009131C721A431200007
:104890004F082200D207200050082200D33D2000FC
:1048A00068088400690885001200031D582C592CE3
:1048B000382C220053082000E20022005208200079
:1048C000E10008002000E1006108031D682C692C4C
:1048D000812C21005108803A2000E00080306002E5
:1048E000031D752C0430210050020318782C792CFC
:1048F000982C21005008013ED0000030513DD100DD
:10490000982C21005508803A2000E0008030600299
:10491000031D8D2C0430210054020318902C912C7F
:10492000982C21005408013ED4000030553DD5009C
:104930008E312C26A43108002000D1005108031D1F
:10494000A22CA32CBB2C21004F08803A2000D000C1
:1049500080305002031DAF2C043021004E0203189A
:10496000B22CB32CD22C21004E08013ECE000030D8
:104970004F3DCF00D22C21004D08803A2000D000BE
:1049800080305002031DC72C043021004C02031854
:10499000CA2CCB2CD22C21004C08013ECC0000307C
:1049A0004D3DCD0095312025A431080022006D0831
:1049B0006E040319DC2CDD2CE22C6E088A006D08D5
:1049C0000A00A43121005A080319E72CE82C092D0C
:1049D000F62CD9018C317524A431162DD901D90AB0
:1049E000EA2C0230AC002C08D900EA2C5908AC00A3
:1049F000AD012D08003A0319FE2C162D2C08013AA2
:104A00000319E92C033A0319EE2C013A0319F12C8E
:104A1000162D5908AC00AD012D08003A0319112DCF
:104A2000162D2C08013A0319E92C162D2700131016
:104A3000080022006B086C0403191F2D202D252D62
:104A40006C088A006B080A00A53121005A08031976
:104A50002A2D2B2D4F2D3C2DD901D90A8C317524AF
:104A6000A5315C2D0230AC002C08D9002E2D03306E
:104A7000AC002C08D9002E2D5908AC00AD012D0832
:104A8000003A0319442D5C2D2C08003A03192C2DF3
:104A9000013A0319322D033A0319372D5C2D5908B9
:104AA000AC00AD012D08003A0319572D5C2D2C08E0
:104AB000003A03192C2D5C2D2700931008000034B8
:104AC0001F341F341F341F340E34043400340034B8
:104AD0001F34113411341F340E34043400340034C4
:104AE0001F341134113411340A34043400340034C6
:104AF0001F341F341F341F340E3404340034003488
:104B00001F34113411341F340E3404340034003493
:104B10001F341134113411340A3404340034003495
:104B200000340A341F341F340E340434003400348B
:104B30000A341D341D341D340E3404340034003462
:104B40000A341D34193419340A34043400343D3025
:104B5000F300CC30F200CC30F100CD30F000220078
:104B60005108F7005008F6004F08F5004E08F40011
:104B70008231E022A53173082200D1007208D000F2
:104B80007108CF007008CE005108F3005008F20001
:104B90004F08F1004E08F0004030F700A030F6005A
:104BA0000030F5000030F4009A313322A531031CA7
:104BB000DA2DDB2DE42D00302200D1000030D000B2
:104BC0000030CF000030CE0023005A085B040319E8
:104BD000EA2DEB2DF02D5B088A005A080A00A5315A
:104BE00008002200670868040319F72DF82DFD2D31
:104BF00068088A0067080A00A53121005A080319CD
:104C0000022E032E2E2E162E0430AC002C08D900B6
:104C10008C317524A5313B2E0530AC002C08D90011
:104C2000082E0630AC002C08D900082E5908AC001C
:104C3000AD012D08003A03191E2E3B2E2C08053A13
:104C40000319042E033A03190C2E013A0319112EED
:104C50003B2E0230AC002C08D900082E5908AC00BD
:104C6000AD012D08003A0319362E3B2E2C08033ACD
:104C70000319292E3B2E27009311080000340A3413
:104C80001534113411340A3404340034003400343F
:104C90000A341F341F340E340434003400340A3410
:104CA0001D341D341D340E340434003400340A34F1
:104CB0001D34193419340A340434003400340A34ED
:104CC0001534113411340A340434003400341F34E0
:104CD0001F341F341F340E34043400340E340234B5
:104CE00007341F34073402340E34003400340034E7
:104CF0000A341F341F340E340434003400340034BA
:104D00000E341F340E3400340034003400340A34BE
:104D100011341534153411340A3400342100561C72
:104D2000922E932E9C2E20002508FA002408F900CC
:104D30002608A2317722A6312000A81BA02EA12E82
:104D4000A62E2808AC002708AB00A82EAB01AC01AA
:104D5000A901AA01BC2E2030F0000030F100200093
:104D60002508F3002408F200A7313D27A6310130C1
:104D70002000A9070030AA3D2A08803AFD002C082F
:104D8000803A7D02031DC62E2B082902031CC92E62
:104D9000CA2EAB2E21005618CE2ECF2ED82E200094
:104DA0002508FA002408F9002608A2317722A63146
:104DB00020002608AF317B27A63120002B08700782
:104DC000A4002C08713DA500080021003708031934
:104DD000EA2EEB2EF02E3708031DEF2EF02EF52EC7
:104DE000350880310320A6313C2F3708033E86006A
:104DF00001308700160001040319FF2E002F1F2F1A
:104E00003708033E860001308700403FB800413F2D
:104E1000B900370A860001308700403FBA00413FA1
:104E2000BB003B08803ABC003908803A3C02031DB5
:104E30001B2F38083A0203181E2F1F2F3C2F21006A
:104E40003508B8003708860001308700370A84002B
:104E50000130850000080107B900390886000130DB
:104E6000870038088100370A86000130870001304A
:104E7000810741310318810A08007208730403197D
:104E8000422F432F492F72087304031D482F492FC7
:104E90004E2F7008AE317526A731972F7208860005
:104EA000730887004331160001040319582F592F46
:104EB000792F72088600730887004331403FF40061
:104EC000413FF50072088600730887004131403F7A
:104ED000F600413FF7007708803AF8007508803AFD
:104EE0007802031D752F740876020318782F792F26
:104EF000972F7008F4007208860073088700720804
:104F0000840073088500013100080107F500750869
:104F100086000130870074088100720886007308DB
:104F2000870041310130810741310318810A0800AF
:104F30002200A4002100561C9E2F9F2FA92F220083
:104F400024082100C8004808BD004508A231C92234
:104F5000A7312100C71BAD2FAE2FB62F4708220067
:104F6000A300210046082200A200B92F2200A201BE
:104F7000A301A001A101CF2F20302100B5000030F6
:104F8000B600220024082100C8004808B700A63156
:104F9000E526A73101302200A0070030A13D2108FD
:104FA000803A2100C80022002308803A21004802EC
:104FB000031DDD2F220022082002031CE02FE12F19
:104FC000BC2F21005618E52FE62FF02F22002408D1
:104FD0002100C8004808BD004508A231C922A731F8
:104FE00021004508AF31C927A7312200220821003E
:104FF0003507C500220023082100363DC600080001
:105CE800080008000800080008000800080016302E
:105CF800210097000800640080010131890B802E83
:105D08000034FE0012001E00FE0B862E00343A30CE
:105D18002100990098012200960108000E340834E9
:105D28001C341F341C3408340E3400342100360867
:105D38002200EE00210035082200ED0008002100B5
:105D480036082200EC00210035082200EB0008008C
:105D5800210036082200EA00210035082200E90067
:105D68000800210036082200E8002100350822003A
:105D7800E7000800210036082300DF00210035086D
:105D88002300DE00080003340034033400340434F4
:105D98000034013400340434003401340034013454
:105DA8000034013400340134003401340034033445
:105DB800200043084204410440040319E42EE52E60
:105DC800E72E8030C306080098314D20AE31AE3141
:105DD8008B26AE31AE317B26AE31AF312E27AE31B8
:105DE8000800F0007003031DFA2EFB2E002F270079
:105DF800921512169216042F2700121492141215D7
:105E080008002100B5003503031D0B2F0C2F112F9F
:105E18002700921112129212152F270012109210B9
:105E280012110800AF31E427AF31F70122006608EC
:105E3800A131D821AF31E530F700B030F800A131F9
:105E48008C21AF315230FD002A30890B292FFD0BF0
:105E5800292F080021001508C03917389500FE3091
:105E680020009500FE302100B70037082200EF001F
:105E78000B118B1602302100B5000030B6008731B7
:105E8800F727AF310800F7010030A131D821AF3131
:105E98000030F700B030F800A1318C21AF31F701A4
:105EA800F70A0030A131D821AF310030F700B03007
:105EB800F800A1318C21AF3108007408803AF50050
:105EC80080307502031D6A2F0130730203186D2F8D
:105ED8006E2F7A2F7309F5007409F600F50A031975
:105EE800F60A7508F3007608F4007A2F0800F40023
:105EF8007408F2007208F300852F0130F20072086E
:105F0800F40774088600033087000108031D8D2FED
:105F18008E2F812F73087402F000F101F01BF1033A
:105F28000800F7010030A131D821AF310030F70067
:105F3800B030F800A1318C21AF31F701F70A0030F9
:105F4800A131D821AF310030F700B030F800A131CD
:105F58008C21AF3108000B1122006F08200095003A
:105F680001302200D8070030D93D003059021930DD
:105F780003195802031CC12FC22FC82FA531A7250A
:105F8800AF312200D801D90108002100B900390831
:105F9800B7003708B800D42F0130B7003708B90761
:105FA80039088600033087000108031DDC2FDD2F28
:105FB800D02F38083902B500B601B51BB603080062
:105FC800F70122006608A131D821AF310530F7006A
:105FD800B030F800A1318C21AF31F701F70A220067
:105FE8006608A131D821AF310530F700B030F8008C
:105FF800A1318C21AF3108002034203420342034E2
:1060080020342034203420342034203420342034E8
:1060180020342034203420340034533465346C3434
:1060280065346334743420347334683469347034B8
:10603800233431340034533465346C346534633478
:10604800743420347334683469347034233432340B
:1060580000342034203454346934653420344634D0
:1060680069346734683474346534723400343E34C7
:106078002034543469346534203446346934673400
:1060880068347434653472340034203453347034D2
:1060980065346334693461346C34203425346434B1
:1060A80000343E34533470346534633469346134B5
:1060B8006C342034253464340034533474346134FB
:1060C8007234743420344634693467346834743430
:1060D80000343E3453346834693465346C34643481
:1060E8002034253464340034573469346E346E34C3
:1060F800653472343A342034313400342034503426
:106108006C34613479346534723420343134003479
:10611800573469346E346E34653472343A3420340A
:1061280032340034203450346C346134793465347A
:106138007234203432340034473461346D34653479
:1061480020344F3476346534723400343E3420348D
:1061580058342034773469346E3467340034633407
:106168006F346F346C3464346F3477346E34003485
:10617800463469346734683474346534723473343B
:106188000034203446346934783420342534643477
:1061980000343E3446346934783420342534643449
:1061A80000342034413474347434613463346B34CF
:1061B80000343E34413474347434613463346B34A1
:1061C80000342034203420344D346934733473342B
:1061D800003446346F3472346334653400347334B5
:0A61E8006B3469346C346C340034FD
:020000040001F9
:04000E00E43FFF1FAD
:00000001FF
