:020000040000FA
:0400000080311B2808
:100008007E1480318B1D09280A2819280B1C0D28FD
:100018000E2819280D30FD00FC30890B1128FD0B26
:1000280011288131A52180310B107E100900803103
:100038001D288930840084308500343086000030E3
:1000480087001230853147258031AC3084008430F8
:100058008500C03086000030870010308531472584
:100068008031D201D3017E1020008031AD282200DA
:100078008C018D018E01083021009000FF308C002A
:100088008D01FF308E00FC3023008E008D018C0125
:100098000830240090008D013F308C008E01210033
:1000A800951325008C018D018E01FF3026008C00F0
:1000B800FF308D00FF308E00FF3027008C00FF30AE
:1000C8008D00FF308E00083090001310931013112C
:1000D80093111312931212149214121592151216E8
:1000E80092161114911011119115111291127A3062
:1000F8002000A4000530A50085316B2580317930BA
:100108002000A4000530A5008531652580317830B0
:100118002000A4000530A50085315F2580317730A7
:100128002000A4000530A50085315925803176309E
:100138002000A4000530A500853153258031753095
:100148002000A4000530A50085314D2580318B1590
:10015800080085312D2580318231F92280313C30EB
:10016800860000308700A030840000308500083009
:100178002000B30016001A00B30BBE2834308600E6
:1001880000308700A8308400003085000830B300B4
:1001980016001A00B30BCC28C83086000030870040
:1001A800B0308400003085000830B30016001A0013
:1001B800B30BDA28C030860000308700B8308400DE
:1001C800003085000830B30016001A00B30BE82889
:1001D800AB01AB0AA0308131D62180312000AB01C0
:1001E800A8308131D621803102302000B300330895
:1001F800AB00B0308131D621803103302000B3000C
:100208003308AB00B8308131D621803183319F2348
:1002180080318B170E2980311B284C29AB01003007
:10022800823184228131F8302000AB008430AC0068
:1002380082315C2281312000AB01AB0A003082316F
:100248008422813114302000AB008530AC0082312B
:100258005C2281315D29AB010030823184228131F9
:1002680006302000AB008530AC0082315C22813141
:100278002000AB01AB0A0030823184228131373053
:100288002000AB008530AC0082315C2281315D29D1
:1002980020004508B100B2013208003A0319552977
:1002A8005D293108003A03191229013A03192F2947
:1002B8005D2908009329F70100308231AC22813191
:1002C800F830F7008430F8008231D3228131F70109
:1002D800F70A00308231AC2281311430F7008530C2
:1002E800F8008231D3228131A429F701003082310C
:1002F800AC2281310630F7008530F8008231D322F4
:100308008131F701F70A00308231AC228131373070
:10031800F7008530F8008231D3228131A4292000EA
:100328004508A000A1012108003A03199C29A42925
:100338002008003A03195F29013A03197929A429E9
:1003480008002700131CA929AA29AD2982313122C6
:1003580081312700931CB129B229B52982310522A0
:1003680081312700131DB929BA29BD298431E9240F
:1003780081312700931DC129C229C5298431DA2476
:1003880081312700131EC929CA29CD298431CB24DC
:1003980081312700931ED129D229D5298431BC2443
:1003A800813108002000AD002B08AC000230AC35CC
:1003B800FF3E031DDB292C35403E83311C23813150
:1003C8002000AE01AF0120002E082D07AC002C083C
:1003D80086008701010883313F23813101302000E5
:1003E800AE070030AF3D2F08803AAC0080302C02B9
:1003F800031D002A08302E02031C032A042AE729B9
:10040800080020004E084F0403190B2A0C2A112A51
:100418004F088A004E080A00823120005308031949
:10042800162A172A1E2A2E2AC501C50A843119241C
:1004380082312E2A4508A200A3012308003A031995
:10044800262A2E2A2208003A0319182A013A0319E3
:100458002E2A2E2A27009310080020005008510445
:100468000319372A382A3D2A51088A0050080A00F9
:100478008231200053080319422A432A492A592A5B
:10048800C501843119248231592A4508A200A301E3
:100498002308003A0319512A592A2208003A031955
:1004A800592A013A0319442A592A27001310080027
:1004B8002000B001732A2C08AE002B08AD003008CC
:1004C8002D0784002E0803182E0A850000088331A2
:1004D8003F23823101302000AD002D08B0072C08E1
:1004E800AE002B08AD0030082D0784002E08031835
:1004F8002E0A85001200031D822A832A5F2A08001B
:100508002000AE0002302B0203188B2A8C2AAB2A5B
:1005180010302E02031C912A922A932AAB2A2B030D
:100528000319972A982A9E2A80302E04AC0000309E
:10053800AD00A32AC0302E04AC000030AD002C085A
:1005480083311C238231D030890BA82A000008008F
:10055800FA00023077020318B22AB32AD22A1030DE
:100568007A02031CB82AB92ABA2AD22A77030319AD
:10057800BE2ABF2AC52A80307A04F8000030F90064
:10058800CA2AC0307A04F8000030F90078088331AC
:10059800BE238231D030890BCF2A00000800FC012D
:1005A800E82A7808FA007708F9007C0879078400B7
:1005B8007A0803187A0A85000008843136248231C3
:1005C8000130F9007908FC077808FA007708F90083
:1005D8007C08790784007A0803187A0A85001200D3
:1005E800031DF72AF82AD52A080020008D012100CA
:1005F8008D0120008D1703302000AB006E30890B71
:10060800032BAB0B032B323083311C238231283070
:1006180083311C2382310C3083311C238231013019
:1006280083311C238231063083311C238231080038
:100638002000AA00D030890B1F2B00002000A40145
:100648002A0883315F23833120002A08A800033059
:10065800A835FF3E031D2C2B2835A9002908AA0020
:100668002930890B352B00322000A4012A08833158
:100678005F23833108002000AA00D030890B422B69
:1006880000002000A401A40A2A0883315F238331D3
:1006980020002A08A8000330A835FF3E031D502B70
:1006A8002835A9002908AA00A401A40A2A08833128
:1006B8005F23833108002000A7002708A500043025
:1006C800A536890B642B2508A6002608A70027084D
:1006D8000F39A5002508A7000D08F0398D000D0871
:1006E80027048D00240C031C8D1203188D160D137E
:1006F8000D160D120800F3007308F1000430F136EE
:10070800890B832B7108F2007208F30073080F3904
:10071800F1007108F30020000D08F0398D000D0874
:1007280073048D00700C031C8D1203188D160D13A5
:100738000D160D120800200053080319A42BA52B31
:10074800B72B8331DD2383312000AB0100308231A8
:100758008422833122302000AB008530AC00823106
:100768005C228331BD2B8331FB23833181311121FD
:1007780083310800F600D030890BC02B0000F0014F
:10078800760883317F2383317608F4000330F4350B
:10079800FF3E031DCB2B7435F5007508F600293094
:1007A800890BD42B0032F001760883317F23833103
:1007B80008002000AB014408823184228331A13033
:1007C8002000AB008430AC0082315C2283312000F1
:1007D800AB01AB0A4408823184228331A130200066
:1007E800AB008430AC0082315C22833108002000E9
:1007F800AB0100308231842283319B302000AB0072
:100808008430AC0082315C2283312000AB01AB0A1A
:1008180000308231842283319B302000AB00843049
:10082800AC0082315C228331080020005308031990
:100838001E2C1F2C2F2C843153248431F7010030B7
:100848008231AC2284312230F7008530F8008231C1
:10085800D3228431352C84316F24843181315E2157
:1008680084310800F600D030890B382C0000F001E4
:10087800F00A760883317F2384317608F400033048
:10088800F435FF3E031D442C7435F5007508F60059
:10089800F001F00A760883317F2384310800F701DC
:1008A800200044088231AC228431A130F700843022
:1008B800F8008231D3228431F701F70A2000440876
:1008C8008231AC228431A130F7008430F8008231C3
:1008D800D32284310800F70100308231AC22843100
:1008E8009B30F7008430F8008231D3228431F7013D
:1008F800F70A00308231AC2284319B30F700843013
:10090800F8008231D3228431080000340A341134CB
:100918001534153411340A340034183410341F34A3
:100928001F341F3410341834003403340134203495
:10093800203420342034203420342034203420340F
:10094800203420342034203420342034203400341F
:10095800003400340A341F341F340E340434003495
:10096800003400340E341F340E34003400340034A4
:100978002000460847040319C22CC32CC82C47087A
:100988008A0046080A0084312700931208002000D4
:10099800480849040319D12CD22CD72C49088A00BD
:1009A80048080A00843127001312080020004A086A
:1009B8004B040319E02CE12CE62C4B088A004A086A
:1009C8000A00843127009311080020004C084D04C8
:1009D8000319EF2CF02CF52C4D088A004C080A005E
:1009E8008431270013110800533465346C3465349E
:1009F8006334743420347334683469347034233481
:100A0800313400342034203454346934653420348B
:100A18004634693467346834743465347234003465
:100A28003E342034543469346534203446346934CF
:100A380067346834743465347234003420342034B4
:100A480020344D3465346E347534203420342034E9
:100A5800003480313B208531853140258531853111
:100A68007125853108003E342034583420347734D9
:100A780069346E34673400343A30210099009801A3
:100A8800220096010800FE0012001E00FE0B482DF1
:100A9800003420002508C7002408C60008002000EC
:100AA8002508C9002408C800080020002508CB0034
:100AB8002408CA00080020002508CD002408CC001E
:100AC800080020002508CF002408CE0008002000D8
:100AD8002508D1002408D00008001630210097000E
:0E0AE8000800080008000800080008000800C8
:020000040001F9
:04000E00E43FFF1FAD
:00000001FF
