:020000040000FA
:10000000803102288731D72F08003830210099002D
:1000100098012200960108002000A201A3013528C2
:100020000A30F0000030F1007A08F3007908F2009D
:1000300080319720803171082000A1007008A00055
:1000400020082207A2002108233DA3000A30F00067
:100050000030F1007A08F3007908F2008131402184
:1000600080317108FA007008F9007A08803AFB00C4
:1000700080307B02031D3E2801307902031841289D
:100080004228102820002308FA002208F90008005E
:10009000720803194C284D2852287208031D512854
:1000A0005228572870088031042080319628720821
:1000B000033E8600870116000104031960286128A9
:1000C0007E287208033E86008701403FF300413FCF
:1000D000F400720A86008701403FF500413FF600B8
:1000E0007608803AF7007408803A7702031D7A2870
:1000F0007308750203187D287E2896287008F3007F
:10010000720886008701720A8400850100080107D1
:10011000F40074088600870173088100720A860063
:1001200087010130810741310318810A0800F60177
:10013000F31F9B289C28A328F209F309F20A03194C
:10014000F30AF601F60AF11FA628A728AC28F00941
:10015000F109F00A0319F10A700871040319B128B2
:10016000B228DB28F501F50ABE280130F035F10D83
:10017000890BB6280130F4007408F507F11FC12877
:10018000C228B52871087302031DC82870087202BE
:10019000031CCB28CC28D0287008F2027108F33B4E
:1001A0000130F136F00C890BD1280130F502031D26
:1001B000DA28DB28C22876080319DF28E028E5289A
:1001C000F209F309F20A0319F30A7308F10072083D
:1001D000F00008002000AB006E1CEF28F028F82883
:1001E0002B08FC007C08F80024088F317827803128
:1001F0002000A61BFC28FD2802292608AA002508A5
:10020000A9000429A901AA01A701A80118292030E1
:10021000F0000030F10020002B08FC007C08F20008
:1002200080314820803101302000A7070030A83DF0
:100230002808803AFC002A08803A7C02031D222903
:1002400029082702031C25292629072920006E18C2
:100250002A292B2933292B08FC007C08F8002408C4
:100260008F3178278031200024088E314F2680314D
:10027000200029087007A4002A08713DA500080085
:10028000F601F11F442945294C29F009F109F00A2A
:100290000319F10AF601F60AF31F4F2950295929CB
:1002A000F209F309F20A0319F30A0130F4007408A1
:1002B000F606F701F8017008710403196029612935
:1002C0009029F501F50A6D290130F035F10D890B02
:1002D00065290130F4007408F507F11F70297129B0
:1002E00064290130F735F80D890B72297108730202
:1002F000031D7C2970087202031C7F29802985292F
:100300007008F2027108F33B77140130F136F00CFB
:10031000890B86290130F502031D8F299029712947
:1003200076080319942995299A29F709F809F70AF3
:100330000319F80A7808F1007708F0000800200097
:10034000DD004E0886008701403FD000413FD100CC
:1003500050088400510885001200253A031DB12978
:10036000B229562A4E0886008701013081074131A3
:100370000318810A2100E301E4012000EE01EF01EE
:10038000FF30EC00FF30ED004E0886008701403F53
:10039000D000413FD1005008840051088500120070
:1003A000643A0319D429D529E6294E088600870125
:1003B000403FD000413FD1005008840051088500E3
:1003C0001200693A031DE529E629212A4E08860014
:1003D00087010130810741310318810A4F088600E7
:1003E000870101088400850102308107003FD000A9
:1003F000013FD1005008D5005108D600890D893B36
:100400008909D700D800D900DA00DB00DC005508E4
:10041000B0005608B1005708B2005808B300590898
:10042000B4005A08B5005B08B6005C08B7005D0868
:1004300084316524813120003108CF003008CE009E
:10044000792A4E0886008701403FD000413FD10005
:1004500050088400510885001200253A031D312AF6
:10046000322A4B2A4E08860087010130810741312C
:100470000318810A2530F0000030F1005D08D0003B
:100480005008F20080314820813101302000CE0038
:100490000030CF00792A4E0886008701013081079D
:1004A00041310318810ACE01CF01792A4E08860016
:1004B0008701403FD000413FD100500884005108DF
:1004C00085000008D200D3015208F0005308F10063
:1004D0005D08D4005408F2008031482081312000AA
:1004E0004E08860087010130810741310318810AD7
:1004F000452A0800F2012830860000308700473F77
:10050000F000F01F842A852AA62A2000A809A9093C
:10051000AA09AB09AC09AD09AE09AF09A80A031DC8
:10052000A42AA90A031DA42AAA0A031DA42AAB0A05
:10053000031DA42AAC0A031DA42AAD0A031DA42A84
:10054000AE0A031DA42AAF0AF201F20A2030860087
:1005500000308700473FF000F01FAF2AB02ACF2AB3
:100560002000A009A109A209A309A409A509A609B7
:10057000A709A00A031DCF2AA10A031DCF2AA20A98
:10058000031DCF2AA30A031DCF2AA40A031DCF2AC5
:10059000A50A031DCF2AA60A031DCF2AA70A2000F9
:1005A000200821042204230424042504260427040B
:1005B0000319DB2ADC2A2F2BF101F10AEB2AA035E3
:1005C000A10DA20DA30DA40DA50DA60DA70D013023
:1005D000F0007008F107A71FEE2AEF2ADF2A27088C
:1005E0002F02031D0D2B26082E02031D0D2B25089F
:1005F0002D02031D0D2B24082C02031D0D2B230897
:100600002B02031D0D2B22082A02031D0D2B21088E
:100610002902031D0D2B20082802031C102B112B6F
:10062000212B2008A8022108A93B2208AA3B230865
:10063000AB3B2408AC3B2508AD3B2608AE3B270866
:10064000AF3BA736A60CA50CA40CA30CA20CA10CC6
:10065000A00C0130F102031D2E2B2F2BEF2A720864
:100660000319332B342B522BA809A909AA09AB096A
:10067000AC09AD09AE09AF09A80A031D522BA90A9E
:10068000031D522BAA0A031D522BAB0A031D522B2A
:10069000AC0A031D522BAD0A031D522BAE0A031DDB
:1006A000522BAF0A20002808A0002908A1002A0820
:1006B000A2002B08A3002C08A4002D08A5002E08DA
:1006C000A6002F08A7000800F201203086000030A5
:1006D0008700473FF000F01F6E2B6F2B902B200000
:1006E000A009A109A209A309A409A509A609A709A6
:1006F000A00A031D8E2BA10A031D8E2BA20A031D27
:100700008E2BA30A031D8E2BA40A031D8E2BA50A74
:10071000031D8E2BA60A031D8E2BA70AF201F20AD7
:100720002830860000308700473FF000F01F992BEB
:100730009A2BBD2B2000A809A909AA09AB09AC096D
:10074000AD09AE09AF09A80A031DB92BA90A031DFB
:10075000B92BAA0A031DB92BAB0A031DB92BAC0A8E
:10076000031DB92BAD0A031DB92BAE0A031DB92B0E
:10077000AF0A0130F0007008F206733086000030D6
:1007800087000830F00000301E00F00BC42B200062
:100790002008210422042304240425042604270419
:1007A0000319D32BD42B302CF101F10AE32BA03504
:1007B000A10DA20DA30DA40DA50DA60DA70D013031
:1007C000F0007008F107A71FE62BE72BD72BF335B6
:1007D000F40DF50DF60DF70DF80DF90DFA0D2708CE
:1007E0002F02031D0D2C26082E02031D0D2C25089B
:1007F0002D02031D0D2C24082C02031D0D2C230893
:100800002B02031D0D2C22082A02031D0D2C21088A
:100810002902031D0D2C20082802031C102C112C6A
:10082000222C2008A8022108A93B2208AA3B230861
:10083000AB3B2408AC3B2508AD3B2608AE3B270864
:10084000AF3B7314A736A60CA50CA40CA30CA20CEA
:10085000A10CA00C0130F102031D2F2C302CE72B32
:1008600072080319342C352C532CF309F409F509BB
:10087000F609F709F809F909FA09F30A031D532CD7
:10088000F40A031D532CF50A031D532CF60A031D0D
:10089000532CF70A031D532CF80A031D532CF90A95
:1008A000031D532CFA0A73082000A0007408A1004D
:1008B0007508A2007608A3007708A4007808A500B0
:1008C0007908A6007A08A70008002000BD003008BB
:1008D000C4003108C5003208C6003308C700340818
:1008E000C8003508C9003608CA003708CB004430B4
:1008F000860000308700473FB800B81B802C822C50
:100900000130832C00302000B900BA013908C20040
:100910003A08C3004208430403198F2C902CAE2CD4
:10092000C409C509C609C709C809C909CA09CB0943
:10093000C40A031DAE2CC50A031DAE2CC60A031D36
:10094000AE2CC70A031DAE2CC80A031DAE2CC90A63
:10095000031DAE2CCA0A031DAE2CCB0A2000ED1BD2
:10096000B22CB32CB72CFD30EE05FF30EF056D082F
:10097000803AB80080303802031DC02C01306C0270
:100980000318C32CC42CCA2C01302000BE00003038
:10099000BF00CF2C20006D08BF006C08BE002100F6
:1009A00064082000C100210063082000C000420844
:1009B0004304031DDC2CDD2CE12C6E1DE02CE12C0E
:1009C000E52CFF30C007FF30C13D1F30CC000030A8
:1009D000CD002200BF01552DFF302000CC07FF3095
:1009E000CD3D0A30A000A101A201A301A401A501EF
:1009F000A601A7014408A8004508A9004608AA00C6
:100A00004708AB004808AC004908AD004A08AE00F2
:100A10004B08AF0082317A22843120002108F40093
:100A20002008F3008E31352684317308303E2000D3
:100A3000B8004C08203E860001308700380881004D
:100A4000FF30BE07FF30BF3DFF30C007FF30C13D64
:100A50000A30A000A101A201A301A401A501A601E1
:100A6000A7014408A8004508A9004608AA004708AD
:100A7000AB004808AC004908AD004A08AE004B087E
:100A8000AF0083316423843120002008C400210892
:100A9000C5002208C6002308C7002408C80025088E
:100AA000C9002608CA002708CB0020004D08803A5C
:100AB000B80080303802031D5F2D01304C02031C4A
:100AC000622D632D902D2000440845044604470400
:100AD000480449044A044B04031D6F2D702DEC2C6F
:100AE0003F08803AB80080303802031D792D01306C
:100AF0003E0203187C2D7D2DEC2C20004108803A0D
:100B0000B80080303802031D872D01304002031CDD
:100B10008A2D8B2D902D2000EE188F2D902DEC2CF2
:100B2000200042084304031D962D972D9B2D6E1D1A
:100B30009A2D9B2DB72DFF30CC07FF30CD3D4208BD
:100B40004304031DA42DA52DAA2D2B30BB0000307E
:100B5000BC00AE2D2D30BB000030BC003B08B800FF
:100B60004C08203E860001308700380881004C0880
:100B7000203EB8003808A4004108A6004008A5009F
:100B80003D088031EA20843120002508B100240886
:100B9000B00008008E31112685318E31E426853172
:100BA000E02DFF30CF000030D000F62DED30CF002B
:100BB0000130D000F62DA430CF000130D000F62D4A
:100BC0000030840090308500003F2100A900013FE3
:100BD000AA002A08003A0319EE2DDB2D2908013A54
:100BE0000319D12D033A0319D62DDB2DD301D401DE
:100BF00038302000E6009030E70021005008200047
:100C0000E90021004F082000E800B7308F310727A6
:100C10008531F70100308F31512785312830F700B9
:100C20009030F8008F312B278531F701F70A00301B
:100C30008F3151278531B730F7000030F8008F3100
:100C40002B27853102302100D7000030D800782EC4
:100C500001302100C9000030CA000230D10000304C
:100C6000D2004D2E21005208F1005108F000580822
:100C7000F3005708F2008031972085317008710425
:100C8000031D432E442E482E2100C901CA01672EA0
:100C900001302100D1070030D23D0230F000003099
:100CA000F1005808F3005708F200813140218531E6
:100CB0007108803A2100A9005208803A2902031DD8
:100CC000632E510870020318662E672E322E210003
:100CD00049034A04031D6D2E6E2E742E57085307C8
:100CE000D3005808543DD4000130D7070030D83D18
:100CF0005008803AA9005808803A2902031D822E24
:100D000057084F020318852E862E282E8E311B265B
:100D10008531F70100308F31512785311E30F700C2
:100D20009030F8008F312B27853138302000E600D5
:100D30009030E700210054082000E900210053080A
:100D40002000E800B7308F3107278531F701F70A17
:100D500000308F3151278531B730F7000030F8006F
:100D60008F312B27853104302100AA002C30A900B7
:100D7000AB30890BB92EA90BB92EAA0BB92E0032B4
:100D80008E311B268531F70100308F315127853197
:100D90001330F7009030F8008F312B278531210078
:100DA0005408D8005308D70021005808FA00570803
:100DB000F90080310C2085317A082100D6007908AD
:100DC000D5005608D8005508D7005608803AA90023
:100DD00080302902031DEE2E0B3055020318F12E30
:100DE000F22ED42E38302000E6009030E7002100AB
:100DF00056082000E900210055082000E800B7301F
:100E00008F3107278531F701F70A00308F315127DD
:100E10008531B730F7000030F8008F312B2785314E
:100E200004302100AA002C30A900AB30890B162F0A
:100E3000A90B162FAA0B162F00328E311B268531D7
:100E4000F70100308F31512785313030F700903075
:100E5000F8008F312B278531C130860000308700A4
:100E600008302100A90000301E00A90B342FD10149
:100E7000D2015608D8005508D700612F0130210053
:100E80005705A90000305805AA005135C13E86001B
:100E900087012908C03F2A08C13F0230F000003016
:100EA000F1005808F3005708F200813140218531E4
:100EB00071082100D8007008D7000130D107003038
:100EC000D23D5808803AA90080302902031D6A2FBC
:100ED0000130570203186D2F6E2F3E2F2100480856
:100EE000F1004708F000E830F2000330F3008E31E3
:100EF000A526853170082100A9007108AA004608BE
:100F0000F1004508F0006430F2000030F3008E314B
:100F1000A5268531700821002907AB0071082A3DFC
:100F2000AC004408F1004308F0000A30F200003041
:100F3000F3008E31A5268531700821002B07AD0006
:100F400071082C3DAE0041082D07CB0042082E3D14
:100F5000CC00CD01CC1BCD034D08CE003830200095
:100F6000E6009030E70021004E082000EB00210051
:100F70004D082000EA0021004C082000E900210073
:100F80004B082000E800B7308F3107278531F70183
:100F9000F70A00308F3151278531B730F700003024
:100FA000F8008F312B278531D42F803102280B3068
:100FB00084008E30850021001200E5001200E6005A
:100FC0001200E7001200E8001200E9001200EA0037
:100FD0002000EC01ED01EE01EF01D930840000307A
:100FE00085000C308E310526873120308400013099
:100FF000850020308E310526873120008531CA2DAD
:101C02001630210097000800640080010131890B21
:101C1200062E0034A4340134ED340134FF34003490
:101C22008F31A1278E31803105208E318E310126F0
:101C32008E310800F70100308F3151278E3102308A
:101C4200F7009030F8008F312B278E31F701F70A19
:101C520000308F3151278E310230F7009030F8007A
:101C62008F312B278E3108007408803AF5008030BE
:101C72007502031D3E2E013073020318412E422EBF
:101C82004E2E7309F5007409F600F50A0319F60AD7
:101C92007508F3007608F4004E2E0800F40074086C
:101CA200F2007208F300592E0130F2007208F407B4
:101CB20074088600013087000108031D612E622E20
:101CC200552E73087402F000F101F01BF1030800B5
:101CD200F600D030890B6B2E0000F001F00A760876
:101CE2008E31C4268E317608F4000330F435FF3E7F
:101CF200031D772E7435F5007508F600F001F00A21
:101D020076088E31C4268E310800F600D030890B59
:101D1200882E0000F00176088E31C4268E317608B6
:101D2200F4000330F435FF3E031D932E7435F500A5
:101D32007508F6002930890B9C2E0032F0017608D6
:101D42008E31C4268E310800F401F501701CAA2ED2
:101D5200AB2EAF2E7208F4077308F53D0130F23551
:101D6200F30D890BB02E0130F136F00C890BB52E34
:101D720070087104031DBE2EBF2EA72E7508F10038
:101D82007408F0000800F3007308F1000430F13623
:101D9200890BC82E7108F2007208F30073080F391C
:101DA200F1007108F30020000D08F0398D000D08D4
:101DB20073048D00700C031C8D1203188D160D1305
:101DC2000D160D12080020008D0121008D0120004A
:101DD2008D170330F7006E30890BED2EF70BED2EC9
:101DE200000032308E3186268E3128308E318626A2
:101DF2008E310C308E3186268E3101308E31862620
:101E02008E3106308E3186268E3108002100A300E5
:101E12006830FD007D08A2002308FD007D08A400B3
:101E2200A501A601A701A80120006708DF00660836
:101E3200DE00A230FD007D08E000A4308F31CF2704
:101E42008F31210025082307FD007D0886008701C8
:101E520081010800FC01402F7808FA007708F90098
:101E62007C08790784007A0803187A0A850000083A
:101E72008E3169268F310130F9007908FC07780824
:101E8200FA007708F9007C08790784007A080318B9
:101E92007A0A85001200031D4F2F502F2D2F0800A4
:101EA200FA00023077020318572F582F772F10307D
:101EB2007A02031C5D2F5E2F5F2F772F77030319A2
:101EC200632F642F6A2F80307A04F8000030F90003
:101ED2006F2FC0307A04F8000030F90078088E3194
:101EE20086268F31D030890B742F00000800200025
:101EF200A300A101A201902F2008F900FA0179089C
:101F0200F0007A08F1007808FB007B08F2008031CB
:101F120048208F3101302000A1070030A23D210866
:101F22002307F90079088600013087000108FA00CA
:101F32007A08A0002008031D9F2FA02F7D2F0800E4
:101F420022008C018D018E01083021009000FF30AB
:101F52008C008D01FF308E00FC3023008E008D013D
:101F62003F308C00240090018D018C018E012100F4
:101F7200951725008C018D018E01FF3026008C0003
:101F8200FF308D00FF308E00FF3027008C00FF30C5
:101F92008D00FF308E000830900008002000E30022
:101FA2005F08E5005E08E4002100E101E201ED2F97
:101FB2006430E1006108CE006008E2006208CF00F0
:101FC200630881319F218F3120004E082100E107F3
:101FD20020004F082100E23D2000640884006508CB
:101FE20085001200031DF62FF72FD92F210062085A
:101FF2002000DF00210061082000DE00080001341B
:10200200003420342034203420342034203420344E
:10201200203420342034203420342034203420341E
:1020220020340034733475346D3444346934673485
:102032006934743473343D340034533475346D343C
:102042005034723469346D3465343D340034433471
:10205200613472346E34653474343A340034423448
:1020620069346E346134723479343D340034253449
:04207200643400349E
:020000040001F9
:04000E00E43FFF3E8E
:00000001FF
