:020000040000FA
:10000000803102288731D72FFC0119287808FA009F
:100010007708F9007C08790784007A0803187A0ABF
:10002000850000088E318F2680310130F900790873
:10003000FC077808FA007708F9007C087907840043
:100040007A0803187A0A85001200031D2828292837
:10005000062808002000A201A30153280A30F0005E
:100060000030F1007A08F3007908F2008031B52001
:10007000803171082000A1007008A000200822072C
:10008000A2002108233DA3000A30F0000030F10057
:100090007A08F3007908F20081315E21803171081D
:1000A000FA007008F9007A08803AFB0080307B0281
:1000B000031D5C280130790203185F2860282E2870
:1000C00020002308FA002208F9000800720803192A
:1000D0006A286B2870287208031D6F2870287528FD
:1000E00070088E311F268031B4287208033E8600C6
:1000F00087011600010403197E287F289C287208B6
:10010000033E86008701403FF300413FF400720A3E
:1001100086008701403FF500413FF6007608803AAF
:10012000F7007408803A7702031D98287308750257
:1001300003189B289C28B4287008F30072088600D6
:100140008701720A8400850100080107F400740821
:100150008600870173088100720A860087010130DA
:10016000810741310318810A0800F601F31FB928FD
:10017000BA28C128F209F309F20A0319F30AF601B1
:10018000F60AF11FC428C528CA28F009F109F00AA7
:100190000319F10A700871040319CF28D028F9282F
:1001A000F501F50ADC280130F035F10D890BD42872
:1001B0000130F4007408F507F11FDF28E028D32888
:1001C00071087302031DE62870087202031CE928F7
:1001D000EA28EE287008F2027108F33B0130F1368C
:1001E000F00C890BEF280130F502031DF828F928DF
:1001F000E02876080319FD28FE280329F209F309EF
:10020000F20A0319F30A7308F1007208F0000800FB
:100210002000AB006E1C0D290E2916292B08FC00AE
:100220007C08F80024088F31782781312000A61B34
:100230001A291B2920292608AA002508A9002229F5
:10024000A901AA01A701A80136292030F000003039
:10025000F10020002B08FC007C08F20080316620B1
:10026000813101302000A7070030A83D2808803ADE
:10027000FC002A08803A7C02031D40292908270235
:10028000031C43294429252920006E18482949299F
:1002900051292B08FC007C08F80024088F317827AE
:1002A0008131200024088E317526813120002908F3
:1002B0007007A4002A08713DA5000800F601F11F8F
:1002C000622963296A29F009F109F00A0319F10A80
:1002D000F601F60AF31F6D296E297729F209F30951
:1002E000F20A0319F30A0130F4007408F606F70164
:1002F000F8017008710403197E297F29AE29F501E0
:10030000F50A8B290130F035F10D890B8329013075
:10031000F4007408F507F11F8E298F298229013016
:10032000F735F80D890B902971087302031D9A297E
:1003300070087202031C9D299E29A3297008F202ED
:100340007108F33B77140130F136F00C890BA429C6
:100350000130F502031DAD29AE298F297608031956
:10036000B229B329B829F709F809F70A0319F80AD5
:100370007808F1007708F00008002000DD004E0842
:1003800086008701403FD000413FD10050088400E3
:10039000510885001200253A031DCF29D029742A5F
:1003A0004E08860087010130810741310318810A18
:1003B0002100E301E4012000EE01EF01FF30EC0039
:1003C000FF30ED004E0886008701403FD000413FDE
:1003D000D10050088400510885001200643A0319C6
:1003E000F229F329042A4E0886008701403FD000F5
:1003F000413FD10050088400510885001200693A3D
:10040000031D032A042A3F2A4E0886008701013073
:10041000810741310318810A4F08860087010108CE
:100420008400850102308107003FD000013FD100E8
:100430005008D5005108D600890D893B8909D7009D
:10044000D800D900DA00DB00DC005508B0005608FF
:10045000B1005708B2005808B3005908B4005A0850
:10046000B5005B08B6005C08B7005D0884318324E2
:10047000813120003108CF003008CE00972A4E0885
:1004800086008701403FD000413FD10050088400E2
:10049000510885001200253A031D4F2A502A692A67
:1004A0004E08860087010130810741310318810A17
:1004B0002530F0000030F1005D08D0005008F20057
:1004C00080316620813101302000CE000030CF0025
:1004D000972A4E08860087010130810741310318B1
:1004E000810ACE01CF01972A4E0886008701403F3E
:1004F000D000413FD1005008840051088500000819
:10050000D200D3015208F0005308F1005D08D40076
:100510005408F20080316620813120004E088600A8
:1005200087010130810741310318810A632A0800DD
:10053000F2012830860000308700473FF000F01FAE
:10054000A22AA32AC42A2000A809A909AA09AB093A
:10055000AC09AD09AE09AF09A80A031DC22AA90A50
:10056000031DC22AAA0A031DC22AAB0A031DC22AFE
:10057000AC0A031DC22AAD0A031DC22AAE0A031D1E
:10058000C22AAF0AF201F20A20308600003087004A
:10059000473FF000F01FCD2ACE2AED2A2000A00907
:1005A000A109A209A309A409A509A609A709A00AE6
:1005B000031DED2AA10A031DED2AA20A031DED2A3F
:1005C000A30A031DED2AA40A031DED2AA50A031D93
:1005D000ED2AA60A031DED2AA70A200020082104FF
:1005E0002204230424042504260427040319F92AD9
:1005F000FA2A4D2BF101F10A092BA035A10DA20D0C
:10060000A30DA40DA50DA60DA70D0130F0007008D7
:10061000F107A71F0C2B0D2BFD2A27082F02031D06
:100620002B2B26082E02031D2B2B25082D02031D24
:100630002B2B24082C02031D2B2B23082B02031D1C
:100640002B2B22082A02031D2B2B21082902031D14
:100650002B2B20082802031C2E2B2F2B3F2B20088E
:10066000A8022108A93B2208AA3B2308AB3B240887
:10067000AC3B2508AD3B2608AE3B2708AF3BA73671
:10068000A60CA50CA40CA30CA20CA10CA00C013070
:10069000F102031D4C2B4D2B0D2B72080319512B0E
:1006A000522B702BA809A909AA09AB09AC09AD09FD
:1006B000AE09AF09A80A031D702BA90A031D702BF0
:1006C000AA0A031D702BAB0A031D702BAC0A031D75
:1006D000702BAD0A031D702BAE0A031D702BAF0AE1
:1006E00020002808A0002908A1002A08A2002B0841
:1006F000A3002C08A4002D08A5002E08A6002F0892
:10070000A7000800F2012030860000308700473F34
:10071000F000F01F8C2B8D2BAE2B2000A009A1091F
:10072000A209A309A409A509A609A709A00A031DEE
:10073000AC2BA10A031DAC2BA20A031DAC2BA30AF0
:10074000031DAC2BA40A031DAC2BA50A031DAC2B67
:10075000A60A031DAC2BA70AF201F20A2830860074
:1007600000308700473FF000F01FB72BB82BDB2B82
:100770002000A809A909AA09AB09AC09AD09AE096D
:10078000AF09A80A031DD72BA90A031DD72BAA0A54
:10079000031DD72BAB0A031DD72BAC0A031DD72B88
:1007A000AD0A031DD72BAE0A031DD72BAF0A0130AC
:1007B000F0007008F20673308600003087000830C1
:1007C000F00000301E00F00BE22B20002008210476
:1007D0002204230424042504260427040319F12BEE
:1007E000F22B4E2CF101F10A012CA035A10DA20D26
:1007F000A30DA40DA50DA60DA70D0130F0007008E6
:10080000F107A71F042C052CF52BF335F40DF50D7E
:10081000F60DF70DF80DF90DFA0D27082F02031D3F
:100820002B2C26082E02031D2B2C25082D02031D20
:100830002B2C24082C02031D2B2C23082B02031D18
:100840002B2C22082A02031D2B2C21082902031D10
:100850002B2C20082802031C2E2C2F2C402C200887
:10086000A8022108A93B2208AA3B2308AB3B240885
:10087000AC3B2508AD3B2608AE3B2708AF3B7314C5
:10088000A736A60CA50CA40CA30CA20CA10CA00CC2
:100890000130F102031D4D2C4E2C052C720803195A
:1008A000522C532C712CF309F409F509F609F709B8
:1008B000F809F909FA09F30A031D712CF40A031D5A
:1008C000712CF50A031D712CF60A031D712CF70A11
:1008D000031D712CF80A031D712CF90A031D712CDC
:1008E000FA0A73082000A0007408A1007508A2008D
:1008F0007608A3007708A4007808A5007908A60068
:100900007A08A70008002000BD003008C4003108A4
:10091000C5003208C6003308C7003408C8003508CF
:10092000C9003608CA003708CB00443086000030C2
:100930008700473FB800B81B9E2CA02C0130A12C8B
:1009400000302000B900BA013908C2003A08C300DB
:10095000420843040319AD2CAE2CCC2CC409C509A4
:10096000C609C709C809C909CA09CB09C40A031DB0
:10097000CC2CC50A031DCC2CC60A031DCC2CC70ADF
:10098000031DCC2CC80A031DCC2CC90A031DCC2C7A
:10099000CA0A031DCC2CCB0A2000ED1BD02CD12C75
:1009A000D52CFD30EE05FF30EF056D08803AB8001C
:1009B00080303802031DDE2C01306C020318E12C5C
:1009C000E22CE82C01302000BE000030BF00ED2CEE
:1009D00020006D08BF006C08BE00210064082000E4
:1009E000C100210063082000C00042084304031D29
:1009F000FA2CFB2CFF2C6E1DFE2CFF2C032DFF3040
:100A0000C007FF30C13D1F30CC000030CD002200B8
:100A1000BF01732DFF302000CC07FF30CD3D0A30E1
:100A2000A000A101A201A301A401A501A601A701A3
:100A30004408A8004508A9004608AA004708AB00DA
:100A40004808AC004908AD004A08AE004B08AF00AA
:100A500082319822843120002108F4002008F3001C
:100A60008E315B2684317308303E2000B8004C087C
:100A7000203E86000130870038088100FF30BE0725
:100A8000FF30BF3DFF30C007FF30C13D0A30A0003E
:100A9000A101A201A301A401A501A601A701440887
:100AA000A8004508A9004608AA004708AB00480866
:100AB000AC004908AD004A08AE004B08AF008331D6
:100AC0008223843120002008C4002108C5002208A8
:100AD000C6002308C7002408C8002508C900260846
:100AE000CA002708CB0020004D08803AB8008030AB
:100AF0003802031D7D2D01304C02031C802D812DF9
:100B0000AE2D200044084504460447044804490427
:100B10004A044B04031D8D2D8E2D0A2D3F08803A6B
:100B2000B80080303802031D972D01303E020318B3
:100B30009A2D9B2D0A2D20004108803AB800803064
:100B40003802031DA52D01304002031CA82DA92D3C
:100B5000AE2D2000EE18AD2DAE2D0A2D200042083E
:100B60004304031DB42DB52DB92D6E1DB82DB92D1F
:100B7000D52DFF30CC07FF30CD3D42084304031D87
:100B8000C22DC32DC82D2B30BB000030BC00CC2D96
:100B90002D30BB000030BC003B08B8004C08203EA4
:100BA000860001308700380881004C08203EB800DC
:100BB0003808A4004108A6004008A5003D0881317E
:100BC0000821843120002508B1002408B000080065
:100BD0008E31372685318F310A278531FE2DFF3042
:100BE000CB000030CC00142EED30CB000130CC0017
:100BF000142EA430CB000130CC00142E0030840021
:100C000090308500003F2100A900013FAA002A087A
:100C1000003A03190C2EF92D2908013A0319EF2D7A
:100C2000033A0319F42DF92DD301D401F701003053
:100C30008F31512785311330F7009030F800803123
:100C40000420853102302100D7000030D800782EF2
:100C500001302100C9000030CA000230D10000304C
:100C6000D2004D2E21005208F1005108F000580822
:100C7000F3005708F2008031B52085317008710407
:100C8000031D432E442E482E2100C901CA01672EA0
:100C900001302100D1070030D23D0230F000003099
:100CA000F1005808F3005708F20081315E218531C8
:100CB0007108803A2100A9005208803A2902031DD8
:100CC000632E510870020318662E672E322E210003
:100CD00049034A04031D6D2E6E2E742E57085307C8
:100CE000D3005808543DD4000130D7070030D83D18
:100CF0004C08803AA9005808803A2902031D822E28
:100D000057084B020318852E862E282E8E31412639
:100D10008531F70100308F31512785312C30F700B4
:100D20009030F8008031042085313E302000E6000C
:100D30009030E700210054082000E900210053080A
:100D40002000E800B7308F312D278531F701F70AF1
:100D500000308F3151278531B730F7000030F8006F
:100D600080310420853104302100AA002C30A900F4
:100D7000AB30890BB92EA90BB92EAA0BB92E0032B4
:100D80008E3141268531F70100308F315127853171
:100D90002130F7009030F8008031042085312100A7
:100DA0005408D8005308D70021005808FA00570803
:100DB000F90080312A2085317A082100D60079088F
:100DC000D5005608D8005508D7005608803AA90023
:100DD00080302902031DEE2E0B3055020318F12E30
:100DE000F22ED42E3E302000E6009030E7002100A5
:100DF00056082000E900210055082000E800B7301F
:100E00008F312D278531F701F70A00308F315127B7
:100E10008531B730F7000030F8008031042085318B
:100E200004302100AA002C30A900AB30890B162F0A
:100E3000A90B162FAA0B162F00328E3141268531B1
:100E4000F70100308F31512785313630F70090306F
:100E5000F800803104208531C130860000308700E1
:100E600008302100A90000301E00A90B342FD10149
:100E7000D2015608D8005508D700612F0130210053
:100E80005705A90000305805AA005135C13E86001B
:100E900087012908C03F2A08C13F0230F000003016
:100EA000F1005808F3005708F20081315E218531C6
:100EB00071082100D8007008D7000130D107003038
:100EC000D23D5808803AA90080302902031D6A2FBC
:100ED0000130570203186D2F6E2F3E2F2100480856
:100EE000F1004708F000E830F2000330F3008E31E3
:100EF000CB26853170082100A9007108AA00460898
:100F0000F1004508F0006430F2000030F3008E314B
:100F1000CB268531700821002907AB0071082A3DD6
:100F2000AC004408F1004308F0000A30F200003041
:100F3000F3008E31CB268531700821002B07AD00E0
:100F400071082C3DAE0041082D07CD0042082E3D12
:100F5000CE00CF01CE1BCF034F08D0003E30200083
:100F6000E6009030E700210050082000EB0021004F
:100F70004F082000EA0021004E082000E90021006F
:100F80004D082000E800B7308F312D278531F7015B
:100F9000F70A00308F3151278531B730F700003024
:100FA000F800803104208531D42F803102282A3086
:100FB00084008E30850021001200E5001200E6005A
:100FC0001200E7001200E8001200E9001200EA0037
:100FD0002000EC01ED01EE01EF01D930840000307A
:100FE00085000C308E31242687312030840001307A
:100FF000850020308E312426873120008531E82D70
:101C3E000800163021009700080064008001013171
:101C4E00890B252E0034A4340134ED340134FF34D5
:101C5E0000343830210099009801220096010800C6
:101C6E008F31A1278E318E3130268E318E31202646
:101C7E008E310800F70100308F3151278E3102303E
:101C8E00F7009030F800803104208E31F701F70A0A
:101C9E0000308F3151278E310230F7009030F8002E
:101CAE00803104208E3108007408803AF5008030AF
:101CBE007502031D642E013073020318672E682E01
:101CCE00742E7309F5007409F600F50A0319F60A65
:101CDE007508F3007608F400742E0800F4007408FA
:101CEE00F2007208F3007F2E0130F2007208F40742
:101CFE0074088600013087000108031D872E882E88
:101D0E007B2E73087402F000F101F01BF103080042
:101D1E00F600D030890B912E0000F001F00A760803
:101D2E008E31EA268E317608F4000330F435FF3E0C
:101D3E00031D9D2E7435F5007508F600F001F00AAE
:101D4E0076088E31EA268E310800F600D030890BE7
:101D5E00AE2E0000F00176088E31EA268E3176081E
:101D6E00F4000330F435FF3E031DB92E7435F50033
:101D7E007508F6002930890BC22E0032F001760864
:101D8E008E31EA268E310800F401F501701CD02E3A
:101D9E00D12ED52E7208F4077308F53D0130F235B9
:101DAE00F30D890BD62E0130F136F00C890BDB2E9C
:101DBE0070087104031DE42EE52ECD2E7508F1007A
:101DCE007408F0000800F3007308F1000430F136D7
:101DDE00890BEE2E7108F2007208F30073080F39AA
:101DEE00F1007108F30020000D08F0398D000D0888
:101DFE0073048D00700C031C8D1203188D160D13B9
:101E0E000D160D12080020008D0121008D012000FD
:101E1E008D170330F7006E30890B132FF70B132F2E
:101E2E00000032308E31AC268F3128308E31AC2608
:101E3E008F310C308E31AC268F3101308E31AC2685
:101E4E008F3106308E31AC268F3108002100A30071
:101E5E006830FD007D08A2002308FD007D08A40067
:101E6E00A501A601A701A80120006708DF006608EA
:101E7E00DE00A230FD007D08E000A4308F31CF27B8
:101E8E008F31210025082307FD007D08860087017C
:101E9E0081010800FA00023077020318572F582FDD
:101EAE00772F10307A02031C5D2F5E2F5F2F772F56
:101EBE0077030319632F642F6A2F80307A04F8009A
:101ECE000030F9006F2FC0307A04F8000030F900AE
:101EDE0078088E31AC268F31D030890B742F0000EC
:101EEE0008002000A300A101A201902F2008F900F4
:101EFE00FA017908F0007A08F1007808FB007B08F7
:101F0E00F200803166208F3101302000A1070030B1
:101F1E00A23D21082307F9007908860001308700C9
:101F2E000108FA007A08A0002008031D9F2FA02F99
:101F3E007D2F080022008C018D018E0108302100BA
:101F4E009000FF308C008D01FF308E00FC3023009E
:101F5E008E008D013F308C00240090018D018C018C
:101F6E008E012100951725008C018D018E01FF3009
:101F7E0026008C00FF308D00FF308E00FF302700D2
:101F8E008C00FF308D00FF308E000830900008006E
:101F9E002000E3005F08E5005E08E4002100E10197
:101FAE00E201ED2F6430E1006108CE006008E2002E
:101FBE006208CF0063088131BD218F3120004E08A9
:101FCE002100E10720004F082100E23D20006408B7
:101FDE008400650885001200031DF62FF72FD92FF8
:101FEE00210062082000DF00210061082000DE00D1
:101FFE0008000134003420342034203420342034BE
:10200E002034203420342034203420342034203422
:10201E002034203420340034433461346C3463343F
:10202E0075346C3461346E3464346F342E342E3423
:10203E002E340034733475346D344434693467345B
:10204E006934743473343D340034533475346D3420
:10205E005034723469346D3465343D340034423456
:10206E0069346E346134723479343D34003425343D
:04207E006434003492
:020000040001F9
:04000E00E43FFF3E8E
:00000001FF
