:020000040000FA
:10000000803102288731D72F163021009700080051
:100010002000A300A101A20120282008F900FA0174
:100020007908F0007A08F1007808FB007B08F200FC
:1000300080316D20803101302000A1070030A23DC9
:1000400021082307F900790886000130870001089C
:10005000FA007A08A0002008031D2F2830280D2858
:1000600008002000A201A3015A280A30F000003045
:10007000F1007A08F3007908F2008031BC20803169
:1000800071082000A1007008A00020082207A2002B
:100090002108233DA3000A30F0000030F1007A0867
:1000A000F3007908F2008131652180317108FA008E
:1000B0007008F9007A08803AFB0080307B02031D4B
:1000C0006328013079020318662867283528200044
:1000D0002308FA002208F9000800720803197128A1
:1000E000722877287208031D762877287C287008E4
:1000F0008E3126268031BB287208033E8600870198
:1001000016000104031985288628A3287208033ED7
:1001100086008701403FF300413FF400720A8600E9
:100120008701403FF500413FF6007608803AF7002E
:100130007408803A7702031D9F287308750203181C
:10014000A228A328BB287008F30072088600870144
:10015000720A8400850100080107F4007408860013
:10016000870173088100720A8600870101308107C8
:1001700041310318810A0800F601F31FC028C12885
:10018000C828F209F309F20A0319F30AF601F60A7C
:10019000F11FCB28CC28D128F009F109F00A031966
:1001A000F10A700871040319D628D7280029F5012F
:1001B000F50AE3280130F035F10D890BDB28013019
:1001C000F4007408F507F11FE628E728DA2871081B
:1001D0007302031DED2870087202031CF028F12839
:1001E000F5287008F2027108F33B0130F136F00C8B
:1001F000890BF6280130F502031DFF280029E728A6
:1002000076080319042905290A29F209F309F20AD3
:100210000319F30A7308F1007208F00008002000C7
:10022000AB006E1C142915291D292B08FC007C0825
:10023000F80024088031082081312000A61B2129E4
:10024000222927292608AA002508A9002929A90169
:10025000AA01A701A8013D292030F0000030F100DB
:1002600020002B08FC007C08F20080316D208131D9
:1002700001302000A7070030A83D2808803AFC0084
:100280002A08803A7C02031D472929082702031CFB
:100290004A294B292C2920006E184F29502958290A
:1002A0002B08FC007C08F8002408803108208131EC
:1002B000200024088E31782681312000290870071B
:1002C000A4002A08713DA5000800F601F11F692964
:1002D0006A297129F009F109F00A0319F10AF601F6
:1002E000F60AF31F742975297E29F209F309F20A27
:1002F0000319F30A0130F4007408F606F701F80157
:1003000070087104031985298629B529F501F50AB4
:1003100092290130F035F10D890B8A290130F40062
:100320007408F507F11F9529962989290130F735B9
:10033000F80D890B972971087302031DA129700814
:100340007202031CA429A529AA297008F2027108C7
:10035000F33B77140130F136F00C890BAB290130F7
:10036000F502031DB429B529962976080319B92980
:10037000BA29BF29F709F809F70A0319F80A780812
:10038000F1007708F00008002000DD004E0886002C
:100390008701403FD000413FD10050088400510800
:1003A00085001200253A031DD629D7297B2A4E083D
:1003B000860087010130810741310318810A21003D
:1003C000E501E6012000EE01EF01FF30EC00FF3017
:1003D000ED004E0886008701403FD000413FD1002C
:1003E00050088400510885001200643A0319F92965
:1003F000FA290B2A4E0886008701403FD000413F72
:10040000D10050088400510885001200693A031D8C
:100410000A2A0B2A462A4E088600870101308107E6
:1004200041310318810A4F088600870101088400C2
:10043000850102308107003FD000013FD100500804
:10044000D5005108D600890D893B8909D700D8000D
:10045000D900DA00DB00DC005508B0005608B10016
:100460005708B2005808B3005908B4005A08B5003C
:100470005B08B6005C08B7005D0884318A248131CE
:1004800020003108CF003008CE009E2A4E0886009A
:100490008701403FD000413FD100500884005108FF
:1004A00085001200253A031D562A572A702A4E0845
:1004B000860087010130810741310318810A253008
:1004C000F0000030F1005D08D0005008F2008031EB
:1004D0006D20813101302000CE000030CF009E2AF7
:1004E0004E08860087010130810741310318810AD7
:1004F000CE01CF019E2A4E0886008701403FD000E2
:10050000413FD10050088400510885000008D20006
:10051000D3015208F0005308F1005D08D4005408DC
:10052000F20080316D20813120004E088600870165
:100530000130810741310318810A6A2A0800F2015B
:100540002830860000308700473FF000F01FA92ABE
:10055000AA2ACB2A2000A809A909AA09AB09AC0933
:10056000AD09AE09AF09A80A031DC92AA90A031DCE
:10057000C92AAA0A031DC92AAB0A031DC92AAC0A43
:10058000031DC92AAD0A031DC92AAE0A031DC92AC3
:10059000AF0AF201F20A2030860000308700473FA0
:1005A000F000F01FD42AD52AF42A2000A009A109BE
:1005B000A209A309A409A509A609A709A00A031D60
:1005C000F42AA10A031DF42AA20A031DF42AA30A8D
:1005D000031DF42AA40A031DF42AA50A031DF42A04
:1005E000A60A031DF42AA70A2000200821042204D9
:1005F000230424042504260427040319002B012BBB
:10060000542BF101F10A102BA035A10DA20DA30D61
:10061000A40DA50DA60DA70D0130F0007008F1077F
:10062000A71F132B142B042B27082F02031D322B7B
:1006300026082E02031D322B25082D02031D322B06
:1006400024082C02031D322B23082B02031D322BFE
:1006500022082A02031D322B21082902031D322BF6
:1006600020082802031C352B362B462B2008A80215
:100670002108A93B2208AA3B2308AB3B2408AC3B3A
:100680002508AD3B2608AE3B2708AF3BA736A60C96
:10069000A50CA40CA30CA20CA10CA00C0130F1021F
:1006A000031D532B542B142B72080319582B592B51
:1006B000772BA809A909AA09AB09AC09AD09AE09AC
:1006C000AF09A80A031D772BA90A031D772BAA0AD5
:1006D000031D772BAB0A031D772BAC0A031D772B69
:1006E000AD0A031D772BAE0A031D772BAF0A20003E
:1006F0002808A0002908A1002A08A2002B08A300AE
:100700002C08A4002D08A5002E08A6002F08A7007D
:100710000800F2012030860000308700473FF000DB
:10072000F01F932B942BB52B2000A009A109A2093F
:10073000A309A409A509A609A709A00A031DB32BAB
:10074000A10A031DB32BA20A031DB32BA30A031D89
:10075000B32BA40A031DB32BA50A031DB32BA60AB2
:10076000031DB32BA70AF201F20A283086000030DD
:100770008700473FF000F01FBE2BBF2BE22B20006D
:10078000A809A909AA09AB09AC09AD09AE09AF09C5
:10079000A80A031DDE2BA90A031DDE2BAA0A031DCE
:1007A000DE2BAB0A031DDE2BAC0A031DDE2BAD0ACC
:1007B000031DDE2BAE0A031DDE2BAF0A0130F00055
:1007C0007008F20673308600003087000830F000B1
:1007D00000301E00F00BE92B200020082104220429
:1007E000230424042504260427040319F82BF92BD9
:1007F000552CF101F10A082CA035A10DA20DA30D75
:10080000A40DA50DA60DA70D0130F0007008F1078D
:10081000A71F0B2C0C2CFC2BF335F40DF50DF60D4E
:10082000F70DF80DF90DFA0D27082F02031D322CD4
:1008300026082E02031D322C25082D02031D322C02
:1008400024082C02031D322C23082B02031D322CFA
:1008500022082A02031D322C21082902031D322CF2
:1008600020082802031C352C362C472C2008A8020F
:100870002108A93B2208AA3B2308AB3B2408AC3B38
:100880002508AD3B2608AE3B2708AF3B7314A736BF
:10089000A60CA50CA40CA30CA20CA10CA00C01305E
:1008A000F102031D542C552C0C2C72080319592CE1
:1008B0005A2C782CF309F409F509F609F709F80917
:1008C000F909FA09F30A031D782CF40A031D782CA0
:1008D000F50A031D782CF60A031D782CF70A031D70
:1008E000782CF80A031D782CF90A031D782CFA0AD3
:1008F00073082000A0007408A1007508A200760803
:10090000A3007708A4007808A5007908A6007A0853
:10091000A70008002000BD003008C4003108C50051
:100920003208C6003308C7003408C8003508C900BB
:100930003608CA003708CB004430860000308700F4
:10094000473FB800B81BA52CA72C0130A82C0030BD
:100950002000B900BA013908C2003A08C3004208B1
:1009600043040319B42CB52CD32CC409C509C609FA
:10097000C709C809C909CA09CB09C40A031DD32C70
:10098000C50A031DD32CC60A031DD32CC70A031D99
:10099000D32CC80A031DD32CC90A031DD32CCA0AA1
:1009A000031DD32CCB0A2000ED1BD72CD82CDC2C1C
:1009B000FD30EE05FF30EF056D08803AB80080305D
:1009C0003802031DE52C01306C020318E82CE92CD9
:1009D000EF2C01302000BE000030BF00F42C2000BE
:1009E0006D08BF006C08BE00210066082000C10031
:1009F000210065082000C00042084304031D012DAA
:100A0000022D062D6E1D052D062D0A2DFF30C00767
:100A1000FF30C13D1F30CC000030CD002200BF01AF
:100A20007A2DFF302000CC07FF30CD3D0A30A000EA
:100A3000A101A201A301A401A501A601A7014408E7
:100A4000A8004508A9004608AA004708AB004808C6
:100A5000AC004908AD004A08AE004B08AF00823137
:100A60009F22843120002108F4002008F3008E31F9
:100A70005E2684317308303E2000B8004C08203ECA
:100A800086000130870038088100FF30BE07FF3044
:100A9000BF3DFF30C007FF30C13D0A30A000A101BB
:100AA000A201A301A401A501A601A7014408A80071
:100AB0004508A9004608AA004708AB004808AC0052
:100AC0004908AD004A08AE004B08AF0083318923C6
:100AD000843120002008C4002108C5002208C60077
:100AE0002308C7002408C8002508C9002608CA0032
:100AF0002708CB0020004D08803AB800803038022B
:100B0000031D842D01304C02031C872D882DB52D2B
:100B100020004408450446044704480449044A04A4
:100B20004B04031D942D952D112D3F08803AB800DC
:100B300080303802031D9E2D01303E020318A12D86
:100B4000A22D112D20004108803AB80080303802D3
:100B5000031DAC2D01304002031CAF2DB02DB52D6F
:100B60002000EE18B42DB52D112D200042084304AD
:100B7000031DBB2DBC2DC02D6E1DBF2DC02DDC2D2A
:100B8000FF30CC07FF30CD3D42084304031DC92D83
:100B9000CA2DCF2D2B30BB000030BC00D32D2D3003
:100BA000BB000030BC003B08B8004C08203E86006B
:100BB00001308700380881004C08203EB800380812
:100BC000A4004108A6004008A5003D0881310F217E
:100BD000843120002508B1002408B00008008E31BF
:100BE0003A2685318F310D278531F70100308F315D
:100BF0007A2785311E30F7009030F8008F31542766
:100C00008531112EFF30D1000030D200272EED307B
:100C1000D1000130D200272EA430D1000130D20003
:100C2000272E0030840090308500003F2100A9006D
:100C3000013FAA002A08003A03191F2E0C2E29088A
:100C4000013A0319022E033A0319072E0C2ED30181
:100C5000D4010230D7000030D8007E2E01302100B0
:100C6000CF000030D0000230D5000030D600532E27
:100C700021005608F1005508F0005808F300570805
:100C8000F2008031BC20853170087104031D492EAB
:100C90004A2E4E2E2100CF01D0016D2E01302100B1
:100CA000D5070030D63D0230F0000030F100580882
:100CB000F3005708F2008131652185317108803ACF
:100CC0002100A9005608803A2902031D692E550803
:100CD000700203186C2E6D2E382E21004F03500425
:100CE000031D732E742E7A2E57085307D30058080D
:100CF000543DD4000130D7070030D83D5208803A27
:100D0000A9005808803A2902031D882E570851026D
:100D100003188B2E8C2E2E2E30302000E6009030C3
:100D2000E700210054082000E900210053082000BA
:100D3000E800AF308F3130278531F701F70A0030F6
:100D40008F317A278531AF30F7000030F8008F31CE
:100D50005427853102302100AA004530A900A9306E
:100D6000890BB02EA90BB02EAA0BB02E00328E31FB
:100D70004426853121005408D8005308D700F701D4
:100D800000308F317A2785311330F7009030F8002A
:100D90008F315427853121005808FA005708F9008F
:100DA0008031312085317A082100DA007908D900B4
:100DB0005A08D8005908D7005A08803AA90080304C
:100DC0002902031DE52E0B3059020318E82EE92EE7
:100DD000CB2E30302000E6009030E70021005A088A
:100DE0002000E900210059082000E800AF308F31D1
:100DF00030278531F701F70A00308F317A278531A6
:100E0000AF30F7000030F8008F31542785310230C1
:100E10002100AA004530A900A930890B0D2FA90B8C
:100E20000D2FAA0B0D2F00328E3144268531F7018C
:100E300000308F317A2785312830F7009030F80064
:100E40008F3154278531C730860000308700083045
:100E50002100A90000301E00A90B2B2FD501D601BF
:100E6000542F013021005905A90000305A05AA006D
:100E70005535C73E860087012908C03F2A08C13F73
:100E80000230F0000030F1005A08F3005908F20077
:100E900081316521853171082100DA007008D9009F
:100EA0000130D5070030D63D5A08803AA90080307D
:100EB0002902031D5D2F013059020318602F612F95
:100EC000312F21004E08F1004D08F000E830F2000B
:100ED0000330F3008E31CE26853170082100A90041
:100EE0007108AA004C08F1004B08F0006430F200D1
:100EF0000030F3008E31CE2685317008210029079D
:100F0000AB0071082A3DAC004A08F1004908F00026
:100F10000A30F2000030F3008E31CE2685317008A1
:100F200021002B07AD0071082C3DAE0047082D07AE
:100F3000C30048082E3DC400C501C41BC5034508B5
:100F4000C60030302000E6009030E700210046085F
:100F50002000EB00210045082000EA0021004408A1
:100F60002000E900210043082000E800AF308F3165
:100F700030278531F701F70A00308F317A27853124
:100F8000AF30F7000030F8008F3154278531023040
:100F90002100AA004530A900A930890BCD2FA90B4B
:100FA000CD2FAA0BCD2F0032D42F803102282D3027
:100FB00084008E30850021001200E7001200E80056
:100FC0001200E9001200EA001200EB001200EC002F
:100FD0002000EC01ED01EE01EF01DB308400003078
:100FE00085000C308E312726873120308400013077
:100FF000850020308E312726873120008531EF2D66
:101C4C000800640080010131890B282E0034A43473
:101C5C000134ED340134FF34003438302100990064
:101C6C0098012200960108008F31A1278E318E3108
:101C7C0033268E31803104208E310800F70100307C
:101C8C008F317A278E310230F7009030F8008F3187
:101C9C0054278E31F701F70A00308F317A278E31B5
:101CAC000230F7009030F8008F3154278E31080045
:101CBC007408803AF50080307502031D672E0130E0
:101CCC00730203186A2E6B2E772E7309F5007409B4
:101CDC00F600F50A0319F60A7508F3007608F40005
:101CEC00772E0800F4007408F2007208F300822EBC
:101CFC000130F2007208F407740886000130870086
:101D0C000108031D8A2E8B2E7E2E73087402F000A0
:101D1C00F101F01BF1030800F600D030890B942E72
:101D2C000000F001F00A76088E31ED268E3176082F
:101D3C00F4000330F435FF3E031DA02E7435F5007E
:101D4C007508F600F001F00A76088E31ED268E311A
:101D5C000800F600D030890BB12E0000F001760897
:101D6C008E31ED268E317608F4000330F435FF3ECB
:101D7C00031DBC2E7435F5007508F6002930890B4F
:101D8C00C52E0032F00176088E31ED268E3108001A
:101D9C00F401F501701CD32ED42ED82E7208F40742
:101DAC007308F53D0130F235F30D890BD92E013056
:101DBC00F136F00C890BDE2E70087104031DE72E32
:101DCC00E82ED02E7508F1007408F0000800F3001E
:101DDC007308F1000430F136890BF12E7108F20012
:101DEC007208F30073080F39F1007108F30020003A
:101DFC000D08F0398D000D0873048D00700C031C58
:101E0C008D1203188D160D130D160D1208002000DF
:101E1C008D0121008D0120008D170330F7006E30ED
:101E2C00890B162FF70B162F000032308E31AF2690
:101E3C008F3128308E31AF268F310C308E31AF265A
:101E4C008F3101308E31AF268F3106308E31AF2677
:101E5C008F3108002100A3006830FD007D08A2002E
:101E6C002308FD007D08A400A501A601A701A80177
:101E7C0020006708DF006608DE00A230FD007D0848
:101E8C00E000A4308F31CF278F31210025082307A4
:101E9C00FD007D088600870181010800FC01692F87
:101EAC007808FA007708F9007C08790784007A082A
:101EBC0003187A0A850000088E3192268F31013082
:101ECC00F9007908FC077808FA007708F9007C0813
:101EDC00790784007A0803187A0A85001200031D1A
:101EEC00782F792F562F0800FA000230770203184A
:101EFC00802F812FA02F10307A02031C862F872F62
:101F0C00882FA02F770303198C2F8D2F932F8030C0
:101F1C007A04F8000030F900982FC0307A04F800E9
:101F2C000030F90078088E31AF268F31D030890B14
:101F3C009D2F0000080022008C018D018E010830BD
:101F4C0021009000FF308C008D01FF308E00FC30A2
:101F5C0023008E008D013F308C00240090018D01F8
:101F6C008C018E012100951725008C018D018E01AD
:101F7C00FF3026008C00FF308D00FF308E00FF30CC
:101F8C0027008C00FF308D00FF308E000830900051
:101F9C0008002000E3005F08E5005E08E400210073
:101FAC00E301E401ED2F6430E1006108CE0060082C
:101FBC00E2006208CF0063088131C4218F31200018
:101FCC004E082100E30720004F082100E43D2000CB
:101FDC0064088400650885001200031DF62FF72F96
:101FEC00D92F210064082000DF00210063082000A5
:101FFC00DE00080001340034203420342034203436
:10200C002034203420342034203420342034203424
:10201C0020342034203420340034733475346D343F
:10202C004434693467346934743473343D34003463
:10203C00733475346D345034723469346D346534A2
:10204C003D340034423469346E3461347234793442
:0A205C003D340034253464340034B0
:020000040001F9
:04000E00E43FFF3E8E
:00000001FF
