:020000040000FA
:10000000803102288731D72F08002000A300A101EA
:10001000A2011D282008F900FA017908F0007A08E9
:10002000F1007808FB007B08F20080316A20803103
:1000300001302000A1070030A23D21082307F9006C
:1000400079088600013087000108FA007A08A000CC
:100050002008031D2C282D280A2808002000A201B2
:10006000A30157280A30F0000030F1007A08F300AD
:100070007908F2008031B920803171082000A10098
:100080007008A00020082207A2002108233DA30039
:100090000A30F0000030F1007A08F3007908F2002D
:1000A0008131622180317108FA007008F9007A0804
:1000B000803AFB0080307B02031D6028013079020A
:1000C000031863286428322820002308FA00220835
:1000D000F9000800720803196E286F287428720846
:1000E000031D73287428792870088031042080311A
:1000F000B8287208033E8600870116000104031920
:1001000082288328A0287208033E86008701403F8A
:10011000F300413FF400720A86008701403FF5007A
:10012000413FF6007608803AF7007408803A77027B
:10013000031D9C287308750203189F28A028B8285F
:100140007008F300720886008701720A8400850136
:1001500000080107F4007408860087017308810015
:10016000720A860087010130810741310318810A34
:100170000800F601F31FBD28BE28C528F209F309BF
:10018000F20A0319F30AF601F60AF11FC828C92872
:10019000CE28F009F109F00A0319F10A7008710478
:1001A0000319D328D428FD28F501F50AE0280130E9
:1001B000F035F10D890BD8280130F4007408F507EB
:1001C000F11FE328E428D72871087302031DEA28E9
:1001D00070087202031CED28EE28F2287008F20263
:1001E0007108F33B0130F136F00C890BF328013034
:1001F000F502031DFC28FD28E428760803190129CF
:1002000002290729F209F309F20A0319F30A73080C
:10021000F1007208F00008002000AB006E1C1129EC
:1002200012291A292B08FC007C08F80024088031C8
:10023000052081312000A61B1E291F2924292608FC
:10024000AA002508A9002629A901AA01A701A80139
:100250003A292030F0000030F10020002B08FC008B
:100260007C08F20080316A20813101302000A7072C
:100270000030A83D2808803AFC002A08803A7C0219
:10028000031D442929082702031C47294829292935
:1002900020006E184C294D2955292B08FC007C089C
:1002A000F8002408803105208131200024088E3197
:1002B00078268131200029087007A4002A08713DA2
:1002C000A5000800F601F11F662967296E29F009CB
:1002D000F109F00A0319F10AF601F60AF31F712970
:1002E00072297B29F209F309F20A0319F30A013092
:1002F000F4007408F606F701F80170087104031998
:1003000082298329B229F501F50A8F290130F035B8
:10031000F10D890B87290130F4007408F507F11FEE
:100320009229932986290130F735F80D890B9429F4
:1003300071087302031D9E2970087202031CA12913
:10034000A229A7297008F2027108F33B7714013043
:10035000F136F00C890BA8290130F502031DB129F3
:10036000B229932976080319B629B729BC29F709B8
:10037000F809F70A0319F80A7808F1007708F0007D
:1003800008002000DD004E0886008701403FD000B5
:10039000413FD10050088400510885001200253AE1
:1003A000031DD329D429782A4E08860087010130FD
:1003B000810741310318810A2100DB01DC012000A3
:1003C000EE01EF01FF30EC00FF30ED004E0886003B
:1003D0008701403FD000413FD100500884005108C0
:1003E00085001200643A0319F629F729082A4E08F5
:1003F00086008701403FD000413FD1005008840073
:10040000510885001200693A031D072A082A432A69
:100410004E08860087010130810741310318810AA7
:100420004F0886008701010884008501023081079A
:10043000003FD000013FD1005008D5005108D60040
:10044000890D893B8909D700D800D900DA00DB0083
:10045000DC005508B0005608B1005708B200580833
:10046000B3005908B4005A08B5005B08B6005C0830
:10047000B7005D0884318724813120003108CF0026
:100480003008CE009B2A4E0886008701403FD000EE
:10049000413FD10050088400510885001200253AE0
:1004A000031D532A542A6D2A4E0886008701013005
:1004B000810741310318810A2530F0000030F10036
:1004C0005D08D0005008F20080316A20813101308F
:1004D0002000CE000030CF009B2A4E088600870106
:1004E0000130810741310318810ACE01CF019B2AD7
:1004F0004E0886008701403FD000413FD1005008A0
:100500008400510885000008D200D3015208F00091
:100510005308F1005D08D4005408F20080316A20CD
:10052000813120004E08860087010130810741316A
:100530000318810A672A0800F2012830860000307B
:100540008700473FF000F01FA62AA72AC82A2000EC
:10055000A809A909AA09AB09AC09AD09AE09AF09F7
:10056000A80A031DC62AA90A031DC62AAA0A031D32
:10057000C62AAB0A031DC62AAC0A031DC62AAD0A49
:10058000031DC62AAE0A031DC62AAF0AF201F20AEB
:100590002030860000308700473FF000F01FD12A4E
:1005A000D22AF12A2000A009A109A209A309A409BD
:1005B000A509A609A709A00A031DF12AA10A031D7E
:1005C000F12AA20A031DF12AA30A031DF12AA40A93
:1005D000031DF12AA50A031DF12AA60A031DF12A0B
:1005E000A70A20002008210422042304240425044F
:1005F000260427040319FD2AFE2A512BF101F10AD2
:100600000D2BA035A10DA20DA30DA40DA50DA60DBA
:10061000A70D0130F0007008F107A71F102B112B58
:10062000012B27082F02031D2F2B26082E02031D46
:100630002F2B25082D02031D2F2B24082C02031D10
:100640002F2B23082B02031D2F2B22082A02031D08
:100650002F2B21082902031D2F2B20082802031C01
:10066000322B332B432B2008A8022108A93B220858
:10067000AA3B2308AB3B2408AC3B2508AD3B26082E
:10068000AE3B2708AF3BA736A60CA50CA40CA30CC9
:10069000A20CA10CA00C0130F102031D502B512B18
:1006A000112B72080319552B562B742BA809A90975
:1006B000AA09AB09AC09AD09AE09AF09A80A031D27
:1006C000742BA90A031D742BAA0A031D742BAB0AF1
:1006D000031D742BAC0A031D742BAD0A031D742B70
:1006E000AE0A031D742BAF0A20002808A0002908B9
:1006F000A1002A08A2002B08A3002C08A4002D08A2
:10070000A5002E08A6002F08A7000800F20120303F
:10071000860000308700473FF000F01F902B912BA0
:10072000B22B2000A009A109A209A309A409A509C7
:10073000A609A709A00A031DB02BA10A031DB02B0F
:10074000A20A031DB02BA30A031DB02BA40A031D8C
:10075000B02BA50A031DB02BA60A031DB02BA70AB8
:10076000F201F20A2830860000308700473FF0008F
:10077000F01FBB2BBC2BDF2B2000A809A909AA095D
:10078000AB09AC09AD09AE09AF09A80A031DDB2B03
:10079000A90A031DDB2BAA0A031DDB2BAB0A031DD1
:1007A000DB2BAC0A031DDB2BAD0A031DDB2BAE0AD2
:1007B000031DDB2BAF0A0130F0007008F206733026
:1007C0008600003087000830F00000301E00F00B7B
:1007D000E62B2000200821042204230424042504FD
:1007E000260427040319F52BF62B522CF101F10AEC
:1007F000052CA035A10DA20DA30DA40DA50DA60DD0
:10080000A70D0130F0007008F107A71F082C092C74
:10081000F92BF335F40DF50DF60DF70DF80DF90D77
:10082000FA0D27082F02031D2F2C26082E02031D68
:100830002F2C25082D02031D2F2C24082C02031D0C
:100840002F2C23082B02031D2F2C22082A02031D04
:100850002F2C21082902031D2F2C20082802031CFD
:10086000322C332C442C2008A8022108A93B220852
:10087000AA3B2308AB3B2408AC3B2508AD3B26082C
:10088000AE3B2708AF3B7314A736A60CA50CA40CEF
:10089000A30CA20CA10CA00C0130F102031D512CE1
:1008A000522C092C72080319562C572C752CF3095D
:1008B000F409F509F609F709F809F909FA09F30A3B
:1008C000031D752CF40A031D752CF50A031D752CE8
:1008D000F60A031D752CF70A031D752CF80A031D73
:1008E000752CF90A031D752CFA0A73082000A00064
:1008F0007408A1007508A2007608A3007708A40078
:100900007808A5007908A6007A08A700080020004A
:10091000BD003008C4003108C5003208C6003308E5
:10092000C7003408C8003508C9003608CA003708AF
:10093000CB004430860000308700473FB800B81B2A
:10094000A22CA42C0130A52C00302000B900BA0143
:100950003908C2003A08C300420843040319B12C05
:10096000B22CD02CC409C509C609C709C809C909D0
:10097000CA09CB09C40A031DD02CC50A031DD02CFB
:10098000C60A031DD02CC70A031DD02CC80A031D9C
:10099000D02CC90A031DD02CCA0A031DD02CCB0AA7
:1009A0002000ED1BD42CD52CD92CFD30EE05FF30CA
:1009B000EF056D08803AB80080303802031DE22C44
:1009C00001306C020318E52CE62CEC2C01302000E1
:1009D000BE000030BF00F12C20006D08BF006C0885
:1009E000BE0021005C082000C10021005B0820003F
:1009F000C00042084304031DFE2CFF2C032D6E1D76
:100A0000022D032D072DFF30C007FF30C13D1F30E1
:100A1000CC000030CD002200BF01772DFF30200038
:100A2000CC07FF30CD3D0A30A000A101A201A301F7
:100A3000A401A501A601A7014408A8004508A90032
:100A40004608AA004708AB004808AC004908AD00BA
:100A50004A08AE004B08AF0082319C22843120004E
:100A60002108F4002008F3008E315E2684317308DB
:100A7000303E2000B8004C08203E86000130870040
:100A800038088100FF30BE07FF30BF3DFF30C00790
:100A9000FF30C13D0A30A000A101A201A301A401C1
:100AA000A501A601A7014408A8004508A900460819
:100AB000AA004708AB004808AC004908AD004A0846
:100AC000AE004B08AF00833186238431200020081C
:100AD000C4002108C5002208C6002308C700240856
:100AE000C8002508C9002608CA002708CB00200036
:100AF0004D08803AB80080303802031D812D013046
:100B00004C02031C842D852DB22D20004408450481
:100B100046044704480449044A044B04031D912D2C
:100B2000922D0E2D3F08803AB80080303802031D08
:100B30009B2D01303E0203189E2D9F2D0E2D20006F
:100B40004108803AB80080303802031DA92D0130D9
:100B50004002031CAC2DAD2DB22D2000EE18B12D9E
:100B6000B22D0E2D200042084304031DB82DB92DCF
:100B7000BD2D6E1DBC2DBD2DD92DFF30CC07FF30F6
:100B8000CD3D42084304031DC62DC72DCC2D2B306F
:100B9000BB000030BC00D02D2D30BB000030BC00AD
:100BA0003B08B8004C08203E86000130870038081A
:100BB00081004C08203EB8003808A4004108A60077
:100BC0004008A5003D0881310C2184312000250812
:100BD000B1002408B00008008E313A2685318F31EB
:100BE0000D278531022EFF30C7000030C800182EB7
:100BF000ED30C7000130C800182EA430C700013006
:100C0000C800182E0030840090308500003F21007D
:100C1000A900013FAA002A08003A0319102EFD2D51
:100C20002908013A0319F32D033A0319F82DFD2D74
:100C3000C901CA01F70100308F317A27853113309D
:100C4000F7009030F8008F315427853102302100B1
:100C5000CD000030CE007C2E01302100C5000030D8
:100C6000C6000230CB000030CC00512E21004C08D1
:100C7000F1004B08F0004E08F3004D08F2008031FF
:100C8000B920853170087104031D472E482E4C2E63
:100C90002100C501C6016B2E01302100CB070030B9
:100CA000CC3D0230F0000030F1004E08F3004D085A
:100CB000F2008131622185317108803A2100A9005A
:100CC0004C08803A2902031D672E4B087002031856
:100CD0006A2E6B2E362E210045034604031D712E0D
:100CE000722E782E4D084907C9004E084A3DCA00A9
:100CF0000130CD070030CE3D4808803AA9004E08AB
:100D0000803A2902031D862E4D0847020318892EBA
:100D10008A2E2C2E8E3144268531F70100308F31FA
:100D20007A2785312C30F7009030F8008F31542726
:100D300085313E302000E6009030E70021004A086F
:100D40002000E900210049082000E800AF308F3181
:100D500030278531F701F70A00308F317A27853146
:100D6000AF30F7000030F8008F3154278531043060
:100D70002100AA002C30A900AB30890BBD2EA90B95
:100D8000BD2EAA0BBD2E00328E3144268531F701CF
:100D900000308F317A2785312130F7009030F8000C
:100DA0008F315427853121004A08CE004908CD00F3
:100DB00021004E08FA004D08F90080312E208531BF
:100DC0007A082100D0007908CF005008CE004F08E3
:100DD000CD005008803AA90080302902031DF22E70
:100DE0000B304F020318F52EF62ED82E3E30200081
:100DF000E6009030E700210050082000E9002100C3
:100E00004F082000E800AF308F3130278531F701DF
:100E1000F70A00308F317A278531AF30F700003084
:100E2000F8008F315427853104302100AA002C307E
:100E3000A900AB30890B1A2FA90B1A2FAA0B1A2F56
:100E400000328E3144268531F70100308F317A2708
:100E500085313630F7009030F8008F3154278531D6
:100E6000BD3086000030870008302100A900003026
:100E70001E00A90B382FCB01CC01612F01302100BE
:100E80004F05A90000305005AA004B35BD3E860035
:100E900087012908C03F2A08C13F0230F000003016
:100EA000F1005008F3004F08F200813162218531D2
:100EB00071082100D0007008CF000130CB0700304E
:100EC000CC3D5008803AA90080302902031D6A2FCA
:100ED00001304F0203186D2F6E2F3E2F2100440862
:100EE000F1004308F000E830F2000330F3008E31E7
:100EF000CE26853170082100A9007108AA00420899
:100F0000F1004108F0006430F2000030F3008E314F
:100F1000CE268531700821002907AB0071082A3DD3
:100F2000AC004008F1003F08F0000A30F200003049
:100F3000F3008E31CE268531700821002B07AD00DD
:100F400071082C3DAE003D082D07B9003E082E3D2E
:100F5000BA00BB01BA1BBB033B08BC003E302000FB
:100F6000E6009030E70021003C082000EB00210063
:100F70003B082000EA0021003A082000E900210097
:100F800039082000E800AF308F3130278531F70174
:100F9000F70A00308F317A278531AF30F700003003
:100FA000F8008F3154278531D42F803102282D301D
:100FB00084008E30850021001200DD001200DE006A
:100FC0001200DF001200E0001200E1001200E20057
:100FD0002000EC01ED01EE01EF01D1308400003082
:100FE00085000C308E312726873120308400013077
:100FF000850020308E312726873120008531EC2D69
:101C46001630210097000800640080010131890BDD
:101C5600282E0034A4340134ED340134FF3400342A
:101C660038302100990098012200960108008F3132
:101C7600A1278E318E3133268E318E3123268E3139
:101C86000800F70100308F317A278E310230F700D5
:101C96009030F8008F3154278E31F701F70A003063
:101CA6008F317A278E310230F7009030F8008F316D
:101CB60054278E3108007408803AF500803075028A
:101CC600031D672E0130730203186A2E6B2E772EC2
:101CD6007309F5007409F600F50A0319F60A750882
:101CE600F3007608F400772E0800F4007408F2007A
:101CF6007208F300822E0130F2007208F4077408AD
:101D06008600013087000108031D8A2E8B2E7E2E49
:101D160073087402F000F101F01BF1030800F600ED
:101D2600D030890B942E0000F001F00A76088E312F
:101D3600ED268E317608F4000330F435FF3E031DA0
:101D4600A02E7435F5007508F600F001F00A760845
:101D56008E31ED268E310800F600D030890BB12E7B
:101D66000000F00176088E31ED268E317608F400FB
:101D76000330F435FF3E031DBC2E7435F50075089F
:101D8600F6002930890BC52E0032F00176088E3117
:101D9600ED268E310800F401F501701CD32ED42EE9
:101DA600D82E7208F4077308F53D0130F235F30DAD
:101DB600890BD92E0130F136F00C890BDE2E700816
:101DC6007104031DE72EE82ED02E7508F100740865
:101DD600F0000800F3007308F1000430F136890BB7
:101DE600F12E7108F2007208F30073080F39F10042
:101DF6007108F30020000D08F0398D000D087304FA
:101E06008D00700C031C8D1203188D160D130D1604
:101E16000D12080020008D0121008D0120008D1774
:101E26000330F7006E30890B162FF70B162F0000C4
:101E360032308E31AF268F3128308E31AF268F313A
:101E46000C308E31AF268F3101308E31AF268F3177
:101E560006308E31AF268F3108002100A30068308E
:101E6600FD007D08A2002308FD007D08A400A50151
:101E7600A601A701A80120006708DF006608DE00AA
:101E8600A230FD007D08E000A4308F31CF278F31CE
:101E9600210025082307FD007D08860087018101B2
:101EA6000800FC01692F7808FA007708F9007C0819
:101EB600790784007A0803187A0A850000088E31AB
:101EC60092268F310130F9007908FC077808FA006C
:101ED6007708F9007C08790784007A0803187A0ADB
:101EE60085001200031D782F792F562F0800FA005F
:101EF600023077020318802F812FA02F10307A022C
:101F0600031C862F872F882FA02F770303198C2F6A
:101F16008D2F932F80307A04F8000030F900982F27
:101F2600C0307A04F8000030F90078088E31AF2608
:101F36008F31D030890B9D2F0000080022008C01C4
:101F46008D018E01083021009000FF308C008D013C
:101F5600FF308E00FC3023008E008D013F308C0058
:101F6600240090018D018C018E012100951725001A
:101F76008C018D018E01FF3026008C00FF308D0014
:101F8600FF308E00FF3027008C00FF308D00FF30C1
:101F96008E000830900008002000E3005F08E5008E
:101FA6005E08E4002100D901DA01ED2F6430E1007A
:101FB6006108CE006008E2006208CF006308813144
:101FC600C1218F3120004E082100D90720004F087B
:101FD6002100DA3D200064088400650885001200AF
:101FE600031DF62FF72FD92F21005A082000DF00F6
:101FF600210059082000DE00080001340034203496
:10200600203420342034203420342034203420342A
:10201600203420342034203420342034203400343A
:10202600433461346C34633475346C3461346E34E7
:1020360064346F342E342E342E34003473347534B5
:102046006D344434693467346934743473343D34DC
:102056000034733475346D345034723469346D34ED
:1020660065343D340034423469346E34613472343C
:0C20760079343D340034253464340034E7
:020000040001F9
:04000E00E43FFF3E8E
:00000001FF
