:020000040000FA
:10000000803102288731D72F08003830210099002D
:1000100098012200960108002000E3005F08E50037
:100020005E08E4002100D901DA012A286430E100E9
:100030006108CE006008E2006208CF0063088131E9
:10004000D021803120004E082100D90720004F0820
:100050002100DA3D20006408840065088500120054
:10006000031D33283428162821005A082000DF00F9
:10007000210059082000DE0008002000A201A30191
:1000800066280A30F0000030F1007A08F3007908A1
:10009000F2008031C820803171082000A100700872
:1000A000A00020082207A2002108233DA3000A3057
:1000B000F0000030F1007A08F3007908F200813195
:1000C000712180317108FA007008F9007A08803ACD
:1000D000FB0080307B02031D6F280130790203187A
:1000E00072287328412820002308FA002208F9000A
:1000F0000800720803197D287E2883287208031DD2
:100100008228832888287008803104208031C728FD
:100110007208033E86008701160001040319912826
:100120009228AF287208033E86008701403FF30003
:10013000413FF400720A86008701403FF500413FCD
:10014000F6007608803AF7007408803A7702031DBB
:10015000AB28730875020318AE28AF28C7287008AB
:10016000F300720886008701720A84008501000886
:100170000107F40074088600870173088100720A81
:10018000860087010130810741310318810A080088
:10019000F601F31FCC28CD28D428F209F309F20A7E
:1001A0000319F30AF601F60AF11FD728D828DD282B
:1001B000F009F109F00A0319F10A70087104031932
:1001C000E228E3280C29F501F50AEF280130F03583
:1001D000F10D890BE7280130F4007408F507F11FD1
:1001E000F228F328E62871087302031DF928700825
:1001F0007202031CFC28FD2801297008F202710814
:10020000F33B0130F136F00C890B02290130F50285
:10021000031D0B290C29F32876080319102911292D
:100220001629F209F309F20A0319F30A7308F10017
:100230007208F00008002000AB006E1C2029212964
:1002400029292B08FC007C08F80024088F31A927F5
:1002500081312000A61B2D292E2933292608AA002A
:100260002508A9003529A901AA01A701A801492942
:100270002030F0000030F10020002B08FC007C084A
:10028000F20080317920813101302000A707003051
:10029000A83D2808803AFC002A08803A7C02031D09
:1002A000532929082702031C5629572938292000D9
:1002B0006E185B295C2964292B08FC007C08F80077
:1002C00024088F31A9278131200024088E3180260F
:1002D0008131200029087007A4002A08713DA5007B
:1002E0000800F601F11F752976297D29F009F10929
:1002F000F00A0319F10AF601F60AF31F8029812991
:100300008A29F209F309F20A0319F30A0130F40009
:100310007408F606F701F8017008710403199129B1
:100320009229C129F501F50A9E290130F035F10D18
:10033000890B96290130F4007408F507F11FA129F3
:10034000A22995290130F735F80D890BA3297108E9
:100350007302031DAD2970087202031CB029B12974
:10036000B6297008F2027108F33B77140130F136B8
:10037000F00C890BB7290130F502031DC029C129F2
:10038000A22976080319C529C629CB29F709F80936
:10039000F70A0319F80A7808F1007708F000080056
:1003A0002000DD004E0886008701403FD000413F1D
:1003B000D10050088400510885001200253A031D21
:1003C000E229E329872A4E08860087010130810748
:1003D00041310318810A2100DB01DC012000EE011C
:1003E000EF01FF30EC00FF30ED004E088600870182
:1003F000403FD000413FD1005008840051088500A3
:100400001200643A0319052A062A172A4E088600A4
:100410008701403FD000413FD1005008840051087F
:1004200085001200693A031D162A172A522A4E081F
:10043000860087010130810741310318810A4F0886
:100440008600870101088400850102308107003F92
:10045000D000013FD1005008D5005108D600890DC9
:10046000893B8909D700D800D900DA00DB00DC001D
:100470005508B0005608B1005708B2005808B3003C
:100480005908B4005A08B5005B08B6005C08B7000C
:100490005D0884319624813120003108CF00300876
:1004A000CE00AA2A4E0886008701403FD000413F77
:1004B000D10050088400510885001200253A031D20
:1004C000622A632A7C2A4E08860087010130810750
:1004D00041310318810A2530F0000030F1005D0839
:1004E000D0005008F20080317920813101302000A5
:1004F000CE000030CF00AA2A4E08860087010130C6
:10050000810741310318810ACE01CF01AA2A4E0882
:1005100086008701403FD000413FD1005008840051
:10052000510885000008D200D3015208F00053089A
:10053000F1005D08D4005408F20080317920813147
:1005400020004E08860087010130810741310318E1
:10055000810A762A0800F2012830860000308700E0
:10056000473FF000F01FB52AB62AD72A2000A80975
:10057000A909AA09AB09AC09AD09AE09AF09A80AD6
:10058000031DD52AA90A031DD52AAA0A031DD52AA7
:10059000AB0A031DD52AAC0A031DD52AAD0A031DDB
:1005A000D52AAE0A031DD52AAF0AF201F20A20307D
:1005B000860000308700473FF000F01FE02AE12A64
:1005C000002B2000A009A109A209A309A409A509DB
:1005D000A609A709A00A031D002BA10A031D002BD1
:1005E000A20A031D002BA30A031D002BA40A031D4E
:1005F000002BA50A031D002BA60A031D002BA70A2A
:1006000020002008210422042304240425042604B5
:10061000270403190C2B0D2B602BF101F10A1C2B65
:10062000A035A10DA20DA30DA40DA50DA60DA70D1E
:100630000130F0007008F107A71F1F2B202B102B93
:1006400027082F02031D3E2B26082E02031D3E2BDA
:1006500025082D02031D3E2B24082C02031D3E2BD2
:1006600023082B02031D3E2B22082A02031D3E2BCA
:1006700021082902031D3E2B20082802031C412BC0
:10068000422B522B2008A8022108A93B2208AA3B92
:100690002308AB3B2408AC3B2508AD3B2608AE3B0A
:1006A0002708AF3BA736A60CA50CA40CA30CA20CE4
:1006B000A10CA00C0130F102031D5F2B602B202B3D
:1006C00072080319642B652B832BA809A909AA09B1
:1006D000AB09AC09AD09AE09AF09A80A031D832B0C
:1006E000A90A031D832BAA0A031D832BAB0A031D32
:1006F000832BAC0A031D832BAD0A031D832BAE0A8B
:10070000031D832BAF0A20002808A0002908A100A0
:100710002A08A2002B08A3002C08A4002D08A5007D
:100720002E08A6002F08A7000800F201203086003E
:1007300000308700473FF000F01F9F2BA02BC12BFC
:100740002000A009A109A209A309A409A509A609D5
:10075000A709A00A031DBF2BA10A031DBF2BA20AD4
:10076000031DBF2BA30A031DBF2BA40A031DBF2B10
:10077000A50A031DBF2BA60A031DBF2BA70AF20162
:10078000F20A2830860000308700473FF000F01F53
:10079000CA2BCB2BEE2B2000A809A909AA09AB096B
:1007A000AC09AD09AE09AF09A80A031DEA2BA90AD5
:1007B000031DEA2BAA0A031DEA2BAB0A031DEA2B31
:1007C000AC0A031DEA2BAD0A031DEA2BAE0A031D7A
:1007D000EA2BAF0A0130F0007008F2067330860091
:1007E000003087000830F00000301E00F00BF52BC1
:1007F00020002008210422042304240425042604C4
:1008000027040319042C052C612CF101F10A142C86
:10081000A035A10DA20DA30DA40DA50DA60DA70D2C
:100820000130F0007008F107A71F172C182C082CB6
:10083000F335F40DF50DF60DF70DF80DF90DFA0D74
:1008400027082F02031D3E2C26082E02031D3E2CD6
:1008500025082D02031D3E2C24082C02031D3E2CCE
:1008600023082B02031D3E2C22082A02031D3E2CC6
:1008700021082902031D3E2C20082802031C412CBC
:10088000422C532C2008A8022108A93B2208AA3B8D
:100890002308AB3B2408AC3B2508AD3B2608AE3B08
:1008A0002708AF3B7314A736A60CA50CA40CA30C09
:1008B000A20CA10CA00C0130F102031D602C612CD4
:1008C000182C72080319652C662C842CF309F40982
:1008D000F509F609F709F809F909FA09F30A031DF8
:1008E000842CF40A031D842CF50A031D842CF60ABB
:1008F000031D842CF70A031D842CF80A031D842C85
:10090000F90A031D842CFA0A73082000A000740859
:10091000A1007508A2007608A3007708A400780853
:10092000A5007908A6007A08A70008002000BD00ED
:100930003008C4003108C5003208C6003308C700BB
:100940003408C8003508C9003608CA003708CB008B
:100950004430860000308700473FB800B81BB12CF8
:10096000B32C0130B42C00302000B900BA01390892
:10097000C2003A08C300420843040319C02CC12C2A
:10098000DF2CC409C509C609C709C809C909CA09AC
:10099000CB09C40A031DDF2CC50A031DDF2CC60AC0
:1009A000031DDF2CC70A031DDF2CC80A031DDF2C23
:1009B000C90A031DDF2CCA0A031DDF2CCB0A200045
:1009C000ED1BE32CE42CE82CFD30EE05FF30EF05A9
:1009D0006D08803AB80080303802031DF12C0130D8
:1009E0006C020318F42CF52CFB2C01302000BE0007
:1009F0000030BF00002D20006D08BF006C08BE0055
:100A000021005C082000C10021005B082000C0001C
:100A100042084304031D0D2D0E2D122D6E1D112DA8
:100A2000122D162DFF30C007FF30C13D1F30CC0006
:100A30000030CD002200BF01862DFF302000CC0702
:100A4000FF30CD3D0A30A000A101A201A301A40105
:100A5000A501A601A7014408A8004508A900460869
:100A6000AA004708AB004808AC004908AD004A0896
:100A7000AE004B08AF008231AB2284312000210848
:100A8000F4002008F3008E31662684317308303E6E
:100A90002000B8004C08203E86000130870038084E
:100AA0008100FF30BE07FF30BF3DFF30C007FF3081
:100AB000C13D0A30A000A101A201A301A401A5012A
:100AC000A601A7014408A8004508A9004608AA00F5
:100AD0004708AB004808AC004908AD004A08AE0022
:100AE0004B08AF0083319523843120002008C400D7
:100AF0002108C5002208C6002308C7002408C80032
:100B00002508C9002608CA002708CB0020004D0888
:100B1000803AB80080303802031D902D01304C021D
:100B2000031C932D942DC12D200044084504460438
:100B30004704480449044A044B04031DA02DA12D79
:100B40001D2D3F08803AB80080303802031DAA2DC1
:100B500001303E020318AD2DAE2D1D2D20004108A1
:100B6000803AB80080303802031DB82D01304002B1
:100B7000031CBB2DBC2DC12D2000EE18C02DC12D96
:100B80001D2D200042084304031DC72DC82DCC2D68
:100B90006E1DCB2DCC2DE82DFF30CC07FF30CD3D89
:100BA00042084304031DD52DD62DDB2D2B30BB0071
:100BB0000030BC00DF2D2D30BB000030BC003B08F6
:100BC000B8004C08203E86000130870038088100BC
:100BD0004C08203EB8003808A4004108A600400890
:100BE000A5003D0881311B21843120002508B1007A
:100BF0002408B00008008E31422685318F31152738
:100C00008531112EFF30C7000030C800272EED308F
:100C1000C7000130C800272EA430C7000130C8002B
:100C2000272E0030840090308500003F2100A9006D
:100C3000013FAA002A08003A03191F2E0C2E29088A
:100C4000013A0319022E033A0319072E0C2EC9018B
:100C5000CA01F70100308F31822785311E30F7003D
:100C60009030F8008F315C27853102302100CD00B3
:100C70000030CE008B2E01302100C5000030C600B0
:100C80000230CB000030CC00602E21004C08F10077
:100C90004B08F0004E08F3004D08F2008031C820E8
:100CA000853170087104031D562E572E5B2E2100CE
:100CB000C501C6017A2E01302100CB070030CC3DA2
:100CC0000230F0000030F1004E08F3004D08F20051
:100CD0008131712185317108803A2100A9004C08C9
:100CE000803A2902031D762E4B0870020318792ED4
:100CF0007A2E452E210045034604031D802E812EA9
:100D0000872E4D084907C9004E084A3DCA000130E8
:100D1000CD070030CE3D4808803AA9004E08803A01
:100D20002902031D952E4D0847020318982E992E6F
:100D30003B2E30302000E6009030E70021004A08CA
:100D40002000E900210049082000E800AF308F3181
:100D500038278531F701F70A00308F318227853136
:100D6000AF30F7000030F8008F315C27853102305A
:100D70002100AA00E730A9000030890BBD2EA90B85
:100D8000BD2EAA0BBD2E00008E314C268531F701F9
:100D900000308F31822785311330F7009030F80012
:100DA0008F315C27853121004A08CE004908CD00EB
:100DB00021004E08FA004D08F90080313D208531B0
:100DC0007A082100D0007908CF005008CE004F08E3
:100DD000CD005008803AA90080302902031DF22E70
:100DE0000B304F020318F52EF62ED82E303020008F
:100DF000E6009030E700210050082000E9002100C3
:100E00004F082000E800AF308F3138278531F701D7
:100E1000F70A00308F3182278531AF30F70000307C
:100E2000F8008F315C27853102302100AA00E730BD
:100E3000A9000030890B1A2FA90B1A2FAA0B1A2F01
:100E400000008E314C268531F70100308F3182272A
:100E500085312830F7009030F8008F315C278531DC
:100E6000BD3086000030870008302100A900003026
:100E70001E00A90B382FCB01CC01612F01302100BE
:100E80004F05A90000305005AA004B35BD3E860035
:100E900087012908C03F2A08C13F0230F000003016
:100EA000F1005008F3004F08F200813171218531C3
:100EB00071082100D0007008CF000130CB0700304E
:100EC000CC3D5008803AA90080302902031D6A2FCA
:100ED00001304F0203186D2F6E2F3E2F2100440862
:100EE000F1004308F000E830F2000330F3008E31E7
:100EF000D626853170082100A9007108AA00420891
:100F0000F1004108F0006430F2000030F3008E314F
:100F1000D6268531700821002907AB0071082A3DCB
:100F2000AC004008F1003F08F0000A30F200003049
:100F3000F3008E31D6268531700821002B07AD00D5
:100F400071082C3DAE003D082D07B9003E082E3D2E
:100F5000BA00BB01BA1BBB033B08BC003030200009
:100F6000E6009030E70021003C082000EB00210063
:100F70003B082000EA0021003A082000E900210097
:100F800039082000E800AF308F3138278531F7016C
:100F9000F70A00308F3182278531AF30F7000030FB
:100FA000F8008F315C278531D42F803102283C3006
:100FB00084008E30850021001200DD001200DE006A
:100FC0001200DF001200E0001200E1001200E20057
:100FD0002000EC01ED01EE01EF01D1308400003082
:100FE00085000C308E313626873120308400013068
:100FF000850020308E313626873120008531FB2D4B
:101C64001630210097000800640080010131890BBF
:101C7400372E0034A4340134ED340134FF340034FD
:101C84008F31D2278E31803105208E318E3132262C
:101C94008E310800F70100308F3182278E310230F7
:101CA400F7009030F8008F315C278E31F701F70A86
:101CB40000308F3182278E310230F7009030F800E7
:101CC4008F315C278E3108007408803AF50080302B
:101CD4007502031D6F2E013073020318722E732ECA
:101CE4007F2E7309F5007409F600F50A0319F60A44
:101CF4007508F3007608F4007F2E0800F4007408D9
:101D0400F2007208F3008A2E0130F2007208F40720
:101D140074088600013087000108031D922E932E5B
:101D2400862E73087402F000F101F01BF103080021
:101D3400F600D030890B9C2E0000F001F00A7608E2
:101D44008E31F5268E317608F4000330F435FF3EEB
:101D5400031DA82E7435F5007508F600F001F00A8D
:101D640076088E31F5268E310800F600D030890BC6
:101D7400B92E0000F00176088E31F5268E317608F2
:101D8400F4000330F435FF3E031DC42E7435F50012
:101D94007508F6002930890BCD2E0032F001760843
:101DA4008E31F5268E310800F401F501701CDB2E0E
:101DB400DC2EE02E7208F4077308F53D0130F2358D
:101DC400F30D890BE12E0130F136F00C890BE62E70
:101DD40070087104031DEF2EF02ED82E7508F10043
:101DE4007408F0000800F3007308F1000430F136C1
:101DF400890BF92E7108F2007208F30073080F3989
:101E0400F1007108F30020000D08F0398D000D0871
:101E140073048D00700C031C8D1203188D160D13A2
:101E24000D160D12080020008D0121008D012000E7
:101E34008D170330F7006E30890B1E2FF70B1E2F02
:101E4400000032308E31B7268F3128308E31B726DC
:101E54008F310C308E31B7268F3101308E31B72659
:101E64008F3106308E31B7268F3108002100A30050
:101E74006830FD007D08A2002308FD007D08A40051
:101E8400A501A601A701A80120006708DF006608D4
:101E9400DE00A230FD007D08E000A43080310C207B
:101EA4008F31210025082307FD007D088600870166
:101EB40081010800FC01712F7808FA007708F90005
:101EC4007C08790784007A0803187A0A85000008D8
:101ED4008E319A268F310130F9007908FC07780891
:101EE400FA007708F9007C08790784007A08031857
:101EF4007A0A85001200031D802F812F5E2F0800AF
:101F0400FA00023077020318882F892FA82F103087
:101F14007A02031C8E2F8F2F902FA82F770303197B
:101F2400942F952F9B2F80307A04F8000030F9000D
:101F3400A02FC0307A04F8000030F90078088E3100
:101F4400B7268F31D030890BA52F00000800200060
:101F5400A300A101A201C12F2008F900FA01790808
:101F6400F0007A08F1007808FB007B08F200803169
:101F740079208F3101302000A1070030A23D2108D3
:101F84002307F90079088600013087000108FA0068
:101F94007A08A0002008031DD02FD12FAE2F0800EF
:101FA40022008C018D018E01083021009000FF3049
:101FB4008C008D01FF308E00FC3023008E008D01DB
:101FC4003F308C00240090018D018C018E01210092
:101FD400951725008C018D018E01FF3026008C00A1
:101FE400FF308D00FF308E00FF3027008C00FF3063
:101FF4008D00FF308E00083090000800013400345A
:10200400203420342034203420342034203420342C
:10201400203420342034203420342034203420341C
:102024000034733475346D3444346934673469343A
:10203400743473343D340034733475346D34503433
:10204400723469346D3465343D3400344234693457
:102054006E346134723479343D340034253464345C
:02206400003446
:020000040001F9
:04000E00E43FFF3E8E
:00000001FF
